{
	"data": {
		"bytecode": {
			"linkReferences": {},
			"object": "60056101e081815264243ab6b0b760d91b610200526080908152600d6102209081526c5468657269616e7468726f706560981b6102405260a05260036102609081526222b63360e91b6102805260c0526102a082815264223bb0b93360d91b6102c05260e05260076102e08181526656616d7069726560c81b6103005261010052610320818152664d6572666f6c6b60c81b6103405261012052600961036090815268111c9859dbdb995ddd60ba1b61038052610140526103a083815264105b99d95b60da1b6103c052610160526103e0928352642232b6b7b760d91b61040052610180929092526104208281526626b7b739ba32b960c91b610440526101a0526104a0604052610460918252662ab735b737bbb760c91b610480526101c0919091526200013290600c90600b620004ec565b5060405180608001604052806040518060400160405280600681526020016546656d616c6560d01b8152508152602001604051806040016040528060048152602001634d616c6560e01b81525081526020016040518060400160405280600d81526020016c4865726d617068726f6469746560981b8152508152602001604051806040016040528060078152602001662ab735b737bbb760c91b815250815250600d906004620001e492919062000550565b506040805160c081018252600a60808201908152694869676820436c61737360b01b60a0830152815281518083018352600c81526b4d6964646c6520436c61737360a01b602082810191909152808301919091528251808401845260098152684c6f7720436c61737360b81b8183015282840152825180840190935260078352662ab735b737bbb760c91b9083015260608101919091526200028b90600e90600462000550565b50604080516101a0810182526007610160820181815266536572696f757360c81b610180840152825282518084018452600980825268467269766f6c6f757360b81b6020838101919091528085019290925284518086018652600a8082526950617373696f6e61746560b01b828501528587019190915285518087018752600481526310dbdbdb60e21b818501526060860152855180870187528281526810dbdb999a59195b9d60ba1b8185015260808601528551808701875291825268111a59999a59195b9d60ba1b8284015260a085019190915284518086018652908152694f7074696d697374696360b01b8183015260c084015283518085018552600b8082526a50657373696d697374696360a81b8284015260e08501919091528451808601865260058152640a4deeaced60db1b8184015261010085015284518086018652600681526547656e746c6560d01b818401526101208501528451808601909552918452662ab735b737bbb760c91b908401526101408201929092526200041891600f9190620004ec565b503480156200042657600080fd5b50604080518082018252600980825268105b9a5b59531bdbdd60ba1b6020808401828152855180870190965292855284015281519192916200046b91600091620005a2565b50805162000481906001906020840190620005a2565b50506001600a555062000494336200049a565b620006e4565b600b80546001600160a01b038381166001600160a01b0319831681179093556040519116919082907f8be0079c531659141344cd1fd0a4f28419497f9722a3daafe3b4186f6b6457e090600090a35050565b8280548282559060005260206000209081019282156200053e579160200282015b828111156200053e57825180516200052d918491602090910190620005a2565b50916020019190600101906200050d565b506200054c9291506200062d565b5090565b8280548282559060005260206000209081019282156200053e579160200282015b828111156200053e578251805162000591918491602090910190620005a2565b509160200191906001019062000571565b828054620005b090620006a7565b90600052602060002090601f016020900481019282620005d457600085556200061f565b82601f10620005ef57805160ff19168380011785556200061f565b828001600101855582156200061f579182015b828111156200061f57825182559160200191906001019062000602565b506200054c9291506200064e565b808211156200054c57600062000644828262000665565b506001016200062d565b5b808211156200054c57600081556001016200064f565b5080546200067390620006a7565b6000825580601f1062000684575050565b601f016020900490600052602060002090810190620006a491906200064e565b50565b600181811c90821680620006bc57607f821691505b60208210811415620006de57634e487b7160e01b600052602260045260246000fd5b50919050565b612d2880620006f46000396000f3fe608060405234801561001057600080fd5b50600436106101a35760003560e01c80634f6ccce7116100ee57806395d89b4111610097578063c87b56dd11610071578063c87b56dd1461034f578063e6e5283914610362578063e985e9c514610375578063f2fde38b146103b157600080fd5b806395d89b4114610321578063a22cb46514610329578063b88d4fde1461033c57600080fd5b8063715018a6116100c8578063715018a6146102f557806378efeb25146102fd5780638da5cb5b1461031057600080fd5b80634f6ccce7146102bc5780636352211e146102cf57806370a08231146102e257600080fd5b806323b872dd11610150578063379607f51161012a578063379607f51461028357806342842e0e14610296578063434f48c4146102a957600080fd5b806323b872dd1461024a5780632be6a2a91461025d5780632f745c591461027057600080fd5b8063095ea7b311610181578063095ea7b31461021057806318160ddd146102255780631ade97f71461023757600080fd5b806301ffc9a7146101a857806306fdde03146101d0578063081812fc146101e5575b600080fd5b6101bb6101b6366004612507565b6103c4565b60405190151581526020015b60405180910390f35b6101d8610408565b6040516101c79190612906565b6101f86101f3366004612541565b61049a565b6040516001600160a01b0390911681526020016101c7565b61022361021e3660046124dd565b610534565b005b6008545b6040519081526020016101c7565b6101d8610245366004612541565b610666565b610223610258366004612389565b610779565b6101d861026b366004612541565b610800565b61022961027e3660046124dd565b61090a565b610223610291366004612541565b6109b2565b6102236102a4366004612389565b610a79565b6102236102b7366004612541565b610a94565b6102296102ca366004612541565b610bb9565b6101f86102dd366004612541565b610c5d565b6102296102f0366004612334565b610ce8565b610223610d82565b6101d861030b366004612541565b610de8565b600b546001600160a01b03166101f8565b6101d8610ef2565b6102236103373660046124a1565b610f01565b61022361034a3660046123c5565b610fc6565b6101d861035d366004612541565b611054565b6101d8610370366004612541565b611330565b6101bb610383366004612356565b6001600160a01b03918216600090815260056020908152604080832093909416825291909152205460ff1690565b6102236103bf366004612334565b61143a565b60006001600160e01b031982167f780e9d6300000000000000000000000000000000000000000000000000000000148061040257506104028261151c565b92915050565b606060008054610417906129a7565b80601f0160208091040260200160405190810160405280929190818152602001828054610443906129a7565b80156104905780601f1061046557610100808354040283529160200191610490565b820191906000526020600020905b81548152906001019060200180831161047357829003601f168201915b5050505050905090565b6000818152600260205260408120546001600160a01b03166105185760405162461bcd60e51b815260206004820152602c60248201527f4552433732313a20617070726f76656420717565727920666f72206e6f6e657860448201526b34b9ba32b73a103a37b5b2b760a11b60648201526084015b60405180910390fd5b506000908152600460205260409020546001600160a01b031690565b600061053f82610c5d565b9050806001600160a01b0316836001600160a01b031614156105c95760405162461bcd60e51b815260206004820152602160248201527f4552433732313a20617070726f76616c20746f2063757272656e74206f776e6560448201527f7200000000000000000000000000000000000000000000000000000000000000606482015260840161050f565b336001600160a01b03821614806105e557506105e58133610383565b6106575760405162461bcd60e51b815260206004820152603860248201527f4552433732313a20617070726f76652063616c6c6572206973206e6f74206f7760448201527f6e6572206e6f7220617070726f76656420666f7220616c6c0000000000000000606482015260840161050f565b61066183836115b7565b505050565b6060610402826040518060400160405280600b81526020017f504552534f4e414c495459000000000000000000000000000000000000000000815250600f805480602002602001604051908101604052809291908181526020016000905b828210156107705783829060005260206000200180546106e3906129a7565b80601f016020809104026020016040519081016040528092919081815260200182805461070f906129a7565b801561075c5780601f106107315761010080835404028352916020019161075c565b820191906000526020600020905b81548152906001019060200180831161073f57829003601f168201915b5050505050815260200190600101906106c4565b50505050611632565b61078333826116a0565b6107f55760405162461bcd60e51b815260206004820152603160248201527f4552433732313a207472616e736665722063616c6c6572206973206e6f74206f60448201527f776e6572206e6f7220617070726f766564000000000000000000000000000000606482015260840161050f565b610661838383611797565b6060610402826040518060400160405280600781526020017f5350454349455300000000000000000000000000000000000000000000000000815250600c805480602002602001604051908101604052809291908181526020016000905b8282101561077057838290600052602060002001805461087d906129a7565b80601f01602080910402602001604051908101604052809291908181526020018280546108a9906129a7565b80156108f65780601f106108cb576101008083540402835291602001916108f6565b820191906000526020600020905b8154815290600101906020018083116108d957829003601f168201915b50505050508152602001906001019061085e565b600061091583610ce8565b82106109895760405162461bcd60e51b815260206004820152602b60248201527f455243373231456e756d657261626c653a206f776e657220696e646578206f7560448201527f74206f6620626f756e6473000000000000000000000000000000000000000000606482015260840161050f565b506001600160a01b03919091166000908152600660209081526040808320938352929052205490565b6002600a541415610a055760405162461bcd60e51b815260206004820152601f60248201527f5265656e7472616e637947756172643a207265656e7472616e742063616c6c00604482015260640161050f565b6002600a558015801590610a1a5750611e6281105b610a665760405162461bcd60e51b815260206004820152601060248201527f546f6b656e20494420696e76616c696400000000000000000000000000000000604482015260640161050f565b610a71335b8261197c565b506001600a55565b61066183838360405180602001604052806000815250610fc6565b6002600a541415610ae75760405162461bcd60e51b815260206004820152601f60248201527f5265656e7472616e637947756172643a207265656e7472616e742063616c6c00604482015260640161050f565b6002600a55600b546001600160a01b03163314610b465760405162461bcd60e51b815260206004820181905260248201527f4f776e61626c653a2063616c6c6572206973206e6f7420746865206f776e6572604482015260640161050f565b611e6181118015610b585750611f4181105b610ba45760405162461bcd60e51b815260206004820152601060248201527f546f6b656e20494420696e76616c696400000000000000000000000000000000604482015260640161050f565b610a71610a6b600b546001600160a01b031690565b6000610bc460085490565b8210610c385760405162461bcd60e51b815260206004820152602c60248201527f455243373231456e756d657261626c653a20676c6f62616c20696e646578206f60448201527f7574206f6620626f756e64730000000000000000000000000000000000000000606482015260840161050f565b60088281548110610c4b57610c4b612a53565b90600052602060002001549050919050565b6000818152600260205260408120546001600160a01b0316806104025760405162461bcd60e51b815260206004820152602960248201527f4552433732313a206f776e657220717565727920666f72206e6f6e657869737460448201527f656e7420746f6b656e0000000000000000000000000000000000000000000000606482015260840161050f565b60006001600160a01b038216610d665760405162461bcd60e51b815260206004820152602a60248201527f4552433732313a2062616c616e636520717565727920666f7220746865207a6560448201527f726f206164647265737300000000000000000000000000000000000000000000606482015260840161050f565b506001600160a01b031660009081526003602052604090205490565b600b546001600160a01b03163314610ddc5760405162461bcd60e51b815260206004820181905260248201527f4f776e61626c653a2063616c6c6572206973206e6f7420746865206f776e6572604482015260640161050f565b610de6600061199a565b565b6060610402826040518060400160405280600381526020017f5345580000000000000000000000000000000000000000000000000000000000815250600d805480602002602001604051908101604052809291908181526020016000905b82821015610770578382906000526020600020018054610e65906129a7565b80601f0160208091040260200160405190810160405280929190818152602001828054610e91906129a7565b8015610ede5780601f10610eb357610100808354040283529160200191610ede565b820191906000526020600020905b815481529060010190602001808311610ec157829003601f168201915b505050505081526020019060010190610e46565b606060018054610417906129a7565b6001600160a01b038216331415610f5a5760405162461bcd60e51b815260206004820152601960248201527f4552433732313a20617070726f766520746f2063616c6c657200000000000000604482015260640161050f565b3360008181526005602090815260408083206001600160a01b03871680855290835292819020805460ff191686151590811790915590519081529192917f17307eab39ab6107e8899845ad3d59bd9653f200f220920489ca2b5937696c31910160405180910390a35050565b610fd033836116a0565b6110425760405162461bcd60e51b815260206004820152603160248201527f4552433732313a207472616e736665722063616c6c6572206973206e6f74206f60448201527f776e6572206e6f7220617070726f766564000000000000000000000000000000606482015260840161050f565b61104e848484846119f9565b50505050565b606061105e6122f0565b6040518061014001604052806101018152602001612a966101019139815261108583610800565b8160016020020181905250604051806060016040528060288152602001612ccb6028913960408201526110b783610de8565b6060808301919091526040805191820190526028808252612b97602083013960808201526110e483611330565b60a082015260408051606081019091526028808252612c11602083013960c082015261110f83610666565b60e082015260408051606081019091526029808252612c396020830139610100820152604080516020808201835260008252610120840191909152815160608101909252602980835290612be890830139610140820152604080516020808201835260008252610160840191909152815160608101909252602980835290612c62908301396101808201526040805160208082018352600082526101a0840191909152815160608101909252602980835290612bbf908301396101c08201526040805160208082018352600082526101e08401919091528151808301909252600d82527f3c2f746578743e3c2f7376673e0000000000000000000000000000000000000090820152816010602090810291909101919091528151828201516040808501516060860151608087015160a088015160c089015160e08a01516101008b0151965160009a6112649a999891016125ed565b60408051808303601f19018152908290526101208401516101408501516101608601516101808701516101a08801516101c08901516101e08a01516102008b01519799506112b7988a98906020016125ed565b604051602081830303815290604052905060006113046112d686611a77565b6112df84611ba9565b6040516020016112f09291906126af565b604051602081830303815290604052611ba9565b9050806040516020016113179190612885565b60408051601f1981840301815291905295945050505050565b6060610402826040518060400160405280600881526020017f4845524954414745000000000000000000000000000000000000000000000000815250600e805480602002602001604051908101604052809291908181526020016000905b828210156107705783829060005260206000200180546113ad906129a7565b80601f01602080910402602001604051908101604052809291908181526020018280546113d9906129a7565b80156114265780601f106113fb57610100808354040283529160200191611426565b820191906000526020600020905b81548152906001019060200180831161140957829003601f168201915b50505050508152602001906001019061138e565b600b546001600160a01b031633146114945760405162461bcd60e51b815260206004820181905260248201527f4f776e61626c653a2063616c6c6572206973206e6f7420746865206f776e6572604482015260640161050f565b6001600160a01b0381166115105760405162461bcd60e51b815260206004820152602660248201527f4f776e61626c653a206e6577206f776e657220697320746865207a65726f206160448201527f6464726573730000000000000000000000000000000000000000000000000000606482015260840161050f565b6115198161199a565b50565b60006001600160e01b031982167f80ac58cd00000000000000000000000000000000000000000000000000000000148061157f57506001600160e01b031982167f5b5e139f00000000000000000000000000000000000000000000000000000000145b8061040257507f01ffc9a7000000000000000000000000000000000000000000000000000000006001600160e01b0319831614610402565b6000818152600460205260409020805473ffffffffffffffffffffffffffffffffffffffff19166001600160a01b03841690811790915581906115f982610c5d565b6001600160a01b03167f8c5be1e5ebec7d5bd14f71427d1e84f3dd0314c0f7b2291e5b200ac8c7c3b92560405160405180910390a45050565b606060006116688461164387611a77565b6040516020016116549291906125be565b604051602081830303815290604052611d46565b905060008384518361167a91906129fd565b8151811061168a5761168a612a53565b6020026020010151905080925050509392505050565b6000818152600260205260408120546001600160a01b03166117195760405162461bcd60e51b815260206004820152602c60248201527f4552433732313a206f70657261746f7220717565727920666f72206e6f6e657860448201526b34b9ba32b73a103a37b5b2b760a11b606482015260840161050f565b600061172483610c5d565b9050806001600160a01b0316846001600160a01b0316148061175f5750836001600160a01b03166117548461049a565b6001600160a01b0316145b8061178f57506001600160a01b0380821660009081526005602090815260408083209388168352929052205460ff165b949350505050565b826001600160a01b03166117aa82610c5d565b6001600160a01b0316146118265760405162461bcd60e51b815260206004820152602960248201527f4552433732313a207472616e73666572206f6620746f6b656e2074686174206960448201527f73206e6f74206f776e0000000000000000000000000000000000000000000000606482015260840161050f565b6001600160a01b0382166118a15760405162461bcd60e51b8152602060048201526024808201527f4552433732313a207472616e7366657220746f20746865207a65726f2061646460448201527f7265737300000000000000000000000000000000000000000000000000000000606482015260840161050f565b6118ac838383611d77565b6118b76000826115b7565b6001600160a01b03831660009081526003602052604081208054600192906118e0908490612964565b90915550506001600160a01b038216600090815260036020526040812080546001929061190e908490612919565b9091555050600081815260026020526040808220805473ffffffffffffffffffffffffffffffffffffffff19166001600160a01b0386811691821790925591518493918716917fddf252ad1be2c89b69c2b068fc378daa952ba7f163c4a11628f55a4df523b3ef91a4505050565b611996828260405180602001604052806000815250611e2f565b5050565b600b80546001600160a01b0383811673ffffffffffffffffffffffffffffffffffffffff19831681179093556040519116919082907f8be0079c531659141344cd1fd0a4f28419497f9722a3daafe3b4186f6b6457e090600090a35050565b611a04848484611797565b611a1084848484611ead565b61104e5760405162461bcd60e51b815260206004820152603260248201527f4552433732313a207472616e7366657220746f206e6f6e20455243373231526560448201527131b2b4bb32b91034b6b83632b6b2b73a32b960711b606482015260840161050f565b606081611ab757505060408051808201909152600181527f3000000000000000000000000000000000000000000000000000000000000000602082015290565b8160005b8115611ae15780611acb816129e2565b9150611ada9050600a83612931565b9150611abb565b60008167ffffffffffffffff811115611afc57611afc612a69565b6040519080825280601f01601f191660200182016040528015611b26576020820181803683370190505b5090505b841561178f57611b3b600183612964565b9150611b48600a866129fd565b611b53906030612919565b60f81b818381518110611b6857611b68612a53565b60200101907effffffffffffffffffffffffffffffffffffffffffffffffffffffffffffff1916908160001a905350611ba2600a86612931565b9450611b2a565b805160609080611bc9575050604080516020810190915260008152919050565b60006003611bd8836002612919565b611be29190612931565b611bed906004612945565b90506000611bfc826020612919565b67ffffffffffffffff811115611c1457611c14612a69565b6040519080825280601f01601f191660200182016040528015611c3e576020820181803683370190505b5090506000604051806060016040528060408152602001612c8b604091399050600181016020830160005b86811015611cca576003818a01810151603f601282901c8116860151600c83901c8216870151600684901c831688015192909316870151600891821b60ff94851601821b92841692909201901b91160160e01b835260049092019101611c69565b506003860660018114611ce45760028114611d1057611d38565b7f3d3d000000000000000000000000000000000000000000000000000000000000600119830152611d38565b7f3d000000000000000000000000000000000000000000000000000000000000006000198301525b505050918152949350505050565b600081604051602001611d5991906125a2565b60408051601f19818403018152919052805160209091012092915050565b6001600160a01b038316611dd257611dcd81600880546000838152600960205260408120829055600182018355919091527ff3f7a9fe364faab93b216da50a3214154f22a0a2b415b23a84c8169e8b636ee30155565b611df5565b816001600160a01b0316836001600160a01b031614611df557611df58382612005565b6001600160a01b038216611e0c57610661816120a2565b826001600160a01b0316826001600160a01b031614610661576106618282612151565b611e398383612195565b611e466000848484611ead565b6106615760405162461bcd60e51b815260206004820152603260248201527f4552433732313a207472616e7366657220746f206e6f6e20455243373231526560448201527131b2b4bb32b91034b6b83632b6b2b73a32b960711b606482015260840161050f565b60006001600160a01b0384163b15611ffa57604051630a85bd0160e11b81526001600160a01b0385169063150b7a0290611ef19033908990889088906004016128ca565b602060405180830381600087803b158015611f0b57600080fd5b505af1925050508015611f3b575060408051601f3d908101601f19168201909252611f3891810190612524565b60015b611fe0573d808015611f69576040519150601f19603f3d011682016040523d82523d6000602084013e611f6e565b606091505b508051611fd85760405162461bcd60e51b815260206004820152603260248201527f4552433732313a207472616e7366657220746f206e6f6e20455243373231526560448201527131b2b4bb32b91034b6b83632b6b2b73a32b960711b606482015260840161050f565b805181602001fd5b6001600160e01b031916630a85bd0160e11b14905061178f565b506001949350505050565b6000600161201284610ce8565b61201c9190612964565b60008381526007602052604090205490915080821461206f576001600160a01b03841660009081526006602090815260408083208584528252808320548484528184208190558352600790915290208190555b5060009182526007602090815260408084208490556001600160a01b039094168352600681528383209183525290812055565b6008546000906120b490600190612964565b600083815260096020526040812054600880549394509092849081106120dc576120dc612a53565b9060005260206000200154905080600883815481106120fd576120fd612a53565b600091825260208083209091019290925582815260099091526040808220849055858252812055600880548061213557612135612a3d565b6001900381819060005260206000200160009055905550505050565b600061215c83610ce8565b6001600160a01b039093166000908152600660209081526040808320868452825280832085905593825260079052919091209190915550565b6001600160a01b0382166121eb5760405162461bcd60e51b815260206004820181905260248201527f4552433732313a206d696e7420746f20746865207a65726f2061646472657373604482015260640161050f565b6000818152600260205260409020546001600160a01b0316156122505760405162461bcd60e51b815260206004820152601c60248201527f4552433732313a20746f6b656e20616c7265616479206d696e74656400000000604482015260640161050f565b61225c60008383611d77565b6001600160a01b0382166000908152600360205260408120805460019290612285908490612919565b9091555050600081815260026020526040808220805473ffffffffffffffffffffffffffffffffffffffff19166001600160a01b03861690811790915590518392907fddf252ad1be2c89b69c2b068fc378daa952ba7f163c4a11628f55a4df523b3ef908290a45050565b6040518061022001604052806011905b60608152602001906001900390816123005790505090565b80356001600160a01b038116811461232f57600080fd5b919050565b60006020828403121561234657600080fd5b61234f82612318565b9392505050565b6000806040838503121561236957600080fd5b61237283612318565b915061238060208401612318565b90509250929050565b60008060006060848603121561239e57600080fd5b6123a784612318565b92506123b560208501612318565b9150604084013590509250925092565b600080600080608085870312156123db57600080fd5b6123e485612318565b93506123f260208601612318565b925060408501359150606085013567ffffffffffffffff8082111561241657600080fd5b818701915087601f83011261242a57600080fd5b81358181111561243c5761243c612a69565b604051601f8201601f19908116603f0116810190838211818310171561246457612464612a69565b816040528281528a602084870101111561247d57600080fd5b82602086016020830137600060208483010152809550505050505092959194509250565b600080604083850312156124b457600080fd5b6124bd83612318565b9150602083013580151581146124d257600080fd5b809150509250929050565b600080604083850312156124f057600080fd5b6124f983612318565b946020939093013593505050565b60006020828403121561251957600080fd5b813561234f81612a7f565b60006020828403121561253657600080fd5b815161234f81612a7f565b60006020828403121561255357600080fd5b5035919050565b6000815180845261257281602086016020860161297b565b601f01601f19169290920160200192915050565b6000815161259881856020860161297b565b9290920192915050565b600082516125b481846020870161297b565b9190910192915050565b600083516125d081846020880161297b565b8351908301906125e481836020880161297b565b01949350505050565b60008a516125ff818460208f0161297b565b8a5190830190612613818360208f0161297b565b8a516126258183850160208f0161297b565b8a5192909101019061263b818360208d0161297b565b885161264d8183850160208d0161297b565b8851929091010190612663818360208b0161297b565b86516126758183850160208b0161297b565b865192909101019061268b81836020890161297b565b845161269d818385016020890161297b565b9101019b9a5050505050505050505050565b7f7b226e616d65223a2022416e696d6520436861726163746572202300000000008152600083516126e781601b85016020880161297b565b7f222c20226465736372697074696f6e223a2022416e696d654c6f6f7420697320601b918401918201527f72616e646f6d697a656420616e696d6520636861726163746572732067656e65603b8201527f726174656420616e642073746f726564206f6e20636861696e2e204f74686572605b8201527f206665617475726573206f662074686520636861726163746572732061726520607b8201527f696e74656e74696f6e616c6c79206f6d697474656420666f72206f7468657273609b8201527f20746f20696e746572707265742e204665656c206672656520746f207573652060bb8201527f416e696d654c6f6f7420696e20616e792077617920796f752077616e742e222c60db8201527f2022696d616765223a2022646174613a696d6167652f7376672b786d6c3b626160fb8201527f736536342c00000000000000000000000000000000000000000000000000000061011b82015261287c612853610120830186612586565b7f227d000000000000000000000000000000000000000000000000000000000000815260020190565b95945050505050565b7f646174613a6170706c69636174696f6e2f6a736f6e3b6261736536342c0000008152600082516128bd81601d85016020870161297b565b91909101601d0192915050565b60006001600160a01b038087168352808616602084015250836040830152608060608301526128fc608083018461255a565b9695505050505050565b60208152600061234f602083018461255a565b6000821982111561292c5761292c612a11565b500190565b60008261294057612940612a27565b500490565b600081600019048311821515161561295f5761295f612a11565b500290565b60008282101561297657612976612a11565b500390565b60005b8381101561299657818101518382015260200161297e565b8381111561104e5750506000910152565b600181811c908216806129bb57607f821691505b602082108114156129dc57634e487b7160e01b600052602260045260246000fd5b50919050565b60006000198214156129f6576129f6612a11565b5060010190565b600082612a0c57612a0c612a27565b500690565b634e487b7160e01b600052601160045260246000fd5b634e487b7160e01b600052601260045260246000fd5b634e487b7160e01b600052603160045260246000fd5b634e487b7160e01b600052603260045260246000fd5b634e487b7160e01b600052604160045260246000fd5b6001600160e01b03198116811461151957600080fdfe3c73766720786d6c6e733d22687474703a2f2f7777772e77332e6f72672f323030302f73766722207072657365727665417370656374526174696f3d22784d696e594d696e206d656574222076696577426f783d223020302033353020333530223e3c7374796c653e2e62617365207b2066696c6c3a20233030303030303b20666f6e742d66616d696c793a2073657269663b20666f6e742d73697a653a20313470783b207d3c2f7374796c653e3c726563742077696474683d223130302522206865696768743d2231303025222066696c6c3d222346464631303022202f3e3c7465787420783d2231302220793d2232302220636c6173733d2262617365223e3c2f746578743e3c7465787420783d2231302220793d2236302220636c6173733d2262617365223e3c2f746578743e3c7465787420783d2231302220793d223136302220636c6173733d2262617365223e3c2f746578743e3c7465787420783d2231302220793d223132302220636c6173733d2262617365223e3c2f746578743e3c7465787420783d2231302220793d2238302220636c6173733d2262617365223e3c2f746578743e3c7465787420783d2231302220793d223130302220636c6173733d2262617365223e3c2f746578743e3c7465787420783d2231302220793d223134302220636c6173733d2262617365223e4142434445464748494a4b4c4d4e4f505152535455565758595a6162636465666768696a6b6c6d6e6f707172737475767778797a303132333435363738392b2f3c2f746578743e3c7465787420783d2231302220793d2234302220636c6173733d2262617365223ea2646970667358221220a02296ba7543fb3f1b80f1e5dc8bf930c156bed93aeedbf68bed93a801bd5e7264736f6c63430008070033",
			"opcodes": "PUSH1 0x5 PUSH2 0x1E0 DUP2 DUP2 MSTORE PUSH5 0x243AB6B0B7 PUSH1 0xD9 SHL PUSH2 0x200 MSTORE PUSH1 0x80 SWAP1 DUP2 MSTORE PUSH1 0xD PUSH2 0x220 SWAP1 DUP2 MSTORE PUSH13 0x5468657269616E7468726F7065 PUSH1 0x98 SHL PUSH2 0x240 MSTORE PUSH1 0xA0 MSTORE PUSH1 0x3 PUSH2 0x260 SWAP1 DUP2 MSTORE PUSH3 0x22B633 PUSH1 0xE9 SHL PUSH2 0x280 MSTORE PUSH1 0xC0 MSTORE PUSH2 0x2A0 DUP3 DUP2 MSTORE PUSH5 0x223BB0B933 PUSH1 0xD9 SHL PUSH2 0x2C0 MSTORE PUSH1 0xE0 MSTORE PUSH1 0x7 PUSH2 0x2E0 DUP2 DUP2 MSTORE PUSH7 0x56616D70697265 PUSH1 0xC8 SHL PUSH2 0x300 MSTORE PUSH2 0x100 MSTORE PUSH2 0x320 DUP2 DUP2 MSTORE PUSH7 0x4D6572666F6C6B PUSH1 0xC8 SHL PUSH2 0x340 MSTORE PUSH2 0x120 MSTORE PUSH1 0x9 PUSH2 0x360 SWAP1 DUP2 MSTORE PUSH9 0x111C9859DBDB995DDD PUSH1 0xBA SHL PUSH2 0x380 MSTORE PUSH2 0x140 MSTORE PUSH2 0x3A0 DUP4 DUP2 MSTORE PUSH5 0x105B99D95B PUSH1 0xDA SHL PUSH2 0x3C0 MSTORE PUSH2 0x160 MSTORE PUSH2 0x3E0 SWAP3 DUP4 MSTORE PUSH5 0x2232B6B7B7 PUSH1 0xD9 SHL PUSH2 0x400 MSTORE PUSH2 0x180 SWAP3 SWAP1 SWAP3 MSTORE PUSH2 0x420 DUP3 DUP2 MSTORE PUSH7 0x26B7B739BA32B9 PUSH1 0xC9 SHL PUSH2 0x440 MSTORE PUSH2 0x1A0 MSTORE PUSH2 0x4A0 PUSH1 0x40 MSTORE PUSH2 0x460 SWAP2 DUP3 MSTORE PUSH7 0x2AB735B737BBB7 PUSH1 0xC9 SHL PUSH2 0x480 MSTORE PUSH2 0x1C0 SWAP2 SWAP1 SWAP2 MSTORE PUSH3 0x132 SWAP1 PUSH1 0xC SWAP1 PUSH1 0xB PUSH3 0x4EC JUMP JUMPDEST POP PUSH1 0x40 MLOAD DUP1 PUSH1 0x80 ADD PUSH1 0x40 MSTORE DUP1 PUSH1 0x40 MLOAD DUP1 PUSH1 0x40 ADD PUSH1 0x40 MSTORE DUP1 PUSH1 0x6 DUP2 MSTORE PUSH1 0x20 ADD PUSH6 0x46656D616C65 PUSH1 0xD0 SHL DUP2 MSTORE POP DUP2 MSTORE PUSH1 0x20 ADD PUSH1 0x40 MLOAD DUP1 PUSH1 0x40 ADD PUSH1 0x40 MSTORE DUP1 PUSH1 0x4 DUP2 MSTORE PUSH1 0x20 ADD PUSH4 0x4D616C65 PUSH1 0xE0 SHL DUP2 MSTORE POP DUP2 MSTORE PUSH1 0x20 ADD PUSH1 0x40 MLOAD DUP1 PUSH1 0x40 ADD PUSH1 0x40 MSTORE DUP1 PUSH1 0xD DUP2 MSTORE PUSH1 0x20 ADD PUSH13 0x4865726D617068726F64697465 PUSH1 0x98 SHL DUP2 MSTORE POP DUP2 MSTORE PUSH1 0x20 ADD PUSH1 0x40 MLOAD DUP1 PUSH1 0x40 ADD PUSH1 0x40 MSTORE DUP1 PUSH1 0x7 DUP2 MSTORE PUSH1 0x20 ADD PUSH7 0x2AB735B737BBB7 PUSH1 0xC9 SHL DUP2 MSTORE POP DUP2 MSTORE POP PUSH1 0xD SWAP1 PUSH1 0x4 PUSH3 0x1E4 SWAP3 SWAP2 SWAP1 PUSH3 0x550 JUMP JUMPDEST POP PUSH1 0x40 DUP1 MLOAD PUSH1 0xC0 DUP2 ADD DUP3 MSTORE PUSH1 0xA PUSH1 0x80 DUP3 ADD SWAP1 DUP2 MSTORE PUSH10 0x4869676820436C617373 PUSH1 0xB0 SHL PUSH1 0xA0 DUP4 ADD MSTORE DUP2 MSTORE DUP2 MLOAD DUP1 DUP4 ADD DUP4 MSTORE PUSH1 0xC DUP2 MSTORE PUSH12 0x4D6964646C6520436C617373 PUSH1 0xA0 SHL PUSH1 0x20 DUP3 DUP2 ADD SWAP2 SWAP1 SWAP2 MSTORE DUP1 DUP4 ADD SWAP2 SWAP1 SWAP2 MSTORE DUP3 MLOAD DUP1 DUP5 ADD DUP5 MSTORE PUSH1 0x9 DUP2 MSTORE PUSH9 0x4C6F7720436C617373 PUSH1 0xB8 SHL DUP2 DUP4 ADD MSTORE DUP3 DUP5 ADD MSTORE DUP3 MLOAD DUP1 DUP5 ADD SWAP1 SWAP4 MSTORE PUSH1 0x7 DUP4 MSTORE PUSH7 0x2AB735B737BBB7 PUSH1 0xC9 SHL SWAP1 DUP4 ADD MSTORE PUSH1 0x60 DUP2 ADD SWAP2 SWAP1 SWAP2 MSTORE PUSH3 0x28B SWAP1 PUSH1 0xE SWAP1 PUSH1 0x4 PUSH3 0x550 JUMP JUMPDEST POP PUSH1 0x40 DUP1 MLOAD PUSH2 0x1A0 DUP2 ADD DUP3 MSTORE PUSH1 0x7 PUSH2 0x160 DUP3 ADD DUP2 DUP2 MSTORE PUSH7 0x536572696F7573 PUSH1 0xC8 SHL PUSH2 0x180 DUP5 ADD MSTORE DUP3 MSTORE DUP3 MLOAD DUP1 DUP5 ADD DUP5 MSTORE PUSH1 0x9 DUP1 DUP3 MSTORE PUSH9 0x467269766F6C6F7573 PUSH1 0xB8 SHL PUSH1 0x20 DUP4 DUP2 ADD SWAP2 SWAP1 SWAP2 MSTORE DUP1 DUP6 ADD SWAP3 SWAP1 SWAP3 MSTORE DUP5 MLOAD DUP1 DUP7 ADD DUP7 MSTORE PUSH1 0xA DUP1 DUP3 MSTORE PUSH10 0x50617373696F6E617465 PUSH1 0xB0 SHL DUP3 DUP6 ADD MSTORE DUP6 DUP8 ADD SWAP2 SWAP1 SWAP2 MSTORE DUP6 MLOAD DUP1 DUP8 ADD DUP8 MSTORE PUSH1 0x4 DUP2 MSTORE PUSH4 0x10DBDBDB PUSH1 0xE2 SHL DUP2 DUP6 ADD MSTORE PUSH1 0x60 DUP7 ADD MSTORE DUP6 MLOAD DUP1 DUP8 ADD DUP8 MSTORE DUP3 DUP2 MSTORE PUSH9 0x10DBDB999A59195B9D PUSH1 0xBA SHL DUP2 DUP6 ADD MSTORE PUSH1 0x80 DUP7 ADD MSTORE DUP6 MLOAD DUP1 DUP8 ADD DUP8 MSTORE SWAP2 DUP3 MSTORE PUSH9 0x111A59999A59195B9D PUSH1 0xBA SHL DUP3 DUP5 ADD MSTORE PUSH1 0xA0 DUP6 ADD SWAP2 SWAP1 SWAP2 MSTORE DUP5 MLOAD DUP1 DUP7 ADD DUP7 MSTORE SWAP1 DUP2 MSTORE PUSH10 0x4F7074696D6973746963 PUSH1 0xB0 SHL DUP2 DUP4 ADD MSTORE PUSH1 0xC0 DUP5 ADD MSTORE DUP4 MLOAD DUP1 DUP6 ADD DUP6 MSTORE PUSH1 0xB DUP1 DUP3 MSTORE PUSH11 0x50657373696D6973746963 PUSH1 0xA8 SHL DUP3 DUP5 ADD MSTORE PUSH1 0xE0 DUP6 ADD SWAP2 SWAP1 SWAP2 MSTORE DUP5 MLOAD DUP1 DUP7 ADD DUP7 MSTORE PUSH1 0x5 DUP2 MSTORE PUSH5 0xA4DEEACED PUSH1 0xDB SHL DUP2 DUP5 ADD MSTORE PUSH2 0x100 DUP6 ADD MSTORE DUP5 MLOAD DUP1 DUP7 ADD DUP7 MSTORE PUSH1 0x6 DUP2 MSTORE PUSH6 0x47656E746C65 PUSH1 0xD0 SHL DUP2 DUP5 ADD MSTORE PUSH2 0x120 DUP6 ADD MSTORE DUP5 MLOAD DUP1 DUP7 ADD SWAP1 SWAP6 MSTORE SWAP2 DUP5 MSTORE PUSH7 0x2AB735B737BBB7 PUSH1 0xC9 SHL SWAP1 DUP5 ADD MSTORE PUSH2 0x140 DUP3 ADD SWAP3 SWAP1 SWAP3 MSTORE PUSH3 0x418 SWAP2 PUSH1 0xF SWAP2 SWAP1 PUSH3 0x4EC JUMP JUMPDEST POP CALLVALUE DUP1 ISZERO PUSH3 0x426 JUMPI PUSH1 0x0 DUP1 REVERT JUMPDEST POP PUSH1 0x40 DUP1 MLOAD DUP1 DUP3 ADD DUP3 MSTORE PUSH1 0x9 DUP1 DUP3 MSTORE PUSH9 0x105B9A5B59531BDBDD PUSH1 0xBA SHL PUSH1 0x20 DUP1 DUP5 ADD DUP3 DUP2 MSTORE DUP6 MLOAD DUP1 DUP8 ADD SWAP1 SWAP7 MSTORE SWAP3 DUP6 MSTORE DUP5 ADD MSTORE DUP2 MLOAD SWAP2 SWAP3 SWAP2 PUSH3 0x46B SWAP2 PUSH1 0x0 SWAP2 PUSH3 0x5A2 JUMP JUMPDEST POP DUP1 MLOAD PUSH3 0x481 SWAP1 PUSH1 0x1 SWAP1 PUSH1 0x20 DUP5 ADD SWAP1 PUSH3 0x5A2 JUMP JUMPDEST POP POP PUSH1 0x1 PUSH1 0xA SSTORE POP PUSH3 0x494 CALLER PUSH3 0x49A JUMP JUMPDEST PUSH3 0x6E4 JUMP JUMPDEST PUSH1 0xB DUP1 SLOAD PUSH1 0x1 PUSH1 0x1 PUSH1 0xA0 SHL SUB DUP4 DUP2 AND PUSH1 0x1 PUSH1 0x1 PUSH1 0xA0 SHL SUB NOT DUP4 AND DUP2 OR SWAP1 SWAP4 SSTORE PUSH1 0x40 MLOAD SWAP2 AND SWAP2 SWAP1 DUP3 SWAP1 PUSH32 0x8BE0079C531659141344CD1FD0A4F28419497F9722A3DAAFE3B4186F6B6457E0 SWAP1 PUSH1 0x0 SWAP1 LOG3 POP POP JUMP JUMPDEST DUP3 DUP1 SLOAD DUP3 DUP3 SSTORE SWAP1 PUSH1 0x0 MSTORE PUSH1 0x20 PUSH1 0x0 KECCAK256 SWAP1 DUP2 ADD SWAP3 DUP3 ISZERO PUSH3 0x53E JUMPI SWAP2 PUSH1 0x20 MUL DUP3 ADD JUMPDEST DUP3 DUP2 GT ISZERO PUSH3 0x53E JUMPI DUP3 MLOAD DUP1 MLOAD PUSH3 0x52D SWAP2 DUP5 SWAP2 PUSH1 0x20 SWAP1 SWAP2 ADD SWAP1 PUSH3 0x5A2 JUMP JUMPDEST POP SWAP2 PUSH1 0x20 ADD SWAP2 SWAP1 PUSH1 0x1 ADD SWAP1 PUSH3 0x50D JUMP JUMPDEST POP PUSH3 0x54C SWAP3 SWAP2 POP PUSH3 0x62D JUMP JUMPDEST POP SWAP1 JUMP JUMPDEST DUP3 DUP1 SLOAD DUP3 DUP3 SSTORE SWAP1 PUSH1 0x0 MSTORE PUSH1 0x20 PUSH1 0x0 KECCAK256 SWAP1 DUP2 ADD SWAP3 DUP3 ISZERO PUSH3 0x53E JUMPI SWAP2 PUSH1 0x20 MUL DUP3 ADD JUMPDEST DUP3 DUP2 GT ISZERO PUSH3 0x53E JUMPI DUP3 MLOAD DUP1 MLOAD PUSH3 0x591 SWAP2 DUP5 SWAP2 PUSH1 0x20 SWAP1 SWAP2 ADD SWAP1 PUSH3 0x5A2 JUMP JUMPDEST POP SWAP2 PUSH1 0x20 ADD SWAP2 SWAP1 PUSH1 0x1 ADD SWAP1 PUSH3 0x571 JUMP JUMPDEST DUP3 DUP1 SLOAD PUSH3 0x5B0 SWAP1 PUSH3 0x6A7 JUMP JUMPDEST SWAP1 PUSH1 0x0 MSTORE PUSH1 0x20 PUSH1 0x0 KECCAK256 SWAP1 PUSH1 0x1F ADD PUSH1 0x20 SWAP1 DIV DUP2 ADD SWAP3 DUP3 PUSH3 0x5D4 JUMPI PUSH1 0x0 DUP6 SSTORE PUSH3 0x61F JUMP JUMPDEST DUP3 PUSH1 0x1F LT PUSH3 0x5EF JUMPI DUP1 MLOAD PUSH1 0xFF NOT AND DUP4 DUP1 ADD OR DUP6 SSTORE PUSH3 0x61F JUMP JUMPDEST DUP3 DUP1 ADD PUSH1 0x1 ADD DUP6 SSTORE DUP3 ISZERO PUSH3 0x61F JUMPI SWAP2 DUP3 ADD JUMPDEST DUP3 DUP2 GT ISZERO PUSH3 0x61F JUMPI DUP3 MLOAD DUP3 SSTORE SWAP2 PUSH1 0x20 ADD SWAP2 SWAP1 PUSH1 0x1 ADD SWAP1 PUSH3 0x602 JUMP JUMPDEST POP PUSH3 0x54C SWAP3 SWAP2 POP PUSH3 0x64E JUMP JUMPDEST DUP1 DUP3 GT ISZERO PUSH3 0x54C JUMPI PUSH1 0x0 PUSH3 0x644 DUP3 DUP3 PUSH3 0x665 JUMP JUMPDEST POP PUSH1 0x1 ADD PUSH3 0x62D JUMP JUMPDEST JUMPDEST DUP1 DUP3 GT ISZERO PUSH3 0x54C JUMPI PUSH1 0x0 DUP2 SSTORE PUSH1 0x1 ADD PUSH3 0x64F JUMP JUMPDEST POP DUP1 SLOAD PUSH3 0x673 SWAP1 PUSH3 0x6A7 JUMP JUMPDEST PUSH1 0x0 DUP3 SSTORE DUP1 PUSH1 0x1F LT PUSH3 0x684 JUMPI POP POP JUMP JUMPDEST PUSH1 0x1F ADD PUSH1 0x20 SWAP1 DIV SWAP1 PUSH1 0x0 MSTORE PUSH1 0x20 PUSH1 0x0 KECCAK256 SWAP1 DUP2 ADD SWAP1 PUSH3 0x6A4 SWAP2 SWAP1 PUSH3 0x64E JUMP JUMPDEST POP JUMP JUMPDEST PUSH1 0x1 DUP2 DUP2 SHR SWAP1 DUP3 AND DUP1 PUSH3 0x6BC JUMPI PUSH1 0x7F DUP3 AND SWAP2 POP JUMPDEST PUSH1 0x20 DUP3 LT DUP2 EQ ISZERO PUSH3 0x6DE JUMPI PUSH4 0x4E487B71 PUSH1 0xE0 SHL PUSH1 0x0 MSTORE PUSH1 0x22 PUSH1 0x4 MSTORE PUSH1 0x24 PUSH1 0x0 REVERT JUMPDEST POP SWAP2 SWAP1 POP JUMP JUMPDEST PUSH2 0x2D28 DUP1 PUSH3 0x6F4 PUSH1 0x0 CODECOPY PUSH1 0x0 RETURN INVALID PUSH1 0x80 PUSH1 0x40 MSTORE CALLVALUE DUP1 ISZERO PUSH2 0x10 JUMPI PUSH1 0x0 DUP1 REVERT JUMPDEST POP PUSH1 0x4 CALLDATASIZE LT PUSH2 0x1A3 JUMPI PUSH1 0x0 CALLDATALOAD PUSH1 0xE0 SHR DUP1 PUSH4 0x4F6CCCE7 GT PUSH2 0xEE JUMPI DUP1 PUSH4 0x95D89B41 GT PUSH2 0x97 JUMPI DUP1 PUSH4 0xC87B56DD GT PUSH2 0x71 JUMPI DUP1 PUSH4 0xC87B56DD EQ PUSH2 0x34F JUMPI DUP1 PUSH4 0xE6E52839 EQ PUSH2 0x362 JUMPI DUP1 PUSH4 0xE985E9C5 EQ PUSH2 0x375 JUMPI DUP1 PUSH4 0xF2FDE38B EQ PUSH2 0x3B1 JUMPI PUSH1 0x0 DUP1 REVERT JUMPDEST DUP1 PUSH4 0x95D89B41 EQ PUSH2 0x321 JUMPI DUP1 PUSH4 0xA22CB465 EQ PUSH2 0x329 JUMPI DUP1 PUSH4 0xB88D4FDE EQ PUSH2 0x33C JUMPI PUSH1 0x0 DUP1 REVERT JUMPDEST DUP1 PUSH4 0x715018A6 GT PUSH2 0xC8 JUMPI DUP1 PUSH4 0x715018A6 EQ PUSH2 0x2F5 JUMPI DUP1 PUSH4 0x78EFEB25 EQ PUSH2 0x2FD JUMPI DUP1 PUSH4 0x8DA5CB5B EQ PUSH2 0x310 JUMPI PUSH1 0x0 DUP1 REVERT JUMPDEST DUP1 PUSH4 0x4F6CCCE7 EQ PUSH2 0x2BC JUMPI DUP1 PUSH4 0x6352211E EQ PUSH2 0x2CF JUMPI DUP1 PUSH4 0x70A08231 EQ PUSH2 0x2E2 JUMPI PUSH1 0x0 DUP1 REVERT JUMPDEST DUP1 PUSH4 0x23B872DD GT PUSH2 0x150 JUMPI DUP1 PUSH4 0x379607F5 GT PUSH2 0x12A JUMPI DUP1 PUSH4 0x379607F5 EQ PUSH2 0x283 JUMPI DUP1 PUSH4 0x42842E0E EQ PUSH2 0x296 JUMPI DUP1 PUSH4 0x434F48C4 EQ PUSH2 0x2A9 JUMPI PUSH1 0x0 DUP1 REVERT JUMPDEST DUP1 PUSH4 0x23B872DD EQ PUSH2 0x24A JUMPI DUP1 PUSH4 0x2BE6A2A9 EQ PUSH2 0x25D JUMPI DUP1 PUSH4 0x2F745C59 EQ PUSH2 0x270 JUMPI PUSH1 0x0 DUP1 REVERT JUMPDEST DUP1 PUSH4 0x95EA7B3 GT PUSH2 0x181 JUMPI DUP1 PUSH4 0x95EA7B3 EQ PUSH2 0x210 JUMPI DUP1 PUSH4 0x18160DDD EQ PUSH2 0x225 JUMPI DUP1 PUSH4 0x1ADE97F7 EQ PUSH2 0x237 JUMPI PUSH1 0x0 DUP1 REVERT JUMPDEST DUP1 PUSH4 0x1FFC9A7 EQ PUSH2 0x1A8 JUMPI DUP1 PUSH4 0x6FDDE03 EQ PUSH2 0x1D0 JUMPI DUP1 PUSH4 0x81812FC EQ PUSH2 0x1E5 JUMPI JUMPDEST PUSH1 0x0 DUP1 REVERT JUMPDEST PUSH2 0x1BB PUSH2 0x1B6 CALLDATASIZE PUSH1 0x4 PUSH2 0x2507 JUMP JUMPDEST PUSH2 0x3C4 JUMP JUMPDEST PUSH1 0x40 MLOAD SWAP1 ISZERO ISZERO DUP2 MSTORE PUSH1 0x20 ADD JUMPDEST PUSH1 0x40 MLOAD DUP1 SWAP2 SUB SWAP1 RETURN JUMPDEST PUSH2 0x1D8 PUSH2 0x408 JUMP JUMPDEST PUSH1 0x40 MLOAD PUSH2 0x1C7 SWAP2 SWAP1 PUSH2 0x2906 JUMP JUMPDEST PUSH2 0x1F8 PUSH2 0x1F3 CALLDATASIZE PUSH1 0x4 PUSH2 0x2541 JUMP JUMPDEST PUSH2 0x49A JUMP JUMPDEST PUSH1 0x40 MLOAD PUSH1 0x1 PUSH1 0x1 PUSH1 0xA0 SHL SUB SWAP1 SWAP2 AND DUP2 MSTORE PUSH1 0x20 ADD PUSH2 0x1C7 JUMP JUMPDEST PUSH2 0x223 PUSH2 0x21E CALLDATASIZE PUSH1 0x4 PUSH2 0x24DD JUMP JUMPDEST PUSH2 0x534 JUMP JUMPDEST STOP JUMPDEST PUSH1 0x8 SLOAD JUMPDEST PUSH1 0x40 MLOAD SWAP1 DUP2 MSTORE PUSH1 0x20 ADD PUSH2 0x1C7 JUMP JUMPDEST PUSH2 0x1D8 PUSH2 0x245 CALLDATASIZE PUSH1 0x4 PUSH2 0x2541 JUMP JUMPDEST PUSH2 0x666 JUMP JUMPDEST PUSH2 0x223 PUSH2 0x258 CALLDATASIZE PUSH1 0x4 PUSH2 0x2389 JUMP JUMPDEST PUSH2 0x779 JUMP JUMPDEST PUSH2 0x1D8 PUSH2 0x26B CALLDATASIZE PUSH1 0x4 PUSH2 0x2541 JUMP JUMPDEST PUSH2 0x800 JUMP JUMPDEST PUSH2 0x229 PUSH2 0x27E CALLDATASIZE PUSH1 0x4 PUSH2 0x24DD JUMP JUMPDEST PUSH2 0x90A JUMP JUMPDEST PUSH2 0x223 PUSH2 0x291 CALLDATASIZE PUSH1 0x4 PUSH2 0x2541 JUMP JUMPDEST PUSH2 0x9B2 JUMP JUMPDEST PUSH2 0x223 PUSH2 0x2A4 CALLDATASIZE PUSH1 0x4 PUSH2 0x2389 JUMP JUMPDEST PUSH2 0xA79 JUMP JUMPDEST PUSH2 0x223 PUSH2 0x2B7 CALLDATASIZE PUSH1 0x4 PUSH2 0x2541 JUMP JUMPDEST PUSH2 0xA94 JUMP JUMPDEST PUSH2 0x229 PUSH2 0x2CA CALLDATASIZE PUSH1 0x4 PUSH2 0x2541 JUMP JUMPDEST PUSH2 0xBB9 JUMP JUMPDEST PUSH2 0x1F8 PUSH2 0x2DD CALLDATASIZE PUSH1 0x4 PUSH2 0x2541 JUMP JUMPDEST PUSH2 0xC5D JUMP JUMPDEST PUSH2 0x229 PUSH2 0x2F0 CALLDATASIZE PUSH1 0x4 PUSH2 0x2334 JUMP JUMPDEST PUSH2 0xCE8 JUMP JUMPDEST PUSH2 0x223 PUSH2 0xD82 JUMP JUMPDEST PUSH2 0x1D8 PUSH2 0x30B CALLDATASIZE PUSH1 0x4 PUSH2 0x2541 JUMP JUMPDEST PUSH2 0xDE8 JUMP JUMPDEST PUSH1 0xB SLOAD PUSH1 0x1 PUSH1 0x1 PUSH1 0xA0 SHL SUB AND PUSH2 0x1F8 JUMP JUMPDEST PUSH2 0x1D8 PUSH2 0xEF2 JUMP JUMPDEST PUSH2 0x223 PUSH2 0x337 CALLDATASIZE PUSH1 0x4 PUSH2 0x24A1 JUMP JUMPDEST PUSH2 0xF01 JUMP JUMPDEST PUSH2 0x223 PUSH2 0x34A CALLDATASIZE PUSH1 0x4 PUSH2 0x23C5 JUMP JUMPDEST PUSH2 0xFC6 JUMP JUMPDEST PUSH2 0x1D8 PUSH2 0x35D CALLDATASIZE PUSH1 0x4 PUSH2 0x2541 JUMP JUMPDEST PUSH2 0x1054 JUMP JUMPDEST PUSH2 0x1D8 PUSH2 0x370 CALLDATASIZE PUSH1 0x4 PUSH2 0x2541 JUMP JUMPDEST PUSH2 0x1330 JUMP JUMPDEST PUSH2 0x1BB PUSH2 0x383 CALLDATASIZE PUSH1 0x4 PUSH2 0x2356 JUMP JUMPDEST PUSH1 0x1 PUSH1 0x1 PUSH1 0xA0 SHL SUB SWAP2 DUP3 AND PUSH1 0x0 SWAP1 DUP2 MSTORE PUSH1 0x5 PUSH1 0x20 SWAP1 DUP2 MSTORE PUSH1 0x40 DUP1 DUP4 KECCAK256 SWAP4 SWAP1 SWAP5 AND DUP3 MSTORE SWAP2 SWAP1 SWAP2 MSTORE KECCAK256 SLOAD PUSH1 0xFF AND SWAP1 JUMP JUMPDEST PUSH2 0x223 PUSH2 0x3BF CALLDATASIZE PUSH1 0x4 PUSH2 0x2334 JUMP JUMPDEST PUSH2 0x143A JUMP JUMPDEST PUSH1 0x0 PUSH1 0x1 PUSH1 0x1 PUSH1 0xE0 SHL SUB NOT DUP3 AND PUSH32 0x780E9D6300000000000000000000000000000000000000000000000000000000 EQ DUP1 PUSH2 0x402 JUMPI POP PUSH2 0x402 DUP3 PUSH2 0x151C JUMP JUMPDEST SWAP3 SWAP2 POP POP JUMP JUMPDEST PUSH1 0x60 PUSH1 0x0 DUP1 SLOAD PUSH2 0x417 SWAP1 PUSH2 0x29A7 JUMP JUMPDEST DUP1 PUSH1 0x1F ADD PUSH1 0x20 DUP1 SWAP2 DIV MUL PUSH1 0x20 ADD PUSH1 0x40 MLOAD SWAP1 DUP2 ADD PUSH1 0x40 MSTORE DUP1 SWAP3 SWAP2 SWAP1 DUP2 DUP2 MSTORE PUSH1 0x20 ADD DUP3 DUP1 SLOAD PUSH2 0x443 SWAP1 PUSH2 0x29A7 JUMP JUMPDEST DUP1 ISZERO PUSH2 0x490 JUMPI DUP1 PUSH1 0x1F LT PUSH2 0x465 JUMPI PUSH2 0x100 DUP1 DUP4 SLOAD DIV MUL DUP4 MSTORE SWAP2 PUSH1 0x20 ADD SWAP2 PUSH2 0x490 JUMP JUMPDEST DUP3 ADD SWAP2 SWAP1 PUSH1 0x0 MSTORE PUSH1 0x20 PUSH1 0x0 KECCAK256 SWAP1 JUMPDEST DUP2 SLOAD DUP2 MSTORE SWAP1 PUSH1 0x1 ADD SWAP1 PUSH1 0x20 ADD DUP1 DUP4 GT PUSH2 0x473 JUMPI DUP3 SWAP1 SUB PUSH1 0x1F AND DUP3 ADD SWAP2 JUMPDEST POP POP POP POP POP SWAP1 POP SWAP1 JUMP JUMPDEST PUSH1 0x0 DUP2 DUP2 MSTORE PUSH1 0x2 PUSH1 0x20 MSTORE PUSH1 0x40 DUP2 KECCAK256 SLOAD PUSH1 0x1 PUSH1 0x1 PUSH1 0xA0 SHL SUB AND PUSH2 0x518 JUMPI PUSH1 0x40 MLOAD PUSH3 0x461BCD PUSH1 0xE5 SHL DUP2 MSTORE PUSH1 0x20 PUSH1 0x4 DUP3 ADD MSTORE PUSH1 0x2C PUSH1 0x24 DUP3 ADD MSTORE PUSH32 0x4552433732313A20617070726F76656420717565727920666F72206E6F6E6578 PUSH1 0x44 DUP3 ADD MSTORE PUSH12 0x34B9BA32B73A103A37B5B2B7 PUSH1 0xA1 SHL PUSH1 0x64 DUP3 ADD MSTORE PUSH1 0x84 ADD JUMPDEST PUSH1 0x40 MLOAD DUP1 SWAP2 SUB SWAP1 REVERT JUMPDEST POP PUSH1 0x0 SWAP1 DUP2 MSTORE PUSH1 0x4 PUSH1 0x20 MSTORE PUSH1 0x40 SWAP1 KECCAK256 SLOAD PUSH1 0x1 PUSH1 0x1 PUSH1 0xA0 SHL SUB AND SWAP1 JUMP JUMPDEST PUSH1 0x0 PUSH2 0x53F DUP3 PUSH2 0xC5D JUMP JUMPDEST SWAP1 POP DUP1 PUSH1 0x1 PUSH1 0x1 PUSH1 0xA0 SHL SUB AND DUP4 PUSH1 0x1 PUSH1 0x1 PUSH1 0xA0 SHL SUB AND EQ ISZERO PUSH2 0x5C9 JUMPI PUSH1 0x40 MLOAD PUSH3 0x461BCD PUSH1 0xE5 SHL DUP2 MSTORE PUSH1 0x20 PUSH1 0x4 DUP3 ADD MSTORE PUSH1 0x21 PUSH1 0x24 DUP3 ADD MSTORE PUSH32 0x4552433732313A20617070726F76616C20746F2063757272656E74206F776E65 PUSH1 0x44 DUP3 ADD MSTORE PUSH32 0x7200000000000000000000000000000000000000000000000000000000000000 PUSH1 0x64 DUP3 ADD MSTORE PUSH1 0x84 ADD PUSH2 0x50F JUMP JUMPDEST CALLER PUSH1 0x1 PUSH1 0x1 PUSH1 0xA0 SHL SUB DUP3 AND EQ DUP1 PUSH2 0x5E5 JUMPI POP PUSH2 0x5E5 DUP2 CALLER PUSH2 0x383 JUMP JUMPDEST PUSH2 0x657 JUMPI PUSH1 0x40 MLOAD PUSH3 0x461BCD PUSH1 0xE5 SHL DUP2 MSTORE PUSH1 0x20 PUSH1 0x4 DUP3 ADD MSTORE PUSH1 0x38 PUSH1 0x24 DUP3 ADD MSTORE PUSH32 0x4552433732313A20617070726F76652063616C6C6572206973206E6F74206F77 PUSH1 0x44 DUP3 ADD MSTORE PUSH32 0x6E6572206E6F7220617070726F76656420666F7220616C6C0000000000000000 PUSH1 0x64 DUP3 ADD MSTORE PUSH1 0x84 ADD PUSH2 0x50F JUMP JUMPDEST PUSH2 0x661 DUP4 DUP4 PUSH2 0x15B7 JUMP JUMPDEST POP POP POP JUMP JUMPDEST PUSH1 0x60 PUSH2 0x402 DUP3 PUSH1 0x40 MLOAD DUP1 PUSH1 0x40 ADD PUSH1 0x40 MSTORE DUP1 PUSH1 0xB DUP2 MSTORE PUSH1 0x20 ADD PUSH32 0x504552534F4E414C495459000000000000000000000000000000000000000000 DUP2 MSTORE POP PUSH1 0xF DUP1 SLOAD DUP1 PUSH1 0x20 MUL PUSH1 0x20 ADD PUSH1 0x40 MLOAD SWAP1 DUP2 ADD PUSH1 0x40 MSTORE DUP1 SWAP3 SWAP2 SWAP1 DUP2 DUP2 MSTORE PUSH1 0x20 ADD PUSH1 0x0 SWAP1 JUMPDEST DUP3 DUP3 LT ISZERO PUSH2 0x770 JUMPI DUP4 DUP3 SWAP1 PUSH1 0x0 MSTORE PUSH1 0x20 PUSH1 0x0 KECCAK256 ADD DUP1 SLOAD PUSH2 0x6E3 SWAP1 PUSH2 0x29A7 JUMP JUMPDEST DUP1 PUSH1 0x1F ADD PUSH1 0x20 DUP1 SWAP2 DIV MUL PUSH1 0x20 ADD PUSH1 0x40 MLOAD SWAP1 DUP2 ADD PUSH1 0x40 MSTORE DUP1 SWAP3 SWAP2 SWAP1 DUP2 DUP2 MSTORE PUSH1 0x20 ADD DUP3 DUP1 SLOAD PUSH2 0x70F SWAP1 PUSH2 0x29A7 JUMP JUMPDEST DUP1 ISZERO PUSH2 0x75C JUMPI DUP1 PUSH1 0x1F LT PUSH2 0x731 JUMPI PUSH2 0x100 DUP1 DUP4 SLOAD DIV MUL DUP4 MSTORE SWAP2 PUSH1 0x20 ADD SWAP2 PUSH2 0x75C JUMP JUMPDEST DUP3 ADD SWAP2 SWAP1 PUSH1 0x0 MSTORE PUSH1 0x20 PUSH1 0x0 KECCAK256 SWAP1 JUMPDEST DUP2 SLOAD DUP2 MSTORE SWAP1 PUSH1 0x1 ADD SWAP1 PUSH1 0x20 ADD DUP1 DUP4 GT PUSH2 0x73F JUMPI DUP3 SWAP1 SUB PUSH1 0x1F AND DUP3 ADD SWAP2 JUMPDEST POP POP POP POP POP DUP2 MSTORE PUSH1 0x20 ADD SWAP1 PUSH1 0x1 ADD SWAP1 PUSH2 0x6C4 JUMP JUMPDEST POP POP POP POP PUSH2 0x1632 JUMP JUMPDEST PUSH2 0x783 CALLER DUP3 PUSH2 0x16A0 JUMP JUMPDEST PUSH2 0x7F5 JUMPI PUSH1 0x40 MLOAD PUSH3 0x461BCD PUSH1 0xE5 SHL DUP2 MSTORE PUSH1 0x20 PUSH1 0x4 DUP3 ADD MSTORE PUSH1 0x31 PUSH1 0x24 DUP3 ADD MSTORE PUSH32 0x4552433732313A207472616E736665722063616C6C6572206973206E6F74206F PUSH1 0x44 DUP3 ADD MSTORE PUSH32 0x776E6572206E6F7220617070726F766564000000000000000000000000000000 PUSH1 0x64 DUP3 ADD MSTORE PUSH1 0x84 ADD PUSH2 0x50F JUMP JUMPDEST PUSH2 0x661 DUP4 DUP4 DUP4 PUSH2 0x1797 JUMP JUMPDEST PUSH1 0x60 PUSH2 0x402 DUP3 PUSH1 0x40 MLOAD DUP1 PUSH1 0x40 ADD PUSH1 0x40 MSTORE DUP1 PUSH1 0x7 DUP2 MSTORE PUSH1 0x20 ADD PUSH32 0x5350454349455300000000000000000000000000000000000000000000000000 DUP2 MSTORE POP PUSH1 0xC DUP1 SLOAD DUP1 PUSH1 0x20 MUL PUSH1 0x20 ADD PUSH1 0x40 MLOAD SWAP1 DUP2 ADD PUSH1 0x40 MSTORE DUP1 SWAP3 SWAP2 SWAP1 DUP2 DUP2 MSTORE PUSH1 0x20 ADD PUSH1 0x0 SWAP1 JUMPDEST DUP3 DUP3 LT ISZERO PUSH2 0x770 JUMPI DUP4 DUP3 SWAP1 PUSH1 0x0 MSTORE PUSH1 0x20 PUSH1 0x0 KECCAK256 ADD DUP1 SLOAD PUSH2 0x87D SWAP1 PUSH2 0x29A7 JUMP JUMPDEST DUP1 PUSH1 0x1F ADD PUSH1 0x20 DUP1 SWAP2 DIV MUL PUSH1 0x20 ADD PUSH1 0x40 MLOAD SWAP1 DUP2 ADD PUSH1 0x40 MSTORE DUP1 SWAP3 SWAP2 SWAP1 DUP2 DUP2 MSTORE PUSH1 0x20 ADD DUP3 DUP1 SLOAD PUSH2 0x8A9 SWAP1 PUSH2 0x29A7 JUMP JUMPDEST DUP1 ISZERO PUSH2 0x8F6 JUMPI DUP1 PUSH1 0x1F LT PUSH2 0x8CB JUMPI PUSH2 0x100 DUP1 DUP4 SLOAD DIV MUL DUP4 MSTORE SWAP2 PUSH1 0x20 ADD SWAP2 PUSH2 0x8F6 JUMP JUMPDEST DUP3 ADD SWAP2 SWAP1 PUSH1 0x0 MSTORE PUSH1 0x20 PUSH1 0x0 KECCAK256 SWAP1 JUMPDEST DUP2 SLOAD DUP2 MSTORE SWAP1 PUSH1 0x1 ADD SWAP1 PUSH1 0x20 ADD DUP1 DUP4 GT PUSH2 0x8D9 JUMPI DUP3 SWAP1 SUB PUSH1 0x1F AND DUP3 ADD SWAP2 JUMPDEST POP POP POP POP POP DUP2 MSTORE PUSH1 0x20 ADD SWAP1 PUSH1 0x1 ADD SWAP1 PUSH2 0x85E JUMP JUMPDEST PUSH1 0x0 PUSH2 0x915 DUP4 PUSH2 0xCE8 JUMP JUMPDEST DUP3 LT PUSH2 0x989 JUMPI PUSH1 0x40 MLOAD PUSH3 0x461BCD PUSH1 0xE5 SHL DUP2 MSTORE PUSH1 0x20 PUSH1 0x4 DUP3 ADD MSTORE PUSH1 0x2B PUSH1 0x24 DUP3 ADD MSTORE PUSH32 0x455243373231456E756D657261626C653A206F776E657220696E646578206F75 PUSH1 0x44 DUP3 ADD MSTORE PUSH32 0x74206F6620626F756E6473000000000000000000000000000000000000000000 PUSH1 0x64 DUP3 ADD MSTORE PUSH1 0x84 ADD PUSH2 0x50F JUMP JUMPDEST POP PUSH1 0x1 PUSH1 0x1 PUSH1 0xA0 SHL SUB SWAP2 SWAP1 SWAP2 AND PUSH1 0x0 SWAP1 DUP2 MSTORE PUSH1 0x6 PUSH1 0x20 SWAP1 DUP2 MSTORE PUSH1 0x40 DUP1 DUP4 KECCAK256 SWAP4 DUP4 MSTORE SWAP3 SWAP1 MSTORE KECCAK256 SLOAD SWAP1 JUMP JUMPDEST PUSH1 0x2 PUSH1 0xA SLOAD EQ ISZERO PUSH2 0xA05 JUMPI PUSH1 0x40 MLOAD PUSH3 0x461BCD PUSH1 0xE5 SHL DUP2 MSTORE PUSH1 0x20 PUSH1 0x4 DUP3 ADD MSTORE PUSH1 0x1F PUSH1 0x24 DUP3 ADD MSTORE PUSH32 0x5265656E7472616E637947756172643A207265656E7472616E742063616C6C00 PUSH1 0x44 DUP3 ADD MSTORE PUSH1 0x64 ADD PUSH2 0x50F JUMP JUMPDEST PUSH1 0x2 PUSH1 0xA SSTORE DUP1 ISZERO DUP1 ISZERO SWAP1 PUSH2 0xA1A JUMPI POP PUSH2 0x1E62 DUP2 LT JUMPDEST PUSH2 0xA66 JUMPI PUSH1 0x40 MLOAD PUSH3 0x461BCD PUSH1 0xE5 SHL DUP2 MSTORE PUSH1 0x20 PUSH1 0x4 DUP3 ADD MSTORE PUSH1 0x10 PUSH1 0x24 DUP3 ADD MSTORE PUSH32 0x546F6B656E20494420696E76616C696400000000000000000000000000000000 PUSH1 0x44 DUP3 ADD MSTORE PUSH1 0x64 ADD PUSH2 0x50F JUMP JUMPDEST PUSH2 0xA71 CALLER JUMPDEST DUP3 PUSH2 0x197C JUMP JUMPDEST POP PUSH1 0x1 PUSH1 0xA SSTORE JUMP JUMPDEST PUSH2 0x661 DUP4 DUP4 DUP4 PUSH1 0x40 MLOAD DUP1 PUSH1 0x20 ADD PUSH1 0x40 MSTORE DUP1 PUSH1 0x0 DUP2 MSTORE POP PUSH2 0xFC6 JUMP JUMPDEST PUSH1 0x2 PUSH1 0xA SLOAD EQ ISZERO PUSH2 0xAE7 JUMPI PUSH1 0x40 MLOAD PUSH3 0x461BCD PUSH1 0xE5 SHL DUP2 MSTORE PUSH1 0x20 PUSH1 0x4 DUP3 ADD MSTORE PUSH1 0x1F PUSH1 0x24 DUP3 ADD MSTORE PUSH32 0x5265656E7472616E637947756172643A207265656E7472616E742063616C6C00 PUSH1 0x44 DUP3 ADD MSTORE PUSH1 0x64 ADD PUSH2 0x50F JUMP JUMPDEST PUSH1 0x2 PUSH1 0xA SSTORE PUSH1 0xB SLOAD PUSH1 0x1 PUSH1 0x1 PUSH1 0xA0 SHL SUB AND CALLER EQ PUSH2 0xB46 JUMPI PUSH1 0x40 MLOAD PUSH3 0x461BCD PUSH1 0xE5 SHL DUP2 MSTORE PUSH1 0x20 PUSH1 0x4 DUP3 ADD DUP2 SWAP1 MSTORE PUSH1 0x24 DUP3 ADD MSTORE PUSH32 0x4F776E61626C653A2063616C6C6572206973206E6F7420746865206F776E6572 PUSH1 0x44 DUP3 ADD MSTORE PUSH1 0x64 ADD PUSH2 0x50F JUMP JUMPDEST PUSH2 0x1E61 DUP2 GT DUP1 ISZERO PUSH2 0xB58 JUMPI POP PUSH2 0x1F41 DUP2 LT JUMPDEST PUSH2 0xBA4 JUMPI PUSH1 0x40 MLOAD PUSH3 0x461BCD PUSH1 0xE5 SHL DUP2 MSTORE PUSH1 0x20 PUSH1 0x4 DUP3 ADD MSTORE PUSH1 0x10 PUSH1 0x24 DUP3 ADD MSTORE PUSH32 0x546F6B656E20494420696E76616C696400000000000000000000000000000000 PUSH1 0x44 DUP3 ADD MSTORE PUSH1 0x64 ADD PUSH2 0x50F JUMP JUMPDEST PUSH2 0xA71 PUSH2 0xA6B PUSH1 0xB SLOAD PUSH1 0x1 PUSH1 0x1 PUSH1 0xA0 SHL SUB AND SWAP1 JUMP JUMPDEST PUSH1 0x0 PUSH2 0xBC4 PUSH1 0x8 SLOAD SWAP1 JUMP JUMPDEST DUP3 LT PUSH2 0xC38 JUMPI PUSH1 0x40 MLOAD PUSH3 0x461BCD PUSH1 0xE5 SHL DUP2 MSTORE PUSH1 0x20 PUSH1 0x4 DUP3 ADD MSTORE PUSH1 0x2C PUSH1 0x24 DUP3 ADD MSTORE PUSH32 0x455243373231456E756D657261626C653A20676C6F62616C20696E646578206F PUSH1 0x44 DUP3 ADD MSTORE PUSH32 0x7574206F6620626F756E64730000000000000000000000000000000000000000 PUSH1 0x64 DUP3 ADD MSTORE PUSH1 0x84 ADD PUSH2 0x50F JUMP JUMPDEST PUSH1 0x8 DUP3 DUP2 SLOAD DUP2 LT PUSH2 0xC4B JUMPI PUSH2 0xC4B PUSH2 0x2A53 JUMP JUMPDEST SWAP1 PUSH1 0x0 MSTORE PUSH1 0x20 PUSH1 0x0 KECCAK256 ADD SLOAD SWAP1 POP SWAP2 SWAP1 POP JUMP JUMPDEST PUSH1 0x0 DUP2 DUP2 MSTORE PUSH1 0x2 PUSH1 0x20 MSTORE PUSH1 0x40 DUP2 KECCAK256 SLOAD PUSH1 0x1 PUSH1 0x1 PUSH1 0xA0 SHL SUB AND DUP1 PUSH2 0x402 JUMPI PUSH1 0x40 MLOAD PUSH3 0x461BCD PUSH1 0xE5 SHL DUP2 MSTORE PUSH1 0x20 PUSH1 0x4 DUP3 ADD MSTORE PUSH1 0x29 PUSH1 0x24 DUP3 ADD MSTORE PUSH32 0x4552433732313A206F776E657220717565727920666F72206E6F6E6578697374 PUSH1 0x44 DUP3 ADD MSTORE PUSH32 0x656E7420746F6B656E0000000000000000000000000000000000000000000000 PUSH1 0x64 DUP3 ADD MSTORE PUSH1 0x84 ADD PUSH2 0x50F JUMP JUMPDEST PUSH1 0x0 PUSH1 0x1 PUSH1 0x1 PUSH1 0xA0 SHL SUB DUP3 AND PUSH2 0xD66 JUMPI PUSH1 0x40 MLOAD PUSH3 0x461BCD PUSH1 0xE5 SHL DUP2 MSTORE PUSH1 0x20 PUSH1 0x4 DUP3 ADD MSTORE PUSH1 0x2A PUSH1 0x24 DUP3 ADD MSTORE PUSH32 0x4552433732313A2062616C616E636520717565727920666F7220746865207A65 PUSH1 0x44 DUP3 ADD MSTORE PUSH32 0x726F206164647265737300000000000000000000000000000000000000000000 PUSH1 0x64 DUP3 ADD MSTORE PUSH1 0x84 ADD PUSH2 0x50F JUMP JUMPDEST POP PUSH1 0x1 PUSH1 0x1 PUSH1 0xA0 SHL SUB AND PUSH1 0x0 SWAP1 DUP2 MSTORE PUSH1 0x3 PUSH1 0x20 MSTORE PUSH1 0x40 SWAP1 KECCAK256 SLOAD SWAP1 JUMP JUMPDEST PUSH1 0xB SLOAD PUSH1 0x1 PUSH1 0x1 PUSH1 0xA0 SHL SUB AND CALLER EQ PUSH2 0xDDC JUMPI PUSH1 0x40 MLOAD PUSH3 0x461BCD PUSH1 0xE5 SHL DUP2 MSTORE PUSH1 0x20 PUSH1 0x4 DUP3 ADD DUP2 SWAP1 MSTORE PUSH1 0x24 DUP3 ADD MSTORE PUSH32 0x4F776E61626C653A2063616C6C6572206973206E6F7420746865206F776E6572 PUSH1 0x44 DUP3 ADD MSTORE PUSH1 0x64 ADD PUSH2 0x50F JUMP JUMPDEST PUSH2 0xDE6 PUSH1 0x0 PUSH2 0x199A JUMP JUMPDEST JUMP JUMPDEST PUSH1 0x60 PUSH2 0x402 DUP3 PUSH1 0x40 MLOAD DUP1 PUSH1 0x40 ADD PUSH1 0x40 MSTORE DUP1 PUSH1 0x3 DUP2 MSTORE PUSH1 0x20 ADD PUSH32 0x5345580000000000000000000000000000000000000000000000000000000000 DUP2 MSTORE POP PUSH1 0xD DUP1 SLOAD DUP1 PUSH1 0x20 MUL PUSH1 0x20 ADD PUSH1 0x40 MLOAD SWAP1 DUP2 ADD PUSH1 0x40 MSTORE DUP1 SWAP3 SWAP2 SWAP1 DUP2 DUP2 MSTORE PUSH1 0x20 ADD PUSH1 0x0 SWAP1 JUMPDEST DUP3 DUP3 LT ISZERO PUSH2 0x770 JUMPI DUP4 DUP3 SWAP1 PUSH1 0x0 MSTORE PUSH1 0x20 PUSH1 0x0 KECCAK256 ADD DUP1 SLOAD PUSH2 0xE65 SWAP1 PUSH2 0x29A7 JUMP JUMPDEST DUP1 PUSH1 0x1F ADD PUSH1 0x20 DUP1 SWAP2 DIV MUL PUSH1 0x20 ADD PUSH1 0x40 MLOAD SWAP1 DUP2 ADD PUSH1 0x40 MSTORE DUP1 SWAP3 SWAP2 SWAP1 DUP2 DUP2 MSTORE PUSH1 0x20 ADD DUP3 DUP1 SLOAD PUSH2 0xE91 SWAP1 PUSH2 0x29A7 JUMP JUMPDEST DUP1 ISZERO PUSH2 0xEDE JUMPI DUP1 PUSH1 0x1F LT PUSH2 0xEB3 JUMPI PUSH2 0x100 DUP1 DUP4 SLOAD DIV MUL DUP4 MSTORE SWAP2 PUSH1 0x20 ADD SWAP2 PUSH2 0xEDE JUMP JUMPDEST DUP3 ADD SWAP2 SWAP1 PUSH1 0x0 MSTORE PUSH1 0x20 PUSH1 0x0 KECCAK256 SWAP1 JUMPDEST DUP2 SLOAD DUP2 MSTORE SWAP1 PUSH1 0x1 ADD SWAP1 PUSH1 0x20 ADD DUP1 DUP4 GT PUSH2 0xEC1 JUMPI DUP3 SWAP1 SUB PUSH1 0x1F AND DUP3 ADD SWAP2 JUMPDEST POP POP POP POP POP DUP2 MSTORE PUSH1 0x20 ADD SWAP1 PUSH1 0x1 ADD SWAP1 PUSH2 0xE46 JUMP JUMPDEST PUSH1 0x60 PUSH1 0x1 DUP1 SLOAD PUSH2 0x417 SWAP1 PUSH2 0x29A7 JUMP JUMPDEST PUSH1 0x1 PUSH1 0x1 PUSH1 0xA0 SHL SUB DUP3 AND CALLER EQ ISZERO PUSH2 0xF5A JUMPI PUSH1 0x40 MLOAD PUSH3 0x461BCD PUSH1 0xE5 SHL DUP2 MSTORE PUSH1 0x20 PUSH1 0x4 DUP3 ADD MSTORE PUSH1 0x19 PUSH1 0x24 DUP3 ADD MSTORE PUSH32 0x4552433732313A20617070726F766520746F2063616C6C657200000000000000 PUSH1 0x44 DUP3 ADD MSTORE PUSH1 0x64 ADD PUSH2 0x50F JUMP JUMPDEST CALLER PUSH1 0x0 DUP2 DUP2 MSTORE PUSH1 0x5 PUSH1 0x20 SWAP1 DUP2 MSTORE PUSH1 0x40 DUP1 DUP4 KECCAK256 PUSH1 0x1 PUSH1 0x1 PUSH1 0xA0 SHL SUB DUP8 AND DUP1 DUP6 MSTORE SWAP1 DUP4 MSTORE SWAP3 DUP2 SWAP1 KECCAK256 DUP1 SLOAD PUSH1 0xFF NOT AND DUP7 ISZERO ISZERO SWAP1 DUP2 OR SWAP1 SWAP2 SSTORE SWAP1 MLOAD SWAP1 DUP2 MSTORE SWAP2 SWAP3 SWAP2 PUSH32 0x17307EAB39AB6107E8899845AD3D59BD9653F200F220920489CA2B5937696C31 SWAP2 ADD PUSH1 0x40 MLOAD DUP1 SWAP2 SUB SWAP1 LOG3 POP POP JUMP JUMPDEST PUSH2 0xFD0 CALLER DUP4 PUSH2 0x16A0 JUMP JUMPDEST PUSH2 0x1042 JUMPI PUSH1 0x40 MLOAD PUSH3 0x461BCD PUSH1 0xE5 SHL DUP2 MSTORE PUSH1 0x20 PUSH1 0x4 DUP3 ADD MSTORE PUSH1 0x31 PUSH1 0x24 DUP3 ADD MSTORE PUSH32 0x4552433732313A207472616E736665722063616C6C6572206973206E6F74206F PUSH1 0x44 DUP3 ADD MSTORE PUSH32 0x776E6572206E6F7220617070726F766564000000000000000000000000000000 PUSH1 0x64 DUP3 ADD MSTORE PUSH1 0x84 ADD PUSH2 0x50F JUMP JUMPDEST PUSH2 0x104E DUP5 DUP5 DUP5 DUP5 PUSH2 0x19F9 JUMP JUMPDEST POP POP POP POP JUMP JUMPDEST PUSH1 0x60 PUSH2 0x105E PUSH2 0x22F0 JUMP JUMPDEST PUSH1 0x40 MLOAD DUP1 PUSH2 0x140 ADD PUSH1 0x40 MSTORE DUP1 PUSH2 0x101 DUP2 MSTORE PUSH1 0x20 ADD PUSH2 0x2A96 PUSH2 0x101 SWAP2 CODECOPY DUP2 MSTORE PUSH2 0x1085 DUP4 PUSH2 0x800 JUMP JUMPDEST DUP2 PUSH1 0x1 PUSH1 0x20 MUL ADD DUP2 SWAP1 MSTORE POP PUSH1 0x40 MLOAD DUP1 PUSH1 0x60 ADD PUSH1 0x40 MSTORE DUP1 PUSH1 0x28 DUP2 MSTORE PUSH1 0x20 ADD PUSH2 0x2CCB PUSH1 0x28 SWAP2 CODECOPY PUSH1 0x40 DUP3 ADD MSTORE PUSH2 0x10B7 DUP4 PUSH2 0xDE8 JUMP JUMPDEST PUSH1 0x60 DUP1 DUP4 ADD SWAP2 SWAP1 SWAP2 MSTORE PUSH1 0x40 DUP1 MLOAD SWAP2 DUP3 ADD SWAP1 MSTORE PUSH1 0x28 DUP1 DUP3 MSTORE PUSH2 0x2B97 PUSH1 0x20 DUP4 ADD CODECOPY PUSH1 0x80 DUP3 ADD MSTORE PUSH2 0x10E4 DUP4 PUSH2 0x1330 JUMP JUMPDEST PUSH1 0xA0 DUP3 ADD MSTORE PUSH1 0x40 DUP1 MLOAD PUSH1 0x60 DUP2 ADD SWAP1 SWAP2 MSTORE PUSH1 0x28 DUP1 DUP3 MSTORE PUSH2 0x2C11 PUSH1 0x20 DUP4 ADD CODECOPY PUSH1 0xC0 DUP3 ADD MSTORE PUSH2 0x110F DUP4 PUSH2 0x666 JUMP JUMPDEST PUSH1 0xE0 DUP3 ADD MSTORE PUSH1 0x40 DUP1 MLOAD PUSH1 0x60 DUP2 ADD SWAP1 SWAP2 MSTORE PUSH1 0x29 DUP1 DUP3 MSTORE PUSH2 0x2C39 PUSH1 0x20 DUP4 ADD CODECOPY PUSH2 0x100 DUP3 ADD MSTORE PUSH1 0x40 DUP1 MLOAD PUSH1 0x20 DUP1 DUP3 ADD DUP4 MSTORE PUSH1 0x0 DUP3 MSTORE PUSH2 0x120 DUP5 ADD SWAP2 SWAP1 SWAP2 MSTORE DUP2 MLOAD PUSH1 0x60 DUP2 ADD SWAP1 SWAP3 MSTORE PUSH1 0x29 DUP1 DUP4 MSTORE SWAP1 PUSH2 0x2BE8 SWAP1 DUP4 ADD CODECOPY PUSH2 0x140 DUP3 ADD MSTORE PUSH1 0x40 DUP1 MLOAD PUSH1 0x20 DUP1 DUP3 ADD DUP4 MSTORE PUSH1 0x0 DUP3 MSTORE PUSH2 0x160 DUP5 ADD SWAP2 SWAP1 SWAP2 MSTORE DUP2 MLOAD PUSH1 0x60 DUP2 ADD SWAP1 SWAP3 MSTORE PUSH1 0x29 DUP1 DUP4 MSTORE SWAP1 PUSH2 0x2C62 SWAP1 DUP4 ADD CODECOPY PUSH2 0x180 DUP3 ADD MSTORE PUSH1 0x40 DUP1 MLOAD PUSH1 0x20 DUP1 DUP3 ADD DUP4 MSTORE PUSH1 0x0 DUP3 MSTORE PUSH2 0x1A0 DUP5 ADD SWAP2 SWAP1 SWAP2 MSTORE DUP2 MLOAD PUSH1 0x60 DUP2 ADD SWAP1 SWAP3 MSTORE PUSH1 0x29 DUP1 DUP4 MSTORE SWAP1 PUSH2 0x2BBF SWAP1 DUP4 ADD CODECOPY PUSH2 0x1C0 DUP3 ADD MSTORE PUSH1 0x40 DUP1 MLOAD PUSH1 0x20 DUP1 DUP3 ADD DUP4 MSTORE PUSH1 0x0 DUP3 MSTORE PUSH2 0x1E0 DUP5 ADD SWAP2 SWAP1 SWAP2 MSTORE DUP2 MLOAD DUP1 DUP4 ADD SWAP1 SWAP3 MSTORE PUSH1 0xD DUP3 MSTORE PUSH32 0x3C2F746578743E3C2F7376673E00000000000000000000000000000000000000 SWAP1 DUP3 ADD MSTORE DUP2 PUSH1 0x10 PUSH1 0x20 SWAP1 DUP2 MUL SWAP2 SWAP1 SWAP2 ADD SWAP2 SWAP1 SWAP2 MSTORE DUP2 MLOAD DUP3 DUP3 ADD MLOAD PUSH1 0x40 DUP1 DUP6 ADD MLOAD PUSH1 0x60 DUP7 ADD MLOAD PUSH1 0x80 DUP8 ADD MLOAD PUSH1 0xA0 DUP9 ADD MLOAD PUSH1 0xC0 DUP10 ADD MLOAD PUSH1 0xE0 DUP11 ADD MLOAD PUSH2 0x100 DUP12 ADD MLOAD SWAP7 MLOAD PUSH1 0x0 SWAP11 PUSH2 0x1264 SWAP11 SWAP10 SWAP9 SWAP2 ADD PUSH2 0x25ED JUMP JUMPDEST PUSH1 0x40 DUP1 MLOAD DUP1 DUP4 SUB PUSH1 0x1F NOT ADD DUP2 MSTORE SWAP1 DUP3 SWAP1 MSTORE PUSH2 0x120 DUP5 ADD MLOAD PUSH2 0x140 DUP6 ADD MLOAD PUSH2 0x160 DUP7 ADD MLOAD PUSH2 0x180 DUP8 ADD MLOAD PUSH2 0x1A0 DUP9 ADD MLOAD PUSH2 0x1C0 DUP10 ADD MLOAD PUSH2 0x1E0 DUP11 ADD MLOAD PUSH2 0x200 DUP12 ADD MLOAD SWAP8 SWAP10 POP PUSH2 0x12B7 SWAP9 DUP11 SWAP9 SWAP1 PUSH1 0x20 ADD PUSH2 0x25ED JUMP JUMPDEST PUSH1 0x40 MLOAD PUSH1 0x20 DUP2 DUP4 SUB SUB DUP2 MSTORE SWAP1 PUSH1 0x40 MSTORE SWAP1 POP PUSH1 0x0 PUSH2 0x1304 PUSH2 0x12D6 DUP7 PUSH2 0x1A77 JUMP JUMPDEST PUSH2 0x12DF DUP5 PUSH2 0x1BA9 JUMP JUMPDEST PUSH1 0x40 MLOAD PUSH1 0x20 ADD PUSH2 0x12F0 SWAP3 SWAP2 SWAP1 PUSH2 0x26AF JUMP JUMPDEST PUSH1 0x40 MLOAD PUSH1 0x20 DUP2 DUP4 SUB SUB DUP2 MSTORE SWAP1 PUSH1 0x40 MSTORE PUSH2 0x1BA9 JUMP JUMPDEST SWAP1 POP DUP1 PUSH1 0x40 MLOAD PUSH1 0x20 ADD PUSH2 0x1317 SWAP2 SWAP1 PUSH2 0x2885 JUMP JUMPDEST PUSH1 0x40 DUP1 MLOAD PUSH1 0x1F NOT DUP2 DUP5 SUB ADD DUP2 MSTORE SWAP2 SWAP1 MSTORE SWAP6 SWAP5 POP POP POP POP POP JUMP JUMPDEST PUSH1 0x60 PUSH2 0x402 DUP3 PUSH1 0x40 MLOAD DUP1 PUSH1 0x40 ADD PUSH1 0x40 MSTORE DUP1 PUSH1 0x8 DUP2 MSTORE PUSH1 0x20 ADD PUSH32 0x4845524954414745000000000000000000000000000000000000000000000000 DUP2 MSTORE POP PUSH1 0xE DUP1 SLOAD DUP1 PUSH1 0x20 MUL PUSH1 0x20 ADD PUSH1 0x40 MLOAD SWAP1 DUP2 ADD PUSH1 0x40 MSTORE DUP1 SWAP3 SWAP2 SWAP1 DUP2 DUP2 MSTORE PUSH1 0x20 ADD PUSH1 0x0 SWAP1 JUMPDEST DUP3 DUP3 LT ISZERO PUSH2 0x770 JUMPI DUP4 DUP3 SWAP1 PUSH1 0x0 MSTORE PUSH1 0x20 PUSH1 0x0 KECCAK256 ADD DUP1 SLOAD PUSH2 0x13AD SWAP1 PUSH2 0x29A7 JUMP JUMPDEST DUP1 PUSH1 0x1F ADD PUSH1 0x20 DUP1 SWAP2 DIV MUL PUSH1 0x20 ADD PUSH1 0x40 MLOAD SWAP1 DUP2 ADD PUSH1 0x40 MSTORE DUP1 SWAP3 SWAP2 SWAP1 DUP2 DUP2 MSTORE PUSH1 0x20 ADD DUP3 DUP1 SLOAD PUSH2 0x13D9 SWAP1 PUSH2 0x29A7 JUMP JUMPDEST DUP1 ISZERO PUSH2 0x1426 JUMPI DUP1 PUSH1 0x1F LT PUSH2 0x13FB JUMPI PUSH2 0x100 DUP1 DUP4 SLOAD DIV MUL DUP4 MSTORE SWAP2 PUSH1 0x20 ADD SWAP2 PUSH2 0x1426 JUMP JUMPDEST DUP3 ADD SWAP2 SWAP1 PUSH1 0x0 MSTORE PUSH1 0x20 PUSH1 0x0 KECCAK256 SWAP1 JUMPDEST DUP2 SLOAD DUP2 MSTORE SWAP1 PUSH1 0x1 ADD SWAP1 PUSH1 0x20 ADD DUP1 DUP4 GT PUSH2 0x1409 JUMPI DUP3 SWAP1 SUB PUSH1 0x1F AND DUP3 ADD SWAP2 JUMPDEST POP POP POP POP POP DUP2 MSTORE PUSH1 0x20 ADD SWAP1 PUSH1 0x1 ADD SWAP1 PUSH2 0x138E JUMP JUMPDEST PUSH1 0xB SLOAD PUSH1 0x1 PUSH1 0x1 PUSH1 0xA0 SHL SUB AND CALLER EQ PUSH2 0x1494 JUMPI PUSH1 0x40 MLOAD PUSH3 0x461BCD PUSH1 0xE5 SHL DUP2 MSTORE PUSH1 0x20 PUSH1 0x4 DUP3 ADD DUP2 SWAP1 MSTORE PUSH1 0x24 DUP3 ADD MSTORE PUSH32 0x4F776E61626C653A2063616C6C6572206973206E6F7420746865206F776E6572 PUSH1 0x44 DUP3 ADD MSTORE PUSH1 0x64 ADD PUSH2 0x50F JUMP JUMPDEST PUSH1 0x1 PUSH1 0x1 PUSH1 0xA0 SHL SUB DUP2 AND PUSH2 0x1510 JUMPI PUSH1 0x40 MLOAD PUSH3 0x461BCD PUSH1 0xE5 SHL DUP2 MSTORE PUSH1 0x20 PUSH1 0x4 DUP3 ADD MSTORE PUSH1 0x26 PUSH1 0x24 DUP3 ADD MSTORE PUSH32 0x4F776E61626C653A206E6577206F776E657220697320746865207A65726F2061 PUSH1 0x44 DUP3 ADD MSTORE PUSH32 0x6464726573730000000000000000000000000000000000000000000000000000 PUSH1 0x64 DUP3 ADD MSTORE PUSH1 0x84 ADD PUSH2 0x50F JUMP JUMPDEST PUSH2 0x1519 DUP2 PUSH2 0x199A JUMP JUMPDEST POP JUMP JUMPDEST PUSH1 0x0 PUSH1 0x1 PUSH1 0x1 PUSH1 0xE0 SHL SUB NOT DUP3 AND PUSH32 0x80AC58CD00000000000000000000000000000000000000000000000000000000 EQ DUP1 PUSH2 0x157F JUMPI POP PUSH1 0x1 PUSH1 0x1 PUSH1 0xE0 SHL SUB NOT DUP3 AND PUSH32 0x5B5E139F00000000000000000000000000000000000000000000000000000000 EQ JUMPDEST DUP1 PUSH2 0x402 JUMPI POP PUSH32 0x1FFC9A700000000000000000000000000000000000000000000000000000000 PUSH1 0x1 PUSH1 0x1 PUSH1 0xE0 SHL SUB NOT DUP4 AND EQ PUSH2 0x402 JUMP JUMPDEST PUSH1 0x0 DUP2 DUP2 MSTORE PUSH1 0x4 PUSH1 0x20 MSTORE PUSH1 0x40 SWAP1 KECCAK256 DUP1 SLOAD PUSH20 0xFFFFFFFFFFFFFFFFFFFFFFFFFFFFFFFFFFFFFFFF NOT AND PUSH1 0x1 PUSH1 0x1 PUSH1 0xA0 SHL SUB DUP5 AND SWAP1 DUP2 OR SWAP1 SWAP2 SSTORE DUP2 SWAP1 PUSH2 0x15F9 DUP3 PUSH2 0xC5D JUMP JUMPDEST PUSH1 0x1 PUSH1 0x1 PUSH1 0xA0 SHL SUB AND PUSH32 0x8C5BE1E5EBEC7D5BD14F71427D1E84F3DD0314C0F7B2291E5B200AC8C7C3B925 PUSH1 0x40 MLOAD PUSH1 0x40 MLOAD DUP1 SWAP2 SUB SWAP1 LOG4 POP POP JUMP JUMPDEST PUSH1 0x60 PUSH1 0x0 PUSH2 0x1668 DUP5 PUSH2 0x1643 DUP8 PUSH2 0x1A77 JUMP JUMPDEST PUSH1 0x40 MLOAD PUSH1 0x20 ADD PUSH2 0x1654 SWAP3 SWAP2 SWAP1 PUSH2 0x25BE JUMP JUMPDEST PUSH1 0x40 MLOAD PUSH1 0x20 DUP2 DUP4 SUB SUB DUP2 MSTORE SWAP1 PUSH1 0x40 MSTORE PUSH2 0x1D46 JUMP JUMPDEST SWAP1 POP PUSH1 0x0 DUP4 DUP5 MLOAD DUP4 PUSH2 0x167A SWAP2 SWAP1 PUSH2 0x29FD JUMP JUMPDEST DUP2 MLOAD DUP2 LT PUSH2 0x168A JUMPI PUSH2 0x168A PUSH2 0x2A53 JUMP JUMPDEST PUSH1 0x20 MUL PUSH1 0x20 ADD ADD MLOAD SWAP1 POP DUP1 SWAP3 POP POP POP SWAP4 SWAP3 POP POP POP JUMP JUMPDEST PUSH1 0x0 DUP2 DUP2 MSTORE PUSH1 0x2 PUSH1 0x20 MSTORE PUSH1 0x40 DUP2 KECCAK256 SLOAD PUSH1 0x1 PUSH1 0x1 PUSH1 0xA0 SHL SUB AND PUSH2 0x1719 JUMPI PUSH1 0x40 MLOAD PUSH3 0x461BCD PUSH1 0xE5 SHL DUP2 MSTORE PUSH1 0x20 PUSH1 0x4 DUP3 ADD MSTORE PUSH1 0x2C PUSH1 0x24 DUP3 ADD MSTORE PUSH32 0x4552433732313A206F70657261746F7220717565727920666F72206E6F6E6578 PUSH1 0x44 DUP3 ADD MSTORE PUSH12 0x34B9BA32B73A103A37B5B2B7 PUSH1 0xA1 SHL PUSH1 0x64 DUP3 ADD MSTORE PUSH1 0x84 ADD PUSH2 0x50F JUMP JUMPDEST PUSH1 0x0 PUSH2 0x1724 DUP4 PUSH2 0xC5D JUMP JUMPDEST SWAP1 POP DUP1 PUSH1 0x1 PUSH1 0x1 PUSH1 0xA0 SHL SUB AND DUP5 PUSH1 0x1 PUSH1 0x1 PUSH1 0xA0 SHL SUB AND EQ DUP1 PUSH2 0x175F JUMPI POP DUP4 PUSH1 0x1 PUSH1 0x1 PUSH1 0xA0 SHL SUB AND PUSH2 0x1754 DUP5 PUSH2 0x49A JUMP JUMPDEST PUSH1 0x1 PUSH1 0x1 PUSH1 0xA0 SHL SUB AND EQ JUMPDEST DUP1 PUSH2 0x178F JUMPI POP PUSH1 0x1 PUSH1 0x1 PUSH1 0xA0 SHL SUB DUP1 DUP3 AND PUSH1 0x0 SWAP1 DUP2 MSTORE PUSH1 0x5 PUSH1 0x20 SWAP1 DUP2 MSTORE PUSH1 0x40 DUP1 DUP4 KECCAK256 SWAP4 DUP9 AND DUP4 MSTORE SWAP3 SWAP1 MSTORE KECCAK256 SLOAD PUSH1 0xFF AND JUMPDEST SWAP5 SWAP4 POP POP POP POP JUMP JUMPDEST DUP3 PUSH1 0x1 PUSH1 0x1 PUSH1 0xA0 SHL SUB AND PUSH2 0x17AA DUP3 PUSH2 0xC5D JUMP JUMPDEST PUSH1 0x1 PUSH1 0x1 PUSH1 0xA0 SHL SUB AND EQ PUSH2 0x1826 JUMPI PUSH1 0x40 MLOAD PUSH3 0x461BCD PUSH1 0xE5 SHL DUP2 MSTORE PUSH1 0x20 PUSH1 0x4 DUP3 ADD MSTORE PUSH1 0x29 PUSH1 0x24 DUP3 ADD MSTORE PUSH32 0x4552433732313A207472616E73666572206F6620746F6B656E20746861742069 PUSH1 0x44 DUP3 ADD MSTORE PUSH32 0x73206E6F74206F776E0000000000000000000000000000000000000000000000 PUSH1 0x64 DUP3 ADD MSTORE PUSH1 0x84 ADD PUSH2 0x50F JUMP JUMPDEST PUSH1 0x1 PUSH1 0x1 PUSH1 0xA0 SHL SUB DUP3 AND PUSH2 0x18A1 JUMPI PUSH1 0x40 MLOAD PUSH3 0x461BCD PUSH1 0xE5 SHL DUP2 MSTORE PUSH1 0x20 PUSH1 0x4 DUP3 ADD MSTORE PUSH1 0x24 DUP1 DUP3 ADD MSTORE PUSH32 0x4552433732313A207472616E7366657220746F20746865207A65726F20616464 PUSH1 0x44 DUP3 ADD MSTORE PUSH32 0x7265737300000000000000000000000000000000000000000000000000000000 PUSH1 0x64 DUP3 ADD MSTORE PUSH1 0x84 ADD PUSH2 0x50F JUMP JUMPDEST PUSH2 0x18AC DUP4 DUP4 DUP4 PUSH2 0x1D77 JUMP JUMPDEST PUSH2 0x18B7 PUSH1 0x0 DUP3 PUSH2 0x15B7 JUMP JUMPDEST PUSH1 0x1 PUSH1 0x1 PUSH1 0xA0 SHL SUB DUP4 AND PUSH1 0x0 SWAP1 DUP2 MSTORE PUSH1 0x3 PUSH1 0x20 MSTORE PUSH1 0x40 DUP2 KECCAK256 DUP1 SLOAD PUSH1 0x1 SWAP3 SWAP1 PUSH2 0x18E0 SWAP1 DUP5 SWAP1 PUSH2 0x2964 JUMP JUMPDEST SWAP1 SWAP2 SSTORE POP POP PUSH1 0x1 PUSH1 0x1 PUSH1 0xA0 SHL SUB DUP3 AND PUSH1 0x0 SWAP1 DUP2 MSTORE PUSH1 0x3 PUSH1 0x20 MSTORE PUSH1 0x40 DUP2 KECCAK256 DUP1 SLOAD PUSH1 0x1 SWAP3 SWAP1 PUSH2 0x190E SWAP1 DUP5 SWAP1 PUSH2 0x2919 JUMP JUMPDEST SWAP1 SWAP2 SSTORE POP POP PUSH1 0x0 DUP2 DUP2 MSTORE PUSH1 0x2 PUSH1 0x20 MSTORE PUSH1 0x40 DUP1 DUP3 KECCAK256 DUP1 SLOAD PUSH20 0xFFFFFFFFFFFFFFFFFFFFFFFFFFFFFFFFFFFFFFFF NOT AND PUSH1 0x1 PUSH1 0x1 PUSH1 0xA0 SHL SUB DUP7 DUP2 AND SWAP2 DUP3 OR SWAP1 SWAP3 SSTORE SWAP2 MLOAD DUP5 SWAP4 SWAP2 DUP8 AND SWAP2 PUSH32 0xDDF252AD1BE2C89B69C2B068FC378DAA952BA7F163C4A11628F55A4DF523B3EF SWAP2 LOG4 POP POP POP JUMP JUMPDEST PUSH2 0x1996 DUP3 DUP3 PUSH1 0x40 MLOAD DUP1 PUSH1 0x20 ADD PUSH1 0x40 MSTORE DUP1 PUSH1 0x0 DUP2 MSTORE POP PUSH2 0x1E2F JUMP JUMPDEST POP POP JUMP JUMPDEST PUSH1 0xB DUP1 SLOAD PUSH1 0x1 PUSH1 0x1 PUSH1 0xA0 SHL SUB DUP4 DUP2 AND PUSH20 0xFFFFFFFFFFFFFFFFFFFFFFFFFFFFFFFFFFFFFFFF NOT DUP4 AND DUP2 OR SWAP1 SWAP4 SSTORE PUSH1 0x40 MLOAD SWAP2 AND SWAP2 SWAP1 DUP3 SWAP1 PUSH32 0x8BE0079C531659141344CD1FD0A4F28419497F9722A3DAAFE3B4186F6B6457E0 SWAP1 PUSH1 0x0 SWAP1 LOG3 POP POP JUMP JUMPDEST PUSH2 0x1A04 DUP5 DUP5 DUP5 PUSH2 0x1797 JUMP JUMPDEST PUSH2 0x1A10 DUP5 DUP5 DUP5 DUP5 PUSH2 0x1EAD JUMP JUMPDEST PUSH2 0x104E JUMPI PUSH1 0x40 MLOAD PUSH3 0x461BCD PUSH1 0xE5 SHL DUP2 MSTORE PUSH1 0x20 PUSH1 0x4 DUP3 ADD MSTORE PUSH1 0x32 PUSH1 0x24 DUP3 ADD MSTORE PUSH32 0x4552433732313A207472616E7366657220746F206E6F6E204552433732315265 PUSH1 0x44 DUP3 ADD MSTORE PUSH18 0x31B2B4BB32B91034B6B83632B6B2B73A32B9 PUSH1 0x71 SHL PUSH1 0x64 DUP3 ADD MSTORE PUSH1 0x84 ADD PUSH2 0x50F JUMP JUMPDEST PUSH1 0x60 DUP2 PUSH2 0x1AB7 JUMPI POP POP PUSH1 0x40 DUP1 MLOAD DUP1 DUP3 ADD SWAP1 SWAP2 MSTORE PUSH1 0x1 DUP2 MSTORE PUSH32 0x3000000000000000000000000000000000000000000000000000000000000000 PUSH1 0x20 DUP3 ADD MSTORE SWAP1 JUMP JUMPDEST DUP2 PUSH1 0x0 JUMPDEST DUP2 ISZERO PUSH2 0x1AE1 JUMPI DUP1 PUSH2 0x1ACB DUP2 PUSH2 0x29E2 JUMP JUMPDEST SWAP2 POP PUSH2 0x1ADA SWAP1 POP PUSH1 0xA DUP4 PUSH2 0x2931 JUMP JUMPDEST SWAP2 POP PUSH2 0x1ABB JUMP JUMPDEST PUSH1 0x0 DUP2 PUSH8 0xFFFFFFFFFFFFFFFF DUP2 GT ISZERO PUSH2 0x1AFC JUMPI PUSH2 0x1AFC PUSH2 0x2A69 JUMP JUMPDEST PUSH1 0x40 MLOAD SWAP1 DUP1 DUP3 MSTORE DUP1 PUSH1 0x1F ADD PUSH1 0x1F NOT AND PUSH1 0x20 ADD DUP3 ADD PUSH1 0x40 MSTORE DUP1 ISZERO PUSH2 0x1B26 JUMPI PUSH1 0x20 DUP3 ADD DUP2 DUP1 CALLDATASIZE DUP4 CALLDATACOPY ADD SWAP1 POP JUMPDEST POP SWAP1 POP JUMPDEST DUP5 ISZERO PUSH2 0x178F JUMPI PUSH2 0x1B3B PUSH1 0x1 DUP4 PUSH2 0x2964 JUMP JUMPDEST SWAP2 POP PUSH2 0x1B48 PUSH1 0xA DUP7 PUSH2 0x29FD JUMP JUMPDEST PUSH2 0x1B53 SWAP1 PUSH1 0x30 PUSH2 0x2919 JUMP JUMPDEST PUSH1 0xF8 SHL DUP2 DUP4 DUP2 MLOAD DUP2 LT PUSH2 0x1B68 JUMPI PUSH2 0x1B68 PUSH2 0x2A53 JUMP JUMPDEST PUSH1 0x20 ADD ADD SWAP1 PUSH31 0xFFFFFFFFFFFFFFFFFFFFFFFFFFFFFFFFFFFFFFFFFFFFFFFFFFFFFFFFFFFFFF NOT AND SWAP1 DUP2 PUSH1 0x0 BYTE SWAP1 MSTORE8 POP PUSH2 0x1BA2 PUSH1 0xA DUP7 PUSH2 0x2931 JUMP JUMPDEST SWAP5 POP PUSH2 0x1B2A JUMP JUMPDEST DUP1 MLOAD PUSH1 0x60 SWAP1 DUP1 PUSH2 0x1BC9 JUMPI POP POP PUSH1 0x40 DUP1 MLOAD PUSH1 0x20 DUP2 ADD SWAP1 SWAP2 MSTORE PUSH1 0x0 DUP2 MSTORE SWAP2 SWAP1 POP JUMP JUMPDEST PUSH1 0x0 PUSH1 0x3 PUSH2 0x1BD8 DUP4 PUSH1 0x2 PUSH2 0x2919 JUMP JUMPDEST PUSH2 0x1BE2 SWAP2 SWAP1 PUSH2 0x2931 JUMP JUMPDEST PUSH2 0x1BED SWAP1 PUSH1 0x4 PUSH2 0x2945 JUMP JUMPDEST SWAP1 POP PUSH1 0x0 PUSH2 0x1BFC DUP3 PUSH1 0x20 PUSH2 0x2919 JUMP JUMPDEST PUSH8 0xFFFFFFFFFFFFFFFF DUP2 GT ISZERO PUSH2 0x1C14 JUMPI PUSH2 0x1C14 PUSH2 0x2A69 JUMP JUMPDEST PUSH1 0x40 MLOAD SWAP1 DUP1 DUP3 MSTORE DUP1 PUSH1 0x1F ADD PUSH1 0x1F NOT AND PUSH1 0x20 ADD DUP3 ADD PUSH1 0x40 MSTORE DUP1 ISZERO PUSH2 0x1C3E JUMPI PUSH1 0x20 DUP3 ADD DUP2 DUP1 CALLDATASIZE DUP4 CALLDATACOPY ADD SWAP1 POP JUMPDEST POP SWAP1 POP PUSH1 0x0 PUSH1 0x40 MLOAD DUP1 PUSH1 0x60 ADD PUSH1 0x40 MSTORE DUP1 PUSH1 0x40 DUP2 MSTORE PUSH1 0x20 ADD PUSH2 0x2C8B PUSH1 0x40 SWAP2 CODECOPY SWAP1 POP PUSH1 0x1 DUP2 ADD PUSH1 0x20 DUP4 ADD PUSH1 0x0 JUMPDEST DUP7 DUP2 LT ISZERO PUSH2 0x1CCA JUMPI PUSH1 0x3 DUP2 DUP11 ADD DUP2 ADD MLOAD PUSH1 0x3F PUSH1 0x12 DUP3 SWAP1 SHR DUP2 AND DUP7 ADD MLOAD PUSH1 0xC DUP4 SWAP1 SHR DUP3 AND DUP8 ADD MLOAD PUSH1 0x6 DUP5 SWAP1 SHR DUP4 AND DUP9 ADD MLOAD SWAP3 SWAP1 SWAP4 AND DUP8 ADD MLOAD PUSH1 0x8 SWAP2 DUP3 SHL PUSH1 0xFF SWAP5 DUP6 AND ADD DUP3 SHL SWAP3 DUP5 AND SWAP3 SWAP1 SWAP3 ADD SWAP1 SHL SWAP2 AND ADD PUSH1 0xE0 SHL DUP4 MSTORE PUSH1 0x4 SWAP1 SWAP3 ADD SWAP2 ADD PUSH2 0x1C69 JUMP JUMPDEST POP PUSH1 0x3 DUP7 MOD PUSH1 0x1 DUP2 EQ PUSH2 0x1CE4 JUMPI PUSH1 0x2 DUP2 EQ PUSH2 0x1D10 JUMPI PUSH2 0x1D38 JUMP JUMPDEST PUSH32 0x3D3D000000000000000000000000000000000000000000000000000000000000 PUSH1 0x1 NOT DUP4 ADD MSTORE PUSH2 0x1D38 JUMP JUMPDEST PUSH32 0x3D00000000000000000000000000000000000000000000000000000000000000 PUSH1 0x0 NOT DUP4 ADD MSTORE JUMPDEST POP POP POP SWAP2 DUP2 MSTORE SWAP5 SWAP4 POP POP POP POP JUMP JUMPDEST PUSH1 0x0 DUP2 PUSH1 0x40 MLOAD PUSH1 0x20 ADD PUSH2 0x1D59 SWAP2 SWAP1 PUSH2 0x25A2 JUMP JUMPDEST PUSH1 0x40 DUP1 MLOAD PUSH1 0x1F NOT DUP2 DUP5 SUB ADD DUP2 MSTORE SWAP2 SWAP1 MSTORE DUP1 MLOAD PUSH1 0x20 SWAP1 SWAP2 ADD KECCAK256 SWAP3 SWAP2 POP POP JUMP JUMPDEST PUSH1 0x1 PUSH1 0x1 PUSH1 0xA0 SHL SUB DUP4 AND PUSH2 0x1DD2 JUMPI PUSH2 0x1DCD DUP2 PUSH1 0x8 DUP1 SLOAD PUSH1 0x0 DUP4 DUP2 MSTORE PUSH1 0x9 PUSH1 0x20 MSTORE PUSH1 0x40 DUP2 KECCAK256 DUP3 SWAP1 SSTORE PUSH1 0x1 DUP3 ADD DUP4 SSTORE SWAP2 SWAP1 SWAP2 MSTORE PUSH32 0xF3F7A9FE364FAAB93B216DA50A3214154F22A0A2B415B23A84C8169E8B636EE3 ADD SSTORE JUMP JUMPDEST PUSH2 0x1DF5 JUMP JUMPDEST DUP2 PUSH1 0x1 PUSH1 0x1 PUSH1 0xA0 SHL SUB AND DUP4 PUSH1 0x1 PUSH1 0x1 PUSH1 0xA0 SHL SUB AND EQ PUSH2 0x1DF5 JUMPI PUSH2 0x1DF5 DUP4 DUP3 PUSH2 0x2005 JUMP JUMPDEST PUSH1 0x1 PUSH1 0x1 PUSH1 0xA0 SHL SUB DUP3 AND PUSH2 0x1E0C JUMPI PUSH2 0x661 DUP2 PUSH2 0x20A2 JUMP JUMPDEST DUP3 PUSH1 0x1 PUSH1 0x1 PUSH1 0xA0 SHL SUB AND DUP3 PUSH1 0x1 PUSH1 0x1 PUSH1 0xA0 SHL SUB AND EQ PUSH2 0x661 JUMPI PUSH2 0x661 DUP3 DUP3 PUSH2 0x2151 JUMP JUMPDEST PUSH2 0x1E39 DUP4 DUP4 PUSH2 0x2195 JUMP JUMPDEST PUSH2 0x1E46 PUSH1 0x0 DUP5 DUP5 DUP5 PUSH2 0x1EAD JUMP JUMPDEST PUSH2 0x661 JUMPI PUSH1 0x40 MLOAD PUSH3 0x461BCD PUSH1 0xE5 SHL DUP2 MSTORE PUSH1 0x20 PUSH1 0x4 DUP3 ADD MSTORE PUSH1 0x32 PUSH1 0x24 DUP3 ADD MSTORE PUSH32 0x4552433732313A207472616E7366657220746F206E6F6E204552433732315265 PUSH1 0x44 DUP3 ADD MSTORE PUSH18 0x31B2B4BB32B91034B6B83632B6B2B73A32B9 PUSH1 0x71 SHL PUSH1 0x64 DUP3 ADD MSTORE PUSH1 0x84 ADD PUSH2 0x50F JUMP JUMPDEST PUSH1 0x0 PUSH1 0x1 PUSH1 0x1 PUSH1 0xA0 SHL SUB DUP5 AND EXTCODESIZE ISZERO PUSH2 0x1FFA JUMPI PUSH1 0x40 MLOAD PUSH4 0xA85BD01 PUSH1 0xE1 SHL DUP2 MSTORE PUSH1 0x1 PUSH1 0x1 PUSH1 0xA0 SHL SUB DUP6 AND SWAP1 PUSH4 0x150B7A02 SWAP1 PUSH2 0x1EF1 SWAP1 CALLER SWAP1 DUP10 SWAP1 DUP9 SWAP1 DUP9 SWAP1 PUSH1 0x4 ADD PUSH2 0x28CA JUMP JUMPDEST PUSH1 0x20 PUSH1 0x40 MLOAD DUP1 DUP4 SUB DUP2 PUSH1 0x0 DUP8 DUP1 EXTCODESIZE ISZERO DUP1 ISZERO PUSH2 0x1F0B JUMPI PUSH1 0x0 DUP1 REVERT JUMPDEST POP GAS CALL SWAP3 POP POP POP DUP1 ISZERO PUSH2 0x1F3B JUMPI POP PUSH1 0x40 DUP1 MLOAD PUSH1 0x1F RETURNDATASIZE SWAP1 DUP2 ADD PUSH1 0x1F NOT AND DUP3 ADD SWAP1 SWAP3 MSTORE PUSH2 0x1F38 SWAP2 DUP2 ADD SWAP1 PUSH2 0x2524 JUMP JUMPDEST PUSH1 0x1 JUMPDEST PUSH2 0x1FE0 JUMPI RETURNDATASIZE DUP1 DUP1 ISZERO PUSH2 0x1F69 JUMPI PUSH1 0x40 MLOAD SWAP2 POP PUSH1 0x1F NOT PUSH1 0x3F RETURNDATASIZE ADD AND DUP3 ADD PUSH1 0x40 MSTORE RETURNDATASIZE DUP3 MSTORE RETURNDATASIZE PUSH1 0x0 PUSH1 0x20 DUP5 ADD RETURNDATACOPY PUSH2 0x1F6E JUMP JUMPDEST PUSH1 0x60 SWAP2 POP JUMPDEST POP DUP1 MLOAD PUSH2 0x1FD8 JUMPI PUSH1 0x40 MLOAD PUSH3 0x461BCD PUSH1 0xE5 SHL DUP2 MSTORE PUSH1 0x20 PUSH1 0x4 DUP3 ADD MSTORE PUSH1 0x32 PUSH1 0x24 DUP3 ADD MSTORE PUSH32 0x4552433732313A207472616E7366657220746F206E6F6E204552433732315265 PUSH1 0x44 DUP3 ADD MSTORE PUSH18 0x31B2B4BB32B91034B6B83632B6B2B73A32B9 PUSH1 0x71 SHL PUSH1 0x64 DUP3 ADD MSTORE PUSH1 0x84 ADD PUSH2 0x50F JUMP JUMPDEST DUP1 MLOAD DUP2 PUSH1 0x20 ADD REVERT JUMPDEST PUSH1 0x1 PUSH1 0x1 PUSH1 0xE0 SHL SUB NOT AND PUSH4 0xA85BD01 PUSH1 0xE1 SHL EQ SWAP1 POP PUSH2 0x178F JUMP JUMPDEST POP PUSH1 0x1 SWAP5 SWAP4 POP POP POP POP JUMP JUMPDEST PUSH1 0x0 PUSH1 0x1 PUSH2 0x2012 DUP5 PUSH2 0xCE8 JUMP JUMPDEST PUSH2 0x201C SWAP2 SWAP1 PUSH2 0x2964 JUMP JUMPDEST PUSH1 0x0 DUP4 DUP2 MSTORE PUSH1 0x7 PUSH1 0x20 MSTORE PUSH1 0x40 SWAP1 KECCAK256 SLOAD SWAP1 SWAP2 POP DUP1 DUP3 EQ PUSH2 0x206F JUMPI PUSH1 0x1 PUSH1 0x1 PUSH1 0xA0 SHL SUB DUP5 AND PUSH1 0x0 SWAP1 DUP2 MSTORE PUSH1 0x6 PUSH1 0x20 SWAP1 DUP2 MSTORE PUSH1 0x40 DUP1 DUP4 KECCAK256 DUP6 DUP5 MSTORE DUP3 MSTORE DUP1 DUP4 KECCAK256 SLOAD DUP5 DUP5 MSTORE DUP2 DUP5 KECCAK256 DUP2 SWAP1 SSTORE DUP4 MSTORE PUSH1 0x7 SWAP1 SWAP2 MSTORE SWAP1 KECCAK256 DUP2 SWAP1 SSTORE JUMPDEST POP PUSH1 0x0 SWAP2 DUP3 MSTORE PUSH1 0x7 PUSH1 0x20 SWAP1 DUP2 MSTORE PUSH1 0x40 DUP1 DUP5 KECCAK256 DUP5 SWAP1 SSTORE PUSH1 0x1 PUSH1 0x1 PUSH1 0xA0 SHL SUB SWAP1 SWAP5 AND DUP4 MSTORE PUSH1 0x6 DUP2 MSTORE DUP4 DUP4 KECCAK256 SWAP2 DUP4 MSTORE MSTORE SWAP1 DUP2 KECCAK256 SSTORE JUMP JUMPDEST PUSH1 0x8 SLOAD PUSH1 0x0 SWAP1 PUSH2 0x20B4 SWAP1 PUSH1 0x1 SWAP1 PUSH2 0x2964 JUMP JUMPDEST PUSH1 0x0 DUP4 DUP2 MSTORE PUSH1 0x9 PUSH1 0x20 MSTORE PUSH1 0x40 DUP2 KECCAK256 SLOAD PUSH1 0x8 DUP1 SLOAD SWAP4 SWAP5 POP SWAP1 SWAP3 DUP5 SWAP1 DUP2 LT PUSH2 0x20DC JUMPI PUSH2 0x20DC PUSH2 0x2A53 JUMP JUMPDEST SWAP1 PUSH1 0x0 MSTORE PUSH1 0x20 PUSH1 0x0 KECCAK256 ADD SLOAD SWAP1 POP DUP1 PUSH1 0x8 DUP4 DUP2 SLOAD DUP2 LT PUSH2 0x20FD JUMPI PUSH2 0x20FD PUSH2 0x2A53 JUMP JUMPDEST PUSH1 0x0 SWAP2 DUP3 MSTORE PUSH1 0x20 DUP1 DUP4 KECCAK256 SWAP1 SWAP2 ADD SWAP3 SWAP1 SWAP3 SSTORE DUP3 DUP2 MSTORE PUSH1 0x9 SWAP1 SWAP2 MSTORE PUSH1 0x40 DUP1 DUP3 KECCAK256 DUP5 SWAP1 SSTORE DUP6 DUP3 MSTORE DUP2 KECCAK256 SSTORE PUSH1 0x8 DUP1 SLOAD DUP1 PUSH2 0x2135 JUMPI PUSH2 0x2135 PUSH2 0x2A3D JUMP JUMPDEST PUSH1 0x1 SWAP1 SUB DUP2 DUP2 SWAP1 PUSH1 0x0 MSTORE PUSH1 0x20 PUSH1 0x0 KECCAK256 ADD PUSH1 0x0 SWAP1 SSTORE SWAP1 SSTORE POP POP POP POP JUMP JUMPDEST PUSH1 0x0 PUSH2 0x215C DUP4 PUSH2 0xCE8 JUMP JUMPDEST PUSH1 0x1 PUSH1 0x1 PUSH1 0xA0 SHL SUB SWAP1 SWAP4 AND PUSH1 0x0 SWAP1 DUP2 MSTORE PUSH1 0x6 PUSH1 0x20 SWAP1 DUP2 MSTORE PUSH1 0x40 DUP1 DUP4 KECCAK256 DUP7 DUP5 MSTORE DUP3 MSTORE DUP1 DUP4 KECCAK256 DUP6 SWAP1 SSTORE SWAP4 DUP3 MSTORE PUSH1 0x7 SWAP1 MSTORE SWAP2 SWAP1 SWAP2 KECCAK256 SWAP2 SWAP1 SWAP2 SSTORE POP JUMP JUMPDEST PUSH1 0x1 PUSH1 0x1 PUSH1 0xA0 SHL SUB DUP3 AND PUSH2 0x21EB JUMPI PUSH1 0x40 MLOAD PUSH3 0x461BCD PUSH1 0xE5 SHL DUP2 MSTORE PUSH1 0x20 PUSH1 0x4 DUP3 ADD DUP2 SWAP1 MSTORE PUSH1 0x24 DUP3 ADD MSTORE PUSH32 0x4552433732313A206D696E7420746F20746865207A65726F2061646472657373 PUSH1 0x44 DUP3 ADD MSTORE PUSH1 0x64 ADD PUSH2 0x50F JUMP JUMPDEST PUSH1 0x0 DUP2 DUP2 MSTORE PUSH1 0x2 PUSH1 0x20 MSTORE PUSH1 0x40 SWAP1 KECCAK256 SLOAD PUSH1 0x1 PUSH1 0x1 PUSH1 0xA0 SHL SUB AND ISZERO PUSH2 0x2250 JUMPI PUSH1 0x40 MLOAD PUSH3 0x461BCD PUSH1 0xE5 SHL DUP2 MSTORE PUSH1 0x20 PUSH1 0x4 DUP3 ADD MSTORE PUSH1 0x1C PUSH1 0x24 DUP3 ADD MSTORE PUSH32 0x4552433732313A20746F6B656E20616C7265616479206D696E74656400000000 PUSH1 0x44 DUP3 ADD MSTORE PUSH1 0x64 ADD PUSH2 0x50F JUMP JUMPDEST PUSH2 0x225C PUSH1 0x0 DUP4 DUP4 PUSH2 0x1D77 JUMP JUMPDEST PUSH1 0x1 PUSH1 0x1 PUSH1 0xA0 SHL SUB DUP3 AND PUSH1 0x0 SWAP1 DUP2 MSTORE PUSH1 0x3 PUSH1 0x20 MSTORE PUSH1 0x40 DUP2 KECCAK256 DUP1 SLOAD PUSH1 0x1 SWAP3 SWAP1 PUSH2 0x2285 SWAP1 DUP5 SWAP1 PUSH2 0x2919 JUMP JUMPDEST SWAP1 SWAP2 SSTORE POP POP PUSH1 0x0 DUP2 DUP2 MSTORE PUSH1 0x2 PUSH1 0x20 MSTORE PUSH1 0x40 DUP1 DUP3 KECCAK256 DUP1 SLOAD PUSH20 0xFFFFFFFFFFFFFFFFFFFFFFFFFFFFFFFFFFFFFFFF NOT AND PUSH1 0x1 PUSH1 0x1 PUSH1 0xA0 SHL SUB DUP7 AND SWAP1 DUP2 OR SWAP1 SWAP2 SSTORE SWAP1 MLOAD DUP4 SWAP3 SWAP1 PUSH32 0xDDF252AD1BE2C89B69C2B068FC378DAA952BA7F163C4A11628F55A4DF523B3EF SWAP1 DUP3 SWAP1 LOG4 POP POP JUMP JUMPDEST PUSH1 0x40 MLOAD DUP1 PUSH2 0x220 ADD PUSH1 0x40 MSTORE DUP1 PUSH1 0x11 SWAP1 JUMPDEST PUSH1 0x60 DUP2 MSTORE PUSH1 0x20 ADD SWAP1 PUSH1 0x1 SWAP1 SUB SWAP1 DUP2 PUSH2 0x2300 JUMPI SWAP1 POP POP SWAP1 JUMP JUMPDEST DUP1 CALLDATALOAD PUSH1 0x1 PUSH1 0x1 PUSH1 0xA0 SHL SUB DUP2 AND DUP2 EQ PUSH2 0x232F JUMPI PUSH1 0x0 DUP1 REVERT JUMPDEST SWAP2 SWAP1 POP JUMP JUMPDEST PUSH1 0x0 PUSH1 0x20 DUP3 DUP5 SUB SLT ISZERO PUSH2 0x2346 JUMPI PUSH1 0x0 DUP1 REVERT JUMPDEST PUSH2 0x234F DUP3 PUSH2 0x2318 JUMP JUMPDEST SWAP4 SWAP3 POP POP POP JUMP JUMPDEST PUSH1 0x0 DUP1 PUSH1 0x40 DUP4 DUP6 SUB SLT ISZERO PUSH2 0x2369 JUMPI PUSH1 0x0 DUP1 REVERT JUMPDEST PUSH2 0x2372 DUP4 PUSH2 0x2318 JUMP JUMPDEST SWAP2 POP PUSH2 0x2380 PUSH1 0x20 DUP5 ADD PUSH2 0x2318 JUMP JUMPDEST SWAP1 POP SWAP3 POP SWAP3 SWAP1 POP JUMP JUMPDEST PUSH1 0x0 DUP1 PUSH1 0x0 PUSH1 0x60 DUP5 DUP7 SUB SLT ISZERO PUSH2 0x239E JUMPI PUSH1 0x0 DUP1 REVERT JUMPDEST PUSH2 0x23A7 DUP5 PUSH2 0x2318 JUMP JUMPDEST SWAP3 POP PUSH2 0x23B5 PUSH1 0x20 DUP6 ADD PUSH2 0x2318 JUMP JUMPDEST SWAP2 POP PUSH1 0x40 DUP5 ADD CALLDATALOAD SWAP1 POP SWAP3 POP SWAP3 POP SWAP3 JUMP JUMPDEST PUSH1 0x0 DUP1 PUSH1 0x0 DUP1 PUSH1 0x80 DUP6 DUP8 SUB SLT ISZERO PUSH2 0x23DB JUMPI PUSH1 0x0 DUP1 REVERT JUMPDEST PUSH2 0x23E4 DUP6 PUSH2 0x2318 JUMP JUMPDEST SWAP4 POP PUSH2 0x23F2 PUSH1 0x20 DUP7 ADD PUSH2 0x2318 JUMP JUMPDEST SWAP3 POP PUSH1 0x40 DUP6 ADD CALLDATALOAD SWAP2 POP PUSH1 0x60 DUP6 ADD CALLDATALOAD PUSH8 0xFFFFFFFFFFFFFFFF DUP1 DUP3 GT ISZERO PUSH2 0x2416 JUMPI PUSH1 0x0 DUP1 REVERT JUMPDEST DUP2 DUP8 ADD SWAP2 POP DUP8 PUSH1 0x1F DUP4 ADD SLT PUSH2 0x242A JUMPI PUSH1 0x0 DUP1 REVERT JUMPDEST DUP2 CALLDATALOAD DUP2 DUP2 GT ISZERO PUSH2 0x243C JUMPI PUSH2 0x243C PUSH2 0x2A69 JUMP JUMPDEST PUSH1 0x40 MLOAD PUSH1 0x1F DUP3 ADD PUSH1 0x1F NOT SWAP1 DUP2 AND PUSH1 0x3F ADD AND DUP2 ADD SWAP1 DUP4 DUP3 GT DUP2 DUP4 LT OR ISZERO PUSH2 0x2464 JUMPI PUSH2 0x2464 PUSH2 0x2A69 JUMP JUMPDEST DUP2 PUSH1 0x40 MSTORE DUP3 DUP2 MSTORE DUP11 PUSH1 0x20 DUP5 DUP8 ADD ADD GT ISZERO PUSH2 0x247D JUMPI PUSH1 0x0 DUP1 REVERT JUMPDEST DUP3 PUSH1 0x20 DUP7 ADD PUSH1 0x20 DUP4 ADD CALLDATACOPY PUSH1 0x0 PUSH1 0x20 DUP5 DUP4 ADD ADD MSTORE DUP1 SWAP6 POP POP POP POP POP POP SWAP3 SWAP6 SWAP2 SWAP5 POP SWAP3 POP JUMP JUMPDEST PUSH1 0x0 DUP1 PUSH1 0x40 DUP4 DUP6 SUB SLT ISZERO PUSH2 0x24B4 JUMPI PUSH1 0x0 DUP1 REVERT JUMPDEST PUSH2 0x24BD DUP4 PUSH2 0x2318 JUMP JUMPDEST SWAP2 POP PUSH1 0x20 DUP4 ADD CALLDATALOAD DUP1 ISZERO ISZERO DUP2 EQ PUSH2 0x24D2 JUMPI PUSH1 0x0 DUP1 REVERT JUMPDEST DUP1 SWAP2 POP POP SWAP3 POP SWAP3 SWAP1 POP JUMP JUMPDEST PUSH1 0x0 DUP1 PUSH1 0x40 DUP4 DUP6 SUB SLT ISZERO PUSH2 0x24F0 JUMPI PUSH1 0x0 DUP1 REVERT JUMPDEST PUSH2 0x24F9 DUP4 PUSH2 0x2318 JUMP JUMPDEST SWAP5 PUSH1 0x20 SWAP4 SWAP1 SWAP4 ADD CALLDATALOAD SWAP4 POP POP POP JUMP JUMPDEST PUSH1 0x0 PUSH1 0x20 DUP3 DUP5 SUB SLT ISZERO PUSH2 0x2519 JUMPI PUSH1 0x0 DUP1 REVERT JUMPDEST DUP2 CALLDATALOAD PUSH2 0x234F DUP2 PUSH2 0x2A7F JUMP JUMPDEST PUSH1 0x0 PUSH1 0x20 DUP3 DUP5 SUB SLT ISZERO PUSH2 0x2536 JUMPI PUSH1 0x0 DUP1 REVERT JUMPDEST DUP2 MLOAD PUSH2 0x234F DUP2 PUSH2 0x2A7F JUMP JUMPDEST PUSH1 0x0 PUSH1 0x20 DUP3 DUP5 SUB SLT ISZERO PUSH2 0x2553 JUMPI PUSH1 0x0 DUP1 REVERT JUMPDEST POP CALLDATALOAD SWAP2 SWAP1 POP JUMP JUMPDEST PUSH1 0x0 DUP2 MLOAD DUP1 DUP5 MSTORE PUSH2 0x2572 DUP2 PUSH1 0x20 DUP7 ADD PUSH1 0x20 DUP7 ADD PUSH2 0x297B JUMP JUMPDEST PUSH1 0x1F ADD PUSH1 0x1F NOT AND SWAP3 SWAP1 SWAP3 ADD PUSH1 0x20 ADD SWAP3 SWAP2 POP POP JUMP JUMPDEST PUSH1 0x0 DUP2 MLOAD PUSH2 0x2598 DUP2 DUP6 PUSH1 0x20 DUP7 ADD PUSH2 0x297B JUMP JUMPDEST SWAP3 SWAP1 SWAP3 ADD SWAP3 SWAP2 POP POP JUMP JUMPDEST PUSH1 0x0 DUP3 MLOAD PUSH2 0x25B4 DUP2 DUP5 PUSH1 0x20 DUP8 ADD PUSH2 0x297B JUMP JUMPDEST SWAP2 SWAP1 SWAP2 ADD SWAP3 SWAP2 POP POP JUMP JUMPDEST PUSH1 0x0 DUP4 MLOAD PUSH2 0x25D0 DUP2 DUP5 PUSH1 0x20 DUP9 ADD PUSH2 0x297B JUMP JUMPDEST DUP4 MLOAD SWAP1 DUP4 ADD SWAP1 PUSH2 0x25E4 DUP2 DUP4 PUSH1 0x20 DUP9 ADD PUSH2 0x297B JUMP JUMPDEST ADD SWAP5 SWAP4 POP POP POP POP JUMP JUMPDEST PUSH1 0x0 DUP11 MLOAD PUSH2 0x25FF DUP2 DUP5 PUSH1 0x20 DUP16 ADD PUSH2 0x297B JUMP JUMPDEST DUP11 MLOAD SWAP1 DUP4 ADD SWAP1 PUSH2 0x2613 DUP2 DUP4 PUSH1 0x20 DUP16 ADD PUSH2 0x297B JUMP JUMPDEST DUP11 MLOAD PUSH2 0x2625 DUP2 DUP4 DUP6 ADD PUSH1 0x20 DUP16 ADD PUSH2 0x297B JUMP JUMPDEST DUP11 MLOAD SWAP3 SWAP1 SWAP2 ADD ADD SWAP1 PUSH2 0x263B DUP2 DUP4 PUSH1 0x20 DUP14 ADD PUSH2 0x297B JUMP JUMPDEST DUP9 MLOAD PUSH2 0x264D DUP2 DUP4 DUP6 ADD PUSH1 0x20 DUP14 ADD PUSH2 0x297B JUMP JUMPDEST DUP9 MLOAD SWAP3 SWAP1 SWAP2 ADD ADD SWAP1 PUSH2 0x2663 DUP2 DUP4 PUSH1 0x20 DUP12 ADD PUSH2 0x297B JUMP JUMPDEST DUP7 MLOAD PUSH2 0x2675 DUP2 DUP4 DUP6 ADD PUSH1 0x20 DUP12 ADD PUSH2 0x297B JUMP JUMPDEST DUP7 MLOAD SWAP3 SWAP1 SWAP2 ADD ADD SWAP1 PUSH2 0x268B DUP2 DUP4 PUSH1 0x20 DUP10 ADD PUSH2 0x297B JUMP JUMPDEST DUP5 MLOAD PUSH2 0x269D DUP2 DUP4 DUP6 ADD PUSH1 0x20 DUP10 ADD PUSH2 0x297B JUMP JUMPDEST SWAP2 ADD ADD SWAP12 SWAP11 POP POP POP POP POP POP POP POP POP POP POP JUMP JUMPDEST PUSH32 0x7B226E616D65223A2022416E696D652043686172616374657220230000000000 DUP2 MSTORE PUSH1 0x0 DUP4 MLOAD PUSH2 0x26E7 DUP2 PUSH1 0x1B DUP6 ADD PUSH1 0x20 DUP9 ADD PUSH2 0x297B JUMP JUMPDEST PUSH32 0x222C20226465736372697074696F6E223A2022416E696D654C6F6F7420697320 PUSH1 0x1B SWAP2 DUP5 ADD SWAP2 DUP3 ADD MSTORE PUSH32 0x72616E646F6D697A656420616E696D6520636861726163746572732067656E65 PUSH1 0x3B DUP3 ADD MSTORE PUSH32 0x726174656420616E642073746F726564206F6E20636861696E2E204F74686572 PUSH1 0x5B DUP3 ADD MSTORE PUSH32 0x206665617475726573206F662074686520636861726163746572732061726520 PUSH1 0x7B DUP3 ADD MSTORE PUSH32 0x696E74656E74696F6E616C6C79206F6D697474656420666F72206F7468657273 PUSH1 0x9B DUP3 ADD MSTORE PUSH32 0x20746F20696E746572707265742E204665656C206672656520746F2075736520 PUSH1 0xBB DUP3 ADD MSTORE PUSH32 0x416E696D654C6F6F7420696E20616E792077617920796F752077616E742E222C PUSH1 0xDB DUP3 ADD MSTORE PUSH32 0x2022696D616765223A2022646174613A696D6167652F7376672B786D6C3B6261 PUSH1 0xFB DUP3 ADD MSTORE PUSH32 0x736536342C000000000000000000000000000000000000000000000000000000 PUSH2 0x11B DUP3 ADD MSTORE PUSH2 0x287C PUSH2 0x2853 PUSH2 0x120 DUP4 ADD DUP7 PUSH2 0x2586 JUMP JUMPDEST PUSH32 0x227D000000000000000000000000000000000000000000000000000000000000 DUP2 MSTORE PUSH1 0x2 ADD SWAP1 JUMP JUMPDEST SWAP6 SWAP5 POP POP POP POP POP JUMP JUMPDEST PUSH32 0x646174613A6170706C69636174696F6E2F6A736F6E3B6261736536342C000000 DUP2 MSTORE PUSH1 0x0 DUP3 MLOAD PUSH2 0x28BD DUP2 PUSH1 0x1D DUP6 ADD PUSH1 0x20 DUP8 ADD PUSH2 0x297B JUMP JUMPDEST SWAP2 SWAP1 SWAP2 ADD PUSH1 0x1D ADD SWAP3 SWAP2 POP POP JUMP JUMPDEST PUSH1 0x0 PUSH1 0x1 PUSH1 0x1 PUSH1 0xA0 SHL SUB DUP1 DUP8 AND DUP4 MSTORE DUP1 DUP7 AND PUSH1 0x20 DUP5 ADD MSTORE POP DUP4 PUSH1 0x40 DUP4 ADD MSTORE PUSH1 0x80 PUSH1 0x60 DUP4 ADD MSTORE PUSH2 0x28FC PUSH1 0x80 DUP4 ADD DUP5 PUSH2 0x255A JUMP JUMPDEST SWAP7 SWAP6 POP POP POP POP POP POP JUMP JUMPDEST PUSH1 0x20 DUP2 MSTORE PUSH1 0x0 PUSH2 0x234F PUSH1 0x20 DUP4 ADD DUP5 PUSH2 0x255A JUMP JUMPDEST PUSH1 0x0 DUP3 NOT DUP3 GT ISZERO PUSH2 0x292C JUMPI PUSH2 0x292C PUSH2 0x2A11 JUMP JUMPDEST POP ADD SWAP1 JUMP JUMPDEST PUSH1 0x0 DUP3 PUSH2 0x2940 JUMPI PUSH2 0x2940 PUSH2 0x2A27 JUMP JUMPDEST POP DIV SWAP1 JUMP JUMPDEST PUSH1 0x0 DUP2 PUSH1 0x0 NOT DIV DUP4 GT DUP3 ISZERO ISZERO AND ISZERO PUSH2 0x295F JUMPI PUSH2 0x295F PUSH2 0x2A11 JUMP JUMPDEST POP MUL SWAP1 JUMP JUMPDEST PUSH1 0x0 DUP3 DUP3 LT ISZERO PUSH2 0x2976 JUMPI PUSH2 0x2976 PUSH2 0x2A11 JUMP JUMPDEST POP SUB SWAP1 JUMP JUMPDEST PUSH1 0x0 JUMPDEST DUP4 DUP2 LT ISZERO PUSH2 0x2996 JUMPI DUP2 DUP2 ADD MLOAD DUP4 DUP3 ADD MSTORE PUSH1 0x20 ADD PUSH2 0x297E JUMP JUMPDEST DUP4 DUP2 GT ISZERO PUSH2 0x104E JUMPI POP POP PUSH1 0x0 SWAP2 ADD MSTORE JUMP JUMPDEST PUSH1 0x1 DUP2 DUP2 SHR SWAP1 DUP3 AND DUP1 PUSH2 0x29BB JUMPI PUSH1 0x7F DUP3 AND SWAP2 POP JUMPDEST PUSH1 0x20 DUP3 LT DUP2 EQ ISZERO PUSH2 0x29DC JUMPI PUSH4 0x4E487B71 PUSH1 0xE0 SHL PUSH1 0x0 MSTORE PUSH1 0x22 PUSH1 0x4 MSTORE PUSH1 0x24 PUSH1 0x0 REVERT JUMPDEST POP SWAP2 SWAP1 POP JUMP JUMPDEST PUSH1 0x0 PUSH1 0x0 NOT DUP3 EQ ISZERO PUSH2 0x29F6 JUMPI PUSH2 0x29F6 PUSH2 0x2A11 JUMP JUMPDEST POP PUSH1 0x1 ADD SWAP1 JUMP JUMPDEST PUSH1 0x0 DUP3 PUSH2 0x2A0C JUMPI PUSH2 0x2A0C PUSH2 0x2A27 JUMP JUMPDEST POP MOD SWAP1 JUMP JUMPDEST PUSH4 0x4E487B71 PUSH1 0xE0 SHL PUSH1 0x0 MSTORE PUSH1 0x11 PUSH1 0x4 MSTORE PUSH1 0x24 PUSH1 0x0 REVERT JUMPDEST PUSH4 0x4E487B71 PUSH1 0xE0 SHL PUSH1 0x0 MSTORE PUSH1 0x12 PUSH1 0x4 MSTORE PUSH1 0x24 PUSH1 0x0 REVERT JUMPDEST PUSH4 0x4E487B71 PUSH1 0xE0 SHL PUSH1 0x0 MSTORE PUSH1 0x31 PUSH1 0x4 MSTORE PUSH1 0x24 PUSH1 0x0 REVERT JUMPDEST PUSH4 0x4E487B71 PUSH1 0xE0 SHL PUSH1 0x0 MSTORE PUSH1 0x32 PUSH1 0x4 MSTORE PUSH1 0x24 PUSH1 0x0 REVERT JUMPDEST PUSH4 0x4E487B71 PUSH1 0xE0 SHL PUSH1 0x0 MSTORE PUSH1 0x41 PUSH1 0x4 MSTORE PUSH1 0x24 PUSH1 0x0 REVERT JUMPDEST PUSH1 0x1 PUSH1 0x1 PUSH1 0xE0 SHL SUB NOT DUP2 AND DUP2 EQ PUSH2 0x1519 JUMPI PUSH1 0x0 DUP1 REVERT INVALID EXTCODECOPY PUSH20 0x766720786D6C6E733D22687474703A2F2F777777 0x2E PUSH24 0x332E6F72672F323030302F73766722207072657365727665 COINBASE PUSH20 0x70656374526174696F3D22784D696E594D696E20 PUSH14 0x656574222076696577426F783D22 ADDRESS KECCAK256 ADDRESS KECCAK256 CALLER CALLDATALOAD ADDRESS KECCAK256 CALLER CALLDATALOAD ADDRESS 0x22 RETURNDATACOPY EXTCODECOPY PUSH20 0x74796C653E2E62617365207B2066696C6C3A2023 ADDRESS ADDRESS ADDRESS ADDRESS ADDRESS ADDRESS EXTCODESIZE KECCAK256 PUSH7 0x6F6E742D66616D PUSH10 0x6C793A2073657269663B KECCAK256 PUSH7 0x6F6E742D73697A PUSH6 0x3A2031347078 EXTCODESIZE KECCAK256 PUSH30 0x3C2F7374796C653E3C726563742077696474683D22313030252220686569 PUSH8 0x68743D2231303025 0x22 KECCAK256 PUSH7 0x696C6C3D222346 CHAINID CHAINID BALANCE ADDRESS ADDRESS 0x22 KECCAK256 0x2F RETURNDATACOPY EXTCODECOPY PUSH21 0x65787420783D2231302220793D2232302220636C61 PUSH20 0x733D2262617365223E3C2F746578743E3C746578 PUSH21 0x20783D2231302220793D2236302220636C6173733D 0x22 PUSH3 0x617365 0x22 RETURNDATACOPY EXTCODECOPY 0x2F PUSH21 0x6578743E3C7465787420783D2231302220793D2231 CALLDATASIZE ADDRESS 0x22 KECCAK256 PUSH4 0x6C617373 RETURNDATASIZE 0x22 PUSH3 0x617365 0x22 RETURNDATACOPY EXTCODECOPY 0x2F PUSH21 0x6578743E3C7465787420783D2231302220793D2231 ORIGIN ADDRESS 0x22 KECCAK256 PUSH4 0x6C617373 RETURNDATASIZE 0x22 PUSH3 0x617365 0x22 RETURNDATACOPY EXTCODECOPY 0x2F PUSH21 0x6578743E3C7465787420783D2231302220793D2238 ADDRESS 0x22 KECCAK256 PUSH4 0x6C617373 RETURNDATASIZE 0x22 PUSH3 0x617365 0x22 RETURNDATACOPY EXTCODECOPY 0x2F PUSH21 0x6578743E3C7465787420783D2231302220793D2231 ADDRESS ADDRESS 0x22 KECCAK256 PUSH4 0x6C617373 RETURNDATASIZE 0x22 PUSH3 0x617365 0x22 RETURNDATACOPY EXTCODECOPY 0x2F PUSH21 0x6578743E3C7465787420783D2231302220793D2231 CALLVALUE ADDRESS 0x22 KECCAK256 PUSH4 0x6C617373 RETURNDATASIZE 0x22 PUSH3 0x617365 0x22 RETURNDATACOPY COINBASE TIMESTAMP NUMBER DIFFICULTY GASLIMIT CHAINID SELFBALANCE BASEFEE 0x49 0x4A 0x4B 0x4C 0x4D 0x4E 0x4F POP MLOAD MSTORE MSTORE8 SLOAD SSTORE JUMP JUMPI PC MSIZE GAS PUSH2 0x6263 PUSH5 0x6566676869 PUSH11 0x6B6C6D6E6F707172737475 PUSH23 0x7778797A303132333435363738392B2F3C2F746578743E EXTCODECOPY PUSH21 0x65787420783D2231302220793D2234302220636C61 PUSH20 0x733D2262617365223EA2646970667358221220A0 0x22 SWAP7 0xBA PUSH22 0x43FB3F1B80F1E5DC8BF930C156BED93AEEDBF68BED93 0xA8 ADD 0xBD 0x5E PUSH19 0x64736F6C634300080700330000000000000000 "
		},
		"gasEstimates": {
			"creation": {
				"codeDepositCost": "2312000",
				"executionCost": "infinite",
				"totalCost": "infinite"
			},
			"external": {
				"approve(address,uint256)": "infinite",
				"balanceOf(address)": "2679",
				"claim(uint256)": "infinite",
				"getApproved(uint256)": "4783",
				"getHeritage(uint256)": "infinite",
				"getPersonality(uint256)": "infinite",
				"getSex(uint256)": "infinite",
				"getSpecies(uint256)": "infinite",
				"isApprovedForAll(address,address)": "infinite",
				"name()": "infinite",
				"owner()": "2420",
				"ownerClaim(uint256)": "infinite",
				"ownerOf(uint256)": "2618",
				"renounceOwnership()": "28150",
				"safeTransferFrom(address,address,uint256)": "infinite",
				"safeTransferFrom(address,address,uint256,bytes)": "infinite",
				"setApprovalForAll(address,bool)": "26695",
				"supportsInterface(bytes4)": "infinite",
				"symbol()": "infinite",
				"tokenByIndex(uint256)": "6761",
				"tokenOfOwnerByIndex(address,uint256)": "5020",
				"tokenURI(uint256)": "infinite",
				"totalSupply()": "2349",
				"transferFrom(address,address,uint256)": "infinite",
				"transferOwnership(address)": "28410"
			},
			"internal": {
				"pluck(uint256,string memory,string memory[] memory)": "infinite",
				"random(string memory)": "infinite",
				"toString(uint256)": "infinite"
			}
		},
		"methodIdentifiers": {
			"approve(address,uint256)": "095ea7b3",
			"balanceOf(address)": "70a08231",
			"claim(uint256)": "379607f5",
			"getApproved(uint256)": "081812fc",
			"getHeritage(uint256)": "e6e52839",
			"getPersonality(uint256)": "1ade97f7",
			"getSex(uint256)": "78efeb25",
			"getSpecies(uint256)": "2be6a2a9",
			"isApprovedForAll(address,address)": "e985e9c5",
			"name()": "06fdde03",
			"owner()": "8da5cb5b",
			"ownerClaim(uint256)": "434f48c4",
			"ownerOf(uint256)": "6352211e",
			"renounceOwnership()": "715018a6",
			"safeTransferFrom(address,address,uint256)": "42842e0e",
			"safeTransferFrom(address,address,uint256,bytes)": "b88d4fde",
			"setApprovalForAll(address,bool)": "a22cb465",
			"supportsInterface(bytes4)": "01ffc9a7",
			"symbol()": "95d89b41",
			"tokenByIndex(uint256)": "4f6ccce7",
			"tokenOfOwnerByIndex(address,uint256)": "2f745c59",
			"tokenURI(uint256)": "c87b56dd",
			"totalSupply()": "18160ddd",
			"transferFrom(address,address,uint256)": "23b872dd",
			"transferOwnership(address)": "f2fde38b"
		}
	},
	"abi": [
		{
			"inputs": [],
			"stateMutability": "nonpayable",
			"type": "constructor"
		},
		{
			"anonymous": false,
			"inputs": [
				{
					"indexed": true,
					"internalType": "address",
					"name": "owner",
					"type": "address"
				},
				{
					"indexed": true,
					"internalType": "address",
					"name": "approved",
					"type": "address"
				},
				{
					"indexed": true,
					"internalType": "uint256",
					"name": "tokenId",
					"type": "uint256"
				}
			],
			"name": "Approval",
			"type": "event"
		},
		{
			"anonymous": false,
			"inputs": [
				{
					"indexed": true,
					"internalType": "address",
					"name": "owner",
					"type": "address"
				},
				{
					"indexed": true,
					"internalType": "address",
					"name": "operator",
					"type": "address"
				},
				{
					"indexed": false,
					"internalType": "bool",
					"name": "approved",
					"type": "bool"
				}
			],
			"name": "ApprovalForAll",
			"type": "event"
		},
		{
			"anonymous": false,
			"inputs": [
				{
					"indexed": true,
					"internalType": "address",
					"name": "previousOwner",
					"type": "address"
				},
				{
					"indexed": true,
					"internalType": "address",
					"name": "newOwner",
					"type": "address"
				}
			],
			"name": "OwnershipTransferred",
			"type": "event"
		},
		{
			"anonymous": false,
			"inputs": [
				{
					"indexed": true,
					"internalType": "address",
					"name": "from",
					"type": "address"
				},
				{
					"indexed": true,
					"internalType": "address",
					"name": "to",
					"type": "address"
				},
				{
					"indexed": true,
					"internalType": "uint256",
					"name": "tokenId",
					"type": "uint256"
				}
			],
			"name": "Transfer",
			"type": "event"
		},
		{
			"inputs": [
				{
					"internalType": "address",
					"name": "to",
					"type": "address"
				},
				{
					"internalType": "uint256",
					"name": "tokenId",
					"type": "uint256"
				}
			],
			"name": "approve",
			"outputs": [],
			"stateMutability": "nonpayable",
			"type": "function"
		},
		{
			"inputs": [
				{
					"internalType": "address",
					"name": "owner",
					"type": "address"
				}
			],
			"name": "balanceOf",
			"outputs": [
				{
					"internalType": "uint256",
					"name": "",
					"type": "uint256"
				}
			],
			"stateMutability": "view",
			"type": "function"
		},
		{
			"inputs": [
				{
					"internalType": "uint256",
					"name": "tokenId",
					"type": "uint256"
				}
			],
			"name": "claim",
			"outputs": [],
			"stateMutability": "nonpayable",
			"type": "function"
		},
		{
			"inputs": [
				{
					"internalType": "uint256",
					"name": "tokenId",
					"type": "uint256"
				}
			],
			"name": "getApproved",
			"outputs": [
				{
					"internalType": "address",
					"name": "",
					"type": "address"
				}
			],
			"stateMutability": "view",
			"type": "function"
		},
		{
			"inputs": [
				{
					"internalType": "uint256",
					"name": "tokenId",
					"type": "uint256"
				}
			],
			"name": "getHeritage",
			"outputs": [
				{
					"internalType": "string",
					"name": "",
					"type": "string"
				}
			],
			"stateMutability": "view",
			"type": "function"
		},
		{
			"inputs": [
				{
					"internalType": "uint256",
					"name": "tokenId",
					"type": "uint256"
				}
			],
			"name": "getPersonality",
			"outputs": [
				{
					"internalType": "string",
					"name": "",
					"type": "string"
				}
			],
			"stateMutability": "view",
			"type": "function"
		},
		{
			"inputs": [
				{
					"internalType": "uint256",
					"name": "tokenId",
					"type": "uint256"
				}
			],
			"name": "getSex",
			"outputs": [
				{
					"internalType": "string",
					"name": "",
					"type": "string"
				}
			],
			"stateMutability": "view",
			"type": "function"
		},
		{
			"inputs": [
				{
					"internalType": "uint256",
					"name": "tokenId",
					"type": "uint256"
				}
			],
			"name": "getSpecies",
			"outputs": [
				{
					"internalType": "string",
					"name": "",
					"type": "string"
				}
			],
			"stateMutability": "view",
			"type": "function"
		},
		{
			"inputs": [
				{
					"internalType": "address",
					"name": "owner",
					"type": "address"
				},
				{
					"internalType": "address",
					"name": "operator",
					"type": "address"
				}
			],
			"name": "isApprovedForAll",
			"outputs": [
				{
					"internalType": "bool",
					"name": "",
					"type": "bool"
				}
			],
			"stateMutability": "view",
			"type": "function"
		},
		{
			"inputs": [],
			"name": "name",
			"outputs": [
				{
					"internalType": "string",
					"name": "",
					"type": "string"
				}
			],
			"stateMutability": "view",
			"type": "function"
		},
		{
			"inputs": [],
			"name": "owner",
			"outputs": [
				{
					"internalType": "address",
					"name": "",
					"type": "address"
				}
			],
			"stateMutability": "view",
			"type": "function"
		},
		{
			"inputs": [
				{
					"internalType": "uint256",
					"name": "tokenId",
					"type": "uint256"
				}
			],
			"name": "ownerClaim",
			"outputs": [],
			"stateMutability": "nonpayable",
			"type": "function"
		},
		{
			"inputs": [
				{
					"internalType": "uint256",
					"name": "tokenId",
					"type": "uint256"
				}
			],
			"name": "ownerOf",
			"outputs": [
				{
					"internalType": "address",
					"name": "",
					"type": "address"
				}
			],
			"stateMutability": "view",
			"type": "function"
		},
		{
			"inputs": [],
			"name": "renounceOwnership",
			"outputs": [],
			"stateMutability": "nonpayable",
			"type": "function"
		},
		{
			"inputs": [
				{
					"internalType": "address",
					"name": "from",
					"type": "address"
				},
				{
					"internalType": "address",
					"name": "to",
					"type": "address"
				},
				{
					"internalType": "uint256",
					"name": "tokenId",
					"type": "uint256"
				}
			],
			"name": "safeTransferFrom",
			"outputs": [],
			"stateMutability": "nonpayable",
			"type": "function"
		},
		{
			"inputs": [
				{
					"internalType": "address",
					"name": "from",
					"type": "address"
				},
				{
					"internalType": "address",
					"name": "to",
					"type": "address"
				},
				{
					"internalType": "uint256",
					"name": "tokenId",
					"type": "uint256"
				},
				{
					"internalType": "bytes",
					"name": "_data",
					"type": "bytes"
				}
			],
			"name": "safeTransferFrom",
			"outputs": [],
			"stateMutability": "nonpayable",
			"type": "function"
		},
		{
			"inputs": [
				{
					"internalType": "address",
					"name": "operator",
					"type": "address"
				},
				{
					"internalType": "bool",
					"name": "approved",
					"type": "bool"
				}
			],
			"name": "setApprovalForAll",
			"outputs": [],
			"stateMutability": "nonpayable",
			"type": "function"
		},
		{
			"inputs": [
				{
					"internalType": "bytes4",
					"name": "interfaceId",
					"type": "bytes4"
				}
			],
			"name": "supportsInterface",
			"outputs": [
				{
					"internalType": "bool",
					"name": "",
					"type": "bool"
				}
			],
			"stateMutability": "view",
			"type": "function"
		},
		{
			"inputs": [],
			"name": "symbol",
			"outputs": [
				{
					"internalType": "string",
					"name": "",
					"type": "string"
				}
			],
			"stateMutability": "view",
			"type": "function"
		},
		{
			"inputs": [
				{
					"internalType": "uint256",
					"name": "index",
					"type": "uint256"
				}
			],
			"name": "tokenByIndex",
			"outputs": [
				{
					"internalType": "uint256",
					"name": "",
					"type": "uint256"
				}
			],
			"stateMutability": "view",
			"type": "function"
		},
		{
			"inputs": [
				{
					"internalType": "address",
					"name": "owner",
					"type": "address"
				},
				{
					"internalType": "uint256",
					"name": "index",
					"type": "uint256"
				}
			],
			"name": "tokenOfOwnerByIndex",
			"outputs": [
				{
					"internalType": "uint256",
					"name": "",
					"type": "uint256"
				}
			],
			"stateMutability": "view",
			"type": "function"
		},
		{
			"inputs": [
				{
					"internalType": "uint256",
					"name": "tokenId",
					"type": "uint256"
				}
			],
			"name": "tokenURI",
			"outputs": [
				{
					"internalType": "string",
					"name": "",
					"type": "string"
				}
			],
			"stateMutability": "view",
			"type": "function"
		},
		{
			"inputs": [],
			"name": "totalSupply",
			"outputs": [
				{
					"internalType": "uint256",
					"name": "",
					"type": "uint256"
				}
			],
			"stateMutability": "view",
			"type": "function"
		},
		{
			"inputs": [
				{
					"internalType": "address",
					"name": "from",
					"type": "address"
				},
				{
					"internalType": "address",
					"name": "to",
					"type": "address"
				},
				{
					"internalType": "uint256",
					"name": "tokenId",
					"type": "uint256"
				}
			],
			"name": "transferFrom",
			"outputs": [],
			"stateMutability": "nonpayable",
			"type": "function"
		},
		{
			"inputs": [
				{
					"internalType": "address",
					"name": "newOwner",
					"type": "address"
				}
			],
			"name": "transferOwnership",
			"outputs": [],
			"stateMutability": "nonpayable",
			"type": "function"
		}
	]
}