{
	"data": {
		"bytecode": {
			"linkReferences": {},
			"object": "60096101809081526815995c9e481d185b1b60ba1b6101a052608090815260046101c08181526315185b1b60e21b6101e081905260a0919091526102009182526102205260c0526006610240818152654d656469756d60d01b61026081905260e0919091526102809182526102a0526101005260056102c08181526414da1bdc9d60da1b6102e0819052610120919091526103009182526103205261014052610380604052600a6103409081526915995c9e481cda1bdc9d60b21b6103605261016052620000d290600d90600862000809565b506040518060a00160405280604051806040016040528060068152602001655374726f6e6760d01b8152508152602001604051806040016040528060058152602001640506c756d760dc1b815250815260200160405180604001604052806006815260200165139bdc9b585b60d21b815250815260200160405180604001604052806006815260200165139bdc9b585b60d21b81525081526020016040518060400160405280600781526020016629b632b73232b960c91b815250815250600e906005620001a29291906200086d565b50604051806101000160405280604051806040016040528060048152602001635075726560e01b8152508152602001604051806040016040528060048152602001635075726560e01b8152508152602001604051806040016040528060048152602001635075726560e01b8152508152602001604051806040016040528060048152602001632430b63360e11b8152508152602001604051806040016040528060048152602001632430b63360e11b81525081526020016040518060400160405280600781526020016628bab0b93a32b960c91b81525081526020016040518060400160405280600781526020016628bab0b93a32b960c91b81525081526020016040518060400160405280600a81526020016909edcca5acad2ced0e8d60b31b815250815250600f906008620002db92919062000809565b506040805161016081018252600361012082019081526214995960ea1b61014083015281528151808301835260068082526559656c6c6f7760d01b602083810191909152808401929092528351808501855260058082526423b932b2b760d91b828501528486019190915284518086018652600480825263426c756560e01b8286015260608601919091528551808701875283815265507572706c6560d01b8186015260808601528551808701875282815264576869746560d81b8186015260a08601528551808701875291825264426c61636b60d81b8285015260c0850191909152845180860186529081526311dbdb1960e21b8184015260e0840152835180850190945283526529b4b63b32b960d11b908301526101008101919091526200040a906010906009620008bf565b50604080516101a081018252600461016082018181526354696e7960e01b610180840152825282518084018452600681526550726574747960d01b6020828101919091528084019190915283518085018552600981526842616279206661636560b81b818301528385015283518085018552600a808252694174747261637469766560b01b8284015260608501919091528451808601865260078082526611d85b1b185b9d60ca1b82850152608086019190915285518087018752938452631399585d60e21b8484015260a08501939093528451808601865290815269105cdd1c9a5b99d95b9d60b21b8183015260c084015283518085018552600581526444616e647960d81b8183015260e084015283518085018552600c81526b53636172206f6e206661636560a01b8183015261010084015283518085018552600e81526d53636172206f6e20746174746f6f60901b818301526101208401528351808501909452908352664f6e652065796560c81b908301526101408101919091526200059990601190600b62000911565b506040805161014081018252600b61010082019081526a436c65616e6c696e65737360a81b6101208301528152815180830183526009808252682330b4b91039b5b4b760b91b6020838101919091528084019290925283518085018552908152682230b9359039b5b4b760b91b818301528284015282518084018452600a815269496e76616c696469736d60b01b818301526060830152825180840184526007808252664865616c74687960c81b828401526080840191909152835180850185526006815265084def2d2e6d60d31b8184015260a0840152835180850185528181526613995d5d1c985b60ca1b8184015260c0840152835180850190945283526608ed2e4d8d2e6d60cb1b9083015260e0810191909152620006c090601290600862000809565b50348015620006ce57600080fd5b5060405162004b3638038062004b36833981016040819052620006f19162000a68565b60405180606001604052806027815260200162004b0f60279139604051806040016040528060128152602001715265706c696361416e696d654c6f6f74504360701b81525082828281600090805190602001906200075192919062000963565b5080516200076790600190602084019062000963565b505050620007846200077e620007b360201b60201c565b620007b7565b6001600b55600c80546001600160a01b0319166001600160a01b03929092169190911790555062000ad7915050565b3390565b600a80546001600160a01b038381166001600160a01b0319831681179093556040519116919082907f8be0079c531659141344cd1fd0a4f28419497f9722a3daafe3b4186f6b6457e090600090a35050565b8280548282559060005260206000209081019282156200085b579160200282015b828111156200085b57825180516200084a91849160209091019062000963565b50916020019190600101906200082a565b5062000869929150620009ee565b5090565b8280548282559060005260206000209081019282156200085b579160200282015b828111156200085b5782518051620008ae91849160209091019062000963565b50916020019190600101906200088e565b8280548282559060005260206000209081019282156200085b579160200282015b828111156200085b57825180516200090091849160209091019062000963565b5091602001919060010190620008e0565b8280548282559060005260206000209081019282156200085b579160200282015b828111156200085b57825180516200095291849160209091019062000963565b509160200191906001019062000932565b828054620009719062000a9a565b90600052602060002090601f016020900481019282620009955760008555620009e0565b82601f10620009b057805160ff1916838001178555620009e0565b82800160010185558215620009e0579182015b82811115620009e0578251825591602001919060010190620009c3565b506200086992915062000a0f565b808211156200086957600062000a05828262000a26565b50600101620009ee565b5b8082111562000869576000815560010162000a10565b50805462000a349062000a9a565b6000825580601f1062000a45575050565b601f01602090049060005260206000209081019062000a65919062000a0f565b50565b60006020828403121562000a7b57600080fd5b81516001600160a01b038116811462000a9357600080fd5b9392505050565b600181811c9082168062000aaf57607f821691505b6020821081141562000ad157634e487b7160e01b600052602260045260246000fd5b50919050565b6140288062000ae76000396000f3fe6080604052600436106101fe5760003560e01c8063761c6cc41161011d578063b88d4fde116100b0578063d17c9b211161007f578063f2fde38b11610064578063f2fde38b146105cb578063f3fef3a3146105eb578063fdc3a9cc1461060b57600080fd5b8063d17c9b2114610562578063e985e9c51461058257600080fd5b8063b88d4fde146104fa578063c07b19781461051a578063c87b56dd1461053a578063d1058e591461055a57600080fd5b806395d89b41116100ec57806395d89b411461048557806399f43aba1461049a578063a22cb465146104ba578063ab86de6c146104da57600080fd5b8063761c6cc41461040957806377aefadd146104295780637a8639ed146104495780638da5cb5b1461046757600080fd5b80633886da94116101955780636352211e116101645780636352211e146103995780636817c76c146103b957806370a08231146103d4578063715018a6146103f457600080fd5b80633886da941461032657806342842e0e14610346578063434f48c4146103665780634f6ccce71461037957600080fd5b806318160ddd116101d157806318160ddd146102b457806323b872dd146102d35780632f745c59146102f3578063379607f51461031357600080fd5b806301ffc9a71461020357806306fdde0314610238578063081812fc1461025a578063095ea7b314610292575b600080fd5b34801561020f57600080fd5b5061022361021e366004613492565b61062b565b60405190151581526020015b60405180910390f35b34801561024457600080fd5b5061024d61066f565b60405161022f9190613b03565b34801561026657600080fd5b5061027a6102753660046134cc565b610701565b6040516001600160a01b03909116815260200161022f565b34801561029e57600080fd5b506102b26102ad366004613466565b6107ac565b005b3480156102c057600080fd5b506008545b60405190815260200161022f565b3480156102df57600080fd5b506102b26102ee366004613312565b6108de565b3480156102ff57600080fd5b506102c561030e366004613466565b610965565b6102b26103213660046134cc565b610a0d565b34801561033257600080fd5b5061024d6103413660046134cc565b610cce565b34801561035257600080fd5b506102b2610361366004613312565b610de1565b6102b26103743660046134cc565b610dfc565b34801561038557600080fd5b506102c56103943660046134cc565b610f2f565b3480156103a557600080fd5b5061027a6103b43660046134cc565b610fd3565b3480156103c557600080fd5b506102c5662386f26fc1000081565b3480156103e057600080fd5b506102c56103ef366004613298565b61105e565b34801561040057600080fd5b506102b26110f8565b34801561041557600080fd5b5061024d6104243660046134cc565b61115e565b34801561043557600080fd5b5061024d6104443660046134cc565b611268565b34801561045557600080fd5b50600c546001600160a01b031661027a565b34801561047357600080fd5b50600a546001600160a01b031661027a565b34801561049157600080fd5b5061024d611372565b3480156104a657600080fd5b50600c5461027a906001600160a01b031681565b3480156104c657600080fd5b506102b26104d5366004613433565b611381565b3480156104e657600080fd5b506102b26104f5366004613298565b611464565b34801561050657600080fd5b506102b2610515366004613353565b61151d565b34801561052657600080fd5b5061024d6105353660046134cc565b6115ab565b34801561054657600080fd5b5061024d6105553660046134cc565b6116b5565b6102b2611c79565b34801561056e57600080fd5b5061024d61057d3660046134cc565b611f40565b34801561058e57600080fd5b5061022361059d3660046132d9565b6001600160a01b03918216600090815260056020908152604080832093909416825291909152205460ff1690565b3480156105d757600080fd5b506102b26105e6366004613298565b61204a565b3480156105f757600080fd5b506102b2610606366004613466565b61212c565b34801561061757600080fd5b5061024d6106263660046134cc565b61226e565b60006001600160e01b031982167f780e9d63000000000000000000000000000000000000000000000000000000001480610669575061066982612378565b92915050565b60606000805461067e90613ba4565b80601f01602080910402602001604051908101604052809291908181526020018280546106aa90613ba4565b80156106f75780601f106106cc576101008083540402835291602001916106f7565b820191906000526020600020905b8154815290600101906020018083116106da57829003601f168201915b5050505050905090565b6000818152600260205260408120546001600160a01b03166107905760405162461bcd60e51b815260206004820152602c60248201527f4552433732313a20617070726f76656420717565727920666f72206e6f6e657860448201527f697374656e7420746f6b656e000000000000000000000000000000000000000060648201526084015b60405180910390fd5b506000908152600460205260409020546001600160a01b031690565b60006107b782610fd3565b9050806001600160a01b0316836001600160a01b031614156108415760405162461bcd60e51b815260206004820152602160248201527f4552433732313a20617070726f76616c20746f2063757272656e74206f776e6560448201527f72000000000000000000000000000000000000000000000000000000000000006064820152608401610787565b336001600160a01b038216148061085d575061085d813361059d565b6108cf5760405162461bcd60e51b815260206004820152603860248201527f4552433732313a20617070726f76652063616c6c6572206973206e6f74206f7760448201527f6e6572206e6f7220617070726f76656420666f7220616c6c00000000000000006064820152608401610787565b6108d98383612413565b505050565b6108e8338261248e565b61095a5760405162461bcd60e51b815260206004820152603160248201527f4552433732313a207472616e736665722063616c6c6572206973206e6f74206f60448201527f776e6572206e6f7220617070726f7665640000000000000000000000000000006064820152608401610787565b6108d9838383612596565b60006109708361105e565b82106109e45760405162461bcd60e51b815260206004820152602b60248201527f455243373231456e756d657261626c653a206f776e657220696e646578206f7560448201527f74206f6620626f756e64730000000000000000000000000000000000000000006064820152608401610787565b506001600160a01b03919091166000908152600660209081526040808320938352929052205490565b6002600b541415610a605760405162461bcd60e51b815260206004820152601f60248201527f5265656e7472616e637947756172643a207265656e7472616e742063616c6c006044820152606401610787565b6002600b558033600c546040517f6352211e000000000000000000000000000000000000000000000000000000008152600481018490526001600160a01b039283169290911690636352211e9060240160206040518083038186803b158015610ac857600080fd5b505afa158015610adc573d6000803e3d6000fd5b505050506040513d601f19601f82011682018060405250810190610b0091906132bc565b6001600160a01b031614610b7c5760405162461bcd60e51b815260206004820152602260248201527f486f6c6461626c653a2063616c6c6572206973206e6f742074686520686f6c6460448201527f65720000000000000000000000000000000000000000000000000000000000006064820152608401610787565b600082118015610b8d5750611f4182105b610bd95760405162461bcd60e51b815260206004820152601e60248201527f546f6b656e20494420696e76616c69642e206f7574206f662072616e676500006044820152606401610787565b6000828152600260205260409020546001600160a01b031615610c645760405162461bcd60e51b815260206004820152602160248201527f546f6b656e20494420696e76616c69642e20416c726561647920636c61696d6560448201527f64000000000000000000000000000000000000000000000000000000000000006064820152608401610787565b34662386f26fc100001115610cbb5760405162461bcd60e51b815260206004820152601960248201527f56616c75652073656e74206973206e6f7420636f7272656374000000000000006044820152606401610787565b610cc5338361277b565b50506001600b55565b6060610669826040518060400160405280600d81526020017f46414349414c46454154555245000000000000000000000000000000000000008152506011805480602002602001604051908101604052809291908181526020016000905b82821015610dd8578382906000526020600020018054610d4b90613ba4565b80601f0160208091040260200160405190810160405280929190818152602001828054610d7790613ba4565b8015610dc45780601f10610d9957610100808354040283529160200191610dc4565b820191906000526020600020905b815481529060010190602001808311610da757829003601f168201915b505050505081526020019060010190610d2c565b50505050612795565b6108d98383836040518060200160405280600081525061151d565b6002600b541415610e4f5760405162461bcd60e51b815260206004820152601f60248201527f5265656e7472616e637947756172643a207265656e7472616e742063616c6c006044820152606401610787565b6002600b55600a546001600160a01b03163314610eae5760405162461bcd60e51b815260206004820181905260248201527f4f776e61626c653a2063616c6c6572206973206e6f7420746865206f776e65726044820152606401610787565b611f4081118015610ec0575061208e81105b610f0c5760405162461bcd60e51b815260206004820152601060248201527f546f6b656e20494420696e76616c6964000000000000000000000000000000006044820152606401610787565b610f27610f21600a546001600160a01b031690565b8261277b565b506001600b55565b6000610f3a60085490565b8210610fae5760405162461bcd60e51b815260206004820152602c60248201527f455243373231456e756d657261626c653a20676c6f62616c20696e646578206f60448201527f7574206f6620626f756e647300000000000000000000000000000000000000006064820152608401610787565b60088281548110610fc157610fc1613c50565b90600052602060002001549050919050565b6000818152600260205260408120546001600160a01b0316806106695760405162461bcd60e51b815260206004820152602960248201527f4552433732313a206f776e657220717565727920666f72206e6f6e657869737460448201527f656e7420746f6b656e00000000000000000000000000000000000000000000006064820152608401610787565b60006001600160a01b0382166110dc5760405162461bcd60e51b815260206004820152602a60248201527f4552433732313a2062616c616e636520717565727920666f7220746865207a6560448201527f726f2061646472657373000000000000000000000000000000000000000000006064820152608401610787565b506001600160a01b031660009081526003602052604090205490565b600a546001600160a01b031633146111525760405162461bcd60e51b815260206004820181905260248201527f4f776e61626c653a2063616c6c6572206973206e6f7420746865206f776e65726044820152606401610787565b61115c600061288e565b565b6060610669826040518060400160405280600e81526020017f535452454e4754484f4652414345000000000000000000000000000000000000815250600f805480602002602001604051908101604052809291908181526020016000905b82821015610dd85783829060005260206000200180546111db90613ba4565b80601f016020809104026020016040519081016040528092919081815260200182805461120790613ba4565b80156112545780601f1061122957610100808354040283529160200191611254565b820191906000526020600020905b81548152906001019060200180831161123757829003601f168201915b5050505050815260200190600101906111bc565b6060610669826040518060400160405280600f81526020017f494d5052455353495645434f4c4f5200000000000000000000000000000000008152506010805480602002602001604051908101604052809291908181526020016000905b82821015610dd85783829060005260206000200180546112e590613ba4565b80601f016020809104026020016040519081016040528092919081815260200182805461131190613ba4565b801561135e5780601f106113335761010080835404028352916020019161135e565b820191906000526020600020905b81548152906001019060200180831161134157829003601f168201915b5050505050815260200190600101906112c6565b60606001805461067e90613ba4565b6001600160a01b0382163314156113da5760405162461bcd60e51b815260206004820152601960248201527f4552433732313a20617070726f766520746f2063616c6c6572000000000000006044820152606401610787565b3360008181526005602090815260408083206001600160a01b0387168085529083529281902080547fffffffffffffffffffffffffffffffffffffffffffffffffffffffffffffff001686151590811790915590519081529192917f17307eab39ab6107e8899845ad3d59bd9653f200f220920489ca2b5937696c31910160405180910390a35050565b600a546001600160a01b031633146114be5760405162461bcd60e51b815260206004820181905260248201527f4f776e61626c653a2063616c6c6572206973206e6f7420746865206f776e65726044820152606401610787565b600c80546001600160a01b0383811673ffffffffffffffffffffffffffffffffffffffff19831681179093556040519116919082907f9dabf3afae828ba590cbc2a5cd78456a9c86160d91461150184b48117f2b216b90600090a35050565b611527338361248e565b6115995760405162461bcd60e51b815260206004820152603160248201527f4552433732313a207472616e736665722063616c6c6572206973206e6f74206f60448201527f776e6572206e6f7220617070726f7665640000000000000000000000000000006064820152608401610787565b6115a5848484846128ed565b50505050565b6060610669826040518060400160405280601181526020017f415050454152414e4345464541545552450000000000000000000000000000008152506012805480602002602001604051908101604052809291908181526020016000905b82821015610dd857838290600052602060002001805461162890613ba4565b80601f016020809104026020016040519081016040528092919081815260200182805461165490613ba4565b80156116a15780601f10611676576101008083540402835291602001916116a1565b820191906000526020600020905b81548152906001019060200180831161168457829003601f168201915b505050505081526020019060010190611609565b60606116bf613255565b6040518061014001604052806101018152602001613ca86101019139815260408051606081019091526022808252613e4b60208301398160016020020181905250604051806060016040528060288152602001613fcb6028913960408201526117278361226e565b6060808301919091526040805191820190526028808252613dd56020830139608082015261175483611f40565b60a082015260408051606081019091526028808252613ebf602083013960c082015261177f8361115e565b60e082015260408051606081019091526029808252613ee760208301396101008201526117ab83611268565b61012082015260408051606081019091526029808252613e9660208301396101408201526117d883610cce565b61016082015260408051606081019091526029808252613f106020830139610180820152611805836115ab565b6101a082015260408051606081019091526029808252613e6d60208301396101c08201526040805160208082018352600082526101e08401919091528151808301909252600d82527f3c2f746578743e3c2f7376673e0000000000000000000000000000000000000090820152816010602090810291909101919091528151828201516040808501516060860151608087015160a088015160c089015160e08a01516101008b0151965160009a6118bf9a999891016136a2565b60408051808303601f19018152908290526101208401516101408501516101608601516101808701516101a08801516101c08901516101e08a01516102008b0151979950611912988a98906020016136a2565b604051602081830303815290604052905061192b61327d565b6040805180820190915260208082527f7b2274726169745f74797065223a22486569676874222c2276616c7565223a2290820152815261196a8561226e565b6020828101919091526040805180820182526003815262089f4b60ea1b818401528184015280516060810190915260248082529091613e279083013960608201526119b485611f40565b6080820152604080518082019091526003815262089f4b60ea1b602082015281600560200201819052506040518060600160405280602a8152602001613dfd602a913960c0820152611a058561115e565b60e0820152604080518082019091526003815262089f4b60ea1b602082015281600860200201819052506040518060600160405280602a8152602001613fa1602a9139610120820152611a5785611268565b610140820152604080518082019091526003815262089f4b60ea1b602082015281600b6020020181905250604051806060016040528060288152602001613f7960289139610180820152611aaa85610cce565b6101a0820152604080518082019091526003815262089f4b60ea1b602082015281600e60200201819052506040518060600160405280602c8152602001613da9602c91396101e0820152611afd856115ab565b610200820152604080518082018252600281527f227d000000000000000000000000000000000000000000000000000000000000602080830191909152610220840191909152825181840151838501516060860151608087015160a088015160c08901519751600098611b7298909101613610565b60408051808303601f190181529082905260e0840151610100850151610120860151610140870151610160880151610180890151959750611bb896889690602001613610565b60408051808303601f19018152908290526101a08401516101c08501516101e0860151610200870151610220880151949650611bf995879590602001613591565b60405160208183030381529060405290506000611c48611c1888612976565b611c2186612aa8565b84604051602001611c34939291906137a7565b604051602081830303815290604052612aa8565b9050600081604051602001611c5d9190613762565b60408051601f1981840301815291905298975050505050505050565b600c546000906001600160a01b03166370a08231336040516001600160e01b031960e084901b1681526001600160a01b03909116600482015260240160206040518083038186803b158015611ccd57600080fd5b505afa158015611ce1573d6000803e3d6000fd5b505050506040513d601f19601f82011682018060405250810190611d0591906134e5565b905060008111611d7d5760405162461bcd60e51b815260206004820152603160248201527f486f6c6461626c653a205468657265206973206e6f20746f6b656e696420746860448201527f61742063616e20626520636c61696d65640000000000000000000000000000006064820152608401610787565b6000805b82811015611e6557600c546000906001600160a01b0316632f745c59336040516001600160e01b031960e084901b1681526001600160a01b0390911660048201526024810185905260440160206040518083038186803b158015611de457600080fd5b505afa158015611df8573d6000803e3d6000fd5b505050506040513d601f19601f82011682018060405250810190611e1c91906134e5565b6000818152600260205260409020549091506001600160a01b0316611e5257611e4481610a0d565b82611e4e81613bdf565b9350505b5080611e5d81613bdf565b915050611d81565b5060008111611edc5760405162461bcd60e51b815260206004820152603160248201527f486f6c6461626c653a205468657265206973206e6f20746f6b656e696420746860448201527f61742063616e20626520636c61696d65640000000000000000000000000000006064820152608401610787565b34611eee82662386f26fc10000613b42565b1115611f3c5760405162461bcd60e51b815260206004820152601960248201527f56616c75652073656e74206973206e6f7420636f7272656374000000000000006044820152606401610787565b5050565b6060610669826040518060400160405280600981526020017f424f445953484150450000000000000000000000000000000000000000000000815250600e805480602002602001604051908101604052809291908181526020016000905b82821015610dd8578382906000526020600020018054611fbd90613ba4565b80601f0160208091040260200160405190810160405280929190818152602001828054611fe990613ba4565b80156120365780601f1061200b57610100808354040283529160200191612036565b820191906000526020600020905b81548152906001019060200180831161201957829003601f168201915b505050505081526020019060010190611f9e565b600a546001600160a01b031633146120a45760405162461bcd60e51b815260206004820181905260248201527f4f776e61626c653a2063616c6c6572206973206e6f7420746865206f776e65726044820152606401610787565b6001600160a01b0381166121205760405162461bcd60e51b815260206004820152602660248201527f4f776e61626c653a206e6577206f776e657220697320746865207a65726f206160448201527f64647265737300000000000000000000000000000000000000000000000000006064820152608401610787565b6121298161288e565b50565b6002600b54141561217f5760405162461bcd60e51b815260206004820152601f60248201527f5265656e7472616e637947756172643a207265656e7472616e742063616c6c006044820152606401610787565b6002600b55600a546001600160a01b031633146121de5760405162461bcd60e51b815260206004820181905260248201527f4f776e61626c653a2063616c6c6572206973206e6f7420746865206f776e65726044820152606401610787565b4781111561222e5760405162461bcd60e51b815260206004820152600f60248201527f416d6f756e7420746f6f206869676800000000000000000000000000000000006044820152606401610787565b6040516001600160a01b0383169082156108fc029083906000818181858888f19350505050158015612264573d6000803e3d6000fd5b50506001600b5550565b6060610669826040518060400160405280600681526020017f4845494748540000000000000000000000000000000000000000000000000000815250600d805480602002602001604051908101604052809291908181526020016000905b82821015610dd85783829060005260206000200180546122eb90613ba4565b80601f016020809104026020016040519081016040528092919081815260200182805461231790613ba4565b80156123645780601f1061233957610100808354040283529160200191612364565b820191906000526020600020905b81548152906001019060200180831161234757829003601f168201915b5050505050815260200190600101906122cc565b60006001600160e01b031982167f80ac58cd0000000000000000000000000000000000000000000000000000000014806123db57506001600160e01b031982167f5b5e139f00000000000000000000000000000000000000000000000000000000145b8061066957507f01ffc9a7000000000000000000000000000000000000000000000000000000006001600160e01b0319831614610669565b6000818152600460205260409020805473ffffffffffffffffffffffffffffffffffffffff19166001600160a01b038416908117909155819061245582610fd3565b6001600160a01b03167f8c5be1e5ebec7d5bd14f71427d1e84f3dd0314c0f7b2291e5b200ac8c7c3b92560405160405180910390a45050565b6000818152600260205260408120546001600160a01b03166125185760405162461bcd60e51b815260206004820152602c60248201527f4552433732313a206f70657261746f7220717565727920666f72206e6f6e657860448201527f697374656e7420746f6b656e00000000000000000000000000000000000000006064820152608401610787565b600061252383610fd3565b9050806001600160a01b0316846001600160a01b0316148061255e5750836001600160a01b031661255384610701565b6001600160a01b0316145b8061258e57506001600160a01b0380821660009081526005602090815260408083209388168352929052205460ff165b949350505050565b826001600160a01b03166125a982610fd3565b6001600160a01b0316146126255760405162461bcd60e51b815260206004820152602960248201527f4552433732313a207472616e73666572206f6620746f6b656e2074686174206960448201527f73206e6f74206f776e00000000000000000000000000000000000000000000006064820152608401610787565b6001600160a01b0382166126a05760405162461bcd60e51b8152602060048201526024808201527f4552433732313a207472616e7366657220746f20746865207a65726f2061646460448201527f72657373000000000000000000000000000000000000000000000000000000006064820152608401610787565b6126ab838383612c63565b6126b6600082612413565b6001600160a01b03831660009081526003602052604081208054600192906126df908490613b61565b90915550506001600160a01b038216600090815260036020526040812080546001929061270d908490613b16565b9091555050600081815260026020526040808220805473ffffffffffffffffffffffffffffffffffffffff19166001600160a01b0386811691821790925591518493918716917fddf252ad1be2c89b69c2b068fc378daa952ba7f163c4a11628f55a4df523b3ef91a4505050565b611f3c828260405180602001604052806000815250612d1b565b6000838152600260205260409020546060906001600160a01b03166128225760405162461bcd60e51b815260206004820152602f60248201527f4552433732314d657461646174613a2055524920717565727920666f72206e6f60448201527f6e6578697374656e7420746f6b656e00000000000000000000000000000000006064820152608401610787565b60006128568461283187612976565b604051602001612842929190613562565b604051602081830303815290604052612da4565b90506000838451836128689190613bfa565b8151811061287857612878613c50565b6020026020010151905080925050509392505050565b600a80546001600160a01b0383811673ffffffffffffffffffffffffffffffffffffffff19831681179093556040519116919082907f8be0079c531659141344cd1fd0a4f28419497f9722a3daafe3b4186f6b6457e090600090a35050565b6128f8848484612596565b61290484848484612dd5565b6115a55760405162461bcd60e51b815260206004820152603260248201527f4552433732313a207472616e7366657220746f206e6f6e20455243373231526560448201527f63656976657220696d706c656d656e74657200000000000000000000000000006064820152608401610787565b6060816129b657505060408051808201909152600181527f3000000000000000000000000000000000000000000000000000000000000000602082015290565b8160005b81156129e057806129ca81613bdf565b91506129d99050600a83613b2e565b91506129ba565b60008167ffffffffffffffff8111156129fb576129fb613c66565b6040519080825280601f01601f191660200182016040528015612a25576020820181803683370190505b5090505b841561258e57612a3a600183613b61565b9150612a47600a86613bfa565b612a52906030613b16565b60f81b818381518110612a6757612a67613c50565b60200101907effffffffffffffffffffffffffffffffffffffffffffffffffffffffffffff1916908160001a905350612aa1600a86613b2e565b9450612a29565b805160609080612ac8575050604080516020810190915260008152919050565b60006003612ad7836002613b16565b612ae19190613b2e565b612aec906004613b42565b90506000612afb826020613b16565b67ffffffffffffffff811115612b1357612b13613c66565b6040519080825280601f01601f191660200182016040528015612b3d576020820181803683370190505b5090506000604051806060016040528060408152602001613f39604091399050600181016020830160005b86811015612bc9576003818a01810151603f601282901c8116860151600c83901c8216870151600684901c831688015192909316870151600891821b60ff94851601821b92841692909201901b91160160e01b835260049092019101612b68565b506003860660018114612be35760028114612c2d57612c55565b7f3d3d0000000000000000000000000000000000000000000000000000000000007ffffffffffffffffffffffffffffffffffffffffffffffffffffffffffffffffe830152612c55565b7f3d000000000000000000000000000000000000000000000000000000000000006000198301525b505050918152949350505050565b6001600160a01b038316612cbe57612cb981600880546000838152600960205260408120829055600182018355919091527ff3f7a9fe364faab93b216da50a3214154f22a0a2b415b23a84c8169e8b636ee30155565b612ce1565b816001600160a01b0316836001600160a01b031614612ce157612ce18382612f6a565b6001600160a01b038216612cf8576108d981613007565b826001600160a01b0316826001600160a01b0316146108d9576108d982826130b6565b612d2583836130fa565b612d326000848484612dd5565b6108d95760405162461bcd60e51b815260206004820152603260248201527f4552433732313a207472616e7366657220746f206e6f6e20455243373231526560448201527f63656976657220696d706c656d656e74657200000000000000000000000000006064820152608401610787565b600081604051602001612db79190613546565b60408051601f19818403018152919052805160209091012092915050565b60006001600160a01b0384163b15612f5f576040517f150b7a020000000000000000000000000000000000000000000000000000000081526001600160a01b0385169063150b7a0290612e32903390899088908890600401613ad1565b602060405180830381600087803b158015612e4c57600080fd5b505af1925050508015612e7c575060408051601f3d908101601f19168201909252612e79918101906134af565b60015b612f2c573d808015612eaa576040519150601f19603f3d011682016040523d82523d6000602084013e612eaf565b606091505b508051612f245760405162461bcd60e51b815260206004820152603260248201527f4552433732313a207472616e7366657220746f206e6f6e20455243373231526560448201527f63656976657220696d706c656d656e74657200000000000000000000000000006064820152608401610787565b805181602001fd5b6001600160e01b0319167f150b7a020000000000000000000000000000000000000000000000000000000014905061258e565b506001949350505050565b60006001612f778461105e565b612f819190613b61565b600083815260076020526040902054909150808214612fd4576001600160a01b03841660009081526006602090815260408083208584528252808320548484528184208190558352600790915290208190555b5060009182526007602090815260408084208490556001600160a01b039094168352600681528383209183525290812055565b60085460009061301990600190613b61565b6000838152600960205260408120546008805493945090928490811061304157613041613c50565b90600052602060002001549050806008838154811061306257613062613c50565b600091825260208083209091019290925582815260099091526040808220849055858252812055600880548061309a5761309a613c3a565b6001900381819060005260206000200160009055905550505050565b60006130c18361105e565b6001600160a01b039093166000908152600660209081526040808320868452825280832085905593825260079052919091209190915550565b6001600160a01b0382166131505760405162461bcd60e51b815260206004820181905260248201527f4552433732313a206d696e7420746f20746865207a65726f20616464726573736044820152606401610787565b6000818152600260205260409020546001600160a01b0316156131b55760405162461bcd60e51b815260206004820152601c60248201527f4552433732313a20746f6b656e20616c7265616479206d696e746564000000006044820152606401610787565b6131c160008383612c63565b6001600160a01b03821660009081526003602052604081208054600192906131ea908490613b16565b9091555050600081815260026020526040808220805473ffffffffffffffffffffffffffffffffffffffff19166001600160a01b03861690811790915590518392907fddf252ad1be2c89b69c2b068fc378daa952ba7f163c4a11628f55a4df523b3ef908290a45050565b6040518061022001604052806011905b60608152602001906001900390816132655790505090565b60408051610240810190915260608152601160208201613265565b6000602082840312156132aa57600080fd5b81356132b581613c7c565b9392505050565b6000602082840312156132ce57600080fd5b81516132b581613c7c565b600080604083850312156132ec57600080fd5b82356132f781613c7c565b9150602083013561330781613c7c565b809150509250929050565b60008060006060848603121561332757600080fd5b833561333281613c7c565b9250602084013561334281613c7c565b929592945050506040919091013590565b6000806000806080858703121561336957600080fd5b843561337481613c7c565b9350602085013561338481613c7c565b925060408501359150606085013567ffffffffffffffff808211156133a857600080fd5b818701915087601f8301126133bc57600080fd5b8135818111156133ce576133ce613c66565b604051601f8201601f19908116603f011681019083821181831017156133f6576133f6613c66565b816040528281528a602084870101111561340f57600080fd5b82602086016020830137600060208483010152809550505050505092959194509250565b6000806040838503121561344657600080fd5b823561345181613c7c565b91506020830135801515811461330757600080fd5b6000806040838503121561347957600080fd5b823561348481613c7c565b946020939093013593505050565b6000602082840312156134a457600080fd5b81356132b581613c91565b6000602082840312156134c157600080fd5b81516132b581613c91565b6000602082840312156134de57600080fd5b5035919050565b6000602082840312156134f757600080fd5b5051919050565b60008151808452613516816020860160208601613b78565b601f01601f19169290920160200192915050565b6000815161353c818560208601613b78565b9290920192915050565b60008251613558818460208701613b78565b9190910192915050565b60008351613574818460208801613b78565b835190830190613588818360208801613b78565b01949350505050565b6000875160206135a48285838d01613b78565b8851918401916135b78184848d01613b78565b88519201916135c98184848c01613b78565b87519201916135db8184848b01613b78565b86519201916135ed8184848a01613b78565b85519201916135ff8184848901613b78565b919091019998505050505050505050565b6000885160206136238285838e01613b78565b8951918401916136368184848e01613b78565b89519201916136488184848d01613b78565b885192019161365a8184848c01613b78565b875192019161366c8184848b01613b78565b865192019161367e8184848a01613b78565b85519201916136908184848901613b78565b919091019a9950505050505050505050565b60008a516136b4818460208f01613b78565b8a516136c68183860160208f01613b78565b8a5191840101906136db818360208e01613b78565b89516136ed8183850160208e01613b78565b8951929091010190613703818360208c01613b78565b8751910190613716818360208b01613b78565b86516137288183850160208b01613b78565b865192909101019061373e818360208901613b78565b84516137508183850160208901613b78565b9101019b9a5050505050505050505050565b7f646174613a6170706c69636174696f6e2f6a736f6e3b6261736536342c00000081526000825161379a81601d850160208701613b78565b91909101601d0192915050565b7f7b226e616d65223a2022416e696d65204368617261637465722050687973696381527f616c204368617261637465726973746963732023000000000000000000000000602082015260008451613805816034850160208901613b78565b7f222c0000000000000000000000000000000000000000000000000000000000006034918401918201527f226465736372697074696f6e223a2022416e696d654c6f6f742050687973696360368201527f616c204368617261637465726973746963732069732072616e646f6d697a656460568201527f20616e696d65206368617261637465727320706879736963616c20636861726160768201527f637465726973746963732067656e65726174656420616e642073746f7265642060968201527f6f6e20636861696e2e204f74686572206665617475726573206f66207468652060b68201527f636861726163746572732061726520696e74656e74696f6e616c6c79206f6d6960d68201527f7474656420666f72206f746865727320746f20696e746572707265742e20466560f68201527f656c206672656520746f2075736520416e696d654c6f6f7420506879736963616101168201527f6c2043686172616374657269737469637320696e20616e792077617920796f756101368201527f2077616e742e222c000000000000000000000000000000000000000000000000610156820152613ac7613a9e613a75613a6f613a46613a1d613a1761015e88017f22696d616765223a2022646174613a696d6167652f7376672b786d6c3b62617381527f6536342c00000000000000000000000000000000000000000000000000000000602082015260240190565b8b61352a565b7f222c000000000000000000000000000000000000000000000000000000000000815260020190565b7f2261747472696275746573223a205b00000000000000000000000000000000008152600f0190565b8761352a565b7f5d00000000000000000000000000000000000000000000000000000000000000815260010190565b7f7d00000000000000000000000000000000000000000000000000000000000000815260010190565b9695505050505050565b60006001600160a01b03808716835280861660208401525083604083015260806060830152613ac760808301846134fe565b6020815260006132b560208301846134fe565b60008219821115613b2957613b29613c0e565b500190565b600082613b3d57613b3d613c24565b500490565b6000816000190483118215151615613b5c57613b5c613c0e565b500290565b600082821015613b7357613b73613c0e565b500390565b60005b83811015613b93578181015183820152602001613b7b565b838111156115a55750506000910152565b600181811c90821680613bb857607f821691505b60208210811415613bd957634e487b7160e01b600052602260045260246000fd5b50919050565b6000600019821415613bf357613bf3613c0e565b5060010190565b600082613c0957613c09613c24565b500690565b634e487b7160e01b600052601160045260246000fd5b634e487b7160e01b600052601260045260246000fd5b634e487b7160e01b600052603160045260246000fd5b634e487b7160e01b600052603260045260246000fd5b634e487b7160e01b600052604160045260246000fd5b6001600160a01b038116811461212957600080fd5b6001600160e01b03198116811461212957600080fdfe3c73766720786d6c6e733d22687474703a2f2f7777772e77332e6f72672f323030302f73766722207072657365727665417370656374526174696f3d22784d696e594d696e206d656574222076696577426f783d223020302033353020333530223e3c7374796c653e2e62617365207b2066696c6c3a20233030303030303b20666f6e742d66616d696c793a2073657269663b20666f6e742d73697a653a20313470783b207d3c2f7374796c653e3c726563742077696474683d223130302522206865696768743d2231303025222066696c6c3d222346464631303022202f3e3c7465787420783d2231302220793d2232302220636c6173733d2262617365223e7b2274726169745f74797065223a22417070656172616e63652066656174757265222c2276616c7565223a223c2f746578743e3c7465787420783d2231302220793d2236302220636c6173733d2262617365223e7b2274726169745f74797065223a22537472656e677468206f662072616365222c2276616c7565223a227b2274726169745f74797065223a22426f6479207368617065222c2276616c7565223a22416e696d654c6f6f7420506879736963616c204368617261637465726973746963733c2f746578743e3c7465787420783d2231302220793d223136302220636c6173733d2262617365223e3c2f746578743e3c7465787420783d2231302220793d223132302220636c6173733d2262617365223e3c2f746578743e3c7465787420783d2231302220793d2238302220636c6173733d2262617365223e3c2f746578743e3c7465787420783d2231302220793d223130302220636c6173733d2262617365223e3c2f746578743e3c7465787420783d2231302220793d223134302220636c6173733d2262617365223e4142434445464748494a4b4c4d4e4f505152535455565758595a6162636465666768696a6b6c6d6e6f707172737475767778797a303132333435363738392b2f7b2274726169745f74797065223a2246616369616c2066656174757265222c2276616c7565223a227b2274726169745f74797065223a22496d707265737369766520636f6c6f72222c2276616c7565223a223c2f746578743e3c7465787420783d2231302220793d2234302220636c6173733d2262617365223ea26469706673582212204e8197482f8b8cee5126314a74cee0a769f436c985362765cfa148104f5b2de364736f6c634300080700335265706c696361416e696d654c6f6f74506879736963616c436861726163746572697374696373",
			"opcodes": "PUSH1 0x9 PUSH2 0x180 SWAP1 DUP2 MSTORE PUSH9 0x15995C9E481D185B1B PUSH1 0xBA SHL PUSH2 0x1A0 MSTORE PUSH1 0x80 SWAP1 DUP2 MSTORE PUSH1 0x4 PUSH2 0x1C0 DUP2 DUP2 MSTORE PUSH4 0x15185B1B PUSH1 0xE2 SHL PUSH2 0x1E0 DUP2 SWAP1 MSTORE PUSH1 0xA0 SWAP2 SWAP1 SWAP2 MSTORE PUSH2 0x200 SWAP2 DUP3 MSTORE PUSH2 0x220 MSTORE PUSH1 0xC0 MSTORE PUSH1 0x6 PUSH2 0x240 DUP2 DUP2 MSTORE PUSH6 0x4D656469756D PUSH1 0xD0 SHL PUSH2 0x260 DUP2 SWAP1 MSTORE PUSH1 0xE0 SWAP2 SWAP1 SWAP2 MSTORE PUSH2 0x280 SWAP2 DUP3 MSTORE PUSH2 0x2A0 MSTORE PUSH2 0x100 MSTORE PUSH1 0x5 PUSH2 0x2C0 DUP2 DUP2 MSTORE PUSH5 0x14DA1BDC9D PUSH1 0xDA SHL PUSH2 0x2E0 DUP2 SWAP1 MSTORE PUSH2 0x120 SWAP2 SWAP1 SWAP2 MSTORE PUSH2 0x300 SWAP2 DUP3 MSTORE PUSH2 0x320 MSTORE PUSH2 0x140 MSTORE PUSH2 0x380 PUSH1 0x40 MSTORE PUSH1 0xA PUSH2 0x340 SWAP1 DUP2 MSTORE PUSH10 0x15995C9E481CDA1BDC9D PUSH1 0xB2 SHL PUSH2 0x360 MSTORE PUSH2 0x160 MSTORE PUSH3 0xD2 SWAP1 PUSH1 0xD SWAP1 PUSH1 0x8 PUSH3 0x809 JUMP JUMPDEST POP PUSH1 0x40 MLOAD DUP1 PUSH1 0xA0 ADD PUSH1 0x40 MSTORE DUP1 PUSH1 0x40 MLOAD DUP1 PUSH1 0x40 ADD PUSH1 0x40 MSTORE DUP1 PUSH1 0x6 DUP2 MSTORE PUSH1 0x20 ADD PUSH6 0x5374726F6E67 PUSH1 0xD0 SHL DUP2 MSTORE POP DUP2 MSTORE PUSH1 0x20 ADD PUSH1 0x40 MLOAD DUP1 PUSH1 0x40 ADD PUSH1 0x40 MSTORE DUP1 PUSH1 0x5 DUP2 MSTORE PUSH1 0x20 ADD PUSH5 0x506C756D7 PUSH1 0xDC SHL DUP2 MSTORE POP DUP2 MSTORE PUSH1 0x20 ADD PUSH1 0x40 MLOAD DUP1 PUSH1 0x40 ADD PUSH1 0x40 MSTORE DUP1 PUSH1 0x6 DUP2 MSTORE PUSH1 0x20 ADD PUSH6 0x139BDC9B585B PUSH1 0xD2 SHL DUP2 MSTORE POP DUP2 MSTORE PUSH1 0x20 ADD PUSH1 0x40 MLOAD DUP1 PUSH1 0x40 ADD PUSH1 0x40 MSTORE DUP1 PUSH1 0x6 DUP2 MSTORE PUSH1 0x20 ADD PUSH6 0x139BDC9B585B PUSH1 0xD2 SHL DUP2 MSTORE POP DUP2 MSTORE PUSH1 0x20 ADD PUSH1 0x40 MLOAD DUP1 PUSH1 0x40 ADD PUSH1 0x40 MSTORE DUP1 PUSH1 0x7 DUP2 MSTORE PUSH1 0x20 ADD PUSH7 0x29B632B73232B9 PUSH1 0xC9 SHL DUP2 MSTORE POP DUP2 MSTORE POP PUSH1 0xE SWAP1 PUSH1 0x5 PUSH3 0x1A2 SWAP3 SWAP2 SWAP1 PUSH3 0x86D JUMP JUMPDEST POP PUSH1 0x40 MLOAD DUP1 PUSH2 0x100 ADD PUSH1 0x40 MSTORE DUP1 PUSH1 0x40 MLOAD DUP1 PUSH1 0x40 ADD PUSH1 0x40 MSTORE DUP1 PUSH1 0x4 DUP2 MSTORE PUSH1 0x20 ADD PUSH4 0x50757265 PUSH1 0xE0 SHL DUP2 MSTORE POP DUP2 MSTORE PUSH1 0x20 ADD PUSH1 0x40 MLOAD DUP1 PUSH1 0x40 ADD PUSH1 0x40 MSTORE DUP1 PUSH1 0x4 DUP2 MSTORE PUSH1 0x20 ADD PUSH4 0x50757265 PUSH1 0xE0 SHL DUP2 MSTORE POP DUP2 MSTORE PUSH1 0x20 ADD PUSH1 0x40 MLOAD DUP1 PUSH1 0x40 ADD PUSH1 0x40 MSTORE DUP1 PUSH1 0x4 DUP2 MSTORE PUSH1 0x20 ADD PUSH4 0x50757265 PUSH1 0xE0 SHL DUP2 MSTORE POP DUP2 MSTORE PUSH1 0x20 ADD PUSH1 0x40 MLOAD DUP1 PUSH1 0x40 ADD PUSH1 0x40 MSTORE DUP1 PUSH1 0x4 DUP2 MSTORE PUSH1 0x20 ADD PUSH4 0x2430B633 PUSH1 0xE1 SHL DUP2 MSTORE POP DUP2 MSTORE PUSH1 0x20 ADD PUSH1 0x40 MLOAD DUP1 PUSH1 0x40 ADD PUSH1 0x40 MSTORE DUP1 PUSH1 0x4 DUP2 MSTORE PUSH1 0x20 ADD PUSH4 0x2430B633 PUSH1 0xE1 SHL DUP2 MSTORE POP DUP2 MSTORE PUSH1 0x20 ADD PUSH1 0x40 MLOAD DUP1 PUSH1 0x40 ADD PUSH1 0x40 MSTORE DUP1 PUSH1 0x7 DUP2 MSTORE PUSH1 0x20 ADD PUSH7 0x28BAB0B93A32B9 PUSH1 0xC9 SHL DUP2 MSTORE POP DUP2 MSTORE PUSH1 0x20 ADD PUSH1 0x40 MLOAD DUP1 PUSH1 0x40 ADD PUSH1 0x40 MSTORE DUP1 PUSH1 0x7 DUP2 MSTORE PUSH1 0x20 ADD PUSH7 0x28BAB0B93A32B9 PUSH1 0xC9 SHL DUP2 MSTORE POP DUP2 MSTORE PUSH1 0x20 ADD PUSH1 0x40 MLOAD DUP1 PUSH1 0x40 ADD PUSH1 0x40 MSTORE DUP1 PUSH1 0xA DUP2 MSTORE PUSH1 0x20 ADD PUSH10 0x9EDCCA5ACAD2CED0E8D PUSH1 0xB3 SHL DUP2 MSTORE POP DUP2 MSTORE POP PUSH1 0xF SWAP1 PUSH1 0x8 PUSH3 0x2DB SWAP3 SWAP2 SWAP1 PUSH3 0x809 JUMP JUMPDEST POP PUSH1 0x40 DUP1 MLOAD PUSH2 0x160 DUP2 ADD DUP3 MSTORE PUSH1 0x3 PUSH2 0x120 DUP3 ADD SWAP1 DUP2 MSTORE PUSH3 0x149959 PUSH1 0xEA SHL PUSH2 0x140 DUP4 ADD MSTORE DUP2 MSTORE DUP2 MLOAD DUP1 DUP4 ADD DUP4 MSTORE PUSH1 0x6 DUP1 DUP3 MSTORE PUSH6 0x59656C6C6F77 PUSH1 0xD0 SHL PUSH1 0x20 DUP4 DUP2 ADD SWAP2 SWAP1 SWAP2 MSTORE DUP1 DUP5 ADD SWAP3 SWAP1 SWAP3 MSTORE DUP4 MLOAD DUP1 DUP6 ADD DUP6 MSTORE PUSH1 0x5 DUP1 DUP3 MSTORE PUSH5 0x23B932B2B7 PUSH1 0xD9 SHL DUP3 DUP6 ADD MSTORE DUP5 DUP7 ADD SWAP2 SWAP1 SWAP2 MSTORE DUP5 MLOAD DUP1 DUP7 ADD DUP7 MSTORE PUSH1 0x4 DUP1 DUP3 MSTORE PUSH4 0x426C7565 PUSH1 0xE0 SHL DUP3 DUP7 ADD MSTORE PUSH1 0x60 DUP7 ADD SWAP2 SWAP1 SWAP2 MSTORE DUP6 MLOAD DUP1 DUP8 ADD DUP8 MSTORE DUP4 DUP2 MSTORE PUSH6 0x507572706C65 PUSH1 0xD0 SHL DUP2 DUP7 ADD MSTORE PUSH1 0x80 DUP7 ADD MSTORE DUP6 MLOAD DUP1 DUP8 ADD DUP8 MSTORE DUP3 DUP2 MSTORE PUSH5 0x5768697465 PUSH1 0xD8 SHL DUP2 DUP7 ADD MSTORE PUSH1 0xA0 DUP7 ADD MSTORE DUP6 MLOAD DUP1 DUP8 ADD DUP8 MSTORE SWAP2 DUP3 MSTORE PUSH5 0x426C61636B PUSH1 0xD8 SHL DUP3 DUP6 ADD MSTORE PUSH1 0xC0 DUP6 ADD SWAP2 SWAP1 SWAP2 MSTORE DUP5 MLOAD DUP1 DUP7 ADD DUP7 MSTORE SWAP1 DUP2 MSTORE PUSH4 0x11DBDB19 PUSH1 0xE2 SHL DUP2 DUP5 ADD MSTORE PUSH1 0xE0 DUP5 ADD MSTORE DUP4 MLOAD DUP1 DUP6 ADD SWAP1 SWAP5 MSTORE DUP4 MSTORE PUSH6 0x29B4B63B32B9 PUSH1 0xD1 SHL SWAP1 DUP4 ADD MSTORE PUSH2 0x100 DUP2 ADD SWAP2 SWAP1 SWAP2 MSTORE PUSH3 0x40A SWAP1 PUSH1 0x10 SWAP1 PUSH1 0x9 PUSH3 0x8BF JUMP JUMPDEST POP PUSH1 0x40 DUP1 MLOAD PUSH2 0x1A0 DUP2 ADD DUP3 MSTORE PUSH1 0x4 PUSH2 0x160 DUP3 ADD DUP2 DUP2 MSTORE PUSH4 0x54696E79 PUSH1 0xE0 SHL PUSH2 0x180 DUP5 ADD MSTORE DUP3 MSTORE DUP3 MLOAD DUP1 DUP5 ADD DUP5 MSTORE PUSH1 0x6 DUP2 MSTORE PUSH6 0x507265747479 PUSH1 0xD0 SHL PUSH1 0x20 DUP3 DUP2 ADD SWAP2 SWAP1 SWAP2 MSTORE DUP1 DUP5 ADD SWAP2 SWAP1 SWAP2 MSTORE DUP4 MLOAD DUP1 DUP6 ADD DUP6 MSTORE PUSH1 0x9 DUP2 MSTORE PUSH9 0x426162792066616365 PUSH1 0xB8 SHL DUP2 DUP4 ADD MSTORE DUP4 DUP6 ADD MSTORE DUP4 MLOAD DUP1 DUP6 ADD DUP6 MSTORE PUSH1 0xA DUP1 DUP3 MSTORE PUSH10 0x41747472616374697665 PUSH1 0xB0 SHL DUP3 DUP5 ADD MSTORE PUSH1 0x60 DUP6 ADD SWAP2 SWAP1 SWAP2 MSTORE DUP5 MLOAD DUP1 DUP7 ADD DUP7 MSTORE PUSH1 0x7 DUP1 DUP3 MSTORE PUSH7 0x11D85B1B185B9D PUSH1 0xCA SHL DUP3 DUP6 ADD MSTORE PUSH1 0x80 DUP7 ADD SWAP2 SWAP1 SWAP2 MSTORE DUP6 MLOAD DUP1 DUP8 ADD DUP8 MSTORE SWAP4 DUP5 MSTORE PUSH4 0x1399585D PUSH1 0xE2 SHL DUP5 DUP5 ADD MSTORE PUSH1 0xA0 DUP6 ADD SWAP4 SWAP1 SWAP4 MSTORE DUP5 MLOAD DUP1 DUP7 ADD DUP7 MSTORE SWAP1 DUP2 MSTORE PUSH10 0x105CDD1C9A5B99D95B9D PUSH1 0xB2 SHL DUP2 DUP4 ADD MSTORE PUSH1 0xC0 DUP5 ADD MSTORE DUP4 MLOAD DUP1 DUP6 ADD DUP6 MSTORE PUSH1 0x5 DUP2 MSTORE PUSH5 0x44616E6479 PUSH1 0xD8 SHL DUP2 DUP4 ADD MSTORE PUSH1 0xE0 DUP5 ADD MSTORE DUP4 MLOAD DUP1 DUP6 ADD DUP6 MSTORE PUSH1 0xC DUP2 MSTORE PUSH12 0x53636172206F6E2066616365 PUSH1 0xA0 SHL DUP2 DUP4 ADD MSTORE PUSH2 0x100 DUP5 ADD MSTORE DUP4 MLOAD DUP1 DUP6 ADD DUP6 MSTORE PUSH1 0xE DUP2 MSTORE PUSH14 0x53636172206F6E20746174746F6F PUSH1 0x90 SHL DUP2 DUP4 ADD MSTORE PUSH2 0x120 DUP5 ADD MSTORE DUP4 MLOAD DUP1 DUP6 ADD SWAP1 SWAP5 MSTORE SWAP1 DUP4 MSTORE PUSH7 0x4F6E6520657965 PUSH1 0xC8 SHL SWAP1 DUP4 ADD MSTORE PUSH2 0x140 DUP2 ADD SWAP2 SWAP1 SWAP2 MSTORE PUSH3 0x599 SWAP1 PUSH1 0x11 SWAP1 PUSH1 0xB PUSH3 0x911 JUMP JUMPDEST POP PUSH1 0x40 DUP1 MLOAD PUSH2 0x140 DUP2 ADD DUP3 MSTORE PUSH1 0xB PUSH2 0x100 DUP3 ADD SWAP1 DUP2 MSTORE PUSH11 0x436C65616E6C696E657373 PUSH1 0xA8 SHL PUSH2 0x120 DUP4 ADD MSTORE DUP2 MSTORE DUP2 MLOAD DUP1 DUP4 ADD DUP4 MSTORE PUSH1 0x9 DUP1 DUP3 MSTORE PUSH9 0x2330B4B91039B5B4B7 PUSH1 0xB9 SHL PUSH1 0x20 DUP4 DUP2 ADD SWAP2 SWAP1 SWAP2 MSTORE DUP1 DUP5 ADD SWAP3 SWAP1 SWAP3 MSTORE DUP4 MLOAD DUP1 DUP6 ADD DUP6 MSTORE SWAP1 DUP2 MSTORE PUSH9 0x2230B9359039B5B4B7 PUSH1 0xB9 SHL DUP2 DUP4 ADD MSTORE DUP3 DUP5 ADD MSTORE DUP3 MLOAD DUP1 DUP5 ADD DUP5 MSTORE PUSH1 0xA DUP2 MSTORE PUSH10 0x496E76616C696469736D PUSH1 0xB0 SHL DUP2 DUP4 ADD MSTORE PUSH1 0x60 DUP4 ADD MSTORE DUP3 MLOAD DUP1 DUP5 ADD DUP5 MSTORE PUSH1 0x7 DUP1 DUP3 MSTORE PUSH7 0x4865616C746879 PUSH1 0xC8 SHL DUP3 DUP5 ADD MSTORE PUSH1 0x80 DUP5 ADD SWAP2 SWAP1 SWAP2 MSTORE DUP4 MLOAD DUP1 DUP6 ADD DUP6 MSTORE PUSH1 0x6 DUP2 MSTORE PUSH6 0x84DEF2D2E6D PUSH1 0xD3 SHL DUP2 DUP5 ADD MSTORE PUSH1 0xA0 DUP5 ADD MSTORE DUP4 MLOAD DUP1 DUP6 ADD DUP6 MSTORE DUP2 DUP2 MSTORE PUSH7 0x13995D5D1C985B PUSH1 0xCA SHL DUP2 DUP5 ADD MSTORE PUSH1 0xC0 DUP5 ADD MSTORE DUP4 MLOAD DUP1 DUP6 ADD SWAP1 SWAP5 MSTORE DUP4 MSTORE PUSH7 0x8ED2E4D8D2E6D PUSH1 0xCB SHL SWAP1 DUP4 ADD MSTORE PUSH1 0xE0 DUP2 ADD SWAP2 SWAP1 SWAP2 MSTORE PUSH3 0x6C0 SWAP1 PUSH1 0x12 SWAP1 PUSH1 0x8 PUSH3 0x809 JUMP JUMPDEST POP CALLVALUE DUP1 ISZERO PUSH3 0x6CE JUMPI PUSH1 0x0 DUP1 REVERT JUMPDEST POP PUSH1 0x40 MLOAD PUSH3 0x4B36 CODESIZE SUB DUP1 PUSH3 0x4B36 DUP4 CODECOPY DUP2 ADD PUSH1 0x40 DUP2 SWAP1 MSTORE PUSH3 0x6F1 SWAP2 PUSH3 0xA68 JUMP JUMPDEST PUSH1 0x40 MLOAD DUP1 PUSH1 0x60 ADD PUSH1 0x40 MSTORE DUP1 PUSH1 0x27 DUP2 MSTORE PUSH1 0x20 ADD PUSH3 0x4B0F PUSH1 0x27 SWAP2 CODECOPY PUSH1 0x40 MLOAD DUP1 PUSH1 0x40 ADD PUSH1 0x40 MSTORE DUP1 PUSH1 0x12 DUP2 MSTORE PUSH1 0x20 ADD PUSH18 0x5265706C696361416E696D654C6F6F745043 PUSH1 0x70 SHL DUP2 MSTORE POP DUP3 DUP3 DUP3 DUP2 PUSH1 0x0 SWAP1 DUP1 MLOAD SWAP1 PUSH1 0x20 ADD SWAP1 PUSH3 0x751 SWAP3 SWAP2 SWAP1 PUSH3 0x963 JUMP JUMPDEST POP DUP1 MLOAD PUSH3 0x767 SWAP1 PUSH1 0x1 SWAP1 PUSH1 0x20 DUP5 ADD SWAP1 PUSH3 0x963 JUMP JUMPDEST POP POP POP PUSH3 0x784 PUSH3 0x77E PUSH3 0x7B3 PUSH1 0x20 SHL PUSH1 0x20 SHR JUMP JUMPDEST PUSH3 0x7B7 JUMP JUMPDEST PUSH1 0x1 PUSH1 0xB SSTORE PUSH1 0xC DUP1 SLOAD PUSH1 0x1 PUSH1 0x1 PUSH1 0xA0 SHL SUB NOT AND PUSH1 0x1 PUSH1 0x1 PUSH1 0xA0 SHL SUB SWAP3 SWAP1 SWAP3 AND SWAP2 SWAP1 SWAP2 OR SWAP1 SSTORE POP PUSH3 0xAD7 SWAP2 POP POP JUMP JUMPDEST CALLER SWAP1 JUMP JUMPDEST PUSH1 0xA DUP1 SLOAD PUSH1 0x1 PUSH1 0x1 PUSH1 0xA0 SHL SUB DUP4 DUP2 AND PUSH1 0x1 PUSH1 0x1 PUSH1 0xA0 SHL SUB NOT DUP4 AND DUP2 OR SWAP1 SWAP4 SSTORE PUSH1 0x40 MLOAD SWAP2 AND SWAP2 SWAP1 DUP3 SWAP1 PUSH32 0x8BE0079C531659141344CD1FD0A4F28419497F9722A3DAAFE3B4186F6B6457E0 SWAP1 PUSH1 0x0 SWAP1 LOG3 POP POP JUMP JUMPDEST DUP3 DUP1 SLOAD DUP3 DUP3 SSTORE SWAP1 PUSH1 0x0 MSTORE PUSH1 0x20 PUSH1 0x0 KECCAK256 SWAP1 DUP2 ADD SWAP3 DUP3 ISZERO PUSH3 0x85B JUMPI SWAP2 PUSH1 0x20 MUL DUP3 ADD JUMPDEST DUP3 DUP2 GT ISZERO PUSH3 0x85B JUMPI DUP3 MLOAD DUP1 MLOAD PUSH3 0x84A SWAP2 DUP5 SWAP2 PUSH1 0x20 SWAP1 SWAP2 ADD SWAP1 PUSH3 0x963 JUMP JUMPDEST POP SWAP2 PUSH1 0x20 ADD SWAP2 SWAP1 PUSH1 0x1 ADD SWAP1 PUSH3 0x82A JUMP JUMPDEST POP PUSH3 0x869 SWAP3 SWAP2 POP PUSH3 0x9EE JUMP JUMPDEST POP SWAP1 JUMP JUMPDEST DUP3 DUP1 SLOAD DUP3 DUP3 SSTORE SWAP1 PUSH1 0x0 MSTORE PUSH1 0x20 PUSH1 0x0 KECCAK256 SWAP1 DUP2 ADD SWAP3 DUP3 ISZERO PUSH3 0x85B JUMPI SWAP2 PUSH1 0x20 MUL DUP3 ADD JUMPDEST DUP3 DUP2 GT ISZERO PUSH3 0x85B JUMPI DUP3 MLOAD DUP1 MLOAD PUSH3 0x8AE SWAP2 DUP5 SWAP2 PUSH1 0x20 SWAP1 SWAP2 ADD SWAP1 PUSH3 0x963 JUMP JUMPDEST POP SWAP2 PUSH1 0x20 ADD SWAP2 SWAP1 PUSH1 0x1 ADD SWAP1 PUSH3 0x88E JUMP JUMPDEST DUP3 DUP1 SLOAD DUP3 DUP3 SSTORE SWAP1 PUSH1 0x0 MSTORE PUSH1 0x20 PUSH1 0x0 KECCAK256 SWAP1 DUP2 ADD SWAP3 DUP3 ISZERO PUSH3 0x85B JUMPI SWAP2 PUSH1 0x20 MUL DUP3 ADD JUMPDEST DUP3 DUP2 GT ISZERO PUSH3 0x85B JUMPI DUP3 MLOAD DUP1 MLOAD PUSH3 0x900 SWAP2 DUP5 SWAP2 PUSH1 0x20 SWAP1 SWAP2 ADD SWAP1 PUSH3 0x963 JUMP JUMPDEST POP SWAP2 PUSH1 0x20 ADD SWAP2 SWAP1 PUSH1 0x1 ADD SWAP1 PUSH3 0x8E0 JUMP JUMPDEST DUP3 DUP1 SLOAD DUP3 DUP3 SSTORE SWAP1 PUSH1 0x0 MSTORE PUSH1 0x20 PUSH1 0x0 KECCAK256 SWAP1 DUP2 ADD SWAP3 DUP3 ISZERO PUSH3 0x85B JUMPI SWAP2 PUSH1 0x20 MUL DUP3 ADD JUMPDEST DUP3 DUP2 GT ISZERO PUSH3 0x85B JUMPI DUP3 MLOAD DUP1 MLOAD PUSH3 0x952 SWAP2 DUP5 SWAP2 PUSH1 0x20 SWAP1 SWAP2 ADD SWAP1 PUSH3 0x963 JUMP JUMPDEST POP SWAP2 PUSH1 0x20 ADD SWAP2 SWAP1 PUSH1 0x1 ADD SWAP1 PUSH3 0x932 JUMP JUMPDEST DUP3 DUP1 SLOAD PUSH3 0x971 SWAP1 PUSH3 0xA9A JUMP JUMPDEST SWAP1 PUSH1 0x0 MSTORE PUSH1 0x20 PUSH1 0x0 KECCAK256 SWAP1 PUSH1 0x1F ADD PUSH1 0x20 SWAP1 DIV DUP2 ADD SWAP3 DUP3 PUSH3 0x995 JUMPI PUSH1 0x0 DUP6 SSTORE PUSH3 0x9E0 JUMP JUMPDEST DUP3 PUSH1 0x1F LT PUSH3 0x9B0 JUMPI DUP1 MLOAD PUSH1 0xFF NOT AND DUP4 DUP1 ADD OR DUP6 SSTORE PUSH3 0x9E0 JUMP JUMPDEST DUP3 DUP1 ADD PUSH1 0x1 ADD DUP6 SSTORE DUP3 ISZERO PUSH3 0x9E0 JUMPI SWAP2 DUP3 ADD JUMPDEST DUP3 DUP2 GT ISZERO PUSH3 0x9E0 JUMPI DUP3 MLOAD DUP3 SSTORE SWAP2 PUSH1 0x20 ADD SWAP2 SWAP1 PUSH1 0x1 ADD SWAP1 PUSH3 0x9C3 JUMP JUMPDEST POP PUSH3 0x869 SWAP3 SWAP2 POP PUSH3 0xA0F JUMP JUMPDEST DUP1 DUP3 GT ISZERO PUSH3 0x869 JUMPI PUSH1 0x0 PUSH3 0xA05 DUP3 DUP3 PUSH3 0xA26 JUMP JUMPDEST POP PUSH1 0x1 ADD PUSH3 0x9EE JUMP JUMPDEST JUMPDEST DUP1 DUP3 GT ISZERO PUSH3 0x869 JUMPI PUSH1 0x0 DUP2 SSTORE PUSH1 0x1 ADD PUSH3 0xA10 JUMP JUMPDEST POP DUP1 SLOAD PUSH3 0xA34 SWAP1 PUSH3 0xA9A JUMP JUMPDEST PUSH1 0x0 DUP3 SSTORE DUP1 PUSH1 0x1F LT PUSH3 0xA45 JUMPI POP POP JUMP JUMPDEST PUSH1 0x1F ADD PUSH1 0x20 SWAP1 DIV SWAP1 PUSH1 0x0 MSTORE PUSH1 0x20 PUSH1 0x0 KECCAK256 SWAP1 DUP2 ADD SWAP1 PUSH3 0xA65 SWAP2 SWAP1 PUSH3 0xA0F JUMP JUMPDEST POP JUMP JUMPDEST PUSH1 0x0 PUSH1 0x20 DUP3 DUP5 SUB SLT ISZERO PUSH3 0xA7B JUMPI PUSH1 0x0 DUP1 REVERT JUMPDEST DUP2 MLOAD PUSH1 0x1 PUSH1 0x1 PUSH1 0xA0 SHL SUB DUP2 AND DUP2 EQ PUSH3 0xA93 JUMPI PUSH1 0x0 DUP1 REVERT JUMPDEST SWAP4 SWAP3 POP POP POP JUMP JUMPDEST PUSH1 0x1 DUP2 DUP2 SHR SWAP1 DUP3 AND DUP1 PUSH3 0xAAF JUMPI PUSH1 0x7F DUP3 AND SWAP2 POP JUMPDEST PUSH1 0x20 DUP3 LT DUP2 EQ ISZERO PUSH3 0xAD1 JUMPI PUSH4 0x4E487B71 PUSH1 0xE0 SHL PUSH1 0x0 MSTORE PUSH1 0x22 PUSH1 0x4 MSTORE PUSH1 0x24 PUSH1 0x0 REVERT JUMPDEST POP SWAP2 SWAP1 POP JUMP JUMPDEST PUSH2 0x4028 DUP1 PUSH3 0xAE7 PUSH1 0x0 CODECOPY PUSH1 0x0 RETURN INVALID PUSH1 0x80 PUSH1 0x40 MSTORE PUSH1 0x4 CALLDATASIZE LT PUSH2 0x1FE JUMPI PUSH1 0x0 CALLDATALOAD PUSH1 0xE0 SHR DUP1 PUSH4 0x761C6CC4 GT PUSH2 0x11D JUMPI DUP1 PUSH4 0xB88D4FDE GT PUSH2 0xB0 JUMPI DUP1 PUSH4 0xD17C9B21 GT PUSH2 0x7F JUMPI DUP1 PUSH4 0xF2FDE38B GT PUSH2 0x64 JUMPI DUP1 PUSH4 0xF2FDE38B EQ PUSH2 0x5CB JUMPI DUP1 PUSH4 0xF3FEF3A3 EQ PUSH2 0x5EB JUMPI DUP1 PUSH4 0xFDC3A9CC EQ PUSH2 0x60B JUMPI PUSH1 0x0 DUP1 REVERT JUMPDEST DUP1 PUSH4 0xD17C9B21 EQ PUSH2 0x562 JUMPI DUP1 PUSH4 0xE985E9C5 EQ PUSH2 0x582 JUMPI PUSH1 0x0 DUP1 REVERT JUMPDEST DUP1 PUSH4 0xB88D4FDE EQ PUSH2 0x4FA JUMPI DUP1 PUSH4 0xC07B1978 EQ PUSH2 0x51A JUMPI DUP1 PUSH4 0xC87B56DD EQ PUSH2 0x53A JUMPI DUP1 PUSH4 0xD1058E59 EQ PUSH2 0x55A JUMPI PUSH1 0x0 DUP1 REVERT JUMPDEST DUP1 PUSH4 0x95D89B41 GT PUSH2 0xEC JUMPI DUP1 PUSH4 0x95D89B41 EQ PUSH2 0x485 JUMPI DUP1 PUSH4 0x99F43ABA EQ PUSH2 0x49A JUMPI DUP1 PUSH4 0xA22CB465 EQ PUSH2 0x4BA JUMPI DUP1 PUSH4 0xAB86DE6C EQ PUSH2 0x4DA JUMPI PUSH1 0x0 DUP1 REVERT JUMPDEST DUP1 PUSH4 0x761C6CC4 EQ PUSH2 0x409 JUMPI DUP1 PUSH4 0x77AEFADD EQ PUSH2 0x429 JUMPI DUP1 PUSH4 0x7A8639ED EQ PUSH2 0x449 JUMPI DUP1 PUSH4 0x8DA5CB5B EQ PUSH2 0x467 JUMPI PUSH1 0x0 DUP1 REVERT JUMPDEST DUP1 PUSH4 0x3886DA94 GT PUSH2 0x195 JUMPI DUP1 PUSH4 0x6352211E GT PUSH2 0x164 JUMPI DUP1 PUSH4 0x6352211E EQ PUSH2 0x399 JUMPI DUP1 PUSH4 0x6817C76C EQ PUSH2 0x3B9 JUMPI DUP1 PUSH4 0x70A08231 EQ PUSH2 0x3D4 JUMPI DUP1 PUSH4 0x715018A6 EQ PUSH2 0x3F4 JUMPI PUSH1 0x0 DUP1 REVERT JUMPDEST DUP1 PUSH4 0x3886DA94 EQ PUSH2 0x326 JUMPI DUP1 PUSH4 0x42842E0E EQ PUSH2 0x346 JUMPI DUP1 PUSH4 0x434F48C4 EQ PUSH2 0x366 JUMPI DUP1 PUSH4 0x4F6CCCE7 EQ PUSH2 0x379 JUMPI PUSH1 0x0 DUP1 REVERT JUMPDEST DUP1 PUSH4 0x18160DDD GT PUSH2 0x1D1 JUMPI DUP1 PUSH4 0x18160DDD EQ PUSH2 0x2B4 JUMPI DUP1 PUSH4 0x23B872DD EQ PUSH2 0x2D3 JUMPI DUP1 PUSH4 0x2F745C59 EQ PUSH2 0x2F3 JUMPI DUP1 PUSH4 0x379607F5 EQ PUSH2 0x313 JUMPI PUSH1 0x0 DUP1 REVERT JUMPDEST DUP1 PUSH4 0x1FFC9A7 EQ PUSH2 0x203 JUMPI DUP1 PUSH4 0x6FDDE03 EQ PUSH2 0x238 JUMPI DUP1 PUSH4 0x81812FC EQ PUSH2 0x25A JUMPI DUP1 PUSH4 0x95EA7B3 EQ PUSH2 0x292 JUMPI JUMPDEST PUSH1 0x0 DUP1 REVERT JUMPDEST CALLVALUE DUP1 ISZERO PUSH2 0x20F JUMPI PUSH1 0x0 DUP1 REVERT JUMPDEST POP PUSH2 0x223 PUSH2 0x21E CALLDATASIZE PUSH1 0x4 PUSH2 0x3492 JUMP JUMPDEST PUSH2 0x62B JUMP JUMPDEST PUSH1 0x40 MLOAD SWAP1 ISZERO ISZERO DUP2 MSTORE PUSH1 0x20 ADD JUMPDEST PUSH1 0x40 MLOAD DUP1 SWAP2 SUB SWAP1 RETURN JUMPDEST CALLVALUE DUP1 ISZERO PUSH2 0x244 JUMPI PUSH1 0x0 DUP1 REVERT JUMPDEST POP PUSH2 0x24D PUSH2 0x66F JUMP JUMPDEST PUSH1 0x40 MLOAD PUSH2 0x22F SWAP2 SWAP1 PUSH2 0x3B03 JUMP JUMPDEST CALLVALUE DUP1 ISZERO PUSH2 0x266 JUMPI PUSH1 0x0 DUP1 REVERT JUMPDEST POP PUSH2 0x27A PUSH2 0x275 CALLDATASIZE PUSH1 0x4 PUSH2 0x34CC JUMP JUMPDEST PUSH2 0x701 JUMP JUMPDEST PUSH1 0x40 MLOAD PUSH1 0x1 PUSH1 0x1 PUSH1 0xA0 SHL SUB SWAP1 SWAP2 AND DUP2 MSTORE PUSH1 0x20 ADD PUSH2 0x22F JUMP JUMPDEST CALLVALUE DUP1 ISZERO PUSH2 0x29E JUMPI PUSH1 0x0 DUP1 REVERT JUMPDEST POP PUSH2 0x2B2 PUSH2 0x2AD CALLDATASIZE PUSH1 0x4 PUSH2 0x3466 JUMP JUMPDEST PUSH2 0x7AC JUMP JUMPDEST STOP JUMPDEST CALLVALUE DUP1 ISZERO PUSH2 0x2C0 JUMPI PUSH1 0x0 DUP1 REVERT JUMPDEST POP PUSH1 0x8 SLOAD JUMPDEST PUSH1 0x40 MLOAD SWAP1 DUP2 MSTORE PUSH1 0x20 ADD PUSH2 0x22F JUMP JUMPDEST CALLVALUE DUP1 ISZERO PUSH2 0x2DF JUMPI PUSH1 0x0 DUP1 REVERT JUMPDEST POP PUSH2 0x2B2 PUSH2 0x2EE CALLDATASIZE PUSH1 0x4 PUSH2 0x3312 JUMP JUMPDEST PUSH2 0x8DE JUMP JUMPDEST CALLVALUE DUP1 ISZERO PUSH2 0x2FF JUMPI PUSH1 0x0 DUP1 REVERT JUMPDEST POP PUSH2 0x2C5 PUSH2 0x30E CALLDATASIZE PUSH1 0x4 PUSH2 0x3466 JUMP JUMPDEST PUSH2 0x965 JUMP JUMPDEST PUSH2 0x2B2 PUSH2 0x321 CALLDATASIZE PUSH1 0x4 PUSH2 0x34CC JUMP JUMPDEST PUSH2 0xA0D JUMP JUMPDEST CALLVALUE DUP1 ISZERO PUSH2 0x332 JUMPI PUSH1 0x0 DUP1 REVERT JUMPDEST POP PUSH2 0x24D PUSH2 0x341 CALLDATASIZE PUSH1 0x4 PUSH2 0x34CC JUMP JUMPDEST PUSH2 0xCCE JUMP JUMPDEST CALLVALUE DUP1 ISZERO PUSH2 0x352 JUMPI PUSH1 0x0 DUP1 REVERT JUMPDEST POP PUSH2 0x2B2 PUSH2 0x361 CALLDATASIZE PUSH1 0x4 PUSH2 0x3312 JUMP JUMPDEST PUSH2 0xDE1 JUMP JUMPDEST PUSH2 0x2B2 PUSH2 0x374 CALLDATASIZE PUSH1 0x4 PUSH2 0x34CC JUMP JUMPDEST PUSH2 0xDFC JUMP JUMPDEST CALLVALUE DUP1 ISZERO PUSH2 0x385 JUMPI PUSH1 0x0 DUP1 REVERT JUMPDEST POP PUSH2 0x2C5 PUSH2 0x394 CALLDATASIZE PUSH1 0x4 PUSH2 0x34CC JUMP JUMPDEST PUSH2 0xF2F JUMP JUMPDEST CALLVALUE DUP1 ISZERO PUSH2 0x3A5 JUMPI PUSH1 0x0 DUP1 REVERT JUMPDEST POP PUSH2 0x27A PUSH2 0x3B4 CALLDATASIZE PUSH1 0x4 PUSH2 0x34CC JUMP JUMPDEST PUSH2 0xFD3 JUMP JUMPDEST CALLVALUE DUP1 ISZERO PUSH2 0x3C5 JUMPI PUSH1 0x0 DUP1 REVERT JUMPDEST POP PUSH2 0x2C5 PUSH7 0x2386F26FC10000 DUP2 JUMP JUMPDEST CALLVALUE DUP1 ISZERO PUSH2 0x3E0 JUMPI PUSH1 0x0 DUP1 REVERT JUMPDEST POP PUSH2 0x2C5 PUSH2 0x3EF CALLDATASIZE PUSH1 0x4 PUSH2 0x3298 JUMP JUMPDEST PUSH2 0x105E JUMP JUMPDEST CALLVALUE DUP1 ISZERO PUSH2 0x400 JUMPI PUSH1 0x0 DUP1 REVERT JUMPDEST POP PUSH2 0x2B2 PUSH2 0x10F8 JUMP JUMPDEST CALLVALUE DUP1 ISZERO PUSH2 0x415 JUMPI PUSH1 0x0 DUP1 REVERT JUMPDEST POP PUSH2 0x24D PUSH2 0x424 CALLDATASIZE PUSH1 0x4 PUSH2 0x34CC JUMP JUMPDEST PUSH2 0x115E JUMP JUMPDEST CALLVALUE DUP1 ISZERO PUSH2 0x435 JUMPI PUSH1 0x0 DUP1 REVERT JUMPDEST POP PUSH2 0x24D PUSH2 0x444 CALLDATASIZE PUSH1 0x4 PUSH2 0x34CC JUMP JUMPDEST PUSH2 0x1268 JUMP JUMPDEST CALLVALUE DUP1 ISZERO PUSH2 0x455 JUMPI PUSH1 0x0 DUP1 REVERT JUMPDEST POP PUSH1 0xC SLOAD PUSH1 0x1 PUSH1 0x1 PUSH1 0xA0 SHL SUB AND PUSH2 0x27A JUMP JUMPDEST CALLVALUE DUP1 ISZERO PUSH2 0x473 JUMPI PUSH1 0x0 DUP1 REVERT JUMPDEST POP PUSH1 0xA SLOAD PUSH1 0x1 PUSH1 0x1 PUSH1 0xA0 SHL SUB AND PUSH2 0x27A JUMP JUMPDEST CALLVALUE DUP1 ISZERO PUSH2 0x491 JUMPI PUSH1 0x0 DUP1 REVERT JUMPDEST POP PUSH2 0x24D PUSH2 0x1372 JUMP JUMPDEST CALLVALUE DUP1 ISZERO PUSH2 0x4A6 JUMPI PUSH1 0x0 DUP1 REVERT JUMPDEST POP PUSH1 0xC SLOAD PUSH2 0x27A SWAP1 PUSH1 0x1 PUSH1 0x1 PUSH1 0xA0 SHL SUB AND DUP2 JUMP JUMPDEST CALLVALUE DUP1 ISZERO PUSH2 0x4C6 JUMPI PUSH1 0x0 DUP1 REVERT JUMPDEST POP PUSH2 0x2B2 PUSH2 0x4D5 CALLDATASIZE PUSH1 0x4 PUSH2 0x3433 JUMP JUMPDEST PUSH2 0x1381 JUMP JUMPDEST CALLVALUE DUP1 ISZERO PUSH2 0x4E6 JUMPI PUSH1 0x0 DUP1 REVERT JUMPDEST POP PUSH2 0x2B2 PUSH2 0x4F5 CALLDATASIZE PUSH1 0x4 PUSH2 0x3298 JUMP JUMPDEST PUSH2 0x1464 JUMP JUMPDEST CALLVALUE DUP1 ISZERO PUSH2 0x506 JUMPI PUSH1 0x0 DUP1 REVERT JUMPDEST POP PUSH2 0x2B2 PUSH2 0x515 CALLDATASIZE PUSH1 0x4 PUSH2 0x3353 JUMP JUMPDEST PUSH2 0x151D JUMP JUMPDEST CALLVALUE DUP1 ISZERO PUSH2 0x526 JUMPI PUSH1 0x0 DUP1 REVERT JUMPDEST POP PUSH2 0x24D PUSH2 0x535 CALLDATASIZE PUSH1 0x4 PUSH2 0x34CC JUMP JUMPDEST PUSH2 0x15AB JUMP JUMPDEST CALLVALUE DUP1 ISZERO PUSH2 0x546 JUMPI PUSH1 0x0 DUP1 REVERT JUMPDEST POP PUSH2 0x24D PUSH2 0x555 CALLDATASIZE PUSH1 0x4 PUSH2 0x34CC JUMP JUMPDEST PUSH2 0x16B5 JUMP JUMPDEST PUSH2 0x2B2 PUSH2 0x1C79 JUMP JUMPDEST CALLVALUE DUP1 ISZERO PUSH2 0x56E JUMPI PUSH1 0x0 DUP1 REVERT JUMPDEST POP PUSH2 0x24D PUSH2 0x57D CALLDATASIZE PUSH1 0x4 PUSH2 0x34CC JUMP JUMPDEST PUSH2 0x1F40 JUMP JUMPDEST CALLVALUE DUP1 ISZERO PUSH2 0x58E JUMPI PUSH1 0x0 DUP1 REVERT JUMPDEST POP PUSH2 0x223 PUSH2 0x59D CALLDATASIZE PUSH1 0x4 PUSH2 0x32D9 JUMP JUMPDEST PUSH1 0x1 PUSH1 0x1 PUSH1 0xA0 SHL SUB SWAP2 DUP3 AND PUSH1 0x0 SWAP1 DUP2 MSTORE PUSH1 0x5 PUSH1 0x20 SWAP1 DUP2 MSTORE PUSH1 0x40 DUP1 DUP4 KECCAK256 SWAP4 SWAP1 SWAP5 AND DUP3 MSTORE SWAP2 SWAP1 SWAP2 MSTORE KECCAK256 SLOAD PUSH1 0xFF AND SWAP1 JUMP JUMPDEST CALLVALUE DUP1 ISZERO PUSH2 0x5D7 JUMPI PUSH1 0x0 DUP1 REVERT JUMPDEST POP PUSH2 0x2B2 PUSH2 0x5E6 CALLDATASIZE PUSH1 0x4 PUSH2 0x3298 JUMP JUMPDEST PUSH2 0x204A JUMP JUMPDEST CALLVALUE DUP1 ISZERO PUSH2 0x5F7 JUMPI PUSH1 0x0 DUP1 REVERT JUMPDEST POP PUSH2 0x2B2 PUSH2 0x606 CALLDATASIZE PUSH1 0x4 PUSH2 0x3466 JUMP JUMPDEST PUSH2 0x212C JUMP JUMPDEST CALLVALUE DUP1 ISZERO PUSH2 0x617 JUMPI PUSH1 0x0 DUP1 REVERT JUMPDEST POP PUSH2 0x24D PUSH2 0x626 CALLDATASIZE PUSH1 0x4 PUSH2 0x34CC JUMP JUMPDEST PUSH2 0x226E JUMP JUMPDEST PUSH1 0x0 PUSH1 0x1 PUSH1 0x1 PUSH1 0xE0 SHL SUB NOT DUP3 AND PUSH32 0x780E9D6300000000000000000000000000000000000000000000000000000000 EQ DUP1 PUSH2 0x669 JUMPI POP PUSH2 0x669 DUP3 PUSH2 0x2378 JUMP JUMPDEST SWAP3 SWAP2 POP POP JUMP JUMPDEST PUSH1 0x60 PUSH1 0x0 DUP1 SLOAD PUSH2 0x67E SWAP1 PUSH2 0x3BA4 JUMP JUMPDEST DUP1 PUSH1 0x1F ADD PUSH1 0x20 DUP1 SWAP2 DIV MUL PUSH1 0x20 ADD PUSH1 0x40 MLOAD SWAP1 DUP2 ADD PUSH1 0x40 MSTORE DUP1 SWAP3 SWAP2 SWAP1 DUP2 DUP2 MSTORE PUSH1 0x20 ADD DUP3 DUP1 SLOAD PUSH2 0x6AA SWAP1 PUSH2 0x3BA4 JUMP JUMPDEST DUP1 ISZERO PUSH2 0x6F7 JUMPI DUP1 PUSH1 0x1F LT PUSH2 0x6CC JUMPI PUSH2 0x100 DUP1 DUP4 SLOAD DIV MUL DUP4 MSTORE SWAP2 PUSH1 0x20 ADD SWAP2 PUSH2 0x6F7 JUMP JUMPDEST DUP3 ADD SWAP2 SWAP1 PUSH1 0x0 MSTORE PUSH1 0x20 PUSH1 0x0 KECCAK256 SWAP1 JUMPDEST DUP2 SLOAD DUP2 MSTORE SWAP1 PUSH1 0x1 ADD SWAP1 PUSH1 0x20 ADD DUP1 DUP4 GT PUSH2 0x6DA JUMPI DUP3 SWAP1 SUB PUSH1 0x1F AND DUP3 ADD SWAP2 JUMPDEST POP POP POP POP POP SWAP1 POP SWAP1 JUMP JUMPDEST PUSH1 0x0 DUP2 DUP2 MSTORE PUSH1 0x2 PUSH1 0x20 MSTORE PUSH1 0x40 DUP2 KECCAK256 SLOAD PUSH1 0x1 PUSH1 0x1 PUSH1 0xA0 SHL SUB AND PUSH2 0x790 JUMPI PUSH1 0x40 MLOAD PUSH3 0x461BCD PUSH1 0xE5 SHL DUP2 MSTORE PUSH1 0x20 PUSH1 0x4 DUP3 ADD MSTORE PUSH1 0x2C PUSH1 0x24 DUP3 ADD MSTORE PUSH32 0x4552433732313A20617070726F76656420717565727920666F72206E6F6E6578 PUSH1 0x44 DUP3 ADD MSTORE PUSH32 0x697374656E7420746F6B656E0000000000000000000000000000000000000000 PUSH1 0x64 DUP3 ADD MSTORE PUSH1 0x84 ADD JUMPDEST PUSH1 0x40 MLOAD DUP1 SWAP2 SUB SWAP1 REVERT JUMPDEST POP PUSH1 0x0 SWAP1 DUP2 MSTORE PUSH1 0x4 PUSH1 0x20 MSTORE PUSH1 0x40 SWAP1 KECCAK256 SLOAD PUSH1 0x1 PUSH1 0x1 PUSH1 0xA0 SHL SUB AND SWAP1 JUMP JUMPDEST PUSH1 0x0 PUSH2 0x7B7 DUP3 PUSH2 0xFD3 JUMP JUMPDEST SWAP1 POP DUP1 PUSH1 0x1 PUSH1 0x1 PUSH1 0xA0 SHL SUB AND DUP4 PUSH1 0x1 PUSH1 0x1 PUSH1 0xA0 SHL SUB AND EQ ISZERO PUSH2 0x841 JUMPI PUSH1 0x40 MLOAD PUSH3 0x461BCD PUSH1 0xE5 SHL DUP2 MSTORE PUSH1 0x20 PUSH1 0x4 DUP3 ADD MSTORE PUSH1 0x21 PUSH1 0x24 DUP3 ADD MSTORE PUSH32 0x4552433732313A20617070726F76616C20746F2063757272656E74206F776E65 PUSH1 0x44 DUP3 ADD MSTORE PUSH32 0x7200000000000000000000000000000000000000000000000000000000000000 PUSH1 0x64 DUP3 ADD MSTORE PUSH1 0x84 ADD PUSH2 0x787 JUMP JUMPDEST CALLER PUSH1 0x1 PUSH1 0x1 PUSH1 0xA0 SHL SUB DUP3 AND EQ DUP1 PUSH2 0x85D JUMPI POP PUSH2 0x85D DUP2 CALLER PUSH2 0x59D JUMP JUMPDEST PUSH2 0x8CF JUMPI PUSH1 0x40 MLOAD PUSH3 0x461BCD PUSH1 0xE5 SHL DUP2 MSTORE PUSH1 0x20 PUSH1 0x4 DUP3 ADD MSTORE PUSH1 0x38 PUSH1 0x24 DUP3 ADD MSTORE PUSH32 0x4552433732313A20617070726F76652063616C6C6572206973206E6F74206F77 PUSH1 0x44 DUP3 ADD MSTORE PUSH32 0x6E6572206E6F7220617070726F76656420666F7220616C6C0000000000000000 PUSH1 0x64 DUP3 ADD MSTORE PUSH1 0x84 ADD PUSH2 0x787 JUMP JUMPDEST PUSH2 0x8D9 DUP4 DUP4 PUSH2 0x2413 JUMP JUMPDEST POP POP POP JUMP JUMPDEST PUSH2 0x8E8 CALLER DUP3 PUSH2 0x248E JUMP JUMPDEST PUSH2 0x95A JUMPI PUSH1 0x40 MLOAD PUSH3 0x461BCD PUSH1 0xE5 SHL DUP2 MSTORE PUSH1 0x20 PUSH1 0x4 DUP3 ADD MSTORE PUSH1 0x31 PUSH1 0x24 DUP3 ADD MSTORE PUSH32 0x4552433732313A207472616E736665722063616C6C6572206973206E6F74206F PUSH1 0x44 DUP3 ADD MSTORE PUSH32 0x776E6572206E6F7220617070726F766564000000000000000000000000000000 PUSH1 0x64 DUP3 ADD MSTORE PUSH1 0x84 ADD PUSH2 0x787 JUMP JUMPDEST PUSH2 0x8D9 DUP4 DUP4 DUP4 PUSH2 0x2596 JUMP JUMPDEST PUSH1 0x0 PUSH2 0x970 DUP4 PUSH2 0x105E JUMP JUMPDEST DUP3 LT PUSH2 0x9E4 JUMPI PUSH1 0x40 MLOAD PUSH3 0x461BCD PUSH1 0xE5 SHL DUP2 MSTORE PUSH1 0x20 PUSH1 0x4 DUP3 ADD MSTORE PUSH1 0x2B PUSH1 0x24 DUP3 ADD MSTORE PUSH32 0x455243373231456E756D657261626C653A206F776E657220696E646578206F75 PUSH1 0x44 DUP3 ADD MSTORE PUSH32 0x74206F6620626F756E6473000000000000000000000000000000000000000000 PUSH1 0x64 DUP3 ADD MSTORE PUSH1 0x84 ADD PUSH2 0x787 JUMP JUMPDEST POP PUSH1 0x1 PUSH1 0x1 PUSH1 0xA0 SHL SUB SWAP2 SWAP1 SWAP2 AND PUSH1 0x0 SWAP1 DUP2 MSTORE PUSH1 0x6 PUSH1 0x20 SWAP1 DUP2 MSTORE PUSH1 0x40 DUP1 DUP4 KECCAK256 SWAP4 DUP4 MSTORE SWAP3 SWAP1 MSTORE KECCAK256 SLOAD SWAP1 JUMP JUMPDEST PUSH1 0x2 PUSH1 0xB SLOAD EQ ISZERO PUSH2 0xA60 JUMPI PUSH1 0x40 MLOAD PUSH3 0x461BCD PUSH1 0xE5 SHL DUP2 MSTORE PUSH1 0x20 PUSH1 0x4 DUP3 ADD MSTORE PUSH1 0x1F PUSH1 0x24 DUP3 ADD MSTORE PUSH32 0x5265656E7472616E637947756172643A207265656E7472616E742063616C6C00 PUSH1 0x44 DUP3 ADD MSTORE PUSH1 0x64 ADD PUSH2 0x787 JUMP JUMPDEST PUSH1 0x2 PUSH1 0xB SSTORE DUP1 CALLER PUSH1 0xC SLOAD PUSH1 0x40 MLOAD PUSH32 0x6352211E00000000000000000000000000000000000000000000000000000000 DUP2 MSTORE PUSH1 0x4 DUP2 ADD DUP5 SWAP1 MSTORE PUSH1 0x1 PUSH1 0x1 PUSH1 0xA0 SHL SUB SWAP3 DUP4 AND SWAP3 SWAP1 SWAP2 AND SWAP1 PUSH4 0x6352211E SWAP1 PUSH1 0x24 ADD PUSH1 0x20 PUSH1 0x40 MLOAD DUP1 DUP4 SUB DUP2 DUP7 DUP1 EXTCODESIZE ISZERO DUP1 ISZERO PUSH2 0xAC8 JUMPI PUSH1 0x0 DUP1 REVERT JUMPDEST POP GAS STATICCALL ISZERO DUP1 ISZERO PUSH2 0xADC JUMPI RETURNDATASIZE PUSH1 0x0 DUP1 RETURNDATACOPY RETURNDATASIZE PUSH1 0x0 REVERT JUMPDEST POP POP POP POP PUSH1 0x40 MLOAD RETURNDATASIZE PUSH1 0x1F NOT PUSH1 0x1F DUP3 ADD AND DUP3 ADD DUP1 PUSH1 0x40 MSTORE POP DUP2 ADD SWAP1 PUSH2 0xB00 SWAP2 SWAP1 PUSH2 0x32BC JUMP JUMPDEST PUSH1 0x1 PUSH1 0x1 PUSH1 0xA0 SHL SUB AND EQ PUSH2 0xB7C JUMPI PUSH1 0x40 MLOAD PUSH3 0x461BCD PUSH1 0xE5 SHL DUP2 MSTORE PUSH1 0x20 PUSH1 0x4 DUP3 ADD MSTORE PUSH1 0x22 PUSH1 0x24 DUP3 ADD MSTORE PUSH32 0x486F6C6461626C653A2063616C6C6572206973206E6F742074686520686F6C64 PUSH1 0x44 DUP3 ADD MSTORE PUSH32 0x6572000000000000000000000000000000000000000000000000000000000000 PUSH1 0x64 DUP3 ADD MSTORE PUSH1 0x84 ADD PUSH2 0x787 JUMP JUMPDEST PUSH1 0x0 DUP3 GT DUP1 ISZERO PUSH2 0xB8D JUMPI POP PUSH2 0x1F41 DUP3 LT JUMPDEST PUSH2 0xBD9 JUMPI PUSH1 0x40 MLOAD PUSH3 0x461BCD PUSH1 0xE5 SHL DUP2 MSTORE PUSH1 0x20 PUSH1 0x4 DUP3 ADD MSTORE PUSH1 0x1E PUSH1 0x24 DUP3 ADD MSTORE PUSH32 0x546F6B656E20494420696E76616C69642E206F7574206F662072616E67650000 PUSH1 0x44 DUP3 ADD MSTORE PUSH1 0x64 ADD PUSH2 0x787 JUMP JUMPDEST PUSH1 0x0 DUP3 DUP2 MSTORE PUSH1 0x2 PUSH1 0x20 MSTORE PUSH1 0x40 SWAP1 KECCAK256 SLOAD PUSH1 0x1 PUSH1 0x1 PUSH1 0xA0 SHL SUB AND ISZERO PUSH2 0xC64 JUMPI PUSH1 0x40 MLOAD PUSH3 0x461BCD PUSH1 0xE5 SHL DUP2 MSTORE PUSH1 0x20 PUSH1 0x4 DUP3 ADD MSTORE PUSH1 0x21 PUSH1 0x24 DUP3 ADD MSTORE PUSH32 0x546F6B656E20494420696E76616C69642E20416C726561647920636C61696D65 PUSH1 0x44 DUP3 ADD MSTORE PUSH32 0x6400000000000000000000000000000000000000000000000000000000000000 PUSH1 0x64 DUP3 ADD MSTORE PUSH1 0x84 ADD PUSH2 0x787 JUMP JUMPDEST CALLVALUE PUSH7 0x2386F26FC10000 GT ISZERO PUSH2 0xCBB JUMPI PUSH1 0x40 MLOAD PUSH3 0x461BCD PUSH1 0xE5 SHL DUP2 MSTORE PUSH1 0x20 PUSH1 0x4 DUP3 ADD MSTORE PUSH1 0x19 PUSH1 0x24 DUP3 ADD MSTORE PUSH32 0x56616C75652073656E74206973206E6F7420636F727265637400000000000000 PUSH1 0x44 DUP3 ADD MSTORE PUSH1 0x64 ADD PUSH2 0x787 JUMP JUMPDEST PUSH2 0xCC5 CALLER DUP4 PUSH2 0x277B JUMP JUMPDEST POP POP PUSH1 0x1 PUSH1 0xB SSTORE JUMP JUMPDEST PUSH1 0x60 PUSH2 0x669 DUP3 PUSH1 0x40 MLOAD DUP1 PUSH1 0x40 ADD PUSH1 0x40 MSTORE DUP1 PUSH1 0xD DUP2 MSTORE PUSH1 0x20 ADD PUSH32 0x46414349414C4645415455524500000000000000000000000000000000000000 DUP2 MSTORE POP PUSH1 0x11 DUP1 SLOAD DUP1 PUSH1 0x20 MUL PUSH1 0x20 ADD PUSH1 0x40 MLOAD SWAP1 DUP2 ADD PUSH1 0x40 MSTORE DUP1 SWAP3 SWAP2 SWAP1 DUP2 DUP2 MSTORE PUSH1 0x20 ADD PUSH1 0x0 SWAP1 JUMPDEST DUP3 DUP3 LT ISZERO PUSH2 0xDD8 JUMPI DUP4 DUP3 SWAP1 PUSH1 0x0 MSTORE PUSH1 0x20 PUSH1 0x0 KECCAK256 ADD DUP1 SLOAD PUSH2 0xD4B SWAP1 PUSH2 0x3BA4 JUMP JUMPDEST DUP1 PUSH1 0x1F ADD PUSH1 0x20 DUP1 SWAP2 DIV MUL PUSH1 0x20 ADD PUSH1 0x40 MLOAD SWAP1 DUP2 ADD PUSH1 0x40 MSTORE DUP1 SWAP3 SWAP2 SWAP1 DUP2 DUP2 MSTORE PUSH1 0x20 ADD DUP3 DUP1 SLOAD PUSH2 0xD77 SWAP1 PUSH2 0x3BA4 JUMP JUMPDEST DUP1 ISZERO PUSH2 0xDC4 JUMPI DUP1 PUSH1 0x1F LT PUSH2 0xD99 JUMPI PUSH2 0x100 DUP1 DUP4 SLOAD DIV MUL DUP4 MSTORE SWAP2 PUSH1 0x20 ADD SWAP2 PUSH2 0xDC4 JUMP JUMPDEST DUP3 ADD SWAP2 SWAP1 PUSH1 0x0 MSTORE PUSH1 0x20 PUSH1 0x0 KECCAK256 SWAP1 JUMPDEST DUP2 SLOAD DUP2 MSTORE SWAP1 PUSH1 0x1 ADD SWAP1 PUSH1 0x20 ADD DUP1 DUP4 GT PUSH2 0xDA7 JUMPI DUP3 SWAP1 SUB PUSH1 0x1F AND DUP3 ADD SWAP2 JUMPDEST POP POP POP POP POP DUP2 MSTORE PUSH1 0x20 ADD SWAP1 PUSH1 0x1 ADD SWAP1 PUSH2 0xD2C JUMP JUMPDEST POP POP POP POP PUSH2 0x2795 JUMP JUMPDEST PUSH2 0x8D9 DUP4 DUP4 DUP4 PUSH1 0x40 MLOAD DUP1 PUSH1 0x20 ADD PUSH1 0x40 MSTORE DUP1 PUSH1 0x0 DUP2 MSTORE POP PUSH2 0x151D JUMP JUMPDEST PUSH1 0x2 PUSH1 0xB SLOAD EQ ISZERO PUSH2 0xE4F JUMPI PUSH1 0x40 MLOAD PUSH3 0x461BCD PUSH1 0xE5 SHL DUP2 MSTORE PUSH1 0x20 PUSH1 0x4 DUP3 ADD MSTORE PUSH1 0x1F PUSH1 0x24 DUP3 ADD MSTORE PUSH32 0x5265656E7472616E637947756172643A207265656E7472616E742063616C6C00 PUSH1 0x44 DUP3 ADD MSTORE PUSH1 0x64 ADD PUSH2 0x787 JUMP JUMPDEST PUSH1 0x2 PUSH1 0xB SSTORE PUSH1 0xA SLOAD PUSH1 0x1 PUSH1 0x1 PUSH1 0xA0 SHL SUB AND CALLER EQ PUSH2 0xEAE JUMPI PUSH1 0x40 MLOAD PUSH3 0x461BCD PUSH1 0xE5 SHL DUP2 MSTORE PUSH1 0x20 PUSH1 0x4 DUP3 ADD DUP2 SWAP1 MSTORE PUSH1 0x24 DUP3 ADD MSTORE PUSH32 0x4F776E61626C653A2063616C6C6572206973206E6F7420746865206F776E6572 PUSH1 0x44 DUP3 ADD MSTORE PUSH1 0x64 ADD PUSH2 0x787 JUMP JUMPDEST PUSH2 0x1F40 DUP2 GT DUP1 ISZERO PUSH2 0xEC0 JUMPI POP PUSH2 0x208E DUP2 LT JUMPDEST PUSH2 0xF0C JUMPI PUSH1 0x40 MLOAD PUSH3 0x461BCD PUSH1 0xE5 SHL DUP2 MSTORE PUSH1 0x20 PUSH1 0x4 DUP3 ADD MSTORE PUSH1 0x10 PUSH1 0x24 DUP3 ADD MSTORE PUSH32 0x546F6B656E20494420696E76616C696400000000000000000000000000000000 PUSH1 0x44 DUP3 ADD MSTORE PUSH1 0x64 ADD PUSH2 0x787 JUMP JUMPDEST PUSH2 0xF27 PUSH2 0xF21 PUSH1 0xA SLOAD PUSH1 0x1 PUSH1 0x1 PUSH1 0xA0 SHL SUB AND SWAP1 JUMP JUMPDEST DUP3 PUSH2 0x277B JUMP JUMPDEST POP PUSH1 0x1 PUSH1 0xB SSTORE JUMP JUMPDEST PUSH1 0x0 PUSH2 0xF3A PUSH1 0x8 SLOAD SWAP1 JUMP JUMPDEST DUP3 LT PUSH2 0xFAE JUMPI PUSH1 0x40 MLOAD PUSH3 0x461BCD PUSH1 0xE5 SHL DUP2 MSTORE PUSH1 0x20 PUSH1 0x4 DUP3 ADD MSTORE PUSH1 0x2C PUSH1 0x24 DUP3 ADD MSTORE PUSH32 0x455243373231456E756D657261626C653A20676C6F62616C20696E646578206F PUSH1 0x44 DUP3 ADD MSTORE PUSH32 0x7574206F6620626F756E64730000000000000000000000000000000000000000 PUSH1 0x64 DUP3 ADD MSTORE PUSH1 0x84 ADD PUSH2 0x787 JUMP JUMPDEST PUSH1 0x8 DUP3 DUP2 SLOAD DUP2 LT PUSH2 0xFC1 JUMPI PUSH2 0xFC1 PUSH2 0x3C50 JUMP JUMPDEST SWAP1 PUSH1 0x0 MSTORE PUSH1 0x20 PUSH1 0x0 KECCAK256 ADD SLOAD SWAP1 POP SWAP2 SWAP1 POP JUMP JUMPDEST PUSH1 0x0 DUP2 DUP2 MSTORE PUSH1 0x2 PUSH1 0x20 MSTORE PUSH1 0x40 DUP2 KECCAK256 SLOAD PUSH1 0x1 PUSH1 0x1 PUSH1 0xA0 SHL SUB AND DUP1 PUSH2 0x669 JUMPI PUSH1 0x40 MLOAD PUSH3 0x461BCD PUSH1 0xE5 SHL DUP2 MSTORE PUSH1 0x20 PUSH1 0x4 DUP3 ADD MSTORE PUSH1 0x29 PUSH1 0x24 DUP3 ADD MSTORE PUSH32 0x4552433732313A206F776E657220717565727920666F72206E6F6E6578697374 PUSH1 0x44 DUP3 ADD MSTORE PUSH32 0x656E7420746F6B656E0000000000000000000000000000000000000000000000 PUSH1 0x64 DUP3 ADD MSTORE PUSH1 0x84 ADD PUSH2 0x787 JUMP JUMPDEST PUSH1 0x0 PUSH1 0x1 PUSH1 0x1 PUSH1 0xA0 SHL SUB DUP3 AND PUSH2 0x10DC JUMPI PUSH1 0x40 MLOAD PUSH3 0x461BCD PUSH1 0xE5 SHL DUP2 MSTORE PUSH1 0x20 PUSH1 0x4 DUP3 ADD MSTORE PUSH1 0x2A PUSH1 0x24 DUP3 ADD MSTORE PUSH32 0x4552433732313A2062616C616E636520717565727920666F7220746865207A65 PUSH1 0x44 DUP3 ADD MSTORE PUSH32 0x726F206164647265737300000000000000000000000000000000000000000000 PUSH1 0x64 DUP3 ADD MSTORE PUSH1 0x84 ADD PUSH2 0x787 JUMP JUMPDEST POP PUSH1 0x1 PUSH1 0x1 PUSH1 0xA0 SHL SUB AND PUSH1 0x0 SWAP1 DUP2 MSTORE PUSH1 0x3 PUSH1 0x20 MSTORE PUSH1 0x40 SWAP1 KECCAK256 SLOAD SWAP1 JUMP JUMPDEST PUSH1 0xA SLOAD PUSH1 0x1 PUSH1 0x1 PUSH1 0xA0 SHL SUB AND CALLER EQ PUSH2 0x1152 JUMPI PUSH1 0x40 MLOAD PUSH3 0x461BCD PUSH1 0xE5 SHL DUP2 MSTORE PUSH1 0x20 PUSH1 0x4 DUP3 ADD DUP2 SWAP1 MSTORE PUSH1 0x24 DUP3 ADD MSTORE PUSH32 0x4F776E61626C653A2063616C6C6572206973206E6F7420746865206F776E6572 PUSH1 0x44 DUP3 ADD MSTORE PUSH1 0x64 ADD PUSH2 0x787 JUMP JUMPDEST PUSH2 0x115C PUSH1 0x0 PUSH2 0x288E JUMP JUMPDEST JUMP JUMPDEST PUSH1 0x60 PUSH2 0x669 DUP3 PUSH1 0x40 MLOAD DUP1 PUSH1 0x40 ADD PUSH1 0x40 MSTORE DUP1 PUSH1 0xE DUP2 MSTORE PUSH1 0x20 ADD PUSH32 0x535452454E4754484F4652414345000000000000000000000000000000000000 DUP2 MSTORE POP PUSH1 0xF DUP1 SLOAD DUP1 PUSH1 0x20 MUL PUSH1 0x20 ADD PUSH1 0x40 MLOAD SWAP1 DUP2 ADD PUSH1 0x40 MSTORE DUP1 SWAP3 SWAP2 SWAP1 DUP2 DUP2 MSTORE PUSH1 0x20 ADD PUSH1 0x0 SWAP1 JUMPDEST DUP3 DUP3 LT ISZERO PUSH2 0xDD8 JUMPI DUP4 DUP3 SWAP1 PUSH1 0x0 MSTORE PUSH1 0x20 PUSH1 0x0 KECCAK256 ADD DUP1 SLOAD PUSH2 0x11DB SWAP1 PUSH2 0x3BA4 JUMP JUMPDEST DUP1 PUSH1 0x1F ADD PUSH1 0x20 DUP1 SWAP2 DIV MUL PUSH1 0x20 ADD PUSH1 0x40 MLOAD SWAP1 DUP2 ADD PUSH1 0x40 MSTORE DUP1 SWAP3 SWAP2 SWAP1 DUP2 DUP2 MSTORE PUSH1 0x20 ADD DUP3 DUP1 SLOAD PUSH2 0x1207 SWAP1 PUSH2 0x3BA4 JUMP JUMPDEST DUP1 ISZERO PUSH2 0x1254 JUMPI DUP1 PUSH1 0x1F LT PUSH2 0x1229 JUMPI PUSH2 0x100 DUP1 DUP4 SLOAD DIV MUL DUP4 MSTORE SWAP2 PUSH1 0x20 ADD SWAP2 PUSH2 0x1254 JUMP JUMPDEST DUP3 ADD SWAP2 SWAP1 PUSH1 0x0 MSTORE PUSH1 0x20 PUSH1 0x0 KECCAK256 SWAP1 JUMPDEST DUP2 SLOAD DUP2 MSTORE SWAP1 PUSH1 0x1 ADD SWAP1 PUSH1 0x20 ADD DUP1 DUP4 GT PUSH2 0x1237 JUMPI DUP3 SWAP1 SUB PUSH1 0x1F AND DUP3 ADD SWAP2 JUMPDEST POP POP POP POP POP DUP2 MSTORE PUSH1 0x20 ADD SWAP1 PUSH1 0x1 ADD SWAP1 PUSH2 0x11BC JUMP JUMPDEST PUSH1 0x60 PUSH2 0x669 DUP3 PUSH1 0x40 MLOAD DUP1 PUSH1 0x40 ADD PUSH1 0x40 MSTORE DUP1 PUSH1 0xF DUP2 MSTORE PUSH1 0x20 ADD PUSH32 0x494D5052455353495645434F4C4F520000000000000000000000000000000000 DUP2 MSTORE POP PUSH1 0x10 DUP1 SLOAD DUP1 PUSH1 0x20 MUL PUSH1 0x20 ADD PUSH1 0x40 MLOAD SWAP1 DUP2 ADD PUSH1 0x40 MSTORE DUP1 SWAP3 SWAP2 SWAP1 DUP2 DUP2 MSTORE PUSH1 0x20 ADD PUSH1 0x0 SWAP1 JUMPDEST DUP3 DUP3 LT ISZERO PUSH2 0xDD8 JUMPI DUP4 DUP3 SWAP1 PUSH1 0x0 MSTORE PUSH1 0x20 PUSH1 0x0 KECCAK256 ADD DUP1 SLOAD PUSH2 0x12E5 SWAP1 PUSH2 0x3BA4 JUMP JUMPDEST DUP1 PUSH1 0x1F ADD PUSH1 0x20 DUP1 SWAP2 DIV MUL PUSH1 0x20 ADD PUSH1 0x40 MLOAD SWAP1 DUP2 ADD PUSH1 0x40 MSTORE DUP1 SWAP3 SWAP2 SWAP1 DUP2 DUP2 MSTORE PUSH1 0x20 ADD DUP3 DUP1 SLOAD PUSH2 0x1311 SWAP1 PUSH2 0x3BA4 JUMP JUMPDEST DUP1 ISZERO PUSH2 0x135E JUMPI DUP1 PUSH1 0x1F LT PUSH2 0x1333 JUMPI PUSH2 0x100 DUP1 DUP4 SLOAD DIV MUL DUP4 MSTORE SWAP2 PUSH1 0x20 ADD SWAP2 PUSH2 0x135E JUMP JUMPDEST DUP3 ADD SWAP2 SWAP1 PUSH1 0x0 MSTORE PUSH1 0x20 PUSH1 0x0 KECCAK256 SWAP1 JUMPDEST DUP2 SLOAD DUP2 MSTORE SWAP1 PUSH1 0x1 ADD SWAP1 PUSH1 0x20 ADD DUP1 DUP4 GT PUSH2 0x1341 JUMPI DUP3 SWAP1 SUB PUSH1 0x1F AND DUP3 ADD SWAP2 JUMPDEST POP POP POP POP POP DUP2 MSTORE PUSH1 0x20 ADD SWAP1 PUSH1 0x1 ADD SWAP1 PUSH2 0x12C6 JUMP JUMPDEST PUSH1 0x60 PUSH1 0x1 DUP1 SLOAD PUSH2 0x67E SWAP1 PUSH2 0x3BA4 JUMP JUMPDEST PUSH1 0x1 PUSH1 0x1 PUSH1 0xA0 SHL SUB DUP3 AND CALLER EQ ISZERO PUSH2 0x13DA JUMPI PUSH1 0x40 MLOAD PUSH3 0x461BCD PUSH1 0xE5 SHL DUP2 MSTORE PUSH1 0x20 PUSH1 0x4 DUP3 ADD MSTORE PUSH1 0x19 PUSH1 0x24 DUP3 ADD MSTORE PUSH32 0x4552433732313A20617070726F766520746F2063616C6C657200000000000000 PUSH1 0x44 DUP3 ADD MSTORE PUSH1 0x64 ADD PUSH2 0x787 JUMP JUMPDEST CALLER PUSH1 0x0 DUP2 DUP2 MSTORE PUSH1 0x5 PUSH1 0x20 SWAP1 DUP2 MSTORE PUSH1 0x40 DUP1 DUP4 KECCAK256 PUSH1 0x1 PUSH1 0x1 PUSH1 0xA0 SHL SUB DUP8 AND DUP1 DUP6 MSTORE SWAP1 DUP4 MSTORE SWAP3 DUP2 SWAP1 KECCAK256 DUP1 SLOAD PUSH32 0xFFFFFFFFFFFFFFFFFFFFFFFFFFFFFFFFFFFFFFFFFFFFFFFFFFFFFFFFFFFFFF00 AND DUP7 ISZERO ISZERO SWAP1 DUP2 OR SWAP1 SWAP2 SSTORE SWAP1 MLOAD SWAP1 DUP2 MSTORE SWAP2 SWAP3 SWAP2 PUSH32 0x17307EAB39AB6107E8899845AD3D59BD9653F200F220920489CA2B5937696C31 SWAP2 ADD PUSH1 0x40 MLOAD DUP1 SWAP2 SUB SWAP1 LOG3 POP POP JUMP JUMPDEST PUSH1 0xA SLOAD PUSH1 0x1 PUSH1 0x1 PUSH1 0xA0 SHL SUB AND CALLER EQ PUSH2 0x14BE JUMPI PUSH1 0x40 MLOAD PUSH3 0x461BCD PUSH1 0xE5 SHL DUP2 MSTORE PUSH1 0x20 PUSH1 0x4 DUP3 ADD DUP2 SWAP1 MSTORE PUSH1 0x24 DUP3 ADD MSTORE PUSH32 0x4F776E61626C653A2063616C6C6572206973206E6F7420746865206F776E6572 PUSH1 0x44 DUP3 ADD MSTORE PUSH1 0x64 ADD PUSH2 0x787 JUMP JUMPDEST PUSH1 0xC DUP1 SLOAD PUSH1 0x1 PUSH1 0x1 PUSH1 0xA0 SHL SUB DUP4 DUP2 AND PUSH20 0xFFFFFFFFFFFFFFFFFFFFFFFFFFFFFFFFFFFFFFFF NOT DUP4 AND DUP2 OR SWAP1 SWAP4 SSTORE PUSH1 0x40 MLOAD SWAP2 AND SWAP2 SWAP1 DUP3 SWAP1 PUSH32 0x9DABF3AFAE828BA590CBC2A5CD78456A9C86160D91461150184B48117F2B216B SWAP1 PUSH1 0x0 SWAP1 LOG3 POP POP JUMP JUMPDEST PUSH2 0x1527 CALLER DUP4 PUSH2 0x248E JUMP JUMPDEST PUSH2 0x1599 JUMPI PUSH1 0x40 MLOAD PUSH3 0x461BCD PUSH1 0xE5 SHL DUP2 MSTORE PUSH1 0x20 PUSH1 0x4 DUP3 ADD MSTORE PUSH1 0x31 PUSH1 0x24 DUP3 ADD MSTORE PUSH32 0x4552433732313A207472616E736665722063616C6C6572206973206E6F74206F PUSH1 0x44 DUP3 ADD MSTORE PUSH32 0x776E6572206E6F7220617070726F766564000000000000000000000000000000 PUSH1 0x64 DUP3 ADD MSTORE PUSH1 0x84 ADD PUSH2 0x787 JUMP JUMPDEST PUSH2 0x15A5 DUP5 DUP5 DUP5 DUP5 PUSH2 0x28ED JUMP JUMPDEST POP POP POP POP JUMP JUMPDEST PUSH1 0x60 PUSH2 0x669 DUP3 PUSH1 0x40 MLOAD DUP1 PUSH1 0x40 ADD PUSH1 0x40 MSTORE DUP1 PUSH1 0x11 DUP2 MSTORE PUSH1 0x20 ADD PUSH32 0x415050454152414E434546454154555245000000000000000000000000000000 DUP2 MSTORE POP PUSH1 0x12 DUP1 SLOAD DUP1 PUSH1 0x20 MUL PUSH1 0x20 ADD PUSH1 0x40 MLOAD SWAP1 DUP2 ADD PUSH1 0x40 MSTORE DUP1 SWAP3 SWAP2 SWAP1 DUP2 DUP2 MSTORE PUSH1 0x20 ADD PUSH1 0x0 SWAP1 JUMPDEST DUP3 DUP3 LT ISZERO PUSH2 0xDD8 JUMPI DUP4 DUP3 SWAP1 PUSH1 0x0 MSTORE PUSH1 0x20 PUSH1 0x0 KECCAK256 ADD DUP1 SLOAD PUSH2 0x1628 SWAP1 PUSH2 0x3BA4 JUMP JUMPDEST DUP1 PUSH1 0x1F ADD PUSH1 0x20 DUP1 SWAP2 DIV MUL PUSH1 0x20 ADD PUSH1 0x40 MLOAD SWAP1 DUP2 ADD PUSH1 0x40 MSTORE DUP1 SWAP3 SWAP2 SWAP1 DUP2 DUP2 MSTORE PUSH1 0x20 ADD DUP3 DUP1 SLOAD PUSH2 0x1654 SWAP1 PUSH2 0x3BA4 JUMP JUMPDEST DUP1 ISZERO PUSH2 0x16A1 JUMPI DUP1 PUSH1 0x1F LT PUSH2 0x1676 JUMPI PUSH2 0x100 DUP1 DUP4 SLOAD DIV MUL DUP4 MSTORE SWAP2 PUSH1 0x20 ADD SWAP2 PUSH2 0x16A1 JUMP JUMPDEST DUP3 ADD SWAP2 SWAP1 PUSH1 0x0 MSTORE PUSH1 0x20 PUSH1 0x0 KECCAK256 SWAP1 JUMPDEST DUP2 SLOAD DUP2 MSTORE SWAP1 PUSH1 0x1 ADD SWAP1 PUSH1 0x20 ADD DUP1 DUP4 GT PUSH2 0x1684 JUMPI DUP3 SWAP1 SUB PUSH1 0x1F AND DUP3 ADD SWAP2 JUMPDEST POP POP POP POP POP DUP2 MSTORE PUSH1 0x20 ADD SWAP1 PUSH1 0x1 ADD SWAP1 PUSH2 0x1609 JUMP JUMPDEST PUSH1 0x60 PUSH2 0x16BF PUSH2 0x3255 JUMP JUMPDEST PUSH1 0x40 MLOAD DUP1 PUSH2 0x140 ADD PUSH1 0x40 MSTORE DUP1 PUSH2 0x101 DUP2 MSTORE PUSH1 0x20 ADD PUSH2 0x3CA8 PUSH2 0x101 SWAP2 CODECOPY DUP2 MSTORE PUSH1 0x40 DUP1 MLOAD PUSH1 0x60 DUP2 ADD SWAP1 SWAP2 MSTORE PUSH1 0x22 DUP1 DUP3 MSTORE PUSH2 0x3E4B PUSH1 0x20 DUP4 ADD CODECOPY DUP2 PUSH1 0x1 PUSH1 0x20 MUL ADD DUP2 SWAP1 MSTORE POP PUSH1 0x40 MLOAD DUP1 PUSH1 0x60 ADD PUSH1 0x40 MSTORE DUP1 PUSH1 0x28 DUP2 MSTORE PUSH1 0x20 ADD PUSH2 0x3FCB PUSH1 0x28 SWAP2 CODECOPY PUSH1 0x40 DUP3 ADD MSTORE PUSH2 0x1727 DUP4 PUSH2 0x226E JUMP JUMPDEST PUSH1 0x60 DUP1 DUP4 ADD SWAP2 SWAP1 SWAP2 MSTORE PUSH1 0x40 DUP1 MLOAD SWAP2 DUP3 ADD SWAP1 MSTORE PUSH1 0x28 DUP1 DUP3 MSTORE PUSH2 0x3DD5 PUSH1 0x20 DUP4 ADD CODECOPY PUSH1 0x80 DUP3 ADD MSTORE PUSH2 0x1754 DUP4 PUSH2 0x1F40 JUMP JUMPDEST PUSH1 0xA0 DUP3 ADD MSTORE PUSH1 0x40 DUP1 MLOAD PUSH1 0x60 DUP2 ADD SWAP1 SWAP2 MSTORE PUSH1 0x28 DUP1 DUP3 MSTORE PUSH2 0x3EBF PUSH1 0x20 DUP4 ADD CODECOPY PUSH1 0xC0 DUP3 ADD MSTORE PUSH2 0x177F DUP4 PUSH2 0x115E JUMP JUMPDEST PUSH1 0xE0 DUP3 ADD MSTORE PUSH1 0x40 DUP1 MLOAD PUSH1 0x60 DUP2 ADD SWAP1 SWAP2 MSTORE PUSH1 0x29 DUP1 DUP3 MSTORE PUSH2 0x3EE7 PUSH1 0x20 DUP4 ADD CODECOPY PUSH2 0x100 DUP3 ADD MSTORE PUSH2 0x17AB DUP4 PUSH2 0x1268 JUMP JUMPDEST PUSH2 0x120 DUP3 ADD MSTORE PUSH1 0x40 DUP1 MLOAD PUSH1 0x60 DUP2 ADD SWAP1 SWAP2 MSTORE PUSH1 0x29 DUP1 DUP3 MSTORE PUSH2 0x3E96 PUSH1 0x20 DUP4 ADD CODECOPY PUSH2 0x140 DUP3 ADD MSTORE PUSH2 0x17D8 DUP4 PUSH2 0xCCE JUMP JUMPDEST PUSH2 0x160 DUP3 ADD MSTORE PUSH1 0x40 DUP1 MLOAD PUSH1 0x60 DUP2 ADD SWAP1 SWAP2 MSTORE PUSH1 0x29 DUP1 DUP3 MSTORE PUSH2 0x3F10 PUSH1 0x20 DUP4 ADD CODECOPY PUSH2 0x180 DUP3 ADD MSTORE PUSH2 0x1805 DUP4 PUSH2 0x15AB JUMP JUMPDEST PUSH2 0x1A0 DUP3 ADD MSTORE PUSH1 0x40 DUP1 MLOAD PUSH1 0x60 DUP2 ADD SWAP1 SWAP2 MSTORE PUSH1 0x29 DUP1 DUP3 MSTORE PUSH2 0x3E6D PUSH1 0x20 DUP4 ADD CODECOPY PUSH2 0x1C0 DUP3 ADD MSTORE PUSH1 0x40 DUP1 MLOAD PUSH1 0x20 DUP1 DUP3 ADD DUP4 MSTORE PUSH1 0x0 DUP3 MSTORE PUSH2 0x1E0 DUP5 ADD SWAP2 SWAP1 SWAP2 MSTORE DUP2 MLOAD DUP1 DUP4 ADD SWAP1 SWAP3 MSTORE PUSH1 0xD DUP3 MSTORE PUSH32 0x3C2F746578743E3C2F7376673E00000000000000000000000000000000000000 SWAP1 DUP3 ADD MSTORE DUP2 PUSH1 0x10 PUSH1 0x20 SWAP1 DUP2 MUL SWAP2 SWAP1 SWAP2 ADD SWAP2 SWAP1 SWAP2 MSTORE DUP2 MLOAD DUP3 DUP3 ADD MLOAD PUSH1 0x40 DUP1 DUP6 ADD MLOAD PUSH1 0x60 DUP7 ADD MLOAD PUSH1 0x80 DUP8 ADD MLOAD PUSH1 0xA0 DUP9 ADD MLOAD PUSH1 0xC0 DUP10 ADD MLOAD PUSH1 0xE0 DUP11 ADD MLOAD PUSH2 0x100 DUP12 ADD MLOAD SWAP7 MLOAD PUSH1 0x0 SWAP11 PUSH2 0x18BF SWAP11 SWAP10 SWAP9 SWAP2 ADD PUSH2 0x36A2 JUMP JUMPDEST PUSH1 0x40 DUP1 MLOAD DUP1 DUP4 SUB PUSH1 0x1F NOT ADD DUP2 MSTORE SWAP1 DUP3 SWAP1 MSTORE PUSH2 0x120 DUP5 ADD MLOAD PUSH2 0x140 DUP6 ADD MLOAD PUSH2 0x160 DUP7 ADD MLOAD PUSH2 0x180 DUP8 ADD MLOAD PUSH2 0x1A0 DUP9 ADD MLOAD PUSH2 0x1C0 DUP10 ADD MLOAD PUSH2 0x1E0 DUP11 ADD MLOAD PUSH2 0x200 DUP12 ADD MLOAD SWAP8 SWAP10 POP PUSH2 0x1912 SWAP9 DUP11 SWAP9 SWAP1 PUSH1 0x20 ADD PUSH2 0x36A2 JUMP JUMPDEST PUSH1 0x40 MLOAD PUSH1 0x20 DUP2 DUP4 SUB SUB DUP2 MSTORE SWAP1 PUSH1 0x40 MSTORE SWAP1 POP PUSH2 0x192B PUSH2 0x327D JUMP JUMPDEST PUSH1 0x40 DUP1 MLOAD DUP1 DUP3 ADD SWAP1 SWAP2 MSTORE PUSH1 0x20 DUP1 DUP3 MSTORE PUSH32 0x7B2274726169745F74797065223A22486569676874222C2276616C7565223A22 SWAP1 DUP3 ADD MSTORE DUP2 MSTORE PUSH2 0x196A DUP6 PUSH2 0x226E JUMP JUMPDEST PUSH1 0x20 DUP3 DUP2 ADD SWAP2 SWAP1 SWAP2 MSTORE PUSH1 0x40 DUP1 MLOAD DUP1 DUP3 ADD DUP3 MSTORE PUSH1 0x3 DUP2 MSTORE PUSH3 0x89F4B PUSH1 0xEA SHL DUP2 DUP5 ADD MSTORE DUP2 DUP5 ADD MSTORE DUP1 MLOAD PUSH1 0x60 DUP2 ADD SWAP1 SWAP2 MSTORE PUSH1 0x24 DUP1 DUP3 MSTORE SWAP1 SWAP2 PUSH2 0x3E27 SWAP1 DUP4 ADD CODECOPY PUSH1 0x60 DUP3 ADD MSTORE PUSH2 0x19B4 DUP6 PUSH2 0x1F40 JUMP JUMPDEST PUSH1 0x80 DUP3 ADD MSTORE PUSH1 0x40 DUP1 MLOAD DUP1 DUP3 ADD SWAP1 SWAP2 MSTORE PUSH1 0x3 DUP2 MSTORE PUSH3 0x89F4B PUSH1 0xEA SHL PUSH1 0x20 DUP3 ADD MSTORE DUP2 PUSH1 0x5 PUSH1 0x20 MUL ADD DUP2 SWAP1 MSTORE POP PUSH1 0x40 MLOAD DUP1 PUSH1 0x60 ADD PUSH1 0x40 MSTORE DUP1 PUSH1 0x2A DUP2 MSTORE PUSH1 0x20 ADD PUSH2 0x3DFD PUSH1 0x2A SWAP2 CODECOPY PUSH1 0xC0 DUP3 ADD MSTORE PUSH2 0x1A05 DUP6 PUSH2 0x115E JUMP JUMPDEST PUSH1 0xE0 DUP3 ADD MSTORE PUSH1 0x40 DUP1 MLOAD DUP1 DUP3 ADD SWAP1 SWAP2 MSTORE PUSH1 0x3 DUP2 MSTORE PUSH3 0x89F4B PUSH1 0xEA SHL PUSH1 0x20 DUP3 ADD MSTORE DUP2 PUSH1 0x8 PUSH1 0x20 MUL ADD DUP2 SWAP1 MSTORE POP PUSH1 0x40 MLOAD DUP1 PUSH1 0x60 ADD PUSH1 0x40 MSTORE DUP1 PUSH1 0x2A DUP2 MSTORE PUSH1 0x20 ADD PUSH2 0x3FA1 PUSH1 0x2A SWAP2 CODECOPY PUSH2 0x120 DUP3 ADD MSTORE PUSH2 0x1A57 DUP6 PUSH2 0x1268 JUMP JUMPDEST PUSH2 0x140 DUP3 ADD MSTORE PUSH1 0x40 DUP1 MLOAD DUP1 DUP3 ADD SWAP1 SWAP2 MSTORE PUSH1 0x3 DUP2 MSTORE PUSH3 0x89F4B PUSH1 0xEA SHL PUSH1 0x20 DUP3 ADD MSTORE DUP2 PUSH1 0xB PUSH1 0x20 MUL ADD DUP2 SWAP1 MSTORE POP PUSH1 0x40 MLOAD DUP1 PUSH1 0x60 ADD PUSH1 0x40 MSTORE DUP1 PUSH1 0x28 DUP2 MSTORE PUSH1 0x20 ADD PUSH2 0x3F79 PUSH1 0x28 SWAP2 CODECOPY PUSH2 0x180 DUP3 ADD MSTORE PUSH2 0x1AAA DUP6 PUSH2 0xCCE JUMP JUMPDEST PUSH2 0x1A0 DUP3 ADD MSTORE PUSH1 0x40 DUP1 MLOAD DUP1 DUP3 ADD SWAP1 SWAP2 MSTORE PUSH1 0x3 DUP2 MSTORE PUSH3 0x89F4B PUSH1 0xEA SHL PUSH1 0x20 DUP3 ADD MSTORE DUP2 PUSH1 0xE PUSH1 0x20 MUL ADD DUP2 SWAP1 MSTORE POP PUSH1 0x40 MLOAD DUP1 PUSH1 0x60 ADD PUSH1 0x40 MSTORE DUP1 PUSH1 0x2C DUP2 MSTORE PUSH1 0x20 ADD PUSH2 0x3DA9 PUSH1 0x2C SWAP2 CODECOPY PUSH2 0x1E0 DUP3 ADD MSTORE PUSH2 0x1AFD DUP6 PUSH2 0x15AB JUMP JUMPDEST PUSH2 0x200 DUP3 ADD MSTORE PUSH1 0x40 DUP1 MLOAD DUP1 DUP3 ADD DUP3 MSTORE PUSH1 0x2 DUP2 MSTORE PUSH32 0x227D000000000000000000000000000000000000000000000000000000000000 PUSH1 0x20 DUP1 DUP4 ADD SWAP2 SWAP1 SWAP2 MSTORE PUSH2 0x220 DUP5 ADD SWAP2 SWAP1 SWAP2 MSTORE DUP3 MLOAD DUP2 DUP5 ADD MLOAD DUP4 DUP6 ADD MLOAD PUSH1 0x60 DUP7 ADD MLOAD PUSH1 0x80 DUP8 ADD MLOAD PUSH1 0xA0 DUP9 ADD MLOAD PUSH1 0xC0 DUP10 ADD MLOAD SWAP8 MLOAD PUSH1 0x0 SWAP9 PUSH2 0x1B72 SWAP9 SWAP1 SWAP2 ADD PUSH2 0x3610 JUMP JUMPDEST PUSH1 0x40 DUP1 MLOAD DUP1 DUP4 SUB PUSH1 0x1F NOT ADD DUP2 MSTORE SWAP1 DUP3 SWAP1 MSTORE PUSH1 0xE0 DUP5 ADD MLOAD PUSH2 0x100 DUP6 ADD MLOAD PUSH2 0x120 DUP7 ADD MLOAD PUSH2 0x140 DUP8 ADD MLOAD PUSH2 0x160 DUP9 ADD MLOAD PUSH2 0x180 DUP10 ADD MLOAD SWAP6 SWAP8 POP PUSH2 0x1BB8 SWAP7 DUP9 SWAP7 SWAP1 PUSH1 0x20 ADD PUSH2 0x3610 JUMP JUMPDEST PUSH1 0x40 DUP1 MLOAD DUP1 DUP4 SUB PUSH1 0x1F NOT ADD DUP2 MSTORE SWAP1 DUP3 SWAP1 MSTORE PUSH2 0x1A0 DUP5 ADD MLOAD PUSH2 0x1C0 DUP6 ADD MLOAD PUSH2 0x1E0 DUP7 ADD MLOAD PUSH2 0x200 DUP8 ADD MLOAD PUSH2 0x220 DUP9 ADD MLOAD SWAP5 SWAP7 POP PUSH2 0x1BF9 SWAP6 DUP8 SWAP6 SWAP1 PUSH1 0x20 ADD PUSH2 0x3591 JUMP JUMPDEST PUSH1 0x40 MLOAD PUSH1 0x20 DUP2 DUP4 SUB SUB DUP2 MSTORE SWAP1 PUSH1 0x40 MSTORE SWAP1 POP PUSH1 0x0 PUSH2 0x1C48 PUSH2 0x1C18 DUP9 PUSH2 0x2976 JUMP JUMPDEST PUSH2 0x1C21 DUP7 PUSH2 0x2AA8 JUMP JUMPDEST DUP5 PUSH1 0x40 MLOAD PUSH1 0x20 ADD PUSH2 0x1C34 SWAP4 SWAP3 SWAP2 SWAP1 PUSH2 0x37A7 JUMP JUMPDEST PUSH1 0x40 MLOAD PUSH1 0x20 DUP2 DUP4 SUB SUB DUP2 MSTORE SWAP1 PUSH1 0x40 MSTORE PUSH2 0x2AA8 JUMP JUMPDEST SWAP1 POP PUSH1 0x0 DUP2 PUSH1 0x40 MLOAD PUSH1 0x20 ADD PUSH2 0x1C5D SWAP2 SWAP1 PUSH2 0x3762 JUMP JUMPDEST PUSH1 0x40 DUP1 MLOAD PUSH1 0x1F NOT DUP2 DUP5 SUB ADD DUP2 MSTORE SWAP2 SWAP1 MSTORE SWAP9 SWAP8 POP POP POP POP POP POP POP POP JUMP JUMPDEST PUSH1 0xC SLOAD PUSH1 0x0 SWAP1 PUSH1 0x1 PUSH1 0x1 PUSH1 0xA0 SHL SUB AND PUSH4 0x70A08231 CALLER PUSH1 0x40 MLOAD PUSH1 0x1 PUSH1 0x1 PUSH1 0xE0 SHL SUB NOT PUSH1 0xE0 DUP5 SWAP1 SHL AND DUP2 MSTORE PUSH1 0x1 PUSH1 0x1 PUSH1 0xA0 SHL SUB SWAP1 SWAP2 AND PUSH1 0x4 DUP3 ADD MSTORE PUSH1 0x24 ADD PUSH1 0x20 PUSH1 0x40 MLOAD DUP1 DUP4 SUB DUP2 DUP7 DUP1 EXTCODESIZE ISZERO DUP1 ISZERO PUSH2 0x1CCD JUMPI PUSH1 0x0 DUP1 REVERT JUMPDEST POP GAS STATICCALL ISZERO DUP1 ISZERO PUSH2 0x1CE1 JUMPI RETURNDATASIZE PUSH1 0x0 DUP1 RETURNDATACOPY RETURNDATASIZE PUSH1 0x0 REVERT JUMPDEST POP POP POP POP PUSH1 0x40 MLOAD RETURNDATASIZE PUSH1 0x1F NOT PUSH1 0x1F DUP3 ADD AND DUP3 ADD DUP1 PUSH1 0x40 MSTORE POP DUP2 ADD SWAP1 PUSH2 0x1D05 SWAP2 SWAP1 PUSH2 0x34E5 JUMP JUMPDEST SWAP1 POP PUSH1 0x0 DUP2 GT PUSH2 0x1D7D JUMPI PUSH1 0x40 MLOAD PUSH3 0x461BCD PUSH1 0xE5 SHL DUP2 MSTORE PUSH1 0x20 PUSH1 0x4 DUP3 ADD MSTORE PUSH1 0x31 PUSH1 0x24 DUP3 ADD MSTORE PUSH32 0x486F6C6461626C653A205468657265206973206E6F20746F6B656E6964207468 PUSH1 0x44 DUP3 ADD MSTORE PUSH32 0x61742063616E20626520636C61696D6564000000000000000000000000000000 PUSH1 0x64 DUP3 ADD MSTORE PUSH1 0x84 ADD PUSH2 0x787 JUMP JUMPDEST PUSH1 0x0 DUP1 JUMPDEST DUP3 DUP2 LT ISZERO PUSH2 0x1E65 JUMPI PUSH1 0xC SLOAD PUSH1 0x0 SWAP1 PUSH1 0x1 PUSH1 0x1 PUSH1 0xA0 SHL SUB AND PUSH4 0x2F745C59 CALLER PUSH1 0x40 MLOAD PUSH1 0x1 PUSH1 0x1 PUSH1 0xE0 SHL SUB NOT PUSH1 0xE0 DUP5 SWAP1 SHL AND DUP2 MSTORE PUSH1 0x1 PUSH1 0x1 PUSH1 0xA0 SHL SUB SWAP1 SWAP2 AND PUSH1 0x4 DUP3 ADD MSTORE PUSH1 0x24 DUP2 ADD DUP6 SWAP1 MSTORE PUSH1 0x44 ADD PUSH1 0x20 PUSH1 0x40 MLOAD DUP1 DUP4 SUB DUP2 DUP7 DUP1 EXTCODESIZE ISZERO DUP1 ISZERO PUSH2 0x1DE4 JUMPI PUSH1 0x0 DUP1 REVERT JUMPDEST POP GAS STATICCALL ISZERO DUP1 ISZERO PUSH2 0x1DF8 JUMPI RETURNDATASIZE PUSH1 0x0 DUP1 RETURNDATACOPY RETURNDATASIZE PUSH1 0x0 REVERT JUMPDEST POP POP POP POP PUSH1 0x40 MLOAD RETURNDATASIZE PUSH1 0x1F NOT PUSH1 0x1F DUP3 ADD AND DUP3 ADD DUP1 PUSH1 0x40 MSTORE POP DUP2 ADD SWAP1 PUSH2 0x1E1C SWAP2 SWAP1 PUSH2 0x34E5 JUMP JUMPDEST PUSH1 0x0 DUP2 DUP2 MSTORE PUSH1 0x2 PUSH1 0x20 MSTORE PUSH1 0x40 SWAP1 KECCAK256 SLOAD SWAP1 SWAP2 POP PUSH1 0x1 PUSH1 0x1 PUSH1 0xA0 SHL SUB AND PUSH2 0x1E52 JUMPI PUSH2 0x1E44 DUP2 PUSH2 0xA0D JUMP JUMPDEST DUP3 PUSH2 0x1E4E DUP2 PUSH2 0x3BDF JUMP JUMPDEST SWAP4 POP POP JUMPDEST POP DUP1 PUSH2 0x1E5D DUP2 PUSH2 0x3BDF JUMP JUMPDEST SWAP2 POP POP PUSH2 0x1D81 JUMP JUMPDEST POP PUSH1 0x0 DUP2 GT PUSH2 0x1EDC JUMPI PUSH1 0x40 MLOAD PUSH3 0x461BCD PUSH1 0xE5 SHL DUP2 MSTORE PUSH1 0x20 PUSH1 0x4 DUP3 ADD MSTORE PUSH1 0x31 PUSH1 0x24 DUP3 ADD MSTORE PUSH32 0x486F6C6461626C653A205468657265206973206E6F20746F6B656E6964207468 PUSH1 0x44 DUP3 ADD MSTORE PUSH32 0x61742063616E20626520636C61696D6564000000000000000000000000000000 PUSH1 0x64 DUP3 ADD MSTORE PUSH1 0x84 ADD PUSH2 0x787 JUMP JUMPDEST CALLVALUE PUSH2 0x1EEE DUP3 PUSH7 0x2386F26FC10000 PUSH2 0x3B42 JUMP JUMPDEST GT ISZERO PUSH2 0x1F3C JUMPI PUSH1 0x40 MLOAD PUSH3 0x461BCD PUSH1 0xE5 SHL DUP2 MSTORE PUSH1 0x20 PUSH1 0x4 DUP3 ADD MSTORE PUSH1 0x19 PUSH1 0x24 DUP3 ADD MSTORE PUSH32 0x56616C75652073656E74206973206E6F7420636F727265637400000000000000 PUSH1 0x44 DUP3 ADD MSTORE PUSH1 0x64 ADD PUSH2 0x787 JUMP JUMPDEST POP POP JUMP JUMPDEST PUSH1 0x60 PUSH2 0x669 DUP3 PUSH1 0x40 MLOAD DUP1 PUSH1 0x40 ADD PUSH1 0x40 MSTORE DUP1 PUSH1 0x9 DUP2 MSTORE PUSH1 0x20 ADD PUSH32 0x424F445953484150450000000000000000000000000000000000000000000000 DUP2 MSTORE POP PUSH1 0xE DUP1 SLOAD DUP1 PUSH1 0x20 MUL PUSH1 0x20 ADD PUSH1 0x40 MLOAD SWAP1 DUP2 ADD PUSH1 0x40 MSTORE DUP1 SWAP3 SWAP2 SWAP1 DUP2 DUP2 MSTORE PUSH1 0x20 ADD PUSH1 0x0 SWAP1 JUMPDEST DUP3 DUP3 LT ISZERO PUSH2 0xDD8 JUMPI DUP4 DUP3 SWAP1 PUSH1 0x0 MSTORE PUSH1 0x20 PUSH1 0x0 KECCAK256 ADD DUP1 SLOAD PUSH2 0x1FBD SWAP1 PUSH2 0x3BA4 JUMP JUMPDEST DUP1 PUSH1 0x1F ADD PUSH1 0x20 DUP1 SWAP2 DIV MUL PUSH1 0x20 ADD PUSH1 0x40 MLOAD SWAP1 DUP2 ADD PUSH1 0x40 MSTORE DUP1 SWAP3 SWAP2 SWAP1 DUP2 DUP2 MSTORE PUSH1 0x20 ADD DUP3 DUP1 SLOAD PUSH2 0x1FE9 SWAP1 PUSH2 0x3BA4 JUMP JUMPDEST DUP1 ISZERO PUSH2 0x2036 JUMPI DUP1 PUSH1 0x1F LT PUSH2 0x200B JUMPI PUSH2 0x100 DUP1 DUP4 SLOAD DIV MUL DUP4 MSTORE SWAP2 PUSH1 0x20 ADD SWAP2 PUSH2 0x2036 JUMP JUMPDEST DUP3 ADD SWAP2 SWAP1 PUSH1 0x0 MSTORE PUSH1 0x20 PUSH1 0x0 KECCAK256 SWAP1 JUMPDEST DUP2 SLOAD DUP2 MSTORE SWAP1 PUSH1 0x1 ADD SWAP1 PUSH1 0x20 ADD DUP1 DUP4 GT PUSH2 0x2019 JUMPI DUP3 SWAP1 SUB PUSH1 0x1F AND DUP3 ADD SWAP2 JUMPDEST POP POP POP POP POP DUP2 MSTORE PUSH1 0x20 ADD SWAP1 PUSH1 0x1 ADD SWAP1 PUSH2 0x1F9E JUMP JUMPDEST PUSH1 0xA SLOAD PUSH1 0x1 PUSH1 0x1 PUSH1 0xA0 SHL SUB AND CALLER EQ PUSH2 0x20A4 JUMPI PUSH1 0x40 MLOAD PUSH3 0x461BCD PUSH1 0xE5 SHL DUP2 MSTORE PUSH1 0x20 PUSH1 0x4 DUP3 ADD DUP2 SWAP1 MSTORE PUSH1 0x24 DUP3 ADD MSTORE PUSH32 0x4F776E61626C653A2063616C6C6572206973206E6F7420746865206F776E6572 PUSH1 0x44 DUP3 ADD MSTORE PUSH1 0x64 ADD PUSH2 0x787 JUMP JUMPDEST PUSH1 0x1 PUSH1 0x1 PUSH1 0xA0 SHL SUB DUP2 AND PUSH2 0x2120 JUMPI PUSH1 0x40 MLOAD PUSH3 0x461BCD PUSH1 0xE5 SHL DUP2 MSTORE PUSH1 0x20 PUSH1 0x4 DUP3 ADD MSTORE PUSH1 0x26 PUSH1 0x24 DUP3 ADD MSTORE PUSH32 0x4F776E61626C653A206E6577206F776E657220697320746865207A65726F2061 PUSH1 0x44 DUP3 ADD MSTORE PUSH32 0x6464726573730000000000000000000000000000000000000000000000000000 PUSH1 0x64 DUP3 ADD MSTORE PUSH1 0x84 ADD PUSH2 0x787 JUMP JUMPDEST PUSH2 0x2129 DUP2 PUSH2 0x288E JUMP JUMPDEST POP JUMP JUMPDEST PUSH1 0x2 PUSH1 0xB SLOAD EQ ISZERO PUSH2 0x217F JUMPI PUSH1 0x40 MLOAD PUSH3 0x461BCD PUSH1 0xE5 SHL DUP2 MSTORE PUSH1 0x20 PUSH1 0x4 DUP3 ADD MSTORE PUSH1 0x1F PUSH1 0x24 DUP3 ADD MSTORE PUSH32 0x5265656E7472616E637947756172643A207265656E7472616E742063616C6C00 PUSH1 0x44 DUP3 ADD MSTORE PUSH1 0x64 ADD PUSH2 0x787 JUMP JUMPDEST PUSH1 0x2 PUSH1 0xB SSTORE PUSH1 0xA SLOAD PUSH1 0x1 PUSH1 0x1 PUSH1 0xA0 SHL SUB AND CALLER EQ PUSH2 0x21DE JUMPI PUSH1 0x40 MLOAD PUSH3 0x461BCD PUSH1 0xE5 SHL DUP2 MSTORE PUSH1 0x20 PUSH1 0x4 DUP3 ADD DUP2 SWAP1 MSTORE PUSH1 0x24 DUP3 ADD MSTORE PUSH32 0x4F776E61626C653A2063616C6C6572206973206E6F7420746865206F776E6572 PUSH1 0x44 DUP3 ADD MSTORE PUSH1 0x64 ADD PUSH2 0x787 JUMP JUMPDEST SELFBALANCE DUP2 GT ISZERO PUSH2 0x222E JUMPI PUSH1 0x40 MLOAD PUSH3 0x461BCD PUSH1 0xE5 SHL DUP2 MSTORE PUSH1 0x20 PUSH1 0x4 DUP3 ADD MSTORE PUSH1 0xF PUSH1 0x24 DUP3 ADD MSTORE PUSH32 0x416D6F756E7420746F6F20686967680000000000000000000000000000000000 PUSH1 0x44 DUP3 ADD MSTORE PUSH1 0x64 ADD PUSH2 0x787 JUMP JUMPDEST PUSH1 0x40 MLOAD PUSH1 0x1 PUSH1 0x1 PUSH1 0xA0 SHL SUB DUP4 AND SWAP1 DUP3 ISZERO PUSH2 0x8FC MUL SWAP1 DUP4 SWAP1 PUSH1 0x0 DUP2 DUP2 DUP2 DUP6 DUP9 DUP9 CALL SWAP4 POP POP POP POP ISZERO DUP1 ISZERO PUSH2 0x2264 JUMPI RETURNDATASIZE PUSH1 0x0 DUP1 RETURNDATACOPY RETURNDATASIZE PUSH1 0x0 REVERT JUMPDEST POP POP PUSH1 0x1 PUSH1 0xB SSTORE POP JUMP JUMPDEST PUSH1 0x60 PUSH2 0x669 DUP3 PUSH1 0x40 MLOAD DUP1 PUSH1 0x40 ADD PUSH1 0x40 MSTORE DUP1 PUSH1 0x6 DUP2 MSTORE PUSH1 0x20 ADD PUSH32 0x4845494748540000000000000000000000000000000000000000000000000000 DUP2 MSTORE POP PUSH1 0xD DUP1 SLOAD DUP1 PUSH1 0x20 MUL PUSH1 0x20 ADD PUSH1 0x40 MLOAD SWAP1 DUP2 ADD PUSH1 0x40 MSTORE DUP1 SWAP3 SWAP2 SWAP1 DUP2 DUP2 MSTORE PUSH1 0x20 ADD PUSH1 0x0 SWAP1 JUMPDEST DUP3 DUP3 LT ISZERO PUSH2 0xDD8 JUMPI DUP4 DUP3 SWAP1 PUSH1 0x0 MSTORE PUSH1 0x20 PUSH1 0x0 KECCAK256 ADD DUP1 SLOAD PUSH2 0x22EB SWAP1 PUSH2 0x3BA4 JUMP JUMPDEST DUP1 PUSH1 0x1F ADD PUSH1 0x20 DUP1 SWAP2 DIV MUL PUSH1 0x20 ADD PUSH1 0x40 MLOAD SWAP1 DUP2 ADD PUSH1 0x40 MSTORE DUP1 SWAP3 SWAP2 SWAP1 DUP2 DUP2 MSTORE PUSH1 0x20 ADD DUP3 DUP1 SLOAD PUSH2 0x2317 SWAP1 PUSH2 0x3BA4 JUMP JUMPDEST DUP1 ISZERO PUSH2 0x2364 JUMPI DUP1 PUSH1 0x1F LT PUSH2 0x2339 JUMPI PUSH2 0x100 DUP1 DUP4 SLOAD DIV MUL DUP4 MSTORE SWAP2 PUSH1 0x20 ADD SWAP2 PUSH2 0x2364 JUMP JUMPDEST DUP3 ADD SWAP2 SWAP1 PUSH1 0x0 MSTORE PUSH1 0x20 PUSH1 0x0 KECCAK256 SWAP1 JUMPDEST DUP2 SLOAD DUP2 MSTORE SWAP1 PUSH1 0x1 ADD SWAP1 PUSH1 0x20 ADD DUP1 DUP4 GT PUSH2 0x2347 JUMPI DUP3 SWAP1 SUB PUSH1 0x1F AND DUP3 ADD SWAP2 JUMPDEST POP POP POP POP POP DUP2 MSTORE PUSH1 0x20 ADD SWAP1 PUSH1 0x1 ADD SWAP1 PUSH2 0x22CC JUMP JUMPDEST PUSH1 0x0 PUSH1 0x1 PUSH1 0x1 PUSH1 0xE0 SHL SUB NOT DUP3 AND PUSH32 0x80AC58CD00000000000000000000000000000000000000000000000000000000 EQ DUP1 PUSH2 0x23DB JUMPI POP PUSH1 0x1 PUSH1 0x1 PUSH1 0xE0 SHL SUB NOT DUP3 AND PUSH32 0x5B5E139F00000000000000000000000000000000000000000000000000000000 EQ JUMPDEST DUP1 PUSH2 0x669 JUMPI POP PUSH32 0x1FFC9A700000000000000000000000000000000000000000000000000000000 PUSH1 0x1 PUSH1 0x1 PUSH1 0xE0 SHL SUB NOT DUP4 AND EQ PUSH2 0x669 JUMP JUMPDEST PUSH1 0x0 DUP2 DUP2 MSTORE PUSH1 0x4 PUSH1 0x20 MSTORE PUSH1 0x40 SWAP1 KECCAK256 DUP1 SLOAD PUSH20 0xFFFFFFFFFFFFFFFFFFFFFFFFFFFFFFFFFFFFFFFF NOT AND PUSH1 0x1 PUSH1 0x1 PUSH1 0xA0 SHL SUB DUP5 AND SWAP1 DUP2 OR SWAP1 SWAP2 SSTORE DUP2 SWAP1 PUSH2 0x2455 DUP3 PUSH2 0xFD3 JUMP JUMPDEST PUSH1 0x1 PUSH1 0x1 PUSH1 0xA0 SHL SUB AND PUSH32 0x8C5BE1E5EBEC7D5BD14F71427D1E84F3DD0314C0F7B2291E5B200AC8C7C3B925 PUSH1 0x40 MLOAD PUSH1 0x40 MLOAD DUP1 SWAP2 SUB SWAP1 LOG4 POP POP JUMP JUMPDEST PUSH1 0x0 DUP2 DUP2 MSTORE PUSH1 0x2 PUSH1 0x20 MSTORE PUSH1 0x40 DUP2 KECCAK256 SLOAD PUSH1 0x1 PUSH1 0x1 PUSH1 0xA0 SHL SUB AND PUSH2 0x2518 JUMPI PUSH1 0x40 MLOAD PUSH3 0x461BCD PUSH1 0xE5 SHL DUP2 MSTORE PUSH1 0x20 PUSH1 0x4 DUP3 ADD MSTORE PUSH1 0x2C PUSH1 0x24 DUP3 ADD MSTORE PUSH32 0x4552433732313A206F70657261746F7220717565727920666F72206E6F6E6578 PUSH1 0x44 DUP3 ADD MSTORE PUSH32 0x697374656E7420746F6B656E0000000000000000000000000000000000000000 PUSH1 0x64 DUP3 ADD MSTORE PUSH1 0x84 ADD PUSH2 0x787 JUMP JUMPDEST PUSH1 0x0 PUSH2 0x2523 DUP4 PUSH2 0xFD3 JUMP JUMPDEST SWAP1 POP DUP1 PUSH1 0x1 PUSH1 0x1 PUSH1 0xA0 SHL SUB AND DUP5 PUSH1 0x1 PUSH1 0x1 PUSH1 0xA0 SHL SUB AND EQ DUP1 PUSH2 0x255E JUMPI POP DUP4 PUSH1 0x1 PUSH1 0x1 PUSH1 0xA0 SHL SUB AND PUSH2 0x2553 DUP5 PUSH2 0x701 JUMP JUMPDEST PUSH1 0x1 PUSH1 0x1 PUSH1 0xA0 SHL SUB AND EQ JUMPDEST DUP1 PUSH2 0x258E JUMPI POP PUSH1 0x1 PUSH1 0x1 PUSH1 0xA0 SHL SUB DUP1 DUP3 AND PUSH1 0x0 SWAP1 DUP2 MSTORE PUSH1 0x5 PUSH1 0x20 SWAP1 DUP2 MSTORE PUSH1 0x40 DUP1 DUP4 KECCAK256 SWAP4 DUP9 AND DUP4 MSTORE SWAP3 SWAP1 MSTORE KECCAK256 SLOAD PUSH1 0xFF AND JUMPDEST SWAP5 SWAP4 POP POP POP POP JUMP JUMPDEST DUP3 PUSH1 0x1 PUSH1 0x1 PUSH1 0xA0 SHL SUB AND PUSH2 0x25A9 DUP3 PUSH2 0xFD3 JUMP JUMPDEST PUSH1 0x1 PUSH1 0x1 PUSH1 0xA0 SHL SUB AND EQ PUSH2 0x2625 JUMPI PUSH1 0x40 MLOAD PUSH3 0x461BCD PUSH1 0xE5 SHL DUP2 MSTORE PUSH1 0x20 PUSH1 0x4 DUP3 ADD MSTORE PUSH1 0x29 PUSH1 0x24 DUP3 ADD MSTORE PUSH32 0x4552433732313A207472616E73666572206F6620746F6B656E20746861742069 PUSH1 0x44 DUP3 ADD MSTORE PUSH32 0x73206E6F74206F776E0000000000000000000000000000000000000000000000 PUSH1 0x64 DUP3 ADD MSTORE PUSH1 0x84 ADD PUSH2 0x787 JUMP JUMPDEST PUSH1 0x1 PUSH1 0x1 PUSH1 0xA0 SHL SUB DUP3 AND PUSH2 0x26A0 JUMPI PUSH1 0x40 MLOAD PUSH3 0x461BCD PUSH1 0xE5 SHL DUP2 MSTORE PUSH1 0x20 PUSH1 0x4 DUP3 ADD MSTORE PUSH1 0x24 DUP1 DUP3 ADD MSTORE PUSH32 0x4552433732313A207472616E7366657220746F20746865207A65726F20616464 PUSH1 0x44 DUP3 ADD MSTORE PUSH32 0x7265737300000000000000000000000000000000000000000000000000000000 PUSH1 0x64 DUP3 ADD MSTORE PUSH1 0x84 ADD PUSH2 0x787 JUMP JUMPDEST PUSH2 0x26AB DUP4 DUP4 DUP4 PUSH2 0x2C63 JUMP JUMPDEST PUSH2 0x26B6 PUSH1 0x0 DUP3 PUSH2 0x2413 JUMP JUMPDEST PUSH1 0x1 PUSH1 0x1 PUSH1 0xA0 SHL SUB DUP4 AND PUSH1 0x0 SWAP1 DUP2 MSTORE PUSH1 0x3 PUSH1 0x20 MSTORE PUSH1 0x40 DUP2 KECCAK256 DUP1 SLOAD PUSH1 0x1 SWAP3 SWAP1 PUSH2 0x26DF SWAP1 DUP5 SWAP1 PUSH2 0x3B61 JUMP JUMPDEST SWAP1 SWAP2 SSTORE POP POP PUSH1 0x1 PUSH1 0x1 PUSH1 0xA0 SHL SUB DUP3 AND PUSH1 0x0 SWAP1 DUP2 MSTORE PUSH1 0x3 PUSH1 0x20 MSTORE PUSH1 0x40 DUP2 KECCAK256 DUP1 SLOAD PUSH1 0x1 SWAP3 SWAP1 PUSH2 0x270D SWAP1 DUP5 SWAP1 PUSH2 0x3B16 JUMP JUMPDEST SWAP1 SWAP2 SSTORE POP POP PUSH1 0x0 DUP2 DUP2 MSTORE PUSH1 0x2 PUSH1 0x20 MSTORE PUSH1 0x40 DUP1 DUP3 KECCAK256 DUP1 SLOAD PUSH20 0xFFFFFFFFFFFFFFFFFFFFFFFFFFFFFFFFFFFFFFFF NOT AND PUSH1 0x1 PUSH1 0x1 PUSH1 0xA0 SHL SUB DUP7 DUP2 AND SWAP2 DUP3 OR SWAP1 SWAP3 SSTORE SWAP2 MLOAD DUP5 SWAP4 SWAP2 DUP8 AND SWAP2 PUSH32 0xDDF252AD1BE2C89B69C2B068FC378DAA952BA7F163C4A11628F55A4DF523B3EF SWAP2 LOG4 POP POP POP JUMP JUMPDEST PUSH2 0x1F3C DUP3 DUP3 PUSH1 0x40 MLOAD DUP1 PUSH1 0x20 ADD PUSH1 0x40 MSTORE DUP1 PUSH1 0x0 DUP2 MSTORE POP PUSH2 0x2D1B JUMP JUMPDEST PUSH1 0x0 DUP4 DUP2 MSTORE PUSH1 0x2 PUSH1 0x20 MSTORE PUSH1 0x40 SWAP1 KECCAK256 SLOAD PUSH1 0x60 SWAP1 PUSH1 0x1 PUSH1 0x1 PUSH1 0xA0 SHL SUB AND PUSH2 0x2822 JUMPI PUSH1 0x40 MLOAD PUSH3 0x461BCD PUSH1 0xE5 SHL DUP2 MSTORE PUSH1 0x20 PUSH1 0x4 DUP3 ADD MSTORE PUSH1 0x2F PUSH1 0x24 DUP3 ADD MSTORE PUSH32 0x4552433732314D657461646174613A2055524920717565727920666F72206E6F PUSH1 0x44 DUP3 ADD MSTORE PUSH32 0x6E6578697374656E7420746F6B656E0000000000000000000000000000000000 PUSH1 0x64 DUP3 ADD MSTORE PUSH1 0x84 ADD PUSH2 0x787 JUMP JUMPDEST PUSH1 0x0 PUSH2 0x2856 DUP5 PUSH2 0x2831 DUP8 PUSH2 0x2976 JUMP JUMPDEST PUSH1 0x40 MLOAD PUSH1 0x20 ADD PUSH2 0x2842 SWAP3 SWAP2 SWAP1 PUSH2 0x3562 JUMP JUMPDEST PUSH1 0x40 MLOAD PUSH1 0x20 DUP2 DUP4 SUB SUB DUP2 MSTORE SWAP1 PUSH1 0x40 MSTORE PUSH2 0x2DA4 JUMP JUMPDEST SWAP1 POP PUSH1 0x0 DUP4 DUP5 MLOAD DUP4 PUSH2 0x2868 SWAP2 SWAP1 PUSH2 0x3BFA JUMP JUMPDEST DUP2 MLOAD DUP2 LT PUSH2 0x2878 JUMPI PUSH2 0x2878 PUSH2 0x3C50 JUMP JUMPDEST PUSH1 0x20 MUL PUSH1 0x20 ADD ADD MLOAD SWAP1 POP DUP1 SWAP3 POP POP POP SWAP4 SWAP3 POP POP POP JUMP JUMPDEST PUSH1 0xA DUP1 SLOAD PUSH1 0x1 PUSH1 0x1 PUSH1 0xA0 SHL SUB DUP4 DUP2 AND PUSH20 0xFFFFFFFFFFFFFFFFFFFFFFFFFFFFFFFFFFFFFFFF NOT DUP4 AND DUP2 OR SWAP1 SWAP4 SSTORE PUSH1 0x40 MLOAD SWAP2 AND SWAP2 SWAP1 DUP3 SWAP1 PUSH32 0x8BE0079C531659141344CD1FD0A4F28419497F9722A3DAAFE3B4186F6B6457E0 SWAP1 PUSH1 0x0 SWAP1 LOG3 POP POP JUMP JUMPDEST PUSH2 0x28F8 DUP5 DUP5 DUP5 PUSH2 0x2596 JUMP JUMPDEST PUSH2 0x2904 DUP5 DUP5 DUP5 DUP5 PUSH2 0x2DD5 JUMP JUMPDEST PUSH2 0x15A5 JUMPI PUSH1 0x40 MLOAD PUSH3 0x461BCD PUSH1 0xE5 SHL DUP2 MSTORE PUSH1 0x20 PUSH1 0x4 DUP3 ADD MSTORE PUSH1 0x32 PUSH1 0x24 DUP3 ADD MSTORE PUSH32 0x4552433732313A207472616E7366657220746F206E6F6E204552433732315265 PUSH1 0x44 DUP3 ADD MSTORE PUSH32 0x63656976657220696D706C656D656E7465720000000000000000000000000000 PUSH1 0x64 DUP3 ADD MSTORE PUSH1 0x84 ADD PUSH2 0x787 JUMP JUMPDEST PUSH1 0x60 DUP2 PUSH2 0x29B6 JUMPI POP POP PUSH1 0x40 DUP1 MLOAD DUP1 DUP3 ADD SWAP1 SWAP2 MSTORE PUSH1 0x1 DUP2 MSTORE PUSH32 0x3000000000000000000000000000000000000000000000000000000000000000 PUSH1 0x20 DUP3 ADD MSTORE SWAP1 JUMP JUMPDEST DUP2 PUSH1 0x0 JUMPDEST DUP2 ISZERO PUSH2 0x29E0 JUMPI DUP1 PUSH2 0x29CA DUP2 PUSH2 0x3BDF JUMP JUMPDEST SWAP2 POP PUSH2 0x29D9 SWAP1 POP PUSH1 0xA DUP4 PUSH2 0x3B2E JUMP JUMPDEST SWAP2 POP PUSH2 0x29BA JUMP JUMPDEST PUSH1 0x0 DUP2 PUSH8 0xFFFFFFFFFFFFFFFF DUP2 GT ISZERO PUSH2 0x29FB JUMPI PUSH2 0x29FB PUSH2 0x3C66 JUMP JUMPDEST PUSH1 0x40 MLOAD SWAP1 DUP1 DUP3 MSTORE DUP1 PUSH1 0x1F ADD PUSH1 0x1F NOT AND PUSH1 0x20 ADD DUP3 ADD PUSH1 0x40 MSTORE DUP1 ISZERO PUSH2 0x2A25 JUMPI PUSH1 0x20 DUP3 ADD DUP2 DUP1 CALLDATASIZE DUP4 CALLDATACOPY ADD SWAP1 POP JUMPDEST POP SWAP1 POP JUMPDEST DUP5 ISZERO PUSH2 0x258E JUMPI PUSH2 0x2A3A PUSH1 0x1 DUP4 PUSH2 0x3B61 JUMP JUMPDEST SWAP2 POP PUSH2 0x2A47 PUSH1 0xA DUP7 PUSH2 0x3BFA JUMP JUMPDEST PUSH2 0x2A52 SWAP1 PUSH1 0x30 PUSH2 0x3B16 JUMP JUMPDEST PUSH1 0xF8 SHL DUP2 DUP4 DUP2 MLOAD DUP2 LT PUSH2 0x2A67 JUMPI PUSH2 0x2A67 PUSH2 0x3C50 JUMP JUMPDEST PUSH1 0x20 ADD ADD SWAP1 PUSH31 0xFFFFFFFFFFFFFFFFFFFFFFFFFFFFFFFFFFFFFFFFFFFFFFFFFFFFFFFFFFFFFF NOT AND SWAP1 DUP2 PUSH1 0x0 BYTE SWAP1 MSTORE8 POP PUSH2 0x2AA1 PUSH1 0xA DUP7 PUSH2 0x3B2E JUMP JUMPDEST SWAP5 POP PUSH2 0x2A29 JUMP JUMPDEST DUP1 MLOAD PUSH1 0x60 SWAP1 DUP1 PUSH2 0x2AC8 JUMPI POP POP PUSH1 0x40 DUP1 MLOAD PUSH1 0x20 DUP2 ADD SWAP1 SWAP2 MSTORE PUSH1 0x0 DUP2 MSTORE SWAP2 SWAP1 POP JUMP JUMPDEST PUSH1 0x0 PUSH1 0x3 PUSH2 0x2AD7 DUP4 PUSH1 0x2 PUSH2 0x3B16 JUMP JUMPDEST PUSH2 0x2AE1 SWAP2 SWAP1 PUSH2 0x3B2E JUMP JUMPDEST PUSH2 0x2AEC SWAP1 PUSH1 0x4 PUSH2 0x3B42 JUMP JUMPDEST SWAP1 POP PUSH1 0x0 PUSH2 0x2AFB DUP3 PUSH1 0x20 PUSH2 0x3B16 JUMP JUMPDEST PUSH8 0xFFFFFFFFFFFFFFFF DUP2 GT ISZERO PUSH2 0x2B13 JUMPI PUSH2 0x2B13 PUSH2 0x3C66 JUMP JUMPDEST PUSH1 0x40 MLOAD SWAP1 DUP1 DUP3 MSTORE DUP1 PUSH1 0x1F ADD PUSH1 0x1F NOT AND PUSH1 0x20 ADD DUP3 ADD PUSH1 0x40 MSTORE DUP1 ISZERO PUSH2 0x2B3D JUMPI PUSH1 0x20 DUP3 ADD DUP2 DUP1 CALLDATASIZE DUP4 CALLDATACOPY ADD SWAP1 POP JUMPDEST POP SWAP1 POP PUSH1 0x0 PUSH1 0x40 MLOAD DUP1 PUSH1 0x60 ADD PUSH1 0x40 MSTORE DUP1 PUSH1 0x40 DUP2 MSTORE PUSH1 0x20 ADD PUSH2 0x3F39 PUSH1 0x40 SWAP2 CODECOPY SWAP1 POP PUSH1 0x1 DUP2 ADD PUSH1 0x20 DUP4 ADD PUSH1 0x0 JUMPDEST DUP7 DUP2 LT ISZERO PUSH2 0x2BC9 JUMPI PUSH1 0x3 DUP2 DUP11 ADD DUP2 ADD MLOAD PUSH1 0x3F PUSH1 0x12 DUP3 SWAP1 SHR DUP2 AND DUP7 ADD MLOAD PUSH1 0xC DUP4 SWAP1 SHR DUP3 AND DUP8 ADD MLOAD PUSH1 0x6 DUP5 SWAP1 SHR DUP4 AND DUP9 ADD MLOAD SWAP3 SWAP1 SWAP4 AND DUP8 ADD MLOAD PUSH1 0x8 SWAP2 DUP3 SHL PUSH1 0xFF SWAP5 DUP6 AND ADD DUP3 SHL SWAP3 DUP5 AND SWAP3 SWAP1 SWAP3 ADD SWAP1 SHL SWAP2 AND ADD PUSH1 0xE0 SHL DUP4 MSTORE PUSH1 0x4 SWAP1 SWAP3 ADD SWAP2 ADD PUSH2 0x2B68 JUMP JUMPDEST POP PUSH1 0x3 DUP7 MOD PUSH1 0x1 DUP2 EQ PUSH2 0x2BE3 JUMPI PUSH1 0x2 DUP2 EQ PUSH2 0x2C2D JUMPI PUSH2 0x2C55 JUMP JUMPDEST PUSH32 0x3D3D000000000000000000000000000000000000000000000000000000000000 PUSH32 0xFFFFFFFFFFFFFFFFFFFFFFFFFFFFFFFFFFFFFFFFFFFFFFFFFFFFFFFFFFFFFFFE DUP4 ADD MSTORE PUSH2 0x2C55 JUMP JUMPDEST PUSH32 0x3D00000000000000000000000000000000000000000000000000000000000000 PUSH1 0x0 NOT DUP4 ADD MSTORE JUMPDEST POP POP POP SWAP2 DUP2 MSTORE SWAP5 SWAP4 POP POP POP POP JUMP JUMPDEST PUSH1 0x1 PUSH1 0x1 PUSH1 0xA0 SHL SUB DUP4 AND PUSH2 0x2CBE JUMPI PUSH2 0x2CB9 DUP2 PUSH1 0x8 DUP1 SLOAD PUSH1 0x0 DUP4 DUP2 MSTORE PUSH1 0x9 PUSH1 0x20 MSTORE PUSH1 0x40 DUP2 KECCAK256 DUP3 SWAP1 SSTORE PUSH1 0x1 DUP3 ADD DUP4 SSTORE SWAP2 SWAP1 SWAP2 MSTORE PUSH32 0xF3F7A9FE364FAAB93B216DA50A3214154F22A0A2B415B23A84C8169E8B636EE3 ADD SSTORE JUMP JUMPDEST PUSH2 0x2CE1 JUMP JUMPDEST DUP2 PUSH1 0x1 PUSH1 0x1 PUSH1 0xA0 SHL SUB AND DUP4 PUSH1 0x1 PUSH1 0x1 PUSH1 0xA0 SHL SUB AND EQ PUSH2 0x2CE1 JUMPI PUSH2 0x2CE1 DUP4 DUP3 PUSH2 0x2F6A JUMP JUMPDEST PUSH1 0x1 PUSH1 0x1 PUSH1 0xA0 SHL SUB DUP3 AND PUSH2 0x2CF8 JUMPI PUSH2 0x8D9 DUP2 PUSH2 0x3007 JUMP JUMPDEST DUP3 PUSH1 0x1 PUSH1 0x1 PUSH1 0xA0 SHL SUB AND DUP3 PUSH1 0x1 PUSH1 0x1 PUSH1 0xA0 SHL SUB AND EQ PUSH2 0x8D9 JUMPI PUSH2 0x8D9 DUP3 DUP3 PUSH2 0x30B6 JUMP JUMPDEST PUSH2 0x2D25 DUP4 DUP4 PUSH2 0x30FA JUMP JUMPDEST PUSH2 0x2D32 PUSH1 0x0 DUP5 DUP5 DUP5 PUSH2 0x2DD5 JUMP JUMPDEST PUSH2 0x8D9 JUMPI PUSH1 0x40 MLOAD PUSH3 0x461BCD PUSH1 0xE5 SHL DUP2 MSTORE PUSH1 0x20 PUSH1 0x4 DUP3 ADD MSTORE PUSH1 0x32 PUSH1 0x24 DUP3 ADD MSTORE PUSH32 0x4552433732313A207472616E7366657220746F206E6F6E204552433732315265 PUSH1 0x44 DUP3 ADD MSTORE PUSH32 0x63656976657220696D706C656D656E7465720000000000000000000000000000 PUSH1 0x64 DUP3 ADD MSTORE PUSH1 0x84 ADD PUSH2 0x787 JUMP JUMPDEST PUSH1 0x0 DUP2 PUSH1 0x40 MLOAD PUSH1 0x20 ADD PUSH2 0x2DB7 SWAP2 SWAP1 PUSH2 0x3546 JUMP JUMPDEST PUSH1 0x40 DUP1 MLOAD PUSH1 0x1F NOT DUP2 DUP5 SUB ADD DUP2 MSTORE SWAP2 SWAP1 MSTORE DUP1 MLOAD PUSH1 0x20 SWAP1 SWAP2 ADD KECCAK256 SWAP3 SWAP2 POP POP JUMP JUMPDEST PUSH1 0x0 PUSH1 0x1 PUSH1 0x1 PUSH1 0xA0 SHL SUB DUP5 AND EXTCODESIZE ISZERO PUSH2 0x2F5F JUMPI PUSH1 0x40 MLOAD PUSH32 0x150B7A0200000000000000000000000000000000000000000000000000000000 DUP2 MSTORE PUSH1 0x1 PUSH1 0x1 PUSH1 0xA0 SHL SUB DUP6 AND SWAP1 PUSH4 0x150B7A02 SWAP1 PUSH2 0x2E32 SWAP1 CALLER SWAP1 DUP10 SWAP1 DUP9 SWAP1 DUP9 SWAP1 PUSH1 0x4 ADD PUSH2 0x3AD1 JUMP JUMPDEST PUSH1 0x20 PUSH1 0x40 MLOAD DUP1 DUP4 SUB DUP2 PUSH1 0x0 DUP8 DUP1 EXTCODESIZE ISZERO DUP1 ISZERO PUSH2 0x2E4C JUMPI PUSH1 0x0 DUP1 REVERT JUMPDEST POP GAS CALL SWAP3 POP POP POP DUP1 ISZERO PUSH2 0x2E7C JUMPI POP PUSH1 0x40 DUP1 MLOAD PUSH1 0x1F RETURNDATASIZE SWAP1 DUP2 ADD PUSH1 0x1F NOT AND DUP3 ADD SWAP1 SWAP3 MSTORE PUSH2 0x2E79 SWAP2 DUP2 ADD SWAP1 PUSH2 0x34AF JUMP JUMPDEST PUSH1 0x1 JUMPDEST PUSH2 0x2F2C JUMPI RETURNDATASIZE DUP1 DUP1 ISZERO PUSH2 0x2EAA JUMPI PUSH1 0x40 MLOAD SWAP2 POP PUSH1 0x1F NOT PUSH1 0x3F RETURNDATASIZE ADD AND DUP3 ADD PUSH1 0x40 MSTORE RETURNDATASIZE DUP3 MSTORE RETURNDATASIZE PUSH1 0x0 PUSH1 0x20 DUP5 ADD RETURNDATACOPY PUSH2 0x2EAF JUMP JUMPDEST PUSH1 0x60 SWAP2 POP JUMPDEST POP DUP1 MLOAD PUSH2 0x2F24 JUMPI PUSH1 0x40 MLOAD PUSH3 0x461BCD PUSH1 0xE5 SHL DUP2 MSTORE PUSH1 0x20 PUSH1 0x4 DUP3 ADD MSTORE PUSH1 0x32 PUSH1 0x24 DUP3 ADD MSTORE PUSH32 0x4552433732313A207472616E7366657220746F206E6F6E204552433732315265 PUSH1 0x44 DUP3 ADD MSTORE PUSH32 0x63656976657220696D706C656D656E7465720000000000000000000000000000 PUSH1 0x64 DUP3 ADD MSTORE PUSH1 0x84 ADD PUSH2 0x787 JUMP JUMPDEST DUP1 MLOAD DUP2 PUSH1 0x20 ADD REVERT JUMPDEST PUSH1 0x1 PUSH1 0x1 PUSH1 0xE0 SHL SUB NOT AND PUSH32 0x150B7A0200000000000000000000000000000000000000000000000000000000 EQ SWAP1 POP PUSH2 0x258E JUMP JUMPDEST POP PUSH1 0x1 SWAP5 SWAP4 POP POP POP POP JUMP JUMPDEST PUSH1 0x0 PUSH1 0x1 PUSH2 0x2F77 DUP5 PUSH2 0x105E JUMP JUMPDEST PUSH2 0x2F81 SWAP2 SWAP1 PUSH2 0x3B61 JUMP JUMPDEST PUSH1 0x0 DUP4 DUP2 MSTORE PUSH1 0x7 PUSH1 0x20 MSTORE PUSH1 0x40 SWAP1 KECCAK256 SLOAD SWAP1 SWAP2 POP DUP1 DUP3 EQ PUSH2 0x2FD4 JUMPI PUSH1 0x1 PUSH1 0x1 PUSH1 0xA0 SHL SUB DUP5 AND PUSH1 0x0 SWAP1 DUP2 MSTORE PUSH1 0x6 PUSH1 0x20 SWAP1 DUP2 MSTORE PUSH1 0x40 DUP1 DUP4 KECCAK256 DUP6 DUP5 MSTORE DUP3 MSTORE DUP1 DUP4 KECCAK256 SLOAD DUP5 DUP5 MSTORE DUP2 DUP5 KECCAK256 DUP2 SWAP1 SSTORE DUP4 MSTORE PUSH1 0x7 SWAP1 SWAP2 MSTORE SWAP1 KECCAK256 DUP2 SWAP1 SSTORE JUMPDEST POP PUSH1 0x0 SWAP2 DUP3 MSTORE PUSH1 0x7 PUSH1 0x20 SWAP1 DUP2 MSTORE PUSH1 0x40 DUP1 DUP5 KECCAK256 DUP5 SWAP1 SSTORE PUSH1 0x1 PUSH1 0x1 PUSH1 0xA0 SHL SUB SWAP1 SWAP5 AND DUP4 MSTORE PUSH1 0x6 DUP2 MSTORE DUP4 DUP4 KECCAK256 SWAP2 DUP4 MSTORE MSTORE SWAP1 DUP2 KECCAK256 SSTORE JUMP JUMPDEST PUSH1 0x8 SLOAD PUSH1 0x0 SWAP1 PUSH2 0x3019 SWAP1 PUSH1 0x1 SWAP1 PUSH2 0x3B61 JUMP JUMPDEST PUSH1 0x0 DUP4 DUP2 MSTORE PUSH1 0x9 PUSH1 0x20 MSTORE PUSH1 0x40 DUP2 KECCAK256 SLOAD PUSH1 0x8 DUP1 SLOAD SWAP4 SWAP5 POP SWAP1 SWAP3 DUP5 SWAP1 DUP2 LT PUSH2 0x3041 JUMPI PUSH2 0x3041 PUSH2 0x3C50 JUMP JUMPDEST SWAP1 PUSH1 0x0 MSTORE PUSH1 0x20 PUSH1 0x0 KECCAK256 ADD SLOAD SWAP1 POP DUP1 PUSH1 0x8 DUP4 DUP2 SLOAD DUP2 LT PUSH2 0x3062 JUMPI PUSH2 0x3062 PUSH2 0x3C50 JUMP JUMPDEST PUSH1 0x0 SWAP2 DUP3 MSTORE PUSH1 0x20 DUP1 DUP4 KECCAK256 SWAP1 SWAP2 ADD SWAP3 SWAP1 SWAP3 SSTORE DUP3 DUP2 MSTORE PUSH1 0x9 SWAP1 SWAP2 MSTORE PUSH1 0x40 DUP1 DUP3 KECCAK256 DUP5 SWAP1 SSTORE DUP6 DUP3 MSTORE DUP2 KECCAK256 SSTORE PUSH1 0x8 DUP1 SLOAD DUP1 PUSH2 0x309A JUMPI PUSH2 0x309A PUSH2 0x3C3A JUMP JUMPDEST PUSH1 0x1 SWAP1 SUB DUP2 DUP2 SWAP1 PUSH1 0x0 MSTORE PUSH1 0x20 PUSH1 0x0 KECCAK256 ADD PUSH1 0x0 SWAP1 SSTORE SWAP1 SSTORE POP POP POP POP JUMP JUMPDEST PUSH1 0x0 PUSH2 0x30C1 DUP4 PUSH2 0x105E JUMP JUMPDEST PUSH1 0x1 PUSH1 0x1 PUSH1 0xA0 SHL SUB SWAP1 SWAP4 AND PUSH1 0x0 SWAP1 DUP2 MSTORE PUSH1 0x6 PUSH1 0x20 SWAP1 DUP2 MSTORE PUSH1 0x40 DUP1 DUP4 KECCAK256 DUP7 DUP5 MSTORE DUP3 MSTORE DUP1 DUP4 KECCAK256 DUP6 SWAP1 SSTORE SWAP4 DUP3 MSTORE PUSH1 0x7 SWAP1 MSTORE SWAP2 SWAP1 SWAP2 KECCAK256 SWAP2 SWAP1 SWAP2 SSTORE POP JUMP JUMPDEST PUSH1 0x1 PUSH1 0x1 PUSH1 0xA0 SHL SUB DUP3 AND PUSH2 0x3150 JUMPI PUSH1 0x40 MLOAD PUSH3 0x461BCD PUSH1 0xE5 SHL DUP2 MSTORE PUSH1 0x20 PUSH1 0x4 DUP3 ADD DUP2 SWAP1 MSTORE PUSH1 0x24 DUP3 ADD MSTORE PUSH32 0x4552433732313A206D696E7420746F20746865207A65726F2061646472657373 PUSH1 0x44 DUP3 ADD MSTORE PUSH1 0x64 ADD PUSH2 0x787 JUMP JUMPDEST PUSH1 0x0 DUP2 DUP2 MSTORE PUSH1 0x2 PUSH1 0x20 MSTORE PUSH1 0x40 SWAP1 KECCAK256 SLOAD PUSH1 0x1 PUSH1 0x1 PUSH1 0xA0 SHL SUB AND ISZERO PUSH2 0x31B5 JUMPI PUSH1 0x40 MLOAD PUSH3 0x461BCD PUSH1 0xE5 SHL DUP2 MSTORE PUSH1 0x20 PUSH1 0x4 DUP3 ADD MSTORE PUSH1 0x1C PUSH1 0x24 DUP3 ADD MSTORE PUSH32 0x4552433732313A20746F6B656E20616C7265616479206D696E74656400000000 PUSH1 0x44 DUP3 ADD MSTORE PUSH1 0x64 ADD PUSH2 0x787 JUMP JUMPDEST PUSH2 0x31C1 PUSH1 0x0 DUP4 DUP4 PUSH2 0x2C63 JUMP JUMPDEST PUSH1 0x1 PUSH1 0x1 PUSH1 0xA0 SHL SUB DUP3 AND PUSH1 0x0 SWAP1 DUP2 MSTORE PUSH1 0x3 PUSH1 0x20 MSTORE PUSH1 0x40 DUP2 KECCAK256 DUP1 SLOAD PUSH1 0x1 SWAP3 SWAP1 PUSH2 0x31EA SWAP1 DUP5 SWAP1 PUSH2 0x3B16 JUMP JUMPDEST SWAP1 SWAP2 SSTORE POP POP PUSH1 0x0 DUP2 DUP2 MSTORE PUSH1 0x2 PUSH1 0x20 MSTORE PUSH1 0x40 DUP1 DUP3 KECCAK256 DUP1 SLOAD PUSH20 0xFFFFFFFFFFFFFFFFFFFFFFFFFFFFFFFFFFFFFFFF NOT AND PUSH1 0x1 PUSH1 0x1 PUSH1 0xA0 SHL SUB DUP7 AND SWAP1 DUP2 OR SWAP1 SWAP2 SSTORE SWAP1 MLOAD DUP4 SWAP3 SWAP1 PUSH32 0xDDF252AD1BE2C89B69C2B068FC378DAA952BA7F163C4A11628F55A4DF523B3EF SWAP1 DUP3 SWAP1 LOG4 POP POP JUMP JUMPDEST PUSH1 0x40 MLOAD DUP1 PUSH2 0x220 ADD PUSH1 0x40 MSTORE DUP1 PUSH1 0x11 SWAP1 JUMPDEST PUSH1 0x60 DUP2 MSTORE PUSH1 0x20 ADD SWAP1 PUSH1 0x1 SWAP1 SUB SWAP1 DUP2 PUSH2 0x3265 JUMPI SWAP1 POP POP SWAP1 JUMP JUMPDEST PUSH1 0x40 DUP1 MLOAD PUSH2 0x240 DUP2 ADD SWAP1 SWAP2 MSTORE PUSH1 0x60 DUP2 MSTORE PUSH1 0x11 PUSH1 0x20 DUP3 ADD PUSH2 0x3265 JUMP JUMPDEST PUSH1 0x0 PUSH1 0x20 DUP3 DUP5 SUB SLT ISZERO PUSH2 0x32AA JUMPI PUSH1 0x0 DUP1 REVERT JUMPDEST DUP2 CALLDATALOAD PUSH2 0x32B5 DUP2 PUSH2 0x3C7C JUMP JUMPDEST SWAP4 SWAP3 POP POP POP JUMP JUMPDEST PUSH1 0x0 PUSH1 0x20 DUP3 DUP5 SUB SLT ISZERO PUSH2 0x32CE JUMPI PUSH1 0x0 DUP1 REVERT JUMPDEST DUP2 MLOAD PUSH2 0x32B5 DUP2 PUSH2 0x3C7C JUMP JUMPDEST PUSH1 0x0 DUP1 PUSH1 0x40 DUP4 DUP6 SUB SLT ISZERO PUSH2 0x32EC JUMPI PUSH1 0x0 DUP1 REVERT JUMPDEST DUP3 CALLDATALOAD PUSH2 0x32F7 DUP2 PUSH2 0x3C7C JUMP JUMPDEST SWAP2 POP PUSH1 0x20 DUP4 ADD CALLDATALOAD PUSH2 0x3307 DUP2 PUSH2 0x3C7C JUMP JUMPDEST DUP1 SWAP2 POP POP SWAP3 POP SWAP3 SWAP1 POP JUMP JUMPDEST PUSH1 0x0 DUP1 PUSH1 0x0 PUSH1 0x60 DUP5 DUP7 SUB SLT ISZERO PUSH2 0x3327 JUMPI PUSH1 0x0 DUP1 REVERT JUMPDEST DUP4 CALLDATALOAD PUSH2 0x3332 DUP2 PUSH2 0x3C7C JUMP JUMPDEST SWAP3 POP PUSH1 0x20 DUP5 ADD CALLDATALOAD PUSH2 0x3342 DUP2 PUSH2 0x3C7C JUMP JUMPDEST SWAP3 SWAP6 SWAP3 SWAP5 POP POP POP PUSH1 0x40 SWAP2 SWAP1 SWAP2 ADD CALLDATALOAD SWAP1 JUMP JUMPDEST PUSH1 0x0 DUP1 PUSH1 0x0 DUP1 PUSH1 0x80 DUP6 DUP8 SUB SLT ISZERO PUSH2 0x3369 JUMPI PUSH1 0x0 DUP1 REVERT JUMPDEST DUP5 CALLDATALOAD PUSH2 0x3374 DUP2 PUSH2 0x3C7C JUMP JUMPDEST SWAP4 POP PUSH1 0x20 DUP6 ADD CALLDATALOAD PUSH2 0x3384 DUP2 PUSH2 0x3C7C JUMP JUMPDEST SWAP3 POP PUSH1 0x40 DUP6 ADD CALLDATALOAD SWAP2 POP PUSH1 0x60 DUP6 ADD CALLDATALOAD PUSH8 0xFFFFFFFFFFFFFFFF DUP1 DUP3 GT ISZERO PUSH2 0x33A8 JUMPI PUSH1 0x0 DUP1 REVERT JUMPDEST DUP2 DUP8 ADD SWAP2 POP DUP8 PUSH1 0x1F DUP4 ADD SLT PUSH2 0x33BC JUMPI PUSH1 0x0 DUP1 REVERT JUMPDEST DUP2 CALLDATALOAD DUP2 DUP2 GT ISZERO PUSH2 0x33CE JUMPI PUSH2 0x33CE PUSH2 0x3C66 JUMP JUMPDEST PUSH1 0x40 MLOAD PUSH1 0x1F DUP3 ADD PUSH1 0x1F NOT SWAP1 DUP2 AND PUSH1 0x3F ADD AND DUP2 ADD SWAP1 DUP4 DUP3 GT DUP2 DUP4 LT OR ISZERO PUSH2 0x33F6 JUMPI PUSH2 0x33F6 PUSH2 0x3C66 JUMP JUMPDEST DUP2 PUSH1 0x40 MSTORE DUP3 DUP2 MSTORE DUP11 PUSH1 0x20 DUP5 DUP8 ADD ADD GT ISZERO PUSH2 0x340F JUMPI PUSH1 0x0 DUP1 REVERT JUMPDEST DUP3 PUSH1 0x20 DUP7 ADD PUSH1 0x20 DUP4 ADD CALLDATACOPY PUSH1 0x0 PUSH1 0x20 DUP5 DUP4 ADD ADD MSTORE DUP1 SWAP6 POP POP POP POP POP POP SWAP3 SWAP6 SWAP2 SWAP5 POP SWAP3 POP JUMP JUMPDEST PUSH1 0x0 DUP1 PUSH1 0x40 DUP4 DUP6 SUB SLT ISZERO PUSH2 0x3446 JUMPI PUSH1 0x0 DUP1 REVERT JUMPDEST DUP3 CALLDATALOAD PUSH2 0x3451 DUP2 PUSH2 0x3C7C JUMP JUMPDEST SWAP2 POP PUSH1 0x20 DUP4 ADD CALLDATALOAD DUP1 ISZERO ISZERO DUP2 EQ PUSH2 0x3307 JUMPI PUSH1 0x0 DUP1 REVERT JUMPDEST PUSH1 0x0 DUP1 PUSH1 0x40 DUP4 DUP6 SUB SLT ISZERO PUSH2 0x3479 JUMPI PUSH1 0x0 DUP1 REVERT JUMPDEST DUP3 CALLDATALOAD PUSH2 0x3484 DUP2 PUSH2 0x3C7C JUMP JUMPDEST SWAP5 PUSH1 0x20 SWAP4 SWAP1 SWAP4 ADD CALLDATALOAD SWAP4 POP POP POP JUMP JUMPDEST PUSH1 0x0 PUSH1 0x20 DUP3 DUP5 SUB SLT ISZERO PUSH2 0x34A4 JUMPI PUSH1 0x0 DUP1 REVERT JUMPDEST DUP2 CALLDATALOAD PUSH2 0x32B5 DUP2 PUSH2 0x3C91 JUMP JUMPDEST PUSH1 0x0 PUSH1 0x20 DUP3 DUP5 SUB SLT ISZERO PUSH2 0x34C1 JUMPI PUSH1 0x0 DUP1 REVERT JUMPDEST DUP2 MLOAD PUSH2 0x32B5 DUP2 PUSH2 0x3C91 JUMP JUMPDEST PUSH1 0x0 PUSH1 0x20 DUP3 DUP5 SUB SLT ISZERO PUSH2 0x34DE JUMPI PUSH1 0x0 DUP1 REVERT JUMPDEST POP CALLDATALOAD SWAP2 SWAP1 POP JUMP JUMPDEST PUSH1 0x0 PUSH1 0x20 DUP3 DUP5 SUB SLT ISZERO PUSH2 0x34F7 JUMPI PUSH1 0x0 DUP1 REVERT JUMPDEST POP MLOAD SWAP2 SWAP1 POP JUMP JUMPDEST PUSH1 0x0 DUP2 MLOAD DUP1 DUP5 MSTORE PUSH2 0x3516 DUP2 PUSH1 0x20 DUP7 ADD PUSH1 0x20 DUP7 ADD PUSH2 0x3B78 JUMP JUMPDEST PUSH1 0x1F ADD PUSH1 0x1F NOT AND SWAP3 SWAP1 SWAP3 ADD PUSH1 0x20 ADD SWAP3 SWAP2 POP POP JUMP JUMPDEST PUSH1 0x0 DUP2 MLOAD PUSH2 0x353C DUP2 DUP6 PUSH1 0x20 DUP7 ADD PUSH2 0x3B78 JUMP JUMPDEST SWAP3 SWAP1 SWAP3 ADD SWAP3 SWAP2 POP POP JUMP JUMPDEST PUSH1 0x0 DUP3 MLOAD PUSH2 0x3558 DUP2 DUP5 PUSH1 0x20 DUP8 ADD PUSH2 0x3B78 JUMP JUMPDEST SWAP2 SWAP1 SWAP2 ADD SWAP3 SWAP2 POP POP JUMP JUMPDEST PUSH1 0x0 DUP4 MLOAD PUSH2 0x3574 DUP2 DUP5 PUSH1 0x20 DUP9 ADD PUSH2 0x3B78 JUMP JUMPDEST DUP4 MLOAD SWAP1 DUP4 ADD SWAP1 PUSH2 0x3588 DUP2 DUP4 PUSH1 0x20 DUP9 ADD PUSH2 0x3B78 JUMP JUMPDEST ADD SWAP5 SWAP4 POP POP POP POP JUMP JUMPDEST PUSH1 0x0 DUP8 MLOAD PUSH1 0x20 PUSH2 0x35A4 DUP3 DUP6 DUP4 DUP14 ADD PUSH2 0x3B78 JUMP JUMPDEST DUP9 MLOAD SWAP2 DUP5 ADD SWAP2 PUSH2 0x35B7 DUP2 DUP5 DUP5 DUP14 ADD PUSH2 0x3B78 JUMP JUMPDEST DUP9 MLOAD SWAP3 ADD SWAP2 PUSH2 0x35C9 DUP2 DUP5 DUP5 DUP13 ADD PUSH2 0x3B78 JUMP JUMPDEST DUP8 MLOAD SWAP3 ADD SWAP2 PUSH2 0x35DB DUP2 DUP5 DUP5 DUP12 ADD PUSH2 0x3B78 JUMP JUMPDEST DUP7 MLOAD SWAP3 ADD SWAP2 PUSH2 0x35ED DUP2 DUP5 DUP5 DUP11 ADD PUSH2 0x3B78 JUMP JUMPDEST DUP6 MLOAD SWAP3 ADD SWAP2 PUSH2 0x35FF DUP2 DUP5 DUP5 DUP10 ADD PUSH2 0x3B78 JUMP JUMPDEST SWAP2 SWAP1 SWAP2 ADD SWAP10 SWAP9 POP POP POP POP POP POP POP POP POP JUMP JUMPDEST PUSH1 0x0 DUP9 MLOAD PUSH1 0x20 PUSH2 0x3623 DUP3 DUP6 DUP4 DUP15 ADD PUSH2 0x3B78 JUMP JUMPDEST DUP10 MLOAD SWAP2 DUP5 ADD SWAP2 PUSH2 0x3636 DUP2 DUP5 DUP5 DUP15 ADD PUSH2 0x3B78 JUMP JUMPDEST DUP10 MLOAD SWAP3 ADD SWAP2 PUSH2 0x3648 DUP2 DUP5 DUP5 DUP14 ADD PUSH2 0x3B78 JUMP JUMPDEST DUP9 MLOAD SWAP3 ADD SWAP2 PUSH2 0x365A DUP2 DUP5 DUP5 DUP13 ADD PUSH2 0x3B78 JUMP JUMPDEST DUP8 MLOAD SWAP3 ADD SWAP2 PUSH2 0x366C DUP2 DUP5 DUP5 DUP12 ADD PUSH2 0x3B78 JUMP JUMPDEST DUP7 MLOAD SWAP3 ADD SWAP2 PUSH2 0x367E DUP2 DUP5 DUP5 DUP11 ADD PUSH2 0x3B78 JUMP JUMPDEST DUP6 MLOAD SWAP3 ADD SWAP2 PUSH2 0x3690 DUP2 DUP5 DUP5 DUP10 ADD PUSH2 0x3B78 JUMP JUMPDEST SWAP2 SWAP1 SWAP2 ADD SWAP11 SWAP10 POP POP POP POP POP POP POP POP POP POP JUMP JUMPDEST PUSH1 0x0 DUP11 MLOAD PUSH2 0x36B4 DUP2 DUP5 PUSH1 0x20 DUP16 ADD PUSH2 0x3B78 JUMP JUMPDEST DUP11 MLOAD PUSH2 0x36C6 DUP2 DUP4 DUP7 ADD PUSH1 0x20 DUP16 ADD PUSH2 0x3B78 JUMP JUMPDEST DUP11 MLOAD SWAP2 DUP5 ADD ADD SWAP1 PUSH2 0x36DB DUP2 DUP4 PUSH1 0x20 DUP15 ADD PUSH2 0x3B78 JUMP JUMPDEST DUP10 MLOAD PUSH2 0x36ED DUP2 DUP4 DUP6 ADD PUSH1 0x20 DUP15 ADD PUSH2 0x3B78 JUMP JUMPDEST DUP10 MLOAD SWAP3 SWAP1 SWAP2 ADD ADD SWAP1 PUSH2 0x3703 DUP2 DUP4 PUSH1 0x20 DUP13 ADD PUSH2 0x3B78 JUMP JUMPDEST DUP8 MLOAD SWAP2 ADD SWAP1 PUSH2 0x3716 DUP2 DUP4 PUSH1 0x20 DUP12 ADD PUSH2 0x3B78 JUMP JUMPDEST DUP7 MLOAD PUSH2 0x3728 DUP2 DUP4 DUP6 ADD PUSH1 0x20 DUP12 ADD PUSH2 0x3B78 JUMP JUMPDEST DUP7 MLOAD SWAP3 SWAP1 SWAP2 ADD ADD SWAP1 PUSH2 0x373E DUP2 DUP4 PUSH1 0x20 DUP10 ADD PUSH2 0x3B78 JUMP JUMPDEST DUP5 MLOAD PUSH2 0x3750 DUP2 DUP4 DUP6 ADD PUSH1 0x20 DUP10 ADD PUSH2 0x3B78 JUMP JUMPDEST SWAP2 ADD ADD SWAP12 SWAP11 POP POP POP POP POP POP POP POP POP POP POP JUMP JUMPDEST PUSH32 0x646174613A6170706C69636174696F6E2F6A736F6E3B6261736536342C000000 DUP2 MSTORE PUSH1 0x0 DUP3 MLOAD PUSH2 0x379A DUP2 PUSH1 0x1D DUP6 ADD PUSH1 0x20 DUP8 ADD PUSH2 0x3B78 JUMP JUMPDEST SWAP2 SWAP1 SWAP2 ADD PUSH1 0x1D ADD SWAP3 SWAP2 POP POP JUMP JUMPDEST PUSH32 0x7B226E616D65223A2022416E696D652043686172616374657220506879736963 DUP2 MSTORE PUSH32 0x616C204368617261637465726973746963732023000000000000000000000000 PUSH1 0x20 DUP3 ADD MSTORE PUSH1 0x0 DUP5 MLOAD PUSH2 0x3805 DUP2 PUSH1 0x34 DUP6 ADD PUSH1 0x20 DUP10 ADD PUSH2 0x3B78 JUMP JUMPDEST PUSH32 0x222C000000000000000000000000000000000000000000000000000000000000 PUSH1 0x34 SWAP2 DUP5 ADD SWAP2 DUP3 ADD MSTORE PUSH32 0x226465736372697074696F6E223A2022416E696D654C6F6F7420506879736963 PUSH1 0x36 DUP3 ADD MSTORE PUSH32 0x616C204368617261637465726973746963732069732072616E646F6D697A6564 PUSH1 0x56 DUP3 ADD MSTORE PUSH32 0x20616E696D65206368617261637465727320706879736963616C206368617261 PUSH1 0x76 DUP3 ADD MSTORE PUSH32 0x637465726973746963732067656E65726174656420616E642073746F72656420 PUSH1 0x96 DUP3 ADD MSTORE PUSH32 0x6F6E20636861696E2E204F74686572206665617475726573206F662074686520 PUSH1 0xB6 DUP3 ADD MSTORE PUSH32 0x636861726163746572732061726520696E74656E74696F6E616C6C79206F6D69 PUSH1 0xD6 DUP3 ADD MSTORE PUSH32 0x7474656420666F72206F746865727320746F20696E746572707265742E204665 PUSH1 0xF6 DUP3 ADD MSTORE PUSH32 0x656C206672656520746F2075736520416E696D654C6F6F742050687973696361 PUSH2 0x116 DUP3 ADD MSTORE PUSH32 0x6C2043686172616374657269737469637320696E20616E792077617920796F75 PUSH2 0x136 DUP3 ADD MSTORE PUSH32 0x2077616E742E222C000000000000000000000000000000000000000000000000 PUSH2 0x156 DUP3 ADD MSTORE PUSH2 0x3AC7 PUSH2 0x3A9E PUSH2 0x3A75 PUSH2 0x3A6F PUSH2 0x3A46 PUSH2 0x3A1D PUSH2 0x3A17 PUSH2 0x15E DUP9 ADD PUSH32 0x22696D616765223A2022646174613A696D6167652F7376672B786D6C3B626173 DUP2 MSTORE PUSH32 0x6536342C00000000000000000000000000000000000000000000000000000000 PUSH1 0x20 DUP3 ADD MSTORE PUSH1 0x24 ADD SWAP1 JUMP JUMPDEST DUP12 PUSH2 0x352A JUMP JUMPDEST PUSH32 0x222C000000000000000000000000000000000000000000000000000000000000 DUP2 MSTORE PUSH1 0x2 ADD SWAP1 JUMP JUMPDEST PUSH32 0x2261747472696275746573223A205B0000000000000000000000000000000000 DUP2 MSTORE PUSH1 0xF ADD SWAP1 JUMP JUMPDEST DUP8 PUSH2 0x352A JUMP JUMPDEST PUSH32 0x5D00000000000000000000000000000000000000000000000000000000000000 DUP2 MSTORE PUSH1 0x1 ADD SWAP1 JUMP JUMPDEST PUSH32 0x7D00000000000000000000000000000000000000000000000000000000000000 DUP2 MSTORE PUSH1 0x1 ADD SWAP1 JUMP JUMPDEST SWAP7 SWAP6 POP POP POP POP POP POP JUMP JUMPDEST PUSH1 0x0 PUSH1 0x1 PUSH1 0x1 PUSH1 0xA0 SHL SUB DUP1 DUP8 AND DUP4 MSTORE DUP1 DUP7 AND PUSH1 0x20 DUP5 ADD MSTORE POP DUP4 PUSH1 0x40 DUP4 ADD MSTORE PUSH1 0x80 PUSH1 0x60 DUP4 ADD MSTORE PUSH2 0x3AC7 PUSH1 0x80 DUP4 ADD DUP5 PUSH2 0x34FE JUMP JUMPDEST PUSH1 0x20 DUP2 MSTORE PUSH1 0x0 PUSH2 0x32B5 PUSH1 0x20 DUP4 ADD DUP5 PUSH2 0x34FE JUMP JUMPDEST PUSH1 0x0 DUP3 NOT DUP3 GT ISZERO PUSH2 0x3B29 JUMPI PUSH2 0x3B29 PUSH2 0x3C0E JUMP JUMPDEST POP ADD SWAP1 JUMP JUMPDEST PUSH1 0x0 DUP3 PUSH2 0x3B3D JUMPI PUSH2 0x3B3D PUSH2 0x3C24 JUMP JUMPDEST POP DIV SWAP1 JUMP JUMPDEST PUSH1 0x0 DUP2 PUSH1 0x0 NOT DIV DUP4 GT DUP3 ISZERO ISZERO AND ISZERO PUSH2 0x3B5C JUMPI PUSH2 0x3B5C PUSH2 0x3C0E JUMP JUMPDEST POP MUL SWAP1 JUMP JUMPDEST PUSH1 0x0 DUP3 DUP3 LT ISZERO PUSH2 0x3B73 JUMPI PUSH2 0x3B73 PUSH2 0x3C0E JUMP JUMPDEST POP SUB SWAP1 JUMP JUMPDEST PUSH1 0x0 JUMPDEST DUP4 DUP2 LT ISZERO PUSH2 0x3B93 JUMPI DUP2 DUP2 ADD MLOAD DUP4 DUP3 ADD MSTORE PUSH1 0x20 ADD PUSH2 0x3B7B JUMP JUMPDEST DUP4 DUP2 GT ISZERO PUSH2 0x15A5 JUMPI POP POP PUSH1 0x0 SWAP2 ADD MSTORE JUMP JUMPDEST PUSH1 0x1 DUP2 DUP2 SHR SWAP1 DUP3 AND DUP1 PUSH2 0x3BB8 JUMPI PUSH1 0x7F DUP3 AND SWAP2 POP JUMPDEST PUSH1 0x20 DUP3 LT DUP2 EQ ISZERO PUSH2 0x3BD9 JUMPI PUSH4 0x4E487B71 PUSH1 0xE0 SHL PUSH1 0x0 MSTORE PUSH1 0x22 PUSH1 0x4 MSTORE PUSH1 0x24 PUSH1 0x0 REVERT JUMPDEST POP SWAP2 SWAP1 POP JUMP JUMPDEST PUSH1 0x0 PUSH1 0x0 NOT DUP3 EQ ISZERO PUSH2 0x3BF3 JUMPI PUSH2 0x3BF3 PUSH2 0x3C0E JUMP JUMPDEST POP PUSH1 0x1 ADD SWAP1 JUMP JUMPDEST PUSH1 0x0 DUP3 PUSH2 0x3C09 JUMPI PUSH2 0x3C09 PUSH2 0x3C24 JUMP JUMPDEST POP MOD SWAP1 JUMP JUMPDEST PUSH4 0x4E487B71 PUSH1 0xE0 SHL PUSH1 0x0 MSTORE PUSH1 0x11 PUSH1 0x4 MSTORE PUSH1 0x24 PUSH1 0x0 REVERT JUMPDEST PUSH4 0x4E487B71 PUSH1 0xE0 SHL PUSH1 0x0 MSTORE PUSH1 0x12 PUSH1 0x4 MSTORE PUSH1 0x24 PUSH1 0x0 REVERT JUMPDEST PUSH4 0x4E487B71 PUSH1 0xE0 SHL PUSH1 0x0 MSTORE PUSH1 0x31 PUSH1 0x4 MSTORE PUSH1 0x24 PUSH1 0x0 REVERT JUMPDEST PUSH4 0x4E487B71 PUSH1 0xE0 SHL PUSH1 0x0 MSTORE PUSH1 0x32 PUSH1 0x4 MSTORE PUSH1 0x24 PUSH1 0x0 REVERT JUMPDEST PUSH4 0x4E487B71 PUSH1 0xE0 SHL PUSH1 0x0 MSTORE PUSH1 0x41 PUSH1 0x4 MSTORE PUSH1 0x24 PUSH1 0x0 REVERT JUMPDEST PUSH1 0x1 PUSH1 0x1 PUSH1 0xA0 SHL SUB DUP2 AND DUP2 EQ PUSH2 0x2129 JUMPI PUSH1 0x0 DUP1 REVERT JUMPDEST PUSH1 0x1 PUSH1 0x1 PUSH1 0xE0 SHL SUB NOT DUP2 AND DUP2 EQ PUSH2 0x2129 JUMPI PUSH1 0x0 DUP1 REVERT INVALID EXTCODECOPY PUSH20 0x766720786D6C6E733D22687474703A2F2F777777 0x2E PUSH24 0x332E6F72672F323030302F73766722207072657365727665 COINBASE PUSH20 0x70656374526174696F3D22784D696E594D696E20 PUSH14 0x656574222076696577426F783D22 ADDRESS KECCAK256 ADDRESS KECCAK256 CALLER CALLDATALOAD ADDRESS KECCAK256 CALLER CALLDATALOAD ADDRESS 0x22 RETURNDATACOPY EXTCODECOPY PUSH20 0x74796C653E2E62617365207B2066696C6C3A2023 ADDRESS ADDRESS ADDRESS ADDRESS ADDRESS ADDRESS EXTCODESIZE KECCAK256 PUSH7 0x6F6E742D66616D PUSH10 0x6C793A2073657269663B KECCAK256 PUSH7 0x6F6E742D73697A PUSH6 0x3A2031347078 EXTCODESIZE KECCAK256 PUSH30 0x3C2F7374796C653E3C726563742077696474683D22313030252220686569 PUSH8 0x68743D2231303025 0x22 KECCAK256 PUSH7 0x696C6C3D222346 CHAINID CHAINID BALANCE ADDRESS ADDRESS 0x22 KECCAK256 0x2F RETURNDATACOPY EXTCODECOPY PUSH21 0x65787420783D2231302220793D2232302220636C61 PUSH20 0x733D2262617365223E7B2274726169745F747970 PUSH6 0x223A22417070 PUSH6 0x6172616E6365 KECCAK256 PUSH7 0x65617475726522 0x2C 0x22 PUSH23 0x616C7565223A223C2F746578743E3C7465787420783D22 BALANCE ADDRESS 0x22 KECCAK256 PUSH26 0x3D2236302220636C6173733D2262617365223E7B227472616974 0x5F PUSH21 0x797065223A22537472656E677468206F6620726163 PUSH6 0x222C2276616C PUSH22 0x65223A227B2274726169745F74797065223A22426F64 PUSH26 0x207368617065222C2276616C7565223A22416E696D654C6F6F74 KECCAK256 POP PUSH9 0x79736963616C204368 PUSH2 0x7261 PUSH4 0x74657269 PUSH20 0x746963733C2F746578743E3C7465787420783D22 BALANCE ADDRESS 0x22 KECCAK256 PUSH26 0x3D223136302220636C6173733D2262617365223E3C2F74657874 RETURNDATACOPY EXTCODECOPY PUSH21 0x65787420783D2231302220793D223132302220636C PUSH2 0x7373 RETURNDATASIZE 0x22 PUSH3 0x617365 0x22 RETURNDATACOPY EXTCODECOPY 0x2F PUSH21 0x6578743E3C7465787420783D2231302220793D2238 ADDRESS 0x22 KECCAK256 PUSH4 0x6C617373 RETURNDATASIZE 0x22 PUSH3 0x617365 0x22 RETURNDATACOPY EXTCODECOPY 0x2F PUSH21 0x6578743E3C7465787420783D2231302220793D2231 ADDRESS ADDRESS 0x22 KECCAK256 PUSH4 0x6C617373 RETURNDATASIZE 0x22 PUSH3 0x617365 0x22 RETURNDATACOPY EXTCODECOPY 0x2F PUSH21 0x6578743E3C7465787420783D2231302220793D2231 CALLVALUE ADDRESS 0x22 KECCAK256 PUSH4 0x6C617373 RETURNDATASIZE 0x22 PUSH3 0x617365 0x22 RETURNDATACOPY COINBASE TIMESTAMP NUMBER DIFFICULTY GASLIMIT CHAINID SELFBALANCE BASEFEE 0x49 0x4A 0x4B 0x4C 0x4D 0x4E 0x4F POP MLOAD MSTORE MSTORE8 SLOAD SSTORE JUMP JUMPI PC MSIZE GAS PUSH2 0x6263 PUSH5 0x6566676869 PUSH11 0x6B6C6D6E6F707172737475 PUSH23 0x7778797A303132333435363738392B2F7B227472616974 0x5F PUSH21 0x797065223A2246616369616C206665617475726522 0x2C 0x22 PUSH23 0x616C7565223A227B2274726169745F74797065223A2249 PUSH14 0x707265737369766520636F6C6F72 0x22 0x2C 0x22 PUSH23 0x616C7565223A223C2F746578743E3C7465787420783D22 BALANCE ADDRESS 0x22 KECCAK256 PUSH26 0x3D2234302220636C6173733D2262617365223EA2646970667358 0x22 SLT KECCAK256 0x4E DUP2 SWAP8 BASEFEE 0x2F DUP12 DUP13 0xEE MLOAD 0x26 BALANCE 0x4A PUSH21 0xCEE0A769F436C985362765CFA148104F5B2DE36473 PUSH16 0x6C634300080700335265706C69636141 PUSH15 0x696D654C6F6F74506879736963616C NUMBER PUSH9 0x617261637465726973 PUSH21 0x696373000000000000000000000000000000000000 "
		},
		"gasEstimates": {
			"creation": {
				"codeDepositCost": "3284800",
				"executionCost": "infinite",
				"totalCost": "infinite"
			},
			"external": {
				"_targetContract()": "2404",
				"approve(address,uint256)": "infinite",
				"balanceOf(address)": "2672",
				"changeTargetContract(address)": "28341",
				"claim(uint256)": "infinite",
				"claimAll()": "infinite",
				"getAppearanceFeature(uint256)": "infinite",
				"getApproved(uint256)": "4783",
				"getBodyShape(uint256)": "infinite",
				"getFacialFeature(uint256)": "infinite",
				"getHeight(uint256)": "infinite",
				"getImpressiveColor(uint256)": "infinite",
				"getStrengthOfRace(uint256)": "infinite",
				"getTargetContract()": "2421",
				"isApprovedForAll(address,address)": "infinite",
				"mintPrice()": "262",
				"name()": "infinite",
				"owner()": "2443",
				"ownerClaim(uint256)": "infinite",
				"ownerOf(uint256)": "2595",
				"renounceOwnership()": "28216",
				"safeTransferFrom(address,address,uint256)": "infinite",
				"safeTransferFrom(address,address,uint256,bytes)": "infinite",
				"setApprovalForAll(address,bool)": "26708",
				"supportsInterface(bytes4)": "infinite",
				"symbol()": "infinite",
				"tokenByIndex(uint256)": "6827",
				"tokenOfOwnerByIndex(address,uint256)": "5014",
				"tokenURI(uint256)": "infinite",
				"totalSupply()": "2327",
				"transferFrom(address,address,uint256)": "infinite",
				"transferOwnership(address)": "infinite",
				"withdraw(address,uint256)": "infinite"
			},
			"internal": {
				"pluck(uint256,string memory,string memory[] memory)": "infinite",
				"random(string memory)": "infinite",
				"toString(uint256)": "infinite"
			}
		},
		"methodIdentifiers": {
			"_targetContract()": "99f43aba",
			"approve(address,uint256)": "095ea7b3",
			"balanceOf(address)": "70a08231",
			"changeTargetContract(address)": "ab86de6c",
			"claim(uint256)": "379607f5",
			"claimAll()": "d1058e59",
			"getAppearanceFeature(uint256)": "c07b1978",
			"getApproved(uint256)": "081812fc",
			"getBodyShape(uint256)": "d17c9b21",
			"getFacialFeature(uint256)": "3886da94",
			"getHeight(uint256)": "fdc3a9cc",
			"getImpressiveColor(uint256)": "77aefadd",
			"getStrengthOfRace(uint256)": "761c6cc4",
			"getTargetContract()": "7a8639ed",
			"isApprovedForAll(address,address)": "e985e9c5",
			"mintPrice()": "6817c76c",
			"name()": "06fdde03",
			"owner()": "8da5cb5b",
			"ownerClaim(uint256)": "434f48c4",
			"ownerOf(uint256)": "6352211e",
			"renounceOwnership()": "715018a6",
			"safeTransferFrom(address,address,uint256)": "42842e0e",
			"safeTransferFrom(address,address,uint256,bytes)": "b88d4fde",
			"setApprovalForAll(address,bool)": "a22cb465",
			"supportsInterface(bytes4)": "01ffc9a7",
			"symbol()": "95d89b41",
			"tokenByIndex(uint256)": "4f6ccce7",
			"tokenOfOwnerByIndex(address,uint256)": "2f745c59",
			"tokenURI(uint256)": "c87b56dd",
			"totalSupply()": "18160ddd",
			"transferFrom(address,address,uint256)": "23b872dd",
			"transferOwnership(address)": "f2fde38b",
			"withdraw(address,uint256)": "f3fef3a3"
		}
	},
	"abi": [
		{
			"inputs": [
				{
					"internalType": "address",
					"name": "targetContract_",
					"type": "address"
				}
			],
			"stateMutability": "nonpayable",
			"type": "constructor"
		},
		{
			"anonymous": false,
			"inputs": [
				{
					"indexed": true,
					"internalType": "address",
					"name": "owner",
					"type": "address"
				},
				{
					"indexed": true,
					"internalType": "address",
					"name": "approved",
					"type": "address"
				},
				{
					"indexed": true,
					"internalType": "uint256",
					"name": "tokenId",
					"type": "uint256"
				}
			],
			"name": "Approval",
			"type": "event"
		},
		{
			"anonymous": false,
			"inputs": [
				{
					"indexed": true,
					"internalType": "address",
					"name": "owner",
					"type": "address"
				},
				{
					"indexed": true,
					"internalType": "address",
					"name": "operator",
					"type": "address"
				},
				{
					"indexed": false,
					"internalType": "bool",
					"name": "approved",
					"type": "bool"
				}
			],
			"name": "ApprovalForAll",
			"type": "event"
		},
		{
			"anonymous": false,
			"inputs": [
				{
					"indexed": true,
					"internalType": "address",
					"name": "previousOwner",
					"type": "address"
				},
				{
					"indexed": true,
					"internalType": "address",
					"name": "newOwner",
					"type": "address"
				}
			],
			"name": "OwnershipTransferred",
			"type": "event"
		},
		{
			"anonymous": false,
			"inputs": [
				{
					"indexed": true,
					"internalType": "address",
					"name": "previousContract",
					"type": "address"
				},
				{
					"indexed": true,
					"internalType": "address",
					"name": "newContract",
					"type": "address"
				}
			],
			"name": "TargetContractTransferred",
			"type": "event"
		},
		{
			"anonymous": false,
			"inputs": [
				{
					"indexed": true,
					"internalType": "address",
					"name": "from",
					"type": "address"
				},
				{
					"indexed": true,
					"internalType": "address",
					"name": "to",
					"type": "address"
				},
				{
					"indexed": true,
					"internalType": "uint256",
					"name": "tokenId",
					"type": "uint256"
				}
			],
			"name": "Transfer",
			"type": "event"
		},
		{
			"inputs": [],
			"name": "_targetContract",
			"outputs": [
				{
					"internalType": "contract IERC721Enumerable",
					"name": "",
					"type": "address"
				}
			],
			"stateMutability": "view",
			"type": "function"
		},
		{
			"inputs": [
				{
					"internalType": "address",
					"name": "to",
					"type": "address"
				},
				{
					"internalType": "uint256",
					"name": "tokenId",
					"type": "uint256"
				}
			],
			"name": "approve",
			"outputs": [],
			"stateMutability": "nonpayable",
			"type": "function"
		},
		{
			"inputs": [
				{
					"internalType": "address",
					"name": "owner",
					"type": "address"
				}
			],
			"name": "balanceOf",
			"outputs": [
				{
					"internalType": "uint256",
					"name": "",
					"type": "uint256"
				}
			],
			"stateMutability": "view",
			"type": "function"
		},
		{
			"inputs": [
				{
					"internalType": "address",
					"name": "newTargetContract",
					"type": "address"
				}
			],
			"name": "changeTargetContract",
			"outputs": [],
			"stateMutability": "nonpayable",
			"type": "function"
		},
		{
			"inputs": [
				{
					"internalType": "uint256",
					"name": "tokenId",
					"type": "uint256"
				}
			],
			"name": "claim",
			"outputs": [],
			"stateMutability": "payable",
			"type": "function"
		},
		{
			"inputs": [],
			"name": "claimAll",
			"outputs": [],
			"stateMutability": "payable",
			"type": "function"
		},
		{
			"inputs": [
				{
					"internalType": "uint256",
					"name": "tokenId",
					"type": "uint256"
				}
			],
			"name": "getAppearanceFeature",
			"outputs": [
				{
					"internalType": "string",
					"name": "",
					"type": "string"
				}
			],
			"stateMutability": "view",
			"type": "function"
		},
		{
			"inputs": [
				{
					"internalType": "uint256",
					"name": "tokenId",
					"type": "uint256"
				}
			],
			"name": "getApproved",
			"outputs": [
				{
					"internalType": "address",
					"name": "",
					"type": "address"
				}
			],
			"stateMutability": "view",
			"type": "function"
		},
		{
			"inputs": [
				{
					"internalType": "uint256",
					"name": "tokenId",
					"type": "uint256"
				}
			],
			"name": "getBodyShape",
			"outputs": [
				{
					"internalType": "string",
					"name": "",
					"type": "string"
				}
			],
			"stateMutability": "view",
			"type": "function"
		},
		{
			"inputs": [
				{
					"internalType": "uint256",
					"name": "tokenId",
					"type": "uint256"
				}
			],
			"name": "getFacialFeature",
			"outputs": [
				{
					"internalType": "string",
					"name": "",
					"type": "string"
				}
			],
			"stateMutability": "view",
			"type": "function"
		},
		{
			"inputs": [
				{
					"internalType": "uint256",
					"name": "tokenId",
					"type": "uint256"
				}
			],
			"name": "getHeight",
			"outputs": [
				{
					"internalType": "string",
					"name": "",
					"type": "string"
				}
			],
			"stateMutability": "view",
			"type": "function"
		},
		{
			"inputs": [
				{
					"internalType": "uint256",
					"name": "tokenId",
					"type": "uint256"
				}
			],
			"name": "getImpressiveColor",
			"outputs": [
				{
					"internalType": "string",
					"name": "",
					"type": "string"
				}
			],
			"stateMutability": "view",
			"type": "function"
		},
		{
			"inputs": [
				{
					"internalType": "uint256",
					"name": "tokenId",
					"type": "uint256"
				}
			],
			"name": "getStrengthOfRace",
			"outputs": [
				{
					"internalType": "string",
					"name": "",
					"type": "string"
				}
			],
			"stateMutability": "view",
			"type": "function"
		},
		{
			"inputs": [],
			"name": "getTargetContract",
			"outputs": [
				{
					"internalType": "address",
					"name": "",
					"type": "address"
				}
			],
			"stateMutability": "view",
			"type": "function"
		},
		{
			"inputs": [
				{
					"internalType": "address",
					"name": "owner",
					"type": "address"
				},
				{
					"internalType": "address",
					"name": "operator",
					"type": "address"
				}
			],
			"name": "isApprovedForAll",
			"outputs": [
				{
					"internalType": "bool",
					"name": "",
					"type": "bool"
				}
			],
			"stateMutability": "view",
			"type": "function"
		},
		{
			"inputs": [],
			"name": "mintPrice",
			"outputs": [
				{
					"internalType": "uint256",
					"name": "",
					"type": "uint256"
				}
			],
			"stateMutability": "view",
			"type": "function"
		},
		{
			"inputs": [],
			"name": "name",
			"outputs": [
				{
					"internalType": "string",
					"name": "",
					"type": "string"
				}
			],
			"stateMutability": "view",
			"type": "function"
		},
		{
			"inputs": [],
			"name": "owner",
			"outputs": [
				{
					"internalType": "address",
					"name": "",
					"type": "address"
				}
			],
			"stateMutability": "view",
			"type": "function"
		},
		{
			"inputs": [
				{
					"internalType": "uint256",
					"name": "tokenId",
					"type": "uint256"
				}
			],
			"name": "ownerClaim",
			"outputs": [],
			"stateMutability": "payable",
			"type": "function"
		},
		{
			"inputs": [
				{
					"internalType": "uint256",
					"name": "tokenId",
					"type": "uint256"
				}
			],
			"name": "ownerOf",
			"outputs": [
				{
					"internalType": "address",
					"name": "",
					"type": "address"
				}
			],
			"stateMutability": "view",
			"type": "function"
		},
		{
			"inputs": [],
			"name": "renounceOwnership",
			"outputs": [],
			"stateMutability": "nonpayable",
			"type": "function"
		},
		{
			"inputs": [
				{
					"internalType": "address",
					"name": "from",
					"type": "address"
				},
				{
					"internalType": "address",
					"name": "to",
					"type": "address"
				},
				{
					"internalType": "uint256",
					"name": "tokenId",
					"type": "uint256"
				}
			],
			"name": "safeTransferFrom",
			"outputs": [],
			"stateMutability": "nonpayable",
			"type": "function"
		},
		{
			"inputs": [
				{
					"internalType": "address",
					"name": "from",
					"type": "address"
				},
				{
					"internalType": "address",
					"name": "to",
					"type": "address"
				},
				{
					"internalType": "uint256",
					"name": "tokenId",
					"type": "uint256"
				},
				{
					"internalType": "bytes",
					"name": "_data",
					"type": "bytes"
				}
			],
			"name": "safeTransferFrom",
			"outputs": [],
			"stateMutability": "nonpayable",
			"type": "function"
		},
		{
			"inputs": [
				{
					"internalType": "address",
					"name": "operator",
					"type": "address"
				},
				{
					"internalType": "bool",
					"name": "approved",
					"type": "bool"
				}
			],
			"name": "setApprovalForAll",
			"outputs": [],
			"stateMutability": "nonpayable",
			"type": "function"
		},
		{
			"inputs": [
				{
					"internalType": "bytes4",
					"name": "interfaceId",
					"type": "bytes4"
				}
			],
			"name": "supportsInterface",
			"outputs": [
				{
					"internalType": "bool",
					"name": "",
					"type": "bool"
				}
			],
			"stateMutability": "view",
			"type": "function"
		},
		{
			"inputs": [],
			"name": "symbol",
			"outputs": [
				{
					"internalType": "string",
					"name": "",
					"type": "string"
				}
			],
			"stateMutability": "view",
			"type": "function"
		},
		{
			"inputs": [
				{
					"internalType": "uint256",
					"name": "index",
					"type": "uint256"
				}
			],
			"name": "tokenByIndex",
			"outputs": [
				{
					"internalType": "uint256",
					"name": "",
					"type": "uint256"
				}
			],
			"stateMutability": "view",
			"type": "function"
		},
		{
			"inputs": [
				{
					"internalType": "address",
					"name": "owner",
					"type": "address"
				},
				{
					"internalType": "uint256",
					"name": "index",
					"type": "uint256"
				}
			],
			"name": "tokenOfOwnerByIndex",
			"outputs": [
				{
					"internalType": "uint256",
					"name": "",
					"type": "uint256"
				}
			],
			"stateMutability": "view",
			"type": "function"
		},
		{
			"inputs": [
				{
					"internalType": "uint256",
					"name": "tokenId",
					"type": "uint256"
				}
			],
			"name": "tokenURI",
			"outputs": [
				{
					"internalType": "string",
					"name": "",
					"type": "string"
				}
			],
			"stateMutability": "view",
			"type": "function"
		},
		{
			"inputs": [],
			"name": "totalSupply",
			"outputs": [
				{
					"internalType": "uint256",
					"name": "",
					"type": "uint256"
				}
			],
			"stateMutability": "view",
			"type": "function"
		},
		{
			"inputs": [
				{
					"internalType": "address",
					"name": "from",
					"type": "address"
				},
				{
					"internalType": "address",
					"name": "to",
					"type": "address"
				},
				{
					"internalType": "uint256",
					"name": "tokenId",
					"type": "uint256"
				}
			],
			"name": "transferFrom",
			"outputs": [],
			"stateMutability": "nonpayable",
			"type": "function"
		},
		{
			"inputs": [
				{
					"internalType": "address",
					"name": "newOwner",
					"type": "address"
				}
			],
			"name": "transferOwnership",
			"outputs": [],
			"stateMutability": "nonpayable",
			"type": "function"
		},
		{
			"inputs": [
				{
					"internalType": "address",
					"name": "to",
					"type": "address"
				},
				{
					"internalType": "uint256",
					"name": "amount",
					"type": "uint256"
				}
			],
			"name": "withdraw",
			"outputs": [],
			"stateMutability": "nonpayable",
			"type": "function"
		}
	]
}