{
	"data": {
		"bytecode": {
			"linkReferences": {},
			"object": "60096101809081526815995c9e481d185b1b60ba1b6101a052608090815260046101c08181526315185b1b60e21b6101e081905260a0919091526102009182526102205260c0526006610240818152654d656469756d60d01b61026081905260e0919091526102809182526102a0526101005260056102c08181526414da1bdc9d60da1b6102e0819052610120919091526103009182526103205261014052610380604052600a6103409081526915995c9e481cda1bdc9d60b21b6103605261016052620000d290600d906008620007fe565b506040518060a00160405280604051806040016040528060068152602001655374726f6e6760d01b8152508152602001604051806040016040528060058152602001640506c756d760dc1b815250815260200160405180604001604052806006815260200165139bdc9b585b60d21b815250815260200160405180604001604052806006815260200165139bdc9b585b60d21b81525081526020016040518060400160405280600781526020016629b632b73232b960c91b815250815250600e906005620001a292919062000862565b50604051806101000160405280604051806040016040528060048152602001635075726560e01b8152508152602001604051806040016040528060048152602001635075726560e01b8152508152602001604051806040016040528060048152602001635075726560e01b8152508152602001604051806040016040528060048152602001632430b63360e11b8152508152602001604051806040016040528060048152602001632430b63360e11b81525081526020016040518060400160405280600781526020016628bab0b93a32b960c91b81525081526020016040518060400160405280600781526020016628bab0b93a32b960c91b81525081526020016040518060400160405280600a81526020016909edcca5acad2ced0e8d60b31b815250815250600f906008620002db929190620007fe565b506040805161016081018252600361012082019081526214995960ea1b61014083015281528151808301835260068082526559656c6c6f7760d01b602083810191909152808401929092528351808501855260058082526423b932b2b760d91b828501528486019190915284518086018652600480825263426c756560e01b8286015260608601919091528551808701875283815265507572706c6560d01b8186015260808601528551808701875282815264576869746560d81b8186015260a08601528551808701875291825264426c61636b60d81b8285015260c0850191909152845180860186529081526311dbdb1960e21b8184015260e0840152835180850190945283526529b4b63b32b960d11b908301526101008101919091526200040a906010906009620008b4565b50604080516101a081018252600461016082018181526354696e7960e01b610180840152825282518084018452600681526550726574747960d01b6020828101919091528084019190915283518085018552600981526842616279206661636560b81b818301528385015283518085018552600a808252694174747261637469766560b01b8284015260608501919091528451808601865260078082526611d85b1b185b9d60ca1b82850152608086019190915285518087018752938452631399585d60e21b8484015260a08501939093528451808601865290815269105cdd1c9a5b99d95b9d60b21b8183015260c084015283518085018552600581526444616e647960d81b8183015260e084015283518085018552600c81526b53636172206f6e206661636560a01b8183015261010084015283518085018552600e81526d53636172206f6e20746174746f6f60901b818301526101208401528351808501909452908352664f6e652065796560c81b908301526101408101919091526200059990601190600b62000906565b506040805161014081018252600b61010082019081526a436c65616e6c696e65737360a81b6101208301528152815180830183526009808252682330b4b91039b5b4b760b91b6020838101919091528084019290925283518085018552908152682230b9359039b5b4b760b91b818301528284015282518084018452600a815269496e76616c696469736d60b01b818301526060830152825180840184526007808252664865616c74687960c81b828401526080840191909152835180850185526006815265084def2d2e6d60d31b8184015260a0840152835180850185528181526613995d5d1c985b60ca1b8184015260c0840152835180850190945283526608ed2e4d8d2e6d60cb1b9083015260e0810191909152620006c0906012906008620007fe565b50348015620006ce57600080fd5b506040516200407338038062004073833981016040819052620006f19162000a5d565b60408051808201825260208082527f416e696d654c6f6f74506879736963616c436861726163746572697374696373818301818152845180860190955282855291840152815184939162000749916000919062000958565b5080516200075f90600190602084019062000958565b5050506200077c62000776620007a860201b60201c565b620007ac565b6001600b55600c80546001600160a01b0319166001600160a01b03929092169190911790555062000acc565b3390565b600a80546001600160a01b038381166001600160a01b0319831681179093556040519116919082907f8be0079c531659141344cd1fd0a4f28419497f9722a3daafe3b4186f6b6457e090600090a35050565b82805482825590600052602060002090810192821562000850579160200282015b828111156200085057825180516200083f91849160209091019062000958565b50916020019190600101906200081f565b506200085e929150620009e3565b5090565b82805482825590600052602060002090810192821562000850579160200282015b82811115620008505782518051620008a391849160209091019062000958565b509160200191906001019062000883565b82805482825590600052602060002090810192821562000850579160200282015b82811115620008505782518051620008f591849160209091019062000958565b5091602001919060010190620008d5565b82805482825590600052602060002090810192821562000850579160200282015b828111156200085057825180516200094791849160209091019062000958565b509160200191906001019062000927565b828054620009669062000a8f565b90600052602060002090601f0160209004810192826200098a5760008555620009d5565b82601f10620009a557805160ff1916838001178555620009d5565b82800160010185558215620009d5579182015b82811115620009d5578251825591602001919060010190620009b8565b506200085e92915062000a04565b808211156200085e576000620009fa828262000a1b565b50600101620009e3565b5b808211156200085e576000815560010162000a05565b50805462000a299062000a8f565b6000825580601f1062000a3a575050565b601f01602090049060005260206000209081019062000a5a919062000a04565b50565b60006020828403121562000a7057600080fd5b81516001600160a01b038116811462000a8857600080fd5b9392505050565b600181811c9082168062000aa457607f821691505b6020821081141562000ac657634e487b7160e01b600052602260045260246000fd5b50919050565b6135978062000adc6000396000f3fe608060405234801561001057600080fd5b50600436106101e55760003560e01c8063761c6cc41161010f578063b88d4fde116100a2578063d17c9b2111610071578063d17c9b21146103f6578063e985e9c514610409578063f2fde38b14610445578063fdc3a9cc1461045857600080fd5b8063b88d4fde146103b5578063c07b1978146103c8578063c87b56dd146103db578063d1058e59146103ee57600080fd5b806395d89b41116100de57806395d89b411461037457806399f43aba1461037c578063a22cb4651461038f578063ab86de6c146103a257600080fd5b8063761c6cc41461032c57806377aefadd1461033f5780637a8639ed146103525780638da5cb5b1461036357600080fd5b8063379607f5116101875780634f6ccce7116101565780634f6ccce7146102eb5780636352211e146102fe57806370a0823114610311578063715018a61461032457600080fd5b8063379607f51461029f5780633886da94146102b257806342842e0e146102c5578063434f48c4146102d857600080fd5b8063095ea7b3116101c3578063095ea7b31461025257806318160ddd1461026757806323b872dd146102795780632f745c591461028c57600080fd5b806301ffc9a7146101ea57806306fdde0314610212578063081812fc14610227575b600080fd5b6101fd6101f8366004612cfa565b61046b565b60405190151581526020015b60405180910390f35b61021a6104af565b6040516102099190613160565b61023a610235366004612d34565b610541565b6040516001600160a01b039091168152602001610209565b610265610260366004612cce565b6105db565b005b6008545b604051908152602001610209565b610265610287366004612b7a565b61070d565b61026b61029a366004612cce565b610794565b6102656102ad366004612d34565b61083c565b61021a6102c0366004612d34565b610aa6565b6102656102d3366004612b7a565b610bb9565b6102656102e6366004612d34565b610bd4565b61026b6102f9366004612d34565b610d07565b61023a61030c366004612d34565b610dab565b61026b61031f366004612b00565b610e36565b610265610ed0565b61021a61033a366004612d34565b610f36565b61021a61034d366004612d34565b611040565b600c546001600160a01b031661023a565b600a546001600160a01b031661023a565b61021a61114a565b600c5461023a906001600160a01b031681565b61026561039d366004612c9b565b611159565b6102656103b0366004612b00565b61121e565b6102656103c3366004612bbb565b6112ca565b61021a6103d6366004612d34565b611358565b61021a6103e9366004612d34565b611462565b610265611754565b61021a610404366004612d34565b6119bb565b6101fd610417366004612b41565b6001600160a01b03918216600090815260056020908152604080832093909416825291909152205460ff1690565b610265610453366004612b00565b611ac5565b61021a610466366004612d34565b611ba7565b60006001600160e01b031982167f780e9d630000000000000000000000000000000000000000000000000000000014806104a957506104a982611cb1565b92915050565b6060600080546104be90613201565b80601f01602080910402602001604051908101604052809291908181526020018280546104ea90613201565b80156105375780601f1061050c57610100808354040283529160200191610537565b820191906000526020600020905b81548152906001019060200180831161051a57829003601f168201915b5050505050905090565b6000818152600260205260408120546001600160a01b03166105bf5760405162461bcd60e51b815260206004820152602c60248201527f4552433732313a20617070726f76656420717565727920666f72206e6f6e657860448201526b34b9ba32b73a103a37b5b2b760a11b60648201526084015b60405180910390fd5b506000908152600460205260409020546001600160a01b031690565b60006105e682610dab565b9050806001600160a01b0316836001600160a01b031614156106705760405162461bcd60e51b815260206004820152602160248201527f4552433732313a20617070726f76616c20746f2063757272656e74206f776e6560448201527f720000000000000000000000000000000000000000000000000000000000000060648201526084016105b6565b336001600160a01b038216148061068c575061068c8133610417565b6106fe5760405162461bcd60e51b815260206004820152603860248201527f4552433732313a20617070726f76652063616c6c6572206973206e6f74206f7760448201527f6e6572206e6f7220617070726f76656420666f7220616c6c000000000000000060648201526084016105b6565b6107088383611d4c565b505050565b6107173382611dba565b6107895760405162461bcd60e51b815260206004820152603160248201527f4552433732313a207472616e736665722063616c6c6572206973206e6f74206f60448201527f776e6572206e6f7220617070726f76656400000000000000000000000000000060648201526084016105b6565b610708838383611eb1565b600061079f83610e36565b82106108135760405162461bcd60e51b815260206004820152602b60248201527f455243373231456e756d657261626c653a206f776e657220696e646578206f7560448201527f74206f6620626f756e647300000000000000000000000000000000000000000060648201526084016105b6565b506001600160a01b03919091166000908152600660209081526040808320938352929052205490565b6002600b54141561088f5760405162461bcd60e51b815260206004820152601f60248201527f5265656e7472616e637947756172643a207265656e7472616e742063616c6c0060448201526064016105b6565b6002600b558033600c546040517f6352211e000000000000000000000000000000000000000000000000000000008152600481018490526001600160a01b039283169290911690636352211e9060240160206040518083038186803b1580156108f757600080fd5b505afa15801561090b573d6000803e3d6000fd5b505050506040513d601f19601f8201168201806040525081019061092f9190612b24565b6001600160a01b0316146109ab5760405162461bcd60e51b815260206004820152602260248201527f486f6c6461626c653a2063616c6c6572206973206e6f742074686520686f6c6460448201527f657200000000000000000000000000000000000000000000000000000000000060648201526084016105b6565b6000821180156109bc5750611f4182105b610a085760405162461bcd60e51b815260206004820152601e60248201527f546f6b656e20494420696e76616c69642e206f7574206f662072616e6765000060448201526064016105b6565b6000828152600260205260409020546001600160a01b031615610a935760405162461bcd60e51b815260206004820152602160248201527f546f6b656e20494420696e76616c69642e20416c726561647920636c61696d6560448201527f640000000000000000000000000000000000000000000000000000000000000060648201526084016105b6565b610a9d3383612089565b50506001600b55565b60606104a9826040518060400160405280600d81526020017f46414349414c46454154555245000000000000000000000000000000000000008152506011805480602002602001604051908101604052809291908181526020016000905b82821015610bb0578382906000526020600020018054610b2390613201565b80601f0160208091040260200160405190810160405280929190818152602001828054610b4f90613201565b8015610b9c5780601f10610b7157610100808354040283529160200191610b9c565b820191906000526020600020905b815481529060010190602001808311610b7f57829003601f168201915b505050505081526020019060010190610b04565b505050506120a3565b610708838383604051806020016040528060008152506112ca565b6002600b541415610c275760405162461bcd60e51b815260206004820152601f60248201527f5265656e7472616e637947756172643a207265656e7472616e742063616c6c0060448201526064016105b6565b6002600b55600a546001600160a01b03163314610c865760405162461bcd60e51b815260206004820181905260248201527f4f776e61626c653a2063616c6c6572206973206e6f7420746865206f776e657260448201526064016105b6565b611f4081118015610c98575061208e81105b610ce45760405162461bcd60e51b815260206004820152601060248201527f546f6b656e20494420696e76616c69640000000000000000000000000000000060448201526064016105b6565b610cff610cf9600a546001600160a01b031690565b82612089565b506001600b55565b6000610d1260085490565b8210610d865760405162461bcd60e51b815260206004820152602c60248201527f455243373231456e756d657261626c653a20676c6f62616c20696e646578206f60448201527f7574206f6620626f756e6473000000000000000000000000000000000000000060648201526084016105b6565b60088281548110610d9957610d996132ad565b90600052602060002001549050919050565b6000818152600260205260408120546001600160a01b0316806104a95760405162461bcd60e51b815260206004820152602960248201527f4552433732313a206f776e657220717565727920666f72206e6f6e657869737460448201527f656e7420746f6b656e000000000000000000000000000000000000000000000060648201526084016105b6565b60006001600160a01b038216610eb45760405162461bcd60e51b815260206004820152602a60248201527f4552433732313a2062616c616e636520717565727920666f7220746865207a6560448201527f726f20616464726573730000000000000000000000000000000000000000000060648201526084016105b6565b506001600160a01b031660009081526003602052604090205490565b600a546001600160a01b03163314610f2a5760405162461bcd60e51b815260206004820181905260248201527f4f776e61626c653a2063616c6c6572206973206e6f7420746865206f776e657260448201526064016105b6565b610f34600061219c565b565b60606104a9826040518060400160405280600e81526020017f535452454e4754484f4652414345000000000000000000000000000000000000815250600f805480602002602001604051908101604052809291908181526020016000905b82821015610bb0578382906000526020600020018054610fb390613201565b80601f0160208091040260200160405190810160405280929190818152602001828054610fdf90613201565b801561102c5780601f106110015761010080835404028352916020019161102c565b820191906000526020600020905b81548152906001019060200180831161100f57829003601f168201915b505050505081526020019060010190610f94565b60606104a9826040518060400160405280600f81526020017f494d5052455353495645434f4c4f5200000000000000000000000000000000008152506010805480602002602001604051908101604052809291908181526020016000905b82821015610bb05783829060005260206000200180546110bd90613201565b80601f01602080910402602001604051908101604052809291908181526020018280546110e990613201565b80156111365780601f1061110b57610100808354040283529160200191611136565b820191906000526020600020905b81548152906001019060200180831161111957829003601f168201915b50505050508152602001906001019061109e565b6060600180546104be90613201565b6001600160a01b0382163314156111b25760405162461bcd60e51b815260206004820152601960248201527f4552433732313a20617070726f766520746f2063616c6c65720000000000000060448201526064016105b6565b3360008181526005602090815260408083206001600160a01b03871680855290835292819020805460ff191686151590811790915590519081529192917f17307eab39ab6107e8899845ad3d59bd9653f200f220920489ca2b5937696c31910160405180910390a35050565b600a546001600160a01b031633146112785760405162461bcd60e51b815260206004820181905260248201527f4f776e61626c653a2063616c6c6572206973206e6f7420746865206f776e657260448201526064016105b6565b600c80546001600160a01b038381166001600160a01b0319831681179093556040519116919082907f9dabf3afae828ba590cbc2a5cd78456a9c86160d91461150184b48117f2b216b90600090a35050565b6112d43383611dba565b6113465760405162461bcd60e51b815260206004820152603160248201527f4552433732313a207472616e736665722063616c6c6572206973206e6f74206f60448201527f776e6572206e6f7220617070726f76656400000000000000000000000000000060648201526084016105b6565b611352848484846121ee565b50505050565b60606104a9826040518060400160405280601181526020017f415050454152414e4345464541545552450000000000000000000000000000008152506012805480602002602001604051908101604052809291908181526020016000905b82821015610bb05783829060005260206000200180546113d590613201565b80601f016020809104026020016040519081016040528092919081815260200182805461140190613201565b801561144e5780601f106114235761010080835404028352916020019161144e565b820191906000526020600020905b81548152906001019060200180831161143157829003601f168201915b5050505050815260200190600101906113b6565b606061146c612ad8565b60405180610140016040528061010181526020016133056101019139815260408051808201909152601981527f416e696d654c6f6f7420436861726163746572697374696373000000000000006020820152816001602002018190525060405180606001604052806028815260200161353a6028913960408201526114f083611ba7565b60608083019190915260408051918201905260288082526134066020830139608082015261151d836119bb565b60a082015260408051606081019091526028808252613480602083013960c082015261154883610f36565b60e0820152604080516060810190915260298082526134a8602083013961010082015261157483611040565b6101208201526040805160608101909152602980825261345760208301396101408201526115a183610aa6565b610160820152604080516060810190915260298082526134d160208301396101808201526115ce83611358565b6101a08201526040805160608101909152602980825261342e60208301396101c08201526040805160208082018352600082526101e08401919091528151808301909252600d82527f3c2f746578743e3c2f7376673e0000000000000000000000000000000000000090820152816010602090810291909101919091528151828201516040808501516060860151608087015160a088015160c089015160e08a01516101008b0151965160009a6116889a99989101612df9565b60408051808303601f19018152908290526101208401516101408501516101608601516101808701516101a08801516101c08901516101e08a01516102008b01519799506116db988a9890602001612df9565b604051602081830303815290604052905060006117286116fa8661226c565b6117038461239e565b604051602001611714929190612ebb565b60405160208183030381529060405261239e565b90508060405160200161173b91906130df565b60408051601f1981840301815291905295945050505050565b600c546000906001600160a01b03166370a08231336040516001600160e01b031960e084901b1681526001600160a01b03909116600482015260240160206040518083038186803b1580156117a857600080fd5b505afa1580156117bc573d6000803e3d6000fd5b505050506040513d601f19601f820116820180604052508101906117e09190612d4d565b9050600081116118585760405162461bcd60e51b815260206004820152603160248201527f486f6c6461626c653a205468657265206973206e6f20746f6b656e696420746860448201527f61742063616e20626520636c61696d656400000000000000000000000000000060648201526084016105b6565b6000805b8281101561194057600c546000906001600160a01b0316632f745c59336040516001600160e01b031960e084901b1681526001600160a01b0390911660048201526024810185905260440160206040518083038186803b1580156118bf57600080fd5b505afa1580156118d3573d6000803e3d6000fd5b505050506040513d601f19601f820116820180604052508101906118f79190612d4d565b6000818152600260205260409020549091506001600160a01b031661192d5761191f8161083c565b826119298161323c565b9350505b50806119388161323c565b91505061185c565b50600081116119b75760405162461bcd60e51b815260206004820152603160248201527f486f6c6461626c653a205468657265206973206e6f20746f6b656e696420746860448201527f61742063616e20626520636c61696d656400000000000000000000000000000060648201526084016105b6565b5050565b60606104a9826040518060400160405280600981526020017f424f445953484150450000000000000000000000000000000000000000000000815250600e805480602002602001604051908101604052809291908181526020016000905b82821015610bb0578382906000526020600020018054611a3890613201565b80601f0160208091040260200160405190810160405280929190818152602001828054611a6490613201565b8015611ab15780601f10611a8657610100808354040283529160200191611ab1565b820191906000526020600020905b815481529060010190602001808311611a9457829003601f168201915b505050505081526020019060010190611a19565b600a546001600160a01b03163314611b1f5760405162461bcd60e51b815260206004820181905260248201527f4f776e61626c653a2063616c6c6572206973206e6f7420746865206f776e657260448201526064016105b6565b6001600160a01b038116611b9b5760405162461bcd60e51b815260206004820152602660248201527f4f776e61626c653a206e6577206f776e657220697320746865207a65726f206160448201527f646472657373000000000000000000000000000000000000000000000000000060648201526084016105b6565b611ba48161219c565b50565b60606104a9826040518060400160405280600681526020017f4845494748540000000000000000000000000000000000000000000000000000815250600d805480602002602001604051908101604052809291908181526020016000905b82821015610bb0578382906000526020600020018054611c2490613201565b80601f0160208091040260200160405190810160405280929190818152602001828054611c5090613201565b8015611c9d5780601f10611c7257610100808354040283529160200191611c9d565b820191906000526020600020905b815481529060010190602001808311611c8057829003601f168201915b505050505081526020019060010190611c05565b60006001600160e01b031982167f80ac58cd000000000000000000000000000000000000000000000000000000001480611d1457506001600160e01b031982167f5b5e139f00000000000000000000000000000000000000000000000000000000145b806104a957507f01ffc9a7000000000000000000000000000000000000000000000000000000006001600160e01b03198316146104a9565b600081815260046020526040902080546001600160a01b0319166001600160a01b0384169081179091558190611d8182610dab565b6001600160a01b03167f8c5be1e5ebec7d5bd14f71427d1e84f3dd0314c0f7b2291e5b200ac8c7c3b92560405160405180910390a45050565b6000818152600260205260408120546001600160a01b0316611e335760405162461bcd60e51b815260206004820152602c60248201527f4552433732313a206f70657261746f7220717565727920666f72206e6f6e657860448201526b34b9ba32b73a103a37b5b2b760a11b60648201526084016105b6565b6000611e3e83610dab565b9050806001600160a01b0316846001600160a01b03161480611e795750836001600160a01b0316611e6e84610541565b6001600160a01b0316145b80611ea957506001600160a01b0380821660009081526005602090815260408083209388168352929052205460ff165b949350505050565b826001600160a01b0316611ec482610dab565b6001600160a01b031614611f405760405162461bcd60e51b815260206004820152602960248201527f4552433732313a207472616e73666572206f6620746f6b656e2074686174206960448201527f73206e6f74206f776e000000000000000000000000000000000000000000000060648201526084016105b6565b6001600160a01b038216611fbb5760405162461bcd60e51b8152602060048201526024808201527f4552433732313a207472616e7366657220746f20746865207a65726f2061646460448201527f726573730000000000000000000000000000000000000000000000000000000060648201526084016105b6565b611fc683838361253b565b611fd1600082611d4c565b6001600160a01b0383166000908152600360205260408120805460019290611ffa9084906131be565b90915550506001600160a01b0382166000908152600360205260408120805460019290612028908490613173565b909155505060008181526002602052604080822080546001600160a01b0319166001600160a01b0386811691821790925591518493918716917fddf252ad1be2c89b69c2b068fc378daa952ba7f163c4a11628f55a4df523b3ef91a4505050565b6119b78282604051806020016040528060008152506125f3565b6000838152600260205260409020546060906001600160a01b03166121305760405162461bcd60e51b815260206004820152602f60248201527f4552433732314d657461646174613a2055524920717565727920666f72206e6f60448201527f6e6578697374656e7420746f6b656e000000000000000000000000000000000060648201526084016105b6565b60006121648461213f8761226c565b604051602001612150929190612dca565b604051602081830303815290604052612671565b90506000838451836121769190613257565b81518110612186576121866132ad565b6020026020010151905080925050509392505050565b600a80546001600160a01b038381166001600160a01b0319831681179093556040519116919082907f8be0079c531659141344cd1fd0a4f28419497f9722a3daafe3b4186f6b6457e090600090a35050565b6121f9848484611eb1565b612205848484846126a2565b6113525760405162461bcd60e51b815260206004820152603260248201527f4552433732313a207472616e7366657220746f206e6f6e20455243373231526560448201527131b2b4bb32b91034b6b83632b6b2b73a32b960711b60648201526084016105b6565b6060816122ac57505060408051808201909152600181527f3000000000000000000000000000000000000000000000000000000000000000602082015290565b8160005b81156122d657806122c08161323c565b91506122cf9050600a8361318b565b91506122b0565b60008167ffffffffffffffff8111156122f1576122f16132c3565b6040519080825280601f01601f19166020018201604052801561231b576020820181803683370190505b5090505b8415611ea9576123306001836131be565b915061233d600a86613257565b612348906030613173565b60f81b81838151811061235d5761235d6132ad565b60200101907effffffffffffffffffffffffffffffffffffffffffffffffffffffffffffff1916908160001a905350612397600a8661318b565b945061231f565b8051606090806123be575050604080516020810190915260008152919050565b600060036123cd836002613173565b6123d7919061318b565b6123e290600461319f565b905060006123f1826020613173565b67ffffffffffffffff811115612409576124096132c3565b6040519080825280601f01601f191660200182016040528015612433576020820181803683370190505b50905060006040518060600160405280604081526020016134fa604091399050600181016020830160005b868110156124bf576003818a01810151603f601282901c8116860151600c83901c8216870151600684901c831688015192909316870151600891821b60ff94851601821b92841692909201901b91160160e01b83526004909201910161245e565b5060038606600181146124d957600281146125055761252d565b7f3d3d00000000000000000000000000000000000000000000000000000000000060011983015261252d565b7f3d000000000000000000000000000000000000000000000000000000000000006000198301525b505050918152949350505050565b6001600160a01b0383166125965761259181600880546000838152600960205260408120829055600182018355919091527ff3f7a9fe364faab93b216da50a3214154f22a0a2b415b23a84c8169e8b636ee30155565b6125b9565b816001600160a01b0316836001600160a01b0316146125b9576125b983826127fa565b6001600160a01b0382166125d05761070881612897565b826001600160a01b0316826001600160a01b031614610708576107088282612946565b6125fd838361298a565b61260a60008484846126a2565b6107085760405162461bcd60e51b815260206004820152603260248201527f4552433732313a207472616e7366657220746f206e6f6e20455243373231526560448201527131b2b4bb32b91034b6b83632b6b2b73a32b960711b60648201526084016105b6565b6000816040516020016126849190612dae565b60408051601f19818403018152919052805160209091012092915050565b60006001600160a01b0384163b156127ef57604051630a85bd0160e11b81526001600160a01b0385169063150b7a02906126e6903390899088908890600401613124565b602060405180830381600087803b15801561270057600080fd5b505af1925050508015612730575060408051601f3d908101601f1916820190925261272d91810190612d17565b60015b6127d5573d80801561275e576040519150601f19603f3d011682016040523d82523d6000602084013e612763565b606091505b5080516127cd5760405162461bcd60e51b815260206004820152603260248201527f4552433732313a207472616e7366657220746f206e6f6e20455243373231526560448201527131b2b4bb32b91034b6b83632b6b2b73a32b960711b60648201526084016105b6565b805181602001fd5b6001600160e01b031916630a85bd0160e11b149050611ea9565b506001949350505050565b6000600161280784610e36565b61281191906131be565b600083815260076020526040902054909150808214612864576001600160a01b03841660009081526006602090815260408083208584528252808320548484528184208190558352600790915290208190555b5060009182526007602090815260408084208490556001600160a01b039094168352600681528383209183525290812055565b6008546000906128a9906001906131be565b600083815260096020526040812054600880549394509092849081106128d1576128d16132ad565b9060005260206000200154905080600883815481106128f2576128f26132ad565b600091825260208083209091019290925582815260099091526040808220849055858252812055600880548061292a5761292a613297565b6001900381819060005260206000200160009055905550505050565b600061295183610e36565b6001600160a01b039093166000908152600660209081526040808320868452825280832085905593825260079052919091209190915550565b6001600160a01b0382166129e05760405162461bcd60e51b815260206004820181905260248201527f4552433732313a206d696e7420746f20746865207a65726f206164647265737360448201526064016105b6565b6000818152600260205260409020546001600160a01b031615612a455760405162461bcd60e51b815260206004820152601c60248201527f4552433732313a20746f6b656e20616c7265616479206d696e7465640000000060448201526064016105b6565b612a516000838361253b565b6001600160a01b0382166000908152600360205260408120805460019290612a7a908490613173565b909155505060008181526002602052604080822080546001600160a01b0319166001600160a01b03861690811790915590518392907fddf252ad1be2c89b69c2b068fc378daa952ba7f163c4a11628f55a4df523b3ef908290a45050565b6040518061022001604052806011905b6060815260200190600190039081612ae85790505090565b600060208284031215612b1257600080fd5b8135612b1d816132d9565b9392505050565b600060208284031215612b3657600080fd5b8151612b1d816132d9565b60008060408385031215612b5457600080fd5b8235612b5f816132d9565b91506020830135612b6f816132d9565b809150509250929050565b600080600060608486031215612b8f57600080fd5b8335612b9a816132d9565b92506020840135612baa816132d9565b929592945050506040919091013590565b60008060008060808587031215612bd157600080fd5b8435612bdc816132d9565b93506020850135612bec816132d9565b925060408501359150606085013567ffffffffffffffff80821115612c1057600080fd5b818701915087601f830112612c2457600080fd5b813581811115612c3657612c366132c3565b604051601f8201601f19908116603f01168101908382118183101715612c5e57612c5e6132c3565b816040528281528a6020848701011115612c7757600080fd5b82602086016020830137600060208483010152809550505050505092959194509250565b60008060408385031215612cae57600080fd5b8235612cb9816132d9565b915060208301358015158114612b6f57600080fd5b60008060408385031215612ce157600080fd5b8235612cec816132d9565b946020939093013593505050565b600060208284031215612d0c57600080fd5b8135612b1d816132ee565b600060208284031215612d2957600080fd5b8151612b1d816132ee565b600060208284031215612d4657600080fd5b5035919050565b600060208284031215612d5f57600080fd5b5051919050565b60008151808452612d7e8160208601602086016131d5565b601f01601f19169290920160200192915050565b60008151612da48185602086016131d5565b9290920192915050565b60008251612dc08184602087016131d5565b9190910192915050565b60008351612ddc8184602088016131d5565b835190830190612df08183602088016131d5565b01949350505050565b60008a51612e0b818460208f016131d5565b8a5190830190612e1f818360208f016131d5565b8a51612e318183850160208f016131d5565b8a51929091010190612e47818360208d016131d5565b8851612e598183850160208d016131d5565b8851929091010190612e6f818360208b016131d5565b8651612e818183850160208b016131d5565b8651929091010190612e978183602089016131d5565b8451612ea981838501602089016131d5565b9101019b9a5050505050505050505050565b7f7b226e616d65223a2022416e696d65204368617261637465722043686172616381527f7465726973746963732023000000000000000000000000000000000000000000602082015260008351612f1981602b8501602088016131d5565b7f222c20226465736372697074696f6e223a2022416e696d654c6f6f7443686172602b918401918201527f61637465726973746963732069732072616e646f6d697a656420616e696d6520604b8201527f63686172616374657273206368617261637465726973746963732067656e6572606b8201527f6174656420616e642073746f726564206f6e20636861696e2e204f7468657220608b8201527f6665617475726573206f6620746865206368617261637465727320617265206960ab8201527f6e74656e74696f6e616c6c79206f6d697474656420666f72206f74686572732060cb8201527f746f20696e746572707265742e204665656c206672656520746f20757365204160eb8201527f6e696d654c6f6f7443686172616374657269737469637320696e20616e79207761010b8201527f617920796f752077616e742e222c2022696d616765223a2022646174613a696d61012b8201527f6167652f7376672b786d6c3b6261736536342c0000000000000000000000000061014b8201526130d66130ad61015e830186612d92565b7f227d000000000000000000000000000000000000000000000000000000000000815260020190565b95945050505050565b7f646174613a6170706c69636174696f6e2f6a736f6e3b6261736536342c00000081526000825161311781601d8501602087016131d5565b91909101601d0192915050565b60006001600160a01b038087168352808616602084015250836040830152608060608301526131566080830184612d66565b9695505050505050565b602081526000612b1d6020830184612d66565b600082198211156131865761318661326b565b500190565b60008261319a5761319a613281565b500490565b60008160001904831182151516156131b9576131b961326b565b500290565b6000828210156131d0576131d061326b565b500390565b60005b838110156131f05781810151838201526020016131d8565b838111156113525750506000910152565b600181811c9082168061321557607f821691505b6020821081141561323657634e487b7160e01b600052602260045260246000fd5b50919050565b60006000198214156132505761325061326b565b5060010190565b60008261326657613266613281565b500690565b634e487b7160e01b600052601160045260246000fd5b634e487b7160e01b600052601260045260246000fd5b634e487b7160e01b600052603160045260246000fd5b634e487b7160e01b600052603260045260246000fd5b634e487b7160e01b600052604160045260246000fd5b6001600160a01b0381168114611ba457600080fd5b6001600160e01b031981168114611ba457600080fdfe3c73766720786d6c6e733d22687474703a2f2f7777772e77332e6f72672f323030302f73766722207072657365727665417370656374526174696f3d22784d696e594d696e206d656574222076696577426f783d223020302033353020333530223e3c7374796c653e2e62617365207b2066696c6c3a20233030303030303b20666f6e742d66616d696c793a2073657269663b20666f6e742d73697a653a20313470783b207d3c2f7374796c653e3c726563742077696474683d223130302522206865696768743d2231303025222066696c6c3d222346464631303022202f3e3c7465787420783d2231302220793d2232302220636c6173733d2262617365223e3c2f746578743e3c7465787420783d2231302220793d2236302220636c6173733d2262617365223e3c2f746578743e3c7465787420783d2231302220793d223136302220636c6173733d2262617365223e3c2f746578743e3c7465787420783d2231302220793d223132302220636c6173733d2262617365223e3c2f746578743e3c7465787420783d2231302220793d2238302220636c6173733d2262617365223e3c2f746578743e3c7465787420783d2231302220793d223130302220636c6173733d2262617365223e3c2f746578743e3c7465787420783d2231302220793d223134302220636c6173733d2262617365223e4142434445464748494a4b4c4d4e4f505152535455565758595a6162636465666768696a6b6c6d6e6f707172737475767778797a303132333435363738392b2f3c2f746578743e3c7465787420783d2231302220793d2234302220636c6173733d2262617365223ea2646970667358221220610e8ca0721e2bfcbbe1395f177acb2bcc52a6ab05ded033f847550fd21dc5d864736f6c63430008070033",
			"opcodes": "PUSH1 0x9 PUSH2 0x180 SWAP1 DUP2 MSTORE PUSH9 0x15995C9E481D185B1B PUSH1 0xBA SHL PUSH2 0x1A0 MSTORE PUSH1 0x80 SWAP1 DUP2 MSTORE PUSH1 0x4 PUSH2 0x1C0 DUP2 DUP2 MSTORE PUSH4 0x15185B1B PUSH1 0xE2 SHL PUSH2 0x1E0 DUP2 SWAP1 MSTORE PUSH1 0xA0 SWAP2 SWAP1 SWAP2 MSTORE PUSH2 0x200 SWAP2 DUP3 MSTORE PUSH2 0x220 MSTORE PUSH1 0xC0 MSTORE PUSH1 0x6 PUSH2 0x240 DUP2 DUP2 MSTORE PUSH6 0x4D656469756D PUSH1 0xD0 SHL PUSH2 0x260 DUP2 SWAP1 MSTORE PUSH1 0xE0 SWAP2 SWAP1 SWAP2 MSTORE PUSH2 0x280 SWAP2 DUP3 MSTORE PUSH2 0x2A0 MSTORE PUSH2 0x100 MSTORE PUSH1 0x5 PUSH2 0x2C0 DUP2 DUP2 MSTORE PUSH5 0x14DA1BDC9D PUSH1 0xDA SHL PUSH2 0x2E0 DUP2 SWAP1 MSTORE PUSH2 0x120 SWAP2 SWAP1 SWAP2 MSTORE PUSH2 0x300 SWAP2 DUP3 MSTORE PUSH2 0x320 MSTORE PUSH2 0x140 MSTORE PUSH2 0x380 PUSH1 0x40 MSTORE PUSH1 0xA PUSH2 0x340 SWAP1 DUP2 MSTORE PUSH10 0x15995C9E481CDA1BDC9D PUSH1 0xB2 SHL PUSH2 0x360 MSTORE PUSH2 0x160 MSTORE PUSH3 0xD2 SWAP1 PUSH1 0xD SWAP1 PUSH1 0x8 PUSH3 0x7FE JUMP JUMPDEST POP PUSH1 0x40 MLOAD DUP1 PUSH1 0xA0 ADD PUSH1 0x40 MSTORE DUP1 PUSH1 0x40 MLOAD DUP1 PUSH1 0x40 ADD PUSH1 0x40 MSTORE DUP1 PUSH1 0x6 DUP2 MSTORE PUSH1 0x20 ADD PUSH6 0x5374726F6E67 PUSH1 0xD0 SHL DUP2 MSTORE POP DUP2 MSTORE PUSH1 0x20 ADD PUSH1 0x40 MLOAD DUP1 PUSH1 0x40 ADD PUSH1 0x40 MSTORE DUP1 PUSH1 0x5 DUP2 MSTORE PUSH1 0x20 ADD PUSH5 0x506C756D7 PUSH1 0xDC SHL DUP2 MSTORE POP DUP2 MSTORE PUSH1 0x20 ADD PUSH1 0x40 MLOAD DUP1 PUSH1 0x40 ADD PUSH1 0x40 MSTORE DUP1 PUSH1 0x6 DUP2 MSTORE PUSH1 0x20 ADD PUSH6 0x139BDC9B585B PUSH1 0xD2 SHL DUP2 MSTORE POP DUP2 MSTORE PUSH1 0x20 ADD PUSH1 0x40 MLOAD DUP1 PUSH1 0x40 ADD PUSH1 0x40 MSTORE DUP1 PUSH1 0x6 DUP2 MSTORE PUSH1 0x20 ADD PUSH6 0x139BDC9B585B PUSH1 0xD2 SHL DUP2 MSTORE POP DUP2 MSTORE PUSH1 0x20 ADD PUSH1 0x40 MLOAD DUP1 PUSH1 0x40 ADD PUSH1 0x40 MSTORE DUP1 PUSH1 0x7 DUP2 MSTORE PUSH1 0x20 ADD PUSH7 0x29B632B73232B9 PUSH1 0xC9 SHL DUP2 MSTORE POP DUP2 MSTORE POP PUSH1 0xE SWAP1 PUSH1 0x5 PUSH3 0x1A2 SWAP3 SWAP2 SWAP1 PUSH3 0x862 JUMP JUMPDEST POP PUSH1 0x40 MLOAD DUP1 PUSH2 0x100 ADD PUSH1 0x40 MSTORE DUP1 PUSH1 0x40 MLOAD DUP1 PUSH1 0x40 ADD PUSH1 0x40 MSTORE DUP1 PUSH1 0x4 DUP2 MSTORE PUSH1 0x20 ADD PUSH4 0x50757265 PUSH1 0xE0 SHL DUP2 MSTORE POP DUP2 MSTORE PUSH1 0x20 ADD PUSH1 0x40 MLOAD DUP1 PUSH1 0x40 ADD PUSH1 0x40 MSTORE DUP1 PUSH1 0x4 DUP2 MSTORE PUSH1 0x20 ADD PUSH4 0x50757265 PUSH1 0xE0 SHL DUP2 MSTORE POP DUP2 MSTORE PUSH1 0x20 ADD PUSH1 0x40 MLOAD DUP1 PUSH1 0x40 ADD PUSH1 0x40 MSTORE DUP1 PUSH1 0x4 DUP2 MSTORE PUSH1 0x20 ADD PUSH4 0x50757265 PUSH1 0xE0 SHL DUP2 MSTORE POP DUP2 MSTORE PUSH1 0x20 ADD PUSH1 0x40 MLOAD DUP1 PUSH1 0x40 ADD PUSH1 0x40 MSTORE DUP1 PUSH1 0x4 DUP2 MSTORE PUSH1 0x20 ADD PUSH4 0x2430B633 PUSH1 0xE1 SHL DUP2 MSTORE POP DUP2 MSTORE PUSH1 0x20 ADD PUSH1 0x40 MLOAD DUP1 PUSH1 0x40 ADD PUSH1 0x40 MSTORE DUP1 PUSH1 0x4 DUP2 MSTORE PUSH1 0x20 ADD PUSH4 0x2430B633 PUSH1 0xE1 SHL DUP2 MSTORE POP DUP2 MSTORE PUSH1 0x20 ADD PUSH1 0x40 MLOAD DUP1 PUSH1 0x40 ADD PUSH1 0x40 MSTORE DUP1 PUSH1 0x7 DUP2 MSTORE PUSH1 0x20 ADD PUSH7 0x28BAB0B93A32B9 PUSH1 0xC9 SHL DUP2 MSTORE POP DUP2 MSTORE PUSH1 0x20 ADD PUSH1 0x40 MLOAD DUP1 PUSH1 0x40 ADD PUSH1 0x40 MSTORE DUP1 PUSH1 0x7 DUP2 MSTORE PUSH1 0x20 ADD PUSH7 0x28BAB0B93A32B9 PUSH1 0xC9 SHL DUP2 MSTORE POP DUP2 MSTORE PUSH1 0x20 ADD PUSH1 0x40 MLOAD DUP1 PUSH1 0x40 ADD PUSH1 0x40 MSTORE DUP1 PUSH1 0xA DUP2 MSTORE PUSH1 0x20 ADD PUSH10 0x9EDCCA5ACAD2CED0E8D PUSH1 0xB3 SHL DUP2 MSTORE POP DUP2 MSTORE POP PUSH1 0xF SWAP1 PUSH1 0x8 PUSH3 0x2DB SWAP3 SWAP2 SWAP1 PUSH3 0x7FE JUMP JUMPDEST POP PUSH1 0x40 DUP1 MLOAD PUSH2 0x160 DUP2 ADD DUP3 MSTORE PUSH1 0x3 PUSH2 0x120 DUP3 ADD SWAP1 DUP2 MSTORE PUSH3 0x149959 PUSH1 0xEA SHL PUSH2 0x140 DUP4 ADD MSTORE DUP2 MSTORE DUP2 MLOAD DUP1 DUP4 ADD DUP4 MSTORE PUSH1 0x6 DUP1 DUP3 MSTORE PUSH6 0x59656C6C6F77 PUSH1 0xD0 SHL PUSH1 0x20 DUP4 DUP2 ADD SWAP2 SWAP1 SWAP2 MSTORE DUP1 DUP5 ADD SWAP3 SWAP1 SWAP3 MSTORE DUP4 MLOAD DUP1 DUP6 ADD DUP6 MSTORE PUSH1 0x5 DUP1 DUP3 MSTORE PUSH5 0x23B932B2B7 PUSH1 0xD9 SHL DUP3 DUP6 ADD MSTORE DUP5 DUP7 ADD SWAP2 SWAP1 SWAP2 MSTORE DUP5 MLOAD DUP1 DUP7 ADD DUP7 MSTORE PUSH1 0x4 DUP1 DUP3 MSTORE PUSH4 0x426C7565 PUSH1 0xE0 SHL DUP3 DUP7 ADD MSTORE PUSH1 0x60 DUP7 ADD SWAP2 SWAP1 SWAP2 MSTORE DUP6 MLOAD DUP1 DUP8 ADD DUP8 MSTORE DUP4 DUP2 MSTORE PUSH6 0x507572706C65 PUSH1 0xD0 SHL DUP2 DUP7 ADD MSTORE PUSH1 0x80 DUP7 ADD MSTORE DUP6 MLOAD DUP1 DUP8 ADD DUP8 MSTORE DUP3 DUP2 MSTORE PUSH5 0x5768697465 PUSH1 0xD8 SHL DUP2 DUP7 ADD MSTORE PUSH1 0xA0 DUP7 ADD MSTORE DUP6 MLOAD DUP1 DUP8 ADD DUP8 MSTORE SWAP2 DUP3 MSTORE PUSH5 0x426C61636B PUSH1 0xD8 SHL DUP3 DUP6 ADD MSTORE PUSH1 0xC0 DUP6 ADD SWAP2 SWAP1 SWAP2 MSTORE DUP5 MLOAD DUP1 DUP7 ADD DUP7 MSTORE SWAP1 DUP2 MSTORE PUSH4 0x11DBDB19 PUSH1 0xE2 SHL DUP2 DUP5 ADD MSTORE PUSH1 0xE0 DUP5 ADD MSTORE DUP4 MLOAD DUP1 DUP6 ADD SWAP1 SWAP5 MSTORE DUP4 MSTORE PUSH6 0x29B4B63B32B9 PUSH1 0xD1 SHL SWAP1 DUP4 ADD MSTORE PUSH2 0x100 DUP2 ADD SWAP2 SWAP1 SWAP2 MSTORE PUSH3 0x40A SWAP1 PUSH1 0x10 SWAP1 PUSH1 0x9 PUSH3 0x8B4 JUMP JUMPDEST POP PUSH1 0x40 DUP1 MLOAD PUSH2 0x1A0 DUP2 ADD DUP3 MSTORE PUSH1 0x4 PUSH2 0x160 DUP3 ADD DUP2 DUP2 MSTORE PUSH4 0x54696E79 PUSH1 0xE0 SHL PUSH2 0x180 DUP5 ADD MSTORE DUP3 MSTORE DUP3 MLOAD DUP1 DUP5 ADD DUP5 MSTORE PUSH1 0x6 DUP2 MSTORE PUSH6 0x507265747479 PUSH1 0xD0 SHL PUSH1 0x20 DUP3 DUP2 ADD SWAP2 SWAP1 SWAP2 MSTORE DUP1 DUP5 ADD SWAP2 SWAP1 SWAP2 MSTORE DUP4 MLOAD DUP1 DUP6 ADD DUP6 MSTORE PUSH1 0x9 DUP2 MSTORE PUSH9 0x426162792066616365 PUSH1 0xB8 SHL DUP2 DUP4 ADD MSTORE DUP4 DUP6 ADD MSTORE DUP4 MLOAD DUP1 DUP6 ADD DUP6 MSTORE PUSH1 0xA DUP1 DUP3 MSTORE PUSH10 0x41747472616374697665 PUSH1 0xB0 SHL DUP3 DUP5 ADD MSTORE PUSH1 0x60 DUP6 ADD SWAP2 SWAP1 SWAP2 MSTORE DUP5 MLOAD DUP1 DUP7 ADD DUP7 MSTORE PUSH1 0x7 DUP1 DUP3 MSTORE PUSH7 0x11D85B1B185B9D PUSH1 0xCA SHL DUP3 DUP6 ADD MSTORE PUSH1 0x80 DUP7 ADD SWAP2 SWAP1 SWAP2 MSTORE DUP6 MLOAD DUP1 DUP8 ADD DUP8 MSTORE SWAP4 DUP5 MSTORE PUSH4 0x1399585D PUSH1 0xE2 SHL DUP5 DUP5 ADD MSTORE PUSH1 0xA0 DUP6 ADD SWAP4 SWAP1 SWAP4 MSTORE DUP5 MLOAD DUP1 DUP7 ADD DUP7 MSTORE SWAP1 DUP2 MSTORE PUSH10 0x105CDD1C9A5B99D95B9D PUSH1 0xB2 SHL DUP2 DUP4 ADD MSTORE PUSH1 0xC0 DUP5 ADD MSTORE DUP4 MLOAD DUP1 DUP6 ADD DUP6 MSTORE PUSH1 0x5 DUP2 MSTORE PUSH5 0x44616E6479 PUSH1 0xD8 SHL DUP2 DUP4 ADD MSTORE PUSH1 0xE0 DUP5 ADD MSTORE DUP4 MLOAD DUP1 DUP6 ADD DUP6 MSTORE PUSH1 0xC DUP2 MSTORE PUSH12 0x53636172206F6E2066616365 PUSH1 0xA0 SHL DUP2 DUP4 ADD MSTORE PUSH2 0x100 DUP5 ADD MSTORE DUP4 MLOAD DUP1 DUP6 ADD DUP6 MSTORE PUSH1 0xE DUP2 MSTORE PUSH14 0x53636172206F6E20746174746F6F PUSH1 0x90 SHL DUP2 DUP4 ADD MSTORE PUSH2 0x120 DUP5 ADD MSTORE DUP4 MLOAD DUP1 DUP6 ADD SWAP1 SWAP5 MSTORE SWAP1 DUP4 MSTORE PUSH7 0x4F6E6520657965 PUSH1 0xC8 SHL SWAP1 DUP4 ADD MSTORE PUSH2 0x140 DUP2 ADD SWAP2 SWAP1 SWAP2 MSTORE PUSH3 0x599 SWAP1 PUSH1 0x11 SWAP1 PUSH1 0xB PUSH3 0x906 JUMP JUMPDEST POP PUSH1 0x40 DUP1 MLOAD PUSH2 0x140 DUP2 ADD DUP3 MSTORE PUSH1 0xB PUSH2 0x100 DUP3 ADD SWAP1 DUP2 MSTORE PUSH11 0x436C65616E6C696E657373 PUSH1 0xA8 SHL PUSH2 0x120 DUP4 ADD MSTORE DUP2 MSTORE DUP2 MLOAD DUP1 DUP4 ADD DUP4 MSTORE PUSH1 0x9 DUP1 DUP3 MSTORE PUSH9 0x2330B4B91039B5B4B7 PUSH1 0xB9 SHL PUSH1 0x20 DUP4 DUP2 ADD SWAP2 SWAP1 SWAP2 MSTORE DUP1 DUP5 ADD SWAP3 SWAP1 SWAP3 MSTORE DUP4 MLOAD DUP1 DUP6 ADD DUP6 MSTORE SWAP1 DUP2 MSTORE PUSH9 0x2230B9359039B5B4B7 PUSH1 0xB9 SHL DUP2 DUP4 ADD MSTORE DUP3 DUP5 ADD MSTORE DUP3 MLOAD DUP1 DUP5 ADD DUP5 MSTORE PUSH1 0xA DUP2 MSTORE PUSH10 0x496E76616C696469736D PUSH1 0xB0 SHL DUP2 DUP4 ADD MSTORE PUSH1 0x60 DUP4 ADD MSTORE DUP3 MLOAD DUP1 DUP5 ADD DUP5 MSTORE PUSH1 0x7 DUP1 DUP3 MSTORE PUSH7 0x4865616C746879 PUSH1 0xC8 SHL DUP3 DUP5 ADD MSTORE PUSH1 0x80 DUP5 ADD SWAP2 SWAP1 SWAP2 MSTORE DUP4 MLOAD DUP1 DUP6 ADD DUP6 MSTORE PUSH1 0x6 DUP2 MSTORE PUSH6 0x84DEF2D2E6D PUSH1 0xD3 SHL DUP2 DUP5 ADD MSTORE PUSH1 0xA0 DUP5 ADD MSTORE DUP4 MLOAD DUP1 DUP6 ADD DUP6 MSTORE DUP2 DUP2 MSTORE PUSH7 0x13995D5D1C985B PUSH1 0xCA SHL DUP2 DUP5 ADD MSTORE PUSH1 0xC0 DUP5 ADD MSTORE DUP4 MLOAD DUP1 DUP6 ADD SWAP1 SWAP5 MSTORE DUP4 MSTORE PUSH7 0x8ED2E4D8D2E6D PUSH1 0xCB SHL SWAP1 DUP4 ADD MSTORE PUSH1 0xE0 DUP2 ADD SWAP2 SWAP1 SWAP2 MSTORE PUSH3 0x6C0 SWAP1 PUSH1 0x12 SWAP1 PUSH1 0x8 PUSH3 0x7FE JUMP JUMPDEST POP CALLVALUE DUP1 ISZERO PUSH3 0x6CE JUMPI PUSH1 0x0 DUP1 REVERT JUMPDEST POP PUSH1 0x40 MLOAD PUSH3 0x4073 CODESIZE SUB DUP1 PUSH3 0x4073 DUP4 CODECOPY DUP2 ADD PUSH1 0x40 DUP2 SWAP1 MSTORE PUSH3 0x6F1 SWAP2 PUSH3 0xA5D JUMP JUMPDEST PUSH1 0x40 DUP1 MLOAD DUP1 DUP3 ADD DUP3 MSTORE PUSH1 0x20 DUP1 DUP3 MSTORE PUSH32 0x416E696D654C6F6F74506879736963616C436861726163746572697374696373 DUP2 DUP4 ADD DUP2 DUP2 MSTORE DUP5 MLOAD DUP1 DUP7 ADD SWAP1 SWAP6 MSTORE DUP3 DUP6 MSTORE SWAP2 DUP5 ADD MSTORE DUP2 MLOAD DUP5 SWAP4 SWAP2 PUSH3 0x749 SWAP2 PUSH1 0x0 SWAP2 SWAP1 PUSH3 0x958 JUMP JUMPDEST POP DUP1 MLOAD PUSH3 0x75F SWAP1 PUSH1 0x1 SWAP1 PUSH1 0x20 DUP5 ADD SWAP1 PUSH3 0x958 JUMP JUMPDEST POP POP POP PUSH3 0x77C PUSH3 0x776 PUSH3 0x7A8 PUSH1 0x20 SHL PUSH1 0x20 SHR JUMP JUMPDEST PUSH3 0x7AC JUMP JUMPDEST PUSH1 0x1 PUSH1 0xB SSTORE PUSH1 0xC DUP1 SLOAD PUSH1 0x1 PUSH1 0x1 PUSH1 0xA0 SHL SUB NOT AND PUSH1 0x1 PUSH1 0x1 PUSH1 0xA0 SHL SUB SWAP3 SWAP1 SWAP3 AND SWAP2 SWAP1 SWAP2 OR SWAP1 SSTORE POP PUSH3 0xACC JUMP JUMPDEST CALLER SWAP1 JUMP JUMPDEST PUSH1 0xA DUP1 SLOAD PUSH1 0x1 PUSH1 0x1 PUSH1 0xA0 SHL SUB DUP4 DUP2 AND PUSH1 0x1 PUSH1 0x1 PUSH1 0xA0 SHL SUB NOT DUP4 AND DUP2 OR SWAP1 SWAP4 SSTORE PUSH1 0x40 MLOAD SWAP2 AND SWAP2 SWAP1 DUP3 SWAP1 PUSH32 0x8BE0079C531659141344CD1FD0A4F28419497F9722A3DAAFE3B4186F6B6457E0 SWAP1 PUSH1 0x0 SWAP1 LOG3 POP POP JUMP JUMPDEST DUP3 DUP1 SLOAD DUP3 DUP3 SSTORE SWAP1 PUSH1 0x0 MSTORE PUSH1 0x20 PUSH1 0x0 KECCAK256 SWAP1 DUP2 ADD SWAP3 DUP3 ISZERO PUSH3 0x850 JUMPI SWAP2 PUSH1 0x20 MUL DUP3 ADD JUMPDEST DUP3 DUP2 GT ISZERO PUSH3 0x850 JUMPI DUP3 MLOAD DUP1 MLOAD PUSH3 0x83F SWAP2 DUP5 SWAP2 PUSH1 0x20 SWAP1 SWAP2 ADD SWAP1 PUSH3 0x958 JUMP JUMPDEST POP SWAP2 PUSH1 0x20 ADD SWAP2 SWAP1 PUSH1 0x1 ADD SWAP1 PUSH3 0x81F JUMP JUMPDEST POP PUSH3 0x85E SWAP3 SWAP2 POP PUSH3 0x9E3 JUMP JUMPDEST POP SWAP1 JUMP JUMPDEST DUP3 DUP1 SLOAD DUP3 DUP3 SSTORE SWAP1 PUSH1 0x0 MSTORE PUSH1 0x20 PUSH1 0x0 KECCAK256 SWAP1 DUP2 ADD SWAP3 DUP3 ISZERO PUSH3 0x850 JUMPI SWAP2 PUSH1 0x20 MUL DUP3 ADD JUMPDEST DUP3 DUP2 GT ISZERO PUSH3 0x850 JUMPI DUP3 MLOAD DUP1 MLOAD PUSH3 0x8A3 SWAP2 DUP5 SWAP2 PUSH1 0x20 SWAP1 SWAP2 ADD SWAP1 PUSH3 0x958 JUMP JUMPDEST POP SWAP2 PUSH1 0x20 ADD SWAP2 SWAP1 PUSH1 0x1 ADD SWAP1 PUSH3 0x883 JUMP JUMPDEST DUP3 DUP1 SLOAD DUP3 DUP3 SSTORE SWAP1 PUSH1 0x0 MSTORE PUSH1 0x20 PUSH1 0x0 KECCAK256 SWAP1 DUP2 ADD SWAP3 DUP3 ISZERO PUSH3 0x850 JUMPI SWAP2 PUSH1 0x20 MUL DUP3 ADD JUMPDEST DUP3 DUP2 GT ISZERO PUSH3 0x850 JUMPI DUP3 MLOAD DUP1 MLOAD PUSH3 0x8F5 SWAP2 DUP5 SWAP2 PUSH1 0x20 SWAP1 SWAP2 ADD SWAP1 PUSH3 0x958 JUMP JUMPDEST POP SWAP2 PUSH1 0x20 ADD SWAP2 SWAP1 PUSH1 0x1 ADD SWAP1 PUSH3 0x8D5 JUMP JUMPDEST DUP3 DUP1 SLOAD DUP3 DUP3 SSTORE SWAP1 PUSH1 0x0 MSTORE PUSH1 0x20 PUSH1 0x0 KECCAK256 SWAP1 DUP2 ADD SWAP3 DUP3 ISZERO PUSH3 0x850 JUMPI SWAP2 PUSH1 0x20 MUL DUP3 ADD JUMPDEST DUP3 DUP2 GT ISZERO PUSH3 0x850 JUMPI DUP3 MLOAD DUP1 MLOAD PUSH3 0x947 SWAP2 DUP5 SWAP2 PUSH1 0x20 SWAP1 SWAP2 ADD SWAP1 PUSH3 0x958 JUMP JUMPDEST POP SWAP2 PUSH1 0x20 ADD SWAP2 SWAP1 PUSH1 0x1 ADD SWAP1 PUSH3 0x927 JUMP JUMPDEST DUP3 DUP1 SLOAD PUSH3 0x966 SWAP1 PUSH3 0xA8F JUMP JUMPDEST SWAP1 PUSH1 0x0 MSTORE PUSH1 0x20 PUSH1 0x0 KECCAK256 SWAP1 PUSH1 0x1F ADD PUSH1 0x20 SWAP1 DIV DUP2 ADD SWAP3 DUP3 PUSH3 0x98A JUMPI PUSH1 0x0 DUP6 SSTORE PUSH3 0x9D5 JUMP JUMPDEST DUP3 PUSH1 0x1F LT PUSH3 0x9A5 JUMPI DUP1 MLOAD PUSH1 0xFF NOT AND DUP4 DUP1 ADD OR DUP6 SSTORE PUSH3 0x9D5 JUMP JUMPDEST DUP3 DUP1 ADD PUSH1 0x1 ADD DUP6 SSTORE DUP3 ISZERO PUSH3 0x9D5 JUMPI SWAP2 DUP3 ADD JUMPDEST DUP3 DUP2 GT ISZERO PUSH3 0x9D5 JUMPI DUP3 MLOAD DUP3 SSTORE SWAP2 PUSH1 0x20 ADD SWAP2 SWAP1 PUSH1 0x1 ADD SWAP1 PUSH3 0x9B8 JUMP JUMPDEST POP PUSH3 0x85E SWAP3 SWAP2 POP PUSH3 0xA04 JUMP JUMPDEST DUP1 DUP3 GT ISZERO PUSH3 0x85E JUMPI PUSH1 0x0 PUSH3 0x9FA DUP3 DUP3 PUSH3 0xA1B JUMP JUMPDEST POP PUSH1 0x1 ADD PUSH3 0x9E3 JUMP JUMPDEST JUMPDEST DUP1 DUP3 GT ISZERO PUSH3 0x85E JUMPI PUSH1 0x0 DUP2 SSTORE PUSH1 0x1 ADD PUSH3 0xA05 JUMP JUMPDEST POP DUP1 SLOAD PUSH3 0xA29 SWAP1 PUSH3 0xA8F JUMP JUMPDEST PUSH1 0x0 DUP3 SSTORE DUP1 PUSH1 0x1F LT PUSH3 0xA3A JUMPI POP POP JUMP JUMPDEST PUSH1 0x1F ADD PUSH1 0x20 SWAP1 DIV SWAP1 PUSH1 0x0 MSTORE PUSH1 0x20 PUSH1 0x0 KECCAK256 SWAP1 DUP2 ADD SWAP1 PUSH3 0xA5A SWAP2 SWAP1 PUSH3 0xA04 JUMP JUMPDEST POP JUMP JUMPDEST PUSH1 0x0 PUSH1 0x20 DUP3 DUP5 SUB SLT ISZERO PUSH3 0xA70 JUMPI PUSH1 0x0 DUP1 REVERT JUMPDEST DUP2 MLOAD PUSH1 0x1 PUSH1 0x1 PUSH1 0xA0 SHL SUB DUP2 AND DUP2 EQ PUSH3 0xA88 JUMPI PUSH1 0x0 DUP1 REVERT JUMPDEST SWAP4 SWAP3 POP POP POP JUMP JUMPDEST PUSH1 0x1 DUP2 DUP2 SHR SWAP1 DUP3 AND DUP1 PUSH3 0xAA4 JUMPI PUSH1 0x7F DUP3 AND SWAP2 POP JUMPDEST PUSH1 0x20 DUP3 LT DUP2 EQ ISZERO PUSH3 0xAC6 JUMPI PUSH4 0x4E487B71 PUSH1 0xE0 SHL PUSH1 0x0 MSTORE PUSH1 0x22 PUSH1 0x4 MSTORE PUSH1 0x24 PUSH1 0x0 REVERT JUMPDEST POP SWAP2 SWAP1 POP JUMP JUMPDEST PUSH2 0x3597 DUP1 PUSH3 0xADC PUSH1 0x0 CODECOPY PUSH1 0x0 RETURN INVALID PUSH1 0x80 PUSH1 0x40 MSTORE CALLVALUE DUP1 ISZERO PUSH2 0x10 JUMPI PUSH1 0x0 DUP1 REVERT JUMPDEST POP PUSH1 0x4 CALLDATASIZE LT PUSH2 0x1E5 JUMPI PUSH1 0x0 CALLDATALOAD PUSH1 0xE0 SHR DUP1 PUSH4 0x761C6CC4 GT PUSH2 0x10F JUMPI DUP1 PUSH4 0xB88D4FDE GT PUSH2 0xA2 JUMPI DUP1 PUSH4 0xD17C9B21 GT PUSH2 0x71 JUMPI DUP1 PUSH4 0xD17C9B21 EQ PUSH2 0x3F6 JUMPI DUP1 PUSH4 0xE985E9C5 EQ PUSH2 0x409 JUMPI DUP1 PUSH4 0xF2FDE38B EQ PUSH2 0x445 JUMPI DUP1 PUSH4 0xFDC3A9CC EQ PUSH2 0x458 JUMPI PUSH1 0x0 DUP1 REVERT JUMPDEST DUP1 PUSH4 0xB88D4FDE EQ PUSH2 0x3B5 JUMPI DUP1 PUSH4 0xC07B1978 EQ PUSH2 0x3C8 JUMPI DUP1 PUSH4 0xC87B56DD EQ PUSH2 0x3DB JUMPI DUP1 PUSH4 0xD1058E59 EQ PUSH2 0x3EE JUMPI PUSH1 0x0 DUP1 REVERT JUMPDEST DUP1 PUSH4 0x95D89B41 GT PUSH2 0xDE JUMPI DUP1 PUSH4 0x95D89B41 EQ PUSH2 0x374 JUMPI DUP1 PUSH4 0x99F43ABA EQ PUSH2 0x37C JUMPI DUP1 PUSH4 0xA22CB465 EQ PUSH2 0x38F JUMPI DUP1 PUSH4 0xAB86DE6C EQ PUSH2 0x3A2 JUMPI PUSH1 0x0 DUP1 REVERT JUMPDEST DUP1 PUSH4 0x761C6CC4 EQ PUSH2 0x32C JUMPI DUP1 PUSH4 0x77AEFADD EQ PUSH2 0x33F JUMPI DUP1 PUSH4 0x7A8639ED EQ PUSH2 0x352 JUMPI DUP1 PUSH4 0x8DA5CB5B EQ PUSH2 0x363 JUMPI PUSH1 0x0 DUP1 REVERT JUMPDEST DUP1 PUSH4 0x379607F5 GT PUSH2 0x187 JUMPI DUP1 PUSH4 0x4F6CCCE7 GT PUSH2 0x156 JUMPI DUP1 PUSH4 0x4F6CCCE7 EQ PUSH2 0x2EB JUMPI DUP1 PUSH4 0x6352211E EQ PUSH2 0x2FE JUMPI DUP1 PUSH4 0x70A08231 EQ PUSH2 0x311 JUMPI DUP1 PUSH4 0x715018A6 EQ PUSH2 0x324 JUMPI PUSH1 0x0 DUP1 REVERT JUMPDEST DUP1 PUSH4 0x379607F5 EQ PUSH2 0x29F JUMPI DUP1 PUSH4 0x3886DA94 EQ PUSH2 0x2B2 JUMPI DUP1 PUSH4 0x42842E0E EQ PUSH2 0x2C5 JUMPI DUP1 PUSH4 0x434F48C4 EQ PUSH2 0x2D8 JUMPI PUSH1 0x0 DUP1 REVERT JUMPDEST DUP1 PUSH4 0x95EA7B3 GT PUSH2 0x1C3 JUMPI DUP1 PUSH4 0x95EA7B3 EQ PUSH2 0x252 JUMPI DUP1 PUSH4 0x18160DDD EQ PUSH2 0x267 JUMPI DUP1 PUSH4 0x23B872DD EQ PUSH2 0x279 JUMPI DUP1 PUSH4 0x2F745C59 EQ PUSH2 0x28C JUMPI PUSH1 0x0 DUP1 REVERT JUMPDEST DUP1 PUSH4 0x1FFC9A7 EQ PUSH2 0x1EA JUMPI DUP1 PUSH4 0x6FDDE03 EQ PUSH2 0x212 JUMPI DUP1 PUSH4 0x81812FC EQ PUSH2 0x227 JUMPI JUMPDEST PUSH1 0x0 DUP1 REVERT JUMPDEST PUSH2 0x1FD PUSH2 0x1F8 CALLDATASIZE PUSH1 0x4 PUSH2 0x2CFA JUMP JUMPDEST PUSH2 0x46B JUMP JUMPDEST PUSH1 0x40 MLOAD SWAP1 ISZERO ISZERO DUP2 MSTORE PUSH1 0x20 ADD JUMPDEST PUSH1 0x40 MLOAD DUP1 SWAP2 SUB SWAP1 RETURN JUMPDEST PUSH2 0x21A PUSH2 0x4AF JUMP JUMPDEST PUSH1 0x40 MLOAD PUSH2 0x209 SWAP2 SWAP1 PUSH2 0x3160 JUMP JUMPDEST PUSH2 0x23A PUSH2 0x235 CALLDATASIZE PUSH1 0x4 PUSH2 0x2D34 JUMP JUMPDEST PUSH2 0x541 JUMP JUMPDEST PUSH1 0x40 MLOAD PUSH1 0x1 PUSH1 0x1 PUSH1 0xA0 SHL SUB SWAP1 SWAP2 AND DUP2 MSTORE PUSH1 0x20 ADD PUSH2 0x209 JUMP JUMPDEST PUSH2 0x265 PUSH2 0x260 CALLDATASIZE PUSH1 0x4 PUSH2 0x2CCE JUMP JUMPDEST PUSH2 0x5DB JUMP JUMPDEST STOP JUMPDEST PUSH1 0x8 SLOAD JUMPDEST PUSH1 0x40 MLOAD SWAP1 DUP2 MSTORE PUSH1 0x20 ADD PUSH2 0x209 JUMP JUMPDEST PUSH2 0x265 PUSH2 0x287 CALLDATASIZE PUSH1 0x4 PUSH2 0x2B7A JUMP JUMPDEST PUSH2 0x70D JUMP JUMPDEST PUSH2 0x26B PUSH2 0x29A CALLDATASIZE PUSH1 0x4 PUSH2 0x2CCE JUMP JUMPDEST PUSH2 0x794 JUMP JUMPDEST PUSH2 0x265 PUSH2 0x2AD CALLDATASIZE PUSH1 0x4 PUSH2 0x2D34 JUMP JUMPDEST PUSH2 0x83C JUMP JUMPDEST PUSH2 0x21A PUSH2 0x2C0 CALLDATASIZE PUSH1 0x4 PUSH2 0x2D34 JUMP JUMPDEST PUSH2 0xAA6 JUMP JUMPDEST PUSH2 0x265 PUSH2 0x2D3 CALLDATASIZE PUSH1 0x4 PUSH2 0x2B7A JUMP JUMPDEST PUSH2 0xBB9 JUMP JUMPDEST PUSH2 0x265 PUSH2 0x2E6 CALLDATASIZE PUSH1 0x4 PUSH2 0x2D34 JUMP JUMPDEST PUSH2 0xBD4 JUMP JUMPDEST PUSH2 0x26B PUSH2 0x2F9 CALLDATASIZE PUSH1 0x4 PUSH2 0x2D34 JUMP JUMPDEST PUSH2 0xD07 JUMP JUMPDEST PUSH2 0x23A PUSH2 0x30C CALLDATASIZE PUSH1 0x4 PUSH2 0x2D34 JUMP JUMPDEST PUSH2 0xDAB JUMP JUMPDEST PUSH2 0x26B PUSH2 0x31F CALLDATASIZE PUSH1 0x4 PUSH2 0x2B00 JUMP JUMPDEST PUSH2 0xE36 JUMP JUMPDEST PUSH2 0x265 PUSH2 0xED0 JUMP JUMPDEST PUSH2 0x21A PUSH2 0x33A CALLDATASIZE PUSH1 0x4 PUSH2 0x2D34 JUMP JUMPDEST PUSH2 0xF36 JUMP JUMPDEST PUSH2 0x21A PUSH2 0x34D CALLDATASIZE PUSH1 0x4 PUSH2 0x2D34 JUMP JUMPDEST PUSH2 0x1040 JUMP JUMPDEST PUSH1 0xC SLOAD PUSH1 0x1 PUSH1 0x1 PUSH1 0xA0 SHL SUB AND PUSH2 0x23A JUMP JUMPDEST PUSH1 0xA SLOAD PUSH1 0x1 PUSH1 0x1 PUSH1 0xA0 SHL SUB AND PUSH2 0x23A JUMP JUMPDEST PUSH2 0x21A PUSH2 0x114A JUMP JUMPDEST PUSH1 0xC SLOAD PUSH2 0x23A SWAP1 PUSH1 0x1 PUSH1 0x1 PUSH1 0xA0 SHL SUB AND DUP2 JUMP JUMPDEST PUSH2 0x265 PUSH2 0x39D CALLDATASIZE PUSH1 0x4 PUSH2 0x2C9B JUMP JUMPDEST PUSH2 0x1159 JUMP JUMPDEST PUSH2 0x265 PUSH2 0x3B0 CALLDATASIZE PUSH1 0x4 PUSH2 0x2B00 JUMP JUMPDEST PUSH2 0x121E JUMP JUMPDEST PUSH2 0x265 PUSH2 0x3C3 CALLDATASIZE PUSH1 0x4 PUSH2 0x2BBB JUMP JUMPDEST PUSH2 0x12CA JUMP JUMPDEST PUSH2 0x21A PUSH2 0x3D6 CALLDATASIZE PUSH1 0x4 PUSH2 0x2D34 JUMP JUMPDEST PUSH2 0x1358 JUMP JUMPDEST PUSH2 0x21A PUSH2 0x3E9 CALLDATASIZE PUSH1 0x4 PUSH2 0x2D34 JUMP JUMPDEST PUSH2 0x1462 JUMP JUMPDEST PUSH2 0x265 PUSH2 0x1754 JUMP JUMPDEST PUSH2 0x21A PUSH2 0x404 CALLDATASIZE PUSH1 0x4 PUSH2 0x2D34 JUMP JUMPDEST PUSH2 0x19BB JUMP JUMPDEST PUSH2 0x1FD PUSH2 0x417 CALLDATASIZE PUSH1 0x4 PUSH2 0x2B41 JUMP JUMPDEST PUSH1 0x1 PUSH1 0x1 PUSH1 0xA0 SHL SUB SWAP2 DUP3 AND PUSH1 0x0 SWAP1 DUP2 MSTORE PUSH1 0x5 PUSH1 0x20 SWAP1 DUP2 MSTORE PUSH1 0x40 DUP1 DUP4 KECCAK256 SWAP4 SWAP1 SWAP5 AND DUP3 MSTORE SWAP2 SWAP1 SWAP2 MSTORE KECCAK256 SLOAD PUSH1 0xFF AND SWAP1 JUMP JUMPDEST PUSH2 0x265 PUSH2 0x453 CALLDATASIZE PUSH1 0x4 PUSH2 0x2B00 JUMP JUMPDEST PUSH2 0x1AC5 JUMP JUMPDEST PUSH2 0x21A PUSH2 0x466 CALLDATASIZE PUSH1 0x4 PUSH2 0x2D34 JUMP JUMPDEST PUSH2 0x1BA7 JUMP JUMPDEST PUSH1 0x0 PUSH1 0x1 PUSH1 0x1 PUSH1 0xE0 SHL SUB NOT DUP3 AND PUSH32 0x780E9D6300000000000000000000000000000000000000000000000000000000 EQ DUP1 PUSH2 0x4A9 JUMPI POP PUSH2 0x4A9 DUP3 PUSH2 0x1CB1 JUMP JUMPDEST SWAP3 SWAP2 POP POP JUMP JUMPDEST PUSH1 0x60 PUSH1 0x0 DUP1 SLOAD PUSH2 0x4BE SWAP1 PUSH2 0x3201 JUMP JUMPDEST DUP1 PUSH1 0x1F ADD PUSH1 0x20 DUP1 SWAP2 DIV MUL PUSH1 0x20 ADD PUSH1 0x40 MLOAD SWAP1 DUP2 ADD PUSH1 0x40 MSTORE DUP1 SWAP3 SWAP2 SWAP1 DUP2 DUP2 MSTORE PUSH1 0x20 ADD DUP3 DUP1 SLOAD PUSH2 0x4EA SWAP1 PUSH2 0x3201 JUMP JUMPDEST DUP1 ISZERO PUSH2 0x537 JUMPI DUP1 PUSH1 0x1F LT PUSH2 0x50C JUMPI PUSH2 0x100 DUP1 DUP4 SLOAD DIV MUL DUP4 MSTORE SWAP2 PUSH1 0x20 ADD SWAP2 PUSH2 0x537 JUMP JUMPDEST DUP3 ADD SWAP2 SWAP1 PUSH1 0x0 MSTORE PUSH1 0x20 PUSH1 0x0 KECCAK256 SWAP1 JUMPDEST DUP2 SLOAD DUP2 MSTORE SWAP1 PUSH1 0x1 ADD SWAP1 PUSH1 0x20 ADD DUP1 DUP4 GT PUSH2 0x51A JUMPI DUP3 SWAP1 SUB PUSH1 0x1F AND DUP3 ADD SWAP2 JUMPDEST POP POP POP POP POP SWAP1 POP SWAP1 JUMP JUMPDEST PUSH1 0x0 DUP2 DUP2 MSTORE PUSH1 0x2 PUSH1 0x20 MSTORE PUSH1 0x40 DUP2 KECCAK256 SLOAD PUSH1 0x1 PUSH1 0x1 PUSH1 0xA0 SHL SUB AND PUSH2 0x5BF JUMPI PUSH1 0x40 MLOAD PUSH3 0x461BCD PUSH1 0xE5 SHL DUP2 MSTORE PUSH1 0x20 PUSH1 0x4 DUP3 ADD MSTORE PUSH1 0x2C PUSH1 0x24 DUP3 ADD MSTORE PUSH32 0x4552433732313A20617070726F76656420717565727920666F72206E6F6E6578 PUSH1 0x44 DUP3 ADD MSTORE PUSH12 0x34B9BA32B73A103A37B5B2B7 PUSH1 0xA1 SHL PUSH1 0x64 DUP3 ADD MSTORE PUSH1 0x84 ADD JUMPDEST PUSH1 0x40 MLOAD DUP1 SWAP2 SUB SWAP1 REVERT JUMPDEST POP PUSH1 0x0 SWAP1 DUP2 MSTORE PUSH1 0x4 PUSH1 0x20 MSTORE PUSH1 0x40 SWAP1 KECCAK256 SLOAD PUSH1 0x1 PUSH1 0x1 PUSH1 0xA0 SHL SUB AND SWAP1 JUMP JUMPDEST PUSH1 0x0 PUSH2 0x5E6 DUP3 PUSH2 0xDAB JUMP JUMPDEST SWAP1 POP DUP1 PUSH1 0x1 PUSH1 0x1 PUSH1 0xA0 SHL SUB AND DUP4 PUSH1 0x1 PUSH1 0x1 PUSH1 0xA0 SHL SUB AND EQ ISZERO PUSH2 0x670 JUMPI PUSH1 0x40 MLOAD PUSH3 0x461BCD PUSH1 0xE5 SHL DUP2 MSTORE PUSH1 0x20 PUSH1 0x4 DUP3 ADD MSTORE PUSH1 0x21 PUSH1 0x24 DUP3 ADD MSTORE PUSH32 0x4552433732313A20617070726F76616C20746F2063757272656E74206F776E65 PUSH1 0x44 DUP3 ADD MSTORE PUSH32 0x7200000000000000000000000000000000000000000000000000000000000000 PUSH1 0x64 DUP3 ADD MSTORE PUSH1 0x84 ADD PUSH2 0x5B6 JUMP JUMPDEST CALLER PUSH1 0x1 PUSH1 0x1 PUSH1 0xA0 SHL SUB DUP3 AND EQ DUP1 PUSH2 0x68C JUMPI POP PUSH2 0x68C DUP2 CALLER PUSH2 0x417 JUMP JUMPDEST PUSH2 0x6FE JUMPI PUSH1 0x40 MLOAD PUSH3 0x461BCD PUSH1 0xE5 SHL DUP2 MSTORE PUSH1 0x20 PUSH1 0x4 DUP3 ADD MSTORE PUSH1 0x38 PUSH1 0x24 DUP3 ADD MSTORE PUSH32 0x4552433732313A20617070726F76652063616C6C6572206973206E6F74206F77 PUSH1 0x44 DUP3 ADD MSTORE PUSH32 0x6E6572206E6F7220617070726F76656420666F7220616C6C0000000000000000 PUSH1 0x64 DUP3 ADD MSTORE PUSH1 0x84 ADD PUSH2 0x5B6 JUMP JUMPDEST PUSH2 0x708 DUP4 DUP4 PUSH2 0x1D4C JUMP JUMPDEST POP POP POP JUMP JUMPDEST PUSH2 0x717 CALLER DUP3 PUSH2 0x1DBA JUMP JUMPDEST PUSH2 0x789 JUMPI PUSH1 0x40 MLOAD PUSH3 0x461BCD PUSH1 0xE5 SHL DUP2 MSTORE PUSH1 0x20 PUSH1 0x4 DUP3 ADD MSTORE PUSH1 0x31 PUSH1 0x24 DUP3 ADD MSTORE PUSH32 0x4552433732313A207472616E736665722063616C6C6572206973206E6F74206F PUSH1 0x44 DUP3 ADD MSTORE PUSH32 0x776E6572206E6F7220617070726F766564000000000000000000000000000000 PUSH1 0x64 DUP3 ADD MSTORE PUSH1 0x84 ADD PUSH2 0x5B6 JUMP JUMPDEST PUSH2 0x708 DUP4 DUP4 DUP4 PUSH2 0x1EB1 JUMP JUMPDEST PUSH1 0x0 PUSH2 0x79F DUP4 PUSH2 0xE36 JUMP JUMPDEST DUP3 LT PUSH2 0x813 JUMPI PUSH1 0x40 MLOAD PUSH3 0x461BCD PUSH1 0xE5 SHL DUP2 MSTORE PUSH1 0x20 PUSH1 0x4 DUP3 ADD MSTORE PUSH1 0x2B PUSH1 0x24 DUP3 ADD MSTORE PUSH32 0x455243373231456E756D657261626C653A206F776E657220696E646578206F75 PUSH1 0x44 DUP3 ADD MSTORE PUSH32 0x74206F6620626F756E6473000000000000000000000000000000000000000000 PUSH1 0x64 DUP3 ADD MSTORE PUSH1 0x84 ADD PUSH2 0x5B6 JUMP JUMPDEST POP PUSH1 0x1 PUSH1 0x1 PUSH1 0xA0 SHL SUB SWAP2 SWAP1 SWAP2 AND PUSH1 0x0 SWAP1 DUP2 MSTORE PUSH1 0x6 PUSH1 0x20 SWAP1 DUP2 MSTORE PUSH1 0x40 DUP1 DUP4 KECCAK256 SWAP4 DUP4 MSTORE SWAP3 SWAP1 MSTORE KECCAK256 SLOAD SWAP1 JUMP JUMPDEST PUSH1 0x2 PUSH1 0xB SLOAD EQ ISZERO PUSH2 0x88F JUMPI PUSH1 0x40 MLOAD PUSH3 0x461BCD PUSH1 0xE5 SHL DUP2 MSTORE PUSH1 0x20 PUSH1 0x4 DUP3 ADD MSTORE PUSH1 0x1F PUSH1 0x24 DUP3 ADD MSTORE PUSH32 0x5265656E7472616E637947756172643A207265656E7472616E742063616C6C00 PUSH1 0x44 DUP3 ADD MSTORE PUSH1 0x64 ADD PUSH2 0x5B6 JUMP JUMPDEST PUSH1 0x2 PUSH1 0xB SSTORE DUP1 CALLER PUSH1 0xC SLOAD PUSH1 0x40 MLOAD PUSH32 0x6352211E00000000000000000000000000000000000000000000000000000000 DUP2 MSTORE PUSH1 0x4 DUP2 ADD DUP5 SWAP1 MSTORE PUSH1 0x1 PUSH1 0x1 PUSH1 0xA0 SHL SUB SWAP3 DUP4 AND SWAP3 SWAP1 SWAP2 AND SWAP1 PUSH4 0x6352211E SWAP1 PUSH1 0x24 ADD PUSH1 0x20 PUSH1 0x40 MLOAD DUP1 DUP4 SUB DUP2 DUP7 DUP1 EXTCODESIZE ISZERO DUP1 ISZERO PUSH2 0x8F7 JUMPI PUSH1 0x0 DUP1 REVERT JUMPDEST POP GAS STATICCALL ISZERO DUP1 ISZERO PUSH2 0x90B JUMPI RETURNDATASIZE PUSH1 0x0 DUP1 RETURNDATACOPY RETURNDATASIZE PUSH1 0x0 REVERT JUMPDEST POP POP POP POP PUSH1 0x40 MLOAD RETURNDATASIZE PUSH1 0x1F NOT PUSH1 0x1F DUP3 ADD AND DUP3 ADD DUP1 PUSH1 0x40 MSTORE POP DUP2 ADD SWAP1 PUSH2 0x92F SWAP2 SWAP1 PUSH2 0x2B24 JUMP JUMPDEST PUSH1 0x1 PUSH1 0x1 PUSH1 0xA0 SHL SUB AND EQ PUSH2 0x9AB JUMPI PUSH1 0x40 MLOAD PUSH3 0x461BCD PUSH1 0xE5 SHL DUP2 MSTORE PUSH1 0x20 PUSH1 0x4 DUP3 ADD MSTORE PUSH1 0x22 PUSH1 0x24 DUP3 ADD MSTORE PUSH32 0x486F6C6461626C653A2063616C6C6572206973206E6F742074686520686F6C64 PUSH1 0x44 DUP3 ADD MSTORE PUSH32 0x6572000000000000000000000000000000000000000000000000000000000000 PUSH1 0x64 DUP3 ADD MSTORE PUSH1 0x84 ADD PUSH2 0x5B6 JUMP JUMPDEST PUSH1 0x0 DUP3 GT DUP1 ISZERO PUSH2 0x9BC JUMPI POP PUSH2 0x1F41 DUP3 LT JUMPDEST PUSH2 0xA08 JUMPI PUSH1 0x40 MLOAD PUSH3 0x461BCD PUSH1 0xE5 SHL DUP2 MSTORE PUSH1 0x20 PUSH1 0x4 DUP3 ADD MSTORE PUSH1 0x1E PUSH1 0x24 DUP3 ADD MSTORE PUSH32 0x546F6B656E20494420696E76616C69642E206F7574206F662072616E67650000 PUSH1 0x44 DUP3 ADD MSTORE PUSH1 0x64 ADD PUSH2 0x5B6 JUMP JUMPDEST PUSH1 0x0 DUP3 DUP2 MSTORE PUSH1 0x2 PUSH1 0x20 MSTORE PUSH1 0x40 SWAP1 KECCAK256 SLOAD PUSH1 0x1 PUSH1 0x1 PUSH1 0xA0 SHL SUB AND ISZERO PUSH2 0xA93 JUMPI PUSH1 0x40 MLOAD PUSH3 0x461BCD PUSH1 0xE5 SHL DUP2 MSTORE PUSH1 0x20 PUSH1 0x4 DUP3 ADD MSTORE PUSH1 0x21 PUSH1 0x24 DUP3 ADD MSTORE PUSH32 0x546F6B656E20494420696E76616C69642E20416C726561647920636C61696D65 PUSH1 0x44 DUP3 ADD MSTORE PUSH32 0x6400000000000000000000000000000000000000000000000000000000000000 PUSH1 0x64 DUP3 ADD MSTORE PUSH1 0x84 ADD PUSH2 0x5B6 JUMP JUMPDEST PUSH2 0xA9D CALLER DUP4 PUSH2 0x2089 JUMP JUMPDEST POP POP PUSH1 0x1 PUSH1 0xB SSTORE JUMP JUMPDEST PUSH1 0x60 PUSH2 0x4A9 DUP3 PUSH1 0x40 MLOAD DUP1 PUSH1 0x40 ADD PUSH1 0x40 MSTORE DUP1 PUSH1 0xD DUP2 MSTORE PUSH1 0x20 ADD PUSH32 0x46414349414C4645415455524500000000000000000000000000000000000000 DUP2 MSTORE POP PUSH1 0x11 DUP1 SLOAD DUP1 PUSH1 0x20 MUL PUSH1 0x20 ADD PUSH1 0x40 MLOAD SWAP1 DUP2 ADD PUSH1 0x40 MSTORE DUP1 SWAP3 SWAP2 SWAP1 DUP2 DUP2 MSTORE PUSH1 0x20 ADD PUSH1 0x0 SWAP1 JUMPDEST DUP3 DUP3 LT ISZERO PUSH2 0xBB0 JUMPI DUP4 DUP3 SWAP1 PUSH1 0x0 MSTORE PUSH1 0x20 PUSH1 0x0 KECCAK256 ADD DUP1 SLOAD PUSH2 0xB23 SWAP1 PUSH2 0x3201 JUMP JUMPDEST DUP1 PUSH1 0x1F ADD PUSH1 0x20 DUP1 SWAP2 DIV MUL PUSH1 0x20 ADD PUSH1 0x40 MLOAD SWAP1 DUP2 ADD PUSH1 0x40 MSTORE DUP1 SWAP3 SWAP2 SWAP1 DUP2 DUP2 MSTORE PUSH1 0x20 ADD DUP3 DUP1 SLOAD PUSH2 0xB4F SWAP1 PUSH2 0x3201 JUMP JUMPDEST DUP1 ISZERO PUSH2 0xB9C JUMPI DUP1 PUSH1 0x1F LT PUSH2 0xB71 JUMPI PUSH2 0x100 DUP1 DUP4 SLOAD DIV MUL DUP4 MSTORE SWAP2 PUSH1 0x20 ADD SWAP2 PUSH2 0xB9C JUMP JUMPDEST DUP3 ADD SWAP2 SWAP1 PUSH1 0x0 MSTORE PUSH1 0x20 PUSH1 0x0 KECCAK256 SWAP1 JUMPDEST DUP2 SLOAD DUP2 MSTORE SWAP1 PUSH1 0x1 ADD SWAP1 PUSH1 0x20 ADD DUP1 DUP4 GT PUSH2 0xB7F JUMPI DUP3 SWAP1 SUB PUSH1 0x1F AND DUP3 ADD SWAP2 JUMPDEST POP POP POP POP POP DUP2 MSTORE PUSH1 0x20 ADD SWAP1 PUSH1 0x1 ADD SWAP1 PUSH2 0xB04 JUMP JUMPDEST POP POP POP POP PUSH2 0x20A3 JUMP JUMPDEST PUSH2 0x708 DUP4 DUP4 DUP4 PUSH1 0x40 MLOAD DUP1 PUSH1 0x20 ADD PUSH1 0x40 MSTORE DUP1 PUSH1 0x0 DUP2 MSTORE POP PUSH2 0x12CA JUMP JUMPDEST PUSH1 0x2 PUSH1 0xB SLOAD EQ ISZERO PUSH2 0xC27 JUMPI PUSH1 0x40 MLOAD PUSH3 0x461BCD PUSH1 0xE5 SHL DUP2 MSTORE PUSH1 0x20 PUSH1 0x4 DUP3 ADD MSTORE PUSH1 0x1F PUSH1 0x24 DUP3 ADD MSTORE PUSH32 0x5265656E7472616E637947756172643A207265656E7472616E742063616C6C00 PUSH1 0x44 DUP3 ADD MSTORE PUSH1 0x64 ADD PUSH2 0x5B6 JUMP JUMPDEST PUSH1 0x2 PUSH1 0xB SSTORE PUSH1 0xA SLOAD PUSH1 0x1 PUSH1 0x1 PUSH1 0xA0 SHL SUB AND CALLER EQ PUSH2 0xC86 JUMPI PUSH1 0x40 MLOAD PUSH3 0x461BCD PUSH1 0xE5 SHL DUP2 MSTORE PUSH1 0x20 PUSH1 0x4 DUP3 ADD DUP2 SWAP1 MSTORE PUSH1 0x24 DUP3 ADD MSTORE PUSH32 0x4F776E61626C653A2063616C6C6572206973206E6F7420746865206F776E6572 PUSH1 0x44 DUP3 ADD MSTORE PUSH1 0x64 ADD PUSH2 0x5B6 JUMP JUMPDEST PUSH2 0x1F40 DUP2 GT DUP1 ISZERO PUSH2 0xC98 JUMPI POP PUSH2 0x208E DUP2 LT JUMPDEST PUSH2 0xCE4 JUMPI PUSH1 0x40 MLOAD PUSH3 0x461BCD PUSH1 0xE5 SHL DUP2 MSTORE PUSH1 0x20 PUSH1 0x4 DUP3 ADD MSTORE PUSH1 0x10 PUSH1 0x24 DUP3 ADD MSTORE PUSH32 0x546F6B656E20494420696E76616C696400000000000000000000000000000000 PUSH1 0x44 DUP3 ADD MSTORE PUSH1 0x64 ADD PUSH2 0x5B6 JUMP JUMPDEST PUSH2 0xCFF PUSH2 0xCF9 PUSH1 0xA SLOAD PUSH1 0x1 PUSH1 0x1 PUSH1 0xA0 SHL SUB AND SWAP1 JUMP JUMPDEST DUP3 PUSH2 0x2089 JUMP JUMPDEST POP PUSH1 0x1 PUSH1 0xB SSTORE JUMP JUMPDEST PUSH1 0x0 PUSH2 0xD12 PUSH1 0x8 SLOAD SWAP1 JUMP JUMPDEST DUP3 LT PUSH2 0xD86 JUMPI PUSH1 0x40 MLOAD PUSH3 0x461BCD PUSH1 0xE5 SHL DUP2 MSTORE PUSH1 0x20 PUSH1 0x4 DUP3 ADD MSTORE PUSH1 0x2C PUSH1 0x24 DUP3 ADD MSTORE PUSH32 0x455243373231456E756D657261626C653A20676C6F62616C20696E646578206F PUSH1 0x44 DUP3 ADD MSTORE PUSH32 0x7574206F6620626F756E64730000000000000000000000000000000000000000 PUSH1 0x64 DUP3 ADD MSTORE PUSH1 0x84 ADD PUSH2 0x5B6 JUMP JUMPDEST PUSH1 0x8 DUP3 DUP2 SLOAD DUP2 LT PUSH2 0xD99 JUMPI PUSH2 0xD99 PUSH2 0x32AD JUMP JUMPDEST SWAP1 PUSH1 0x0 MSTORE PUSH1 0x20 PUSH1 0x0 KECCAK256 ADD SLOAD SWAP1 POP SWAP2 SWAP1 POP JUMP JUMPDEST PUSH1 0x0 DUP2 DUP2 MSTORE PUSH1 0x2 PUSH1 0x20 MSTORE PUSH1 0x40 DUP2 KECCAK256 SLOAD PUSH1 0x1 PUSH1 0x1 PUSH1 0xA0 SHL SUB AND DUP1 PUSH2 0x4A9 JUMPI PUSH1 0x40 MLOAD PUSH3 0x461BCD PUSH1 0xE5 SHL DUP2 MSTORE PUSH1 0x20 PUSH1 0x4 DUP3 ADD MSTORE PUSH1 0x29 PUSH1 0x24 DUP3 ADD MSTORE PUSH32 0x4552433732313A206F776E657220717565727920666F72206E6F6E6578697374 PUSH1 0x44 DUP3 ADD MSTORE PUSH32 0x656E7420746F6B656E0000000000000000000000000000000000000000000000 PUSH1 0x64 DUP3 ADD MSTORE PUSH1 0x84 ADD PUSH2 0x5B6 JUMP JUMPDEST PUSH1 0x0 PUSH1 0x1 PUSH1 0x1 PUSH1 0xA0 SHL SUB DUP3 AND PUSH2 0xEB4 JUMPI PUSH1 0x40 MLOAD PUSH3 0x461BCD PUSH1 0xE5 SHL DUP2 MSTORE PUSH1 0x20 PUSH1 0x4 DUP3 ADD MSTORE PUSH1 0x2A PUSH1 0x24 DUP3 ADD MSTORE PUSH32 0x4552433732313A2062616C616E636520717565727920666F7220746865207A65 PUSH1 0x44 DUP3 ADD MSTORE PUSH32 0x726F206164647265737300000000000000000000000000000000000000000000 PUSH1 0x64 DUP3 ADD MSTORE PUSH1 0x84 ADD PUSH2 0x5B6 JUMP JUMPDEST POP PUSH1 0x1 PUSH1 0x1 PUSH1 0xA0 SHL SUB AND PUSH1 0x0 SWAP1 DUP2 MSTORE PUSH1 0x3 PUSH1 0x20 MSTORE PUSH1 0x40 SWAP1 KECCAK256 SLOAD SWAP1 JUMP JUMPDEST PUSH1 0xA SLOAD PUSH1 0x1 PUSH1 0x1 PUSH1 0xA0 SHL SUB AND CALLER EQ PUSH2 0xF2A JUMPI PUSH1 0x40 MLOAD PUSH3 0x461BCD PUSH1 0xE5 SHL DUP2 MSTORE PUSH1 0x20 PUSH1 0x4 DUP3 ADD DUP2 SWAP1 MSTORE PUSH1 0x24 DUP3 ADD MSTORE PUSH32 0x4F776E61626C653A2063616C6C6572206973206E6F7420746865206F776E6572 PUSH1 0x44 DUP3 ADD MSTORE PUSH1 0x64 ADD PUSH2 0x5B6 JUMP JUMPDEST PUSH2 0xF34 PUSH1 0x0 PUSH2 0x219C JUMP JUMPDEST JUMP JUMPDEST PUSH1 0x60 PUSH2 0x4A9 DUP3 PUSH1 0x40 MLOAD DUP1 PUSH1 0x40 ADD PUSH1 0x40 MSTORE DUP1 PUSH1 0xE DUP2 MSTORE PUSH1 0x20 ADD PUSH32 0x535452454E4754484F4652414345000000000000000000000000000000000000 DUP2 MSTORE POP PUSH1 0xF DUP1 SLOAD DUP1 PUSH1 0x20 MUL PUSH1 0x20 ADD PUSH1 0x40 MLOAD SWAP1 DUP2 ADD PUSH1 0x40 MSTORE DUP1 SWAP3 SWAP2 SWAP1 DUP2 DUP2 MSTORE PUSH1 0x20 ADD PUSH1 0x0 SWAP1 JUMPDEST DUP3 DUP3 LT ISZERO PUSH2 0xBB0 JUMPI DUP4 DUP3 SWAP1 PUSH1 0x0 MSTORE PUSH1 0x20 PUSH1 0x0 KECCAK256 ADD DUP1 SLOAD PUSH2 0xFB3 SWAP1 PUSH2 0x3201 JUMP JUMPDEST DUP1 PUSH1 0x1F ADD PUSH1 0x20 DUP1 SWAP2 DIV MUL PUSH1 0x20 ADD PUSH1 0x40 MLOAD SWAP1 DUP2 ADD PUSH1 0x40 MSTORE DUP1 SWAP3 SWAP2 SWAP1 DUP2 DUP2 MSTORE PUSH1 0x20 ADD DUP3 DUP1 SLOAD PUSH2 0xFDF SWAP1 PUSH2 0x3201 JUMP JUMPDEST DUP1 ISZERO PUSH2 0x102C JUMPI DUP1 PUSH1 0x1F LT PUSH2 0x1001 JUMPI PUSH2 0x100 DUP1 DUP4 SLOAD DIV MUL DUP4 MSTORE SWAP2 PUSH1 0x20 ADD SWAP2 PUSH2 0x102C JUMP JUMPDEST DUP3 ADD SWAP2 SWAP1 PUSH1 0x0 MSTORE PUSH1 0x20 PUSH1 0x0 KECCAK256 SWAP1 JUMPDEST DUP2 SLOAD DUP2 MSTORE SWAP1 PUSH1 0x1 ADD SWAP1 PUSH1 0x20 ADD DUP1 DUP4 GT PUSH2 0x100F JUMPI DUP3 SWAP1 SUB PUSH1 0x1F AND DUP3 ADD SWAP2 JUMPDEST POP POP POP POP POP DUP2 MSTORE PUSH1 0x20 ADD SWAP1 PUSH1 0x1 ADD SWAP1 PUSH2 0xF94 JUMP JUMPDEST PUSH1 0x60 PUSH2 0x4A9 DUP3 PUSH1 0x40 MLOAD DUP1 PUSH1 0x40 ADD PUSH1 0x40 MSTORE DUP1 PUSH1 0xF DUP2 MSTORE PUSH1 0x20 ADD PUSH32 0x494D5052455353495645434F4C4F520000000000000000000000000000000000 DUP2 MSTORE POP PUSH1 0x10 DUP1 SLOAD DUP1 PUSH1 0x20 MUL PUSH1 0x20 ADD PUSH1 0x40 MLOAD SWAP1 DUP2 ADD PUSH1 0x40 MSTORE DUP1 SWAP3 SWAP2 SWAP1 DUP2 DUP2 MSTORE PUSH1 0x20 ADD PUSH1 0x0 SWAP1 JUMPDEST DUP3 DUP3 LT ISZERO PUSH2 0xBB0 JUMPI DUP4 DUP3 SWAP1 PUSH1 0x0 MSTORE PUSH1 0x20 PUSH1 0x0 KECCAK256 ADD DUP1 SLOAD PUSH2 0x10BD SWAP1 PUSH2 0x3201 JUMP JUMPDEST DUP1 PUSH1 0x1F ADD PUSH1 0x20 DUP1 SWAP2 DIV MUL PUSH1 0x20 ADD PUSH1 0x40 MLOAD SWAP1 DUP2 ADD PUSH1 0x40 MSTORE DUP1 SWAP3 SWAP2 SWAP1 DUP2 DUP2 MSTORE PUSH1 0x20 ADD DUP3 DUP1 SLOAD PUSH2 0x10E9 SWAP1 PUSH2 0x3201 JUMP JUMPDEST DUP1 ISZERO PUSH2 0x1136 JUMPI DUP1 PUSH1 0x1F LT PUSH2 0x110B JUMPI PUSH2 0x100 DUP1 DUP4 SLOAD DIV MUL DUP4 MSTORE SWAP2 PUSH1 0x20 ADD SWAP2 PUSH2 0x1136 JUMP JUMPDEST DUP3 ADD SWAP2 SWAP1 PUSH1 0x0 MSTORE PUSH1 0x20 PUSH1 0x0 KECCAK256 SWAP1 JUMPDEST DUP2 SLOAD DUP2 MSTORE SWAP1 PUSH1 0x1 ADD SWAP1 PUSH1 0x20 ADD DUP1 DUP4 GT PUSH2 0x1119 JUMPI DUP3 SWAP1 SUB PUSH1 0x1F AND DUP3 ADD SWAP2 JUMPDEST POP POP POP POP POP DUP2 MSTORE PUSH1 0x20 ADD SWAP1 PUSH1 0x1 ADD SWAP1 PUSH2 0x109E JUMP JUMPDEST PUSH1 0x60 PUSH1 0x1 DUP1 SLOAD PUSH2 0x4BE SWAP1 PUSH2 0x3201 JUMP JUMPDEST PUSH1 0x1 PUSH1 0x1 PUSH1 0xA0 SHL SUB DUP3 AND CALLER EQ ISZERO PUSH2 0x11B2 JUMPI PUSH1 0x40 MLOAD PUSH3 0x461BCD PUSH1 0xE5 SHL DUP2 MSTORE PUSH1 0x20 PUSH1 0x4 DUP3 ADD MSTORE PUSH1 0x19 PUSH1 0x24 DUP3 ADD MSTORE PUSH32 0x4552433732313A20617070726F766520746F2063616C6C657200000000000000 PUSH1 0x44 DUP3 ADD MSTORE PUSH1 0x64 ADD PUSH2 0x5B6 JUMP JUMPDEST CALLER PUSH1 0x0 DUP2 DUP2 MSTORE PUSH1 0x5 PUSH1 0x20 SWAP1 DUP2 MSTORE PUSH1 0x40 DUP1 DUP4 KECCAK256 PUSH1 0x1 PUSH1 0x1 PUSH1 0xA0 SHL SUB DUP8 AND DUP1 DUP6 MSTORE SWAP1 DUP4 MSTORE SWAP3 DUP2 SWAP1 KECCAK256 DUP1 SLOAD PUSH1 0xFF NOT AND DUP7 ISZERO ISZERO SWAP1 DUP2 OR SWAP1 SWAP2 SSTORE SWAP1 MLOAD SWAP1 DUP2 MSTORE SWAP2 SWAP3 SWAP2 PUSH32 0x17307EAB39AB6107E8899845AD3D59BD9653F200F220920489CA2B5937696C31 SWAP2 ADD PUSH1 0x40 MLOAD DUP1 SWAP2 SUB SWAP1 LOG3 POP POP JUMP JUMPDEST PUSH1 0xA SLOAD PUSH1 0x1 PUSH1 0x1 PUSH1 0xA0 SHL SUB AND CALLER EQ PUSH2 0x1278 JUMPI PUSH1 0x40 MLOAD PUSH3 0x461BCD PUSH1 0xE5 SHL DUP2 MSTORE PUSH1 0x20 PUSH1 0x4 DUP3 ADD DUP2 SWAP1 MSTORE PUSH1 0x24 DUP3 ADD MSTORE PUSH32 0x4F776E61626C653A2063616C6C6572206973206E6F7420746865206F776E6572 PUSH1 0x44 DUP3 ADD MSTORE PUSH1 0x64 ADD PUSH2 0x5B6 JUMP JUMPDEST PUSH1 0xC DUP1 SLOAD PUSH1 0x1 PUSH1 0x1 PUSH1 0xA0 SHL SUB DUP4 DUP2 AND PUSH1 0x1 PUSH1 0x1 PUSH1 0xA0 SHL SUB NOT DUP4 AND DUP2 OR SWAP1 SWAP4 SSTORE PUSH1 0x40 MLOAD SWAP2 AND SWAP2 SWAP1 DUP3 SWAP1 PUSH32 0x9DABF3AFAE828BA590CBC2A5CD78456A9C86160D91461150184B48117F2B216B SWAP1 PUSH1 0x0 SWAP1 LOG3 POP POP JUMP JUMPDEST PUSH2 0x12D4 CALLER DUP4 PUSH2 0x1DBA JUMP JUMPDEST PUSH2 0x1346 JUMPI PUSH1 0x40 MLOAD PUSH3 0x461BCD PUSH1 0xE5 SHL DUP2 MSTORE PUSH1 0x20 PUSH1 0x4 DUP3 ADD MSTORE PUSH1 0x31 PUSH1 0x24 DUP3 ADD MSTORE PUSH32 0x4552433732313A207472616E736665722063616C6C6572206973206E6F74206F PUSH1 0x44 DUP3 ADD MSTORE PUSH32 0x776E6572206E6F7220617070726F766564000000000000000000000000000000 PUSH1 0x64 DUP3 ADD MSTORE PUSH1 0x84 ADD PUSH2 0x5B6 JUMP JUMPDEST PUSH2 0x1352 DUP5 DUP5 DUP5 DUP5 PUSH2 0x21EE JUMP JUMPDEST POP POP POP POP JUMP JUMPDEST PUSH1 0x60 PUSH2 0x4A9 DUP3 PUSH1 0x40 MLOAD DUP1 PUSH1 0x40 ADD PUSH1 0x40 MSTORE DUP1 PUSH1 0x11 DUP2 MSTORE PUSH1 0x20 ADD PUSH32 0x415050454152414E434546454154555245000000000000000000000000000000 DUP2 MSTORE POP PUSH1 0x12 DUP1 SLOAD DUP1 PUSH1 0x20 MUL PUSH1 0x20 ADD PUSH1 0x40 MLOAD SWAP1 DUP2 ADD PUSH1 0x40 MSTORE DUP1 SWAP3 SWAP2 SWAP1 DUP2 DUP2 MSTORE PUSH1 0x20 ADD PUSH1 0x0 SWAP1 JUMPDEST DUP3 DUP3 LT ISZERO PUSH2 0xBB0 JUMPI DUP4 DUP3 SWAP1 PUSH1 0x0 MSTORE PUSH1 0x20 PUSH1 0x0 KECCAK256 ADD DUP1 SLOAD PUSH2 0x13D5 SWAP1 PUSH2 0x3201 JUMP JUMPDEST DUP1 PUSH1 0x1F ADD PUSH1 0x20 DUP1 SWAP2 DIV MUL PUSH1 0x20 ADD PUSH1 0x40 MLOAD SWAP1 DUP2 ADD PUSH1 0x40 MSTORE DUP1 SWAP3 SWAP2 SWAP1 DUP2 DUP2 MSTORE PUSH1 0x20 ADD DUP3 DUP1 SLOAD PUSH2 0x1401 SWAP1 PUSH2 0x3201 JUMP JUMPDEST DUP1 ISZERO PUSH2 0x144E JUMPI DUP1 PUSH1 0x1F LT PUSH2 0x1423 JUMPI PUSH2 0x100 DUP1 DUP4 SLOAD DIV MUL DUP4 MSTORE SWAP2 PUSH1 0x20 ADD SWAP2 PUSH2 0x144E JUMP JUMPDEST DUP3 ADD SWAP2 SWAP1 PUSH1 0x0 MSTORE PUSH1 0x20 PUSH1 0x0 KECCAK256 SWAP1 JUMPDEST DUP2 SLOAD DUP2 MSTORE SWAP1 PUSH1 0x1 ADD SWAP1 PUSH1 0x20 ADD DUP1 DUP4 GT PUSH2 0x1431 JUMPI DUP3 SWAP1 SUB PUSH1 0x1F AND DUP3 ADD SWAP2 JUMPDEST POP POP POP POP POP DUP2 MSTORE PUSH1 0x20 ADD SWAP1 PUSH1 0x1 ADD SWAP1 PUSH2 0x13B6 JUMP JUMPDEST PUSH1 0x60 PUSH2 0x146C PUSH2 0x2AD8 JUMP JUMPDEST PUSH1 0x40 MLOAD DUP1 PUSH2 0x140 ADD PUSH1 0x40 MSTORE DUP1 PUSH2 0x101 DUP2 MSTORE PUSH1 0x20 ADD PUSH2 0x3305 PUSH2 0x101 SWAP2 CODECOPY DUP2 MSTORE PUSH1 0x40 DUP1 MLOAD DUP1 DUP3 ADD SWAP1 SWAP2 MSTORE PUSH1 0x19 DUP2 MSTORE PUSH32 0x416E696D654C6F6F742043686172616374657269737469637300000000000000 PUSH1 0x20 DUP3 ADD MSTORE DUP2 PUSH1 0x1 PUSH1 0x20 MUL ADD DUP2 SWAP1 MSTORE POP PUSH1 0x40 MLOAD DUP1 PUSH1 0x60 ADD PUSH1 0x40 MSTORE DUP1 PUSH1 0x28 DUP2 MSTORE PUSH1 0x20 ADD PUSH2 0x353A PUSH1 0x28 SWAP2 CODECOPY PUSH1 0x40 DUP3 ADD MSTORE PUSH2 0x14F0 DUP4 PUSH2 0x1BA7 JUMP JUMPDEST PUSH1 0x60 DUP1 DUP4 ADD SWAP2 SWAP1 SWAP2 MSTORE PUSH1 0x40 DUP1 MLOAD SWAP2 DUP3 ADD SWAP1 MSTORE PUSH1 0x28 DUP1 DUP3 MSTORE PUSH2 0x3406 PUSH1 0x20 DUP4 ADD CODECOPY PUSH1 0x80 DUP3 ADD MSTORE PUSH2 0x151D DUP4 PUSH2 0x19BB JUMP JUMPDEST PUSH1 0xA0 DUP3 ADD MSTORE PUSH1 0x40 DUP1 MLOAD PUSH1 0x60 DUP2 ADD SWAP1 SWAP2 MSTORE PUSH1 0x28 DUP1 DUP3 MSTORE PUSH2 0x3480 PUSH1 0x20 DUP4 ADD CODECOPY PUSH1 0xC0 DUP3 ADD MSTORE PUSH2 0x1548 DUP4 PUSH2 0xF36 JUMP JUMPDEST PUSH1 0xE0 DUP3 ADD MSTORE PUSH1 0x40 DUP1 MLOAD PUSH1 0x60 DUP2 ADD SWAP1 SWAP2 MSTORE PUSH1 0x29 DUP1 DUP3 MSTORE PUSH2 0x34A8 PUSH1 0x20 DUP4 ADD CODECOPY PUSH2 0x100 DUP3 ADD MSTORE PUSH2 0x1574 DUP4 PUSH2 0x1040 JUMP JUMPDEST PUSH2 0x120 DUP3 ADD MSTORE PUSH1 0x40 DUP1 MLOAD PUSH1 0x60 DUP2 ADD SWAP1 SWAP2 MSTORE PUSH1 0x29 DUP1 DUP3 MSTORE PUSH2 0x3457 PUSH1 0x20 DUP4 ADD CODECOPY PUSH2 0x140 DUP3 ADD MSTORE PUSH2 0x15A1 DUP4 PUSH2 0xAA6 JUMP JUMPDEST PUSH2 0x160 DUP3 ADD MSTORE PUSH1 0x40 DUP1 MLOAD PUSH1 0x60 DUP2 ADD SWAP1 SWAP2 MSTORE PUSH1 0x29 DUP1 DUP3 MSTORE PUSH2 0x34D1 PUSH1 0x20 DUP4 ADD CODECOPY PUSH2 0x180 DUP3 ADD MSTORE PUSH2 0x15CE DUP4 PUSH2 0x1358 JUMP JUMPDEST PUSH2 0x1A0 DUP3 ADD MSTORE PUSH1 0x40 DUP1 MLOAD PUSH1 0x60 DUP2 ADD SWAP1 SWAP2 MSTORE PUSH1 0x29 DUP1 DUP3 MSTORE PUSH2 0x342E PUSH1 0x20 DUP4 ADD CODECOPY PUSH2 0x1C0 DUP3 ADD MSTORE PUSH1 0x40 DUP1 MLOAD PUSH1 0x20 DUP1 DUP3 ADD DUP4 MSTORE PUSH1 0x0 DUP3 MSTORE PUSH2 0x1E0 DUP5 ADD SWAP2 SWAP1 SWAP2 MSTORE DUP2 MLOAD DUP1 DUP4 ADD SWAP1 SWAP3 MSTORE PUSH1 0xD DUP3 MSTORE PUSH32 0x3C2F746578743E3C2F7376673E00000000000000000000000000000000000000 SWAP1 DUP3 ADD MSTORE DUP2 PUSH1 0x10 PUSH1 0x20 SWAP1 DUP2 MUL SWAP2 SWAP1 SWAP2 ADD SWAP2 SWAP1 SWAP2 MSTORE DUP2 MLOAD DUP3 DUP3 ADD MLOAD PUSH1 0x40 DUP1 DUP6 ADD MLOAD PUSH1 0x60 DUP7 ADD MLOAD PUSH1 0x80 DUP8 ADD MLOAD PUSH1 0xA0 DUP9 ADD MLOAD PUSH1 0xC0 DUP10 ADD MLOAD PUSH1 0xE0 DUP11 ADD MLOAD PUSH2 0x100 DUP12 ADD MLOAD SWAP7 MLOAD PUSH1 0x0 SWAP11 PUSH2 0x1688 SWAP11 SWAP10 SWAP9 SWAP2 ADD PUSH2 0x2DF9 JUMP JUMPDEST PUSH1 0x40 DUP1 MLOAD DUP1 DUP4 SUB PUSH1 0x1F NOT ADD DUP2 MSTORE SWAP1 DUP3 SWAP1 MSTORE PUSH2 0x120 DUP5 ADD MLOAD PUSH2 0x140 DUP6 ADD MLOAD PUSH2 0x160 DUP7 ADD MLOAD PUSH2 0x180 DUP8 ADD MLOAD PUSH2 0x1A0 DUP9 ADD MLOAD PUSH2 0x1C0 DUP10 ADD MLOAD PUSH2 0x1E0 DUP11 ADD MLOAD PUSH2 0x200 DUP12 ADD MLOAD SWAP8 SWAP10 POP PUSH2 0x16DB SWAP9 DUP11 SWAP9 SWAP1 PUSH1 0x20 ADD PUSH2 0x2DF9 JUMP JUMPDEST PUSH1 0x40 MLOAD PUSH1 0x20 DUP2 DUP4 SUB SUB DUP2 MSTORE SWAP1 PUSH1 0x40 MSTORE SWAP1 POP PUSH1 0x0 PUSH2 0x1728 PUSH2 0x16FA DUP7 PUSH2 0x226C JUMP JUMPDEST PUSH2 0x1703 DUP5 PUSH2 0x239E JUMP JUMPDEST PUSH1 0x40 MLOAD PUSH1 0x20 ADD PUSH2 0x1714 SWAP3 SWAP2 SWAP1 PUSH2 0x2EBB JUMP JUMPDEST PUSH1 0x40 MLOAD PUSH1 0x20 DUP2 DUP4 SUB SUB DUP2 MSTORE SWAP1 PUSH1 0x40 MSTORE PUSH2 0x239E JUMP JUMPDEST SWAP1 POP DUP1 PUSH1 0x40 MLOAD PUSH1 0x20 ADD PUSH2 0x173B SWAP2 SWAP1 PUSH2 0x30DF JUMP JUMPDEST PUSH1 0x40 DUP1 MLOAD PUSH1 0x1F NOT DUP2 DUP5 SUB ADD DUP2 MSTORE SWAP2 SWAP1 MSTORE SWAP6 SWAP5 POP POP POP POP POP JUMP JUMPDEST PUSH1 0xC SLOAD PUSH1 0x0 SWAP1 PUSH1 0x1 PUSH1 0x1 PUSH1 0xA0 SHL SUB AND PUSH4 0x70A08231 CALLER PUSH1 0x40 MLOAD PUSH1 0x1 PUSH1 0x1 PUSH1 0xE0 SHL SUB NOT PUSH1 0xE0 DUP5 SWAP1 SHL AND DUP2 MSTORE PUSH1 0x1 PUSH1 0x1 PUSH1 0xA0 SHL SUB SWAP1 SWAP2 AND PUSH1 0x4 DUP3 ADD MSTORE PUSH1 0x24 ADD PUSH1 0x20 PUSH1 0x40 MLOAD DUP1 DUP4 SUB DUP2 DUP7 DUP1 EXTCODESIZE ISZERO DUP1 ISZERO PUSH2 0x17A8 JUMPI PUSH1 0x0 DUP1 REVERT JUMPDEST POP GAS STATICCALL ISZERO DUP1 ISZERO PUSH2 0x17BC JUMPI RETURNDATASIZE PUSH1 0x0 DUP1 RETURNDATACOPY RETURNDATASIZE PUSH1 0x0 REVERT JUMPDEST POP POP POP POP PUSH1 0x40 MLOAD RETURNDATASIZE PUSH1 0x1F NOT PUSH1 0x1F DUP3 ADD AND DUP3 ADD DUP1 PUSH1 0x40 MSTORE POP DUP2 ADD SWAP1 PUSH2 0x17E0 SWAP2 SWAP1 PUSH2 0x2D4D JUMP JUMPDEST SWAP1 POP PUSH1 0x0 DUP2 GT PUSH2 0x1858 JUMPI PUSH1 0x40 MLOAD PUSH3 0x461BCD PUSH1 0xE5 SHL DUP2 MSTORE PUSH1 0x20 PUSH1 0x4 DUP3 ADD MSTORE PUSH1 0x31 PUSH1 0x24 DUP3 ADD MSTORE PUSH32 0x486F6C6461626C653A205468657265206973206E6F20746F6B656E6964207468 PUSH1 0x44 DUP3 ADD MSTORE PUSH32 0x61742063616E20626520636C61696D6564000000000000000000000000000000 PUSH1 0x64 DUP3 ADD MSTORE PUSH1 0x84 ADD PUSH2 0x5B6 JUMP JUMPDEST PUSH1 0x0 DUP1 JUMPDEST DUP3 DUP2 LT ISZERO PUSH2 0x1940 JUMPI PUSH1 0xC SLOAD PUSH1 0x0 SWAP1 PUSH1 0x1 PUSH1 0x1 PUSH1 0xA0 SHL SUB AND PUSH4 0x2F745C59 CALLER PUSH1 0x40 MLOAD PUSH1 0x1 PUSH1 0x1 PUSH1 0xE0 SHL SUB NOT PUSH1 0xE0 DUP5 SWAP1 SHL AND DUP2 MSTORE PUSH1 0x1 PUSH1 0x1 PUSH1 0xA0 SHL SUB SWAP1 SWAP2 AND PUSH1 0x4 DUP3 ADD MSTORE PUSH1 0x24 DUP2 ADD DUP6 SWAP1 MSTORE PUSH1 0x44 ADD PUSH1 0x20 PUSH1 0x40 MLOAD DUP1 DUP4 SUB DUP2 DUP7 DUP1 EXTCODESIZE ISZERO DUP1 ISZERO PUSH2 0x18BF JUMPI PUSH1 0x0 DUP1 REVERT JUMPDEST POP GAS STATICCALL ISZERO DUP1 ISZERO PUSH2 0x18D3 JUMPI RETURNDATASIZE PUSH1 0x0 DUP1 RETURNDATACOPY RETURNDATASIZE PUSH1 0x0 REVERT JUMPDEST POP POP POP POP PUSH1 0x40 MLOAD RETURNDATASIZE PUSH1 0x1F NOT PUSH1 0x1F DUP3 ADD AND DUP3 ADD DUP1 PUSH1 0x40 MSTORE POP DUP2 ADD SWAP1 PUSH2 0x18F7 SWAP2 SWAP1 PUSH2 0x2D4D JUMP JUMPDEST PUSH1 0x0 DUP2 DUP2 MSTORE PUSH1 0x2 PUSH1 0x20 MSTORE PUSH1 0x40 SWAP1 KECCAK256 SLOAD SWAP1 SWAP2 POP PUSH1 0x1 PUSH1 0x1 PUSH1 0xA0 SHL SUB AND PUSH2 0x192D JUMPI PUSH2 0x191F DUP2 PUSH2 0x83C JUMP JUMPDEST DUP3 PUSH2 0x1929 DUP2 PUSH2 0x323C JUMP JUMPDEST SWAP4 POP POP JUMPDEST POP DUP1 PUSH2 0x1938 DUP2 PUSH2 0x323C JUMP JUMPDEST SWAP2 POP POP PUSH2 0x185C JUMP JUMPDEST POP PUSH1 0x0 DUP2 GT PUSH2 0x19B7 JUMPI PUSH1 0x40 MLOAD PUSH3 0x461BCD PUSH1 0xE5 SHL DUP2 MSTORE PUSH1 0x20 PUSH1 0x4 DUP3 ADD MSTORE PUSH1 0x31 PUSH1 0x24 DUP3 ADD MSTORE PUSH32 0x486F6C6461626C653A205468657265206973206E6F20746F6B656E6964207468 PUSH1 0x44 DUP3 ADD MSTORE PUSH32 0x61742063616E20626520636C61696D6564000000000000000000000000000000 PUSH1 0x64 DUP3 ADD MSTORE PUSH1 0x84 ADD PUSH2 0x5B6 JUMP JUMPDEST POP POP JUMP JUMPDEST PUSH1 0x60 PUSH2 0x4A9 DUP3 PUSH1 0x40 MLOAD DUP1 PUSH1 0x40 ADD PUSH1 0x40 MSTORE DUP1 PUSH1 0x9 DUP2 MSTORE PUSH1 0x20 ADD PUSH32 0x424F445953484150450000000000000000000000000000000000000000000000 DUP2 MSTORE POP PUSH1 0xE DUP1 SLOAD DUP1 PUSH1 0x20 MUL PUSH1 0x20 ADD PUSH1 0x40 MLOAD SWAP1 DUP2 ADD PUSH1 0x40 MSTORE DUP1 SWAP3 SWAP2 SWAP1 DUP2 DUP2 MSTORE PUSH1 0x20 ADD PUSH1 0x0 SWAP1 JUMPDEST DUP3 DUP3 LT ISZERO PUSH2 0xBB0 JUMPI DUP4 DUP3 SWAP1 PUSH1 0x0 MSTORE PUSH1 0x20 PUSH1 0x0 KECCAK256 ADD DUP1 SLOAD PUSH2 0x1A38 SWAP1 PUSH2 0x3201 JUMP JUMPDEST DUP1 PUSH1 0x1F ADD PUSH1 0x20 DUP1 SWAP2 DIV MUL PUSH1 0x20 ADD PUSH1 0x40 MLOAD SWAP1 DUP2 ADD PUSH1 0x40 MSTORE DUP1 SWAP3 SWAP2 SWAP1 DUP2 DUP2 MSTORE PUSH1 0x20 ADD DUP3 DUP1 SLOAD PUSH2 0x1A64 SWAP1 PUSH2 0x3201 JUMP JUMPDEST DUP1 ISZERO PUSH2 0x1AB1 JUMPI DUP1 PUSH1 0x1F LT PUSH2 0x1A86 JUMPI PUSH2 0x100 DUP1 DUP4 SLOAD DIV MUL DUP4 MSTORE SWAP2 PUSH1 0x20 ADD SWAP2 PUSH2 0x1AB1 JUMP JUMPDEST DUP3 ADD SWAP2 SWAP1 PUSH1 0x0 MSTORE PUSH1 0x20 PUSH1 0x0 KECCAK256 SWAP1 JUMPDEST DUP2 SLOAD DUP2 MSTORE SWAP1 PUSH1 0x1 ADD SWAP1 PUSH1 0x20 ADD DUP1 DUP4 GT PUSH2 0x1A94 JUMPI DUP3 SWAP1 SUB PUSH1 0x1F AND DUP3 ADD SWAP2 JUMPDEST POP POP POP POP POP DUP2 MSTORE PUSH1 0x20 ADD SWAP1 PUSH1 0x1 ADD SWAP1 PUSH2 0x1A19 JUMP JUMPDEST PUSH1 0xA SLOAD PUSH1 0x1 PUSH1 0x1 PUSH1 0xA0 SHL SUB AND CALLER EQ PUSH2 0x1B1F JUMPI PUSH1 0x40 MLOAD PUSH3 0x461BCD PUSH1 0xE5 SHL DUP2 MSTORE PUSH1 0x20 PUSH1 0x4 DUP3 ADD DUP2 SWAP1 MSTORE PUSH1 0x24 DUP3 ADD MSTORE PUSH32 0x4F776E61626C653A2063616C6C6572206973206E6F7420746865206F776E6572 PUSH1 0x44 DUP3 ADD MSTORE PUSH1 0x64 ADD PUSH2 0x5B6 JUMP JUMPDEST PUSH1 0x1 PUSH1 0x1 PUSH1 0xA0 SHL SUB DUP2 AND PUSH2 0x1B9B JUMPI PUSH1 0x40 MLOAD PUSH3 0x461BCD PUSH1 0xE5 SHL DUP2 MSTORE PUSH1 0x20 PUSH1 0x4 DUP3 ADD MSTORE PUSH1 0x26 PUSH1 0x24 DUP3 ADD MSTORE PUSH32 0x4F776E61626C653A206E6577206F776E657220697320746865207A65726F2061 PUSH1 0x44 DUP3 ADD MSTORE PUSH32 0x6464726573730000000000000000000000000000000000000000000000000000 PUSH1 0x64 DUP3 ADD MSTORE PUSH1 0x84 ADD PUSH2 0x5B6 JUMP JUMPDEST PUSH2 0x1BA4 DUP2 PUSH2 0x219C JUMP JUMPDEST POP JUMP JUMPDEST PUSH1 0x60 PUSH2 0x4A9 DUP3 PUSH1 0x40 MLOAD DUP1 PUSH1 0x40 ADD PUSH1 0x40 MSTORE DUP1 PUSH1 0x6 DUP2 MSTORE PUSH1 0x20 ADD PUSH32 0x4845494748540000000000000000000000000000000000000000000000000000 DUP2 MSTORE POP PUSH1 0xD DUP1 SLOAD DUP1 PUSH1 0x20 MUL PUSH1 0x20 ADD PUSH1 0x40 MLOAD SWAP1 DUP2 ADD PUSH1 0x40 MSTORE DUP1 SWAP3 SWAP2 SWAP1 DUP2 DUP2 MSTORE PUSH1 0x20 ADD PUSH1 0x0 SWAP1 JUMPDEST DUP3 DUP3 LT ISZERO PUSH2 0xBB0 JUMPI DUP4 DUP3 SWAP1 PUSH1 0x0 MSTORE PUSH1 0x20 PUSH1 0x0 KECCAK256 ADD DUP1 SLOAD PUSH2 0x1C24 SWAP1 PUSH2 0x3201 JUMP JUMPDEST DUP1 PUSH1 0x1F ADD PUSH1 0x20 DUP1 SWAP2 DIV MUL PUSH1 0x20 ADD PUSH1 0x40 MLOAD SWAP1 DUP2 ADD PUSH1 0x40 MSTORE DUP1 SWAP3 SWAP2 SWAP1 DUP2 DUP2 MSTORE PUSH1 0x20 ADD DUP3 DUP1 SLOAD PUSH2 0x1C50 SWAP1 PUSH2 0x3201 JUMP JUMPDEST DUP1 ISZERO PUSH2 0x1C9D JUMPI DUP1 PUSH1 0x1F LT PUSH2 0x1C72 JUMPI PUSH2 0x100 DUP1 DUP4 SLOAD DIV MUL DUP4 MSTORE SWAP2 PUSH1 0x20 ADD SWAP2 PUSH2 0x1C9D JUMP JUMPDEST DUP3 ADD SWAP2 SWAP1 PUSH1 0x0 MSTORE PUSH1 0x20 PUSH1 0x0 KECCAK256 SWAP1 JUMPDEST DUP2 SLOAD DUP2 MSTORE SWAP1 PUSH1 0x1 ADD SWAP1 PUSH1 0x20 ADD DUP1 DUP4 GT PUSH2 0x1C80 JUMPI DUP3 SWAP1 SUB PUSH1 0x1F AND DUP3 ADD SWAP2 JUMPDEST POP POP POP POP POP DUP2 MSTORE PUSH1 0x20 ADD SWAP1 PUSH1 0x1 ADD SWAP1 PUSH2 0x1C05 JUMP JUMPDEST PUSH1 0x0 PUSH1 0x1 PUSH1 0x1 PUSH1 0xE0 SHL SUB NOT DUP3 AND PUSH32 0x80AC58CD00000000000000000000000000000000000000000000000000000000 EQ DUP1 PUSH2 0x1D14 JUMPI POP PUSH1 0x1 PUSH1 0x1 PUSH1 0xE0 SHL SUB NOT DUP3 AND PUSH32 0x5B5E139F00000000000000000000000000000000000000000000000000000000 EQ JUMPDEST DUP1 PUSH2 0x4A9 JUMPI POP PUSH32 0x1FFC9A700000000000000000000000000000000000000000000000000000000 PUSH1 0x1 PUSH1 0x1 PUSH1 0xE0 SHL SUB NOT DUP4 AND EQ PUSH2 0x4A9 JUMP JUMPDEST PUSH1 0x0 DUP2 DUP2 MSTORE PUSH1 0x4 PUSH1 0x20 MSTORE PUSH1 0x40 SWAP1 KECCAK256 DUP1 SLOAD PUSH1 0x1 PUSH1 0x1 PUSH1 0xA0 SHL SUB NOT AND PUSH1 0x1 PUSH1 0x1 PUSH1 0xA0 SHL SUB DUP5 AND SWAP1 DUP2 OR SWAP1 SWAP2 SSTORE DUP2 SWAP1 PUSH2 0x1D81 DUP3 PUSH2 0xDAB JUMP JUMPDEST PUSH1 0x1 PUSH1 0x1 PUSH1 0xA0 SHL SUB AND PUSH32 0x8C5BE1E5EBEC7D5BD14F71427D1E84F3DD0314C0F7B2291E5B200AC8C7C3B925 PUSH1 0x40 MLOAD PUSH1 0x40 MLOAD DUP1 SWAP2 SUB SWAP1 LOG4 POP POP JUMP JUMPDEST PUSH1 0x0 DUP2 DUP2 MSTORE PUSH1 0x2 PUSH1 0x20 MSTORE PUSH1 0x40 DUP2 KECCAK256 SLOAD PUSH1 0x1 PUSH1 0x1 PUSH1 0xA0 SHL SUB AND PUSH2 0x1E33 JUMPI PUSH1 0x40 MLOAD PUSH3 0x461BCD PUSH1 0xE5 SHL DUP2 MSTORE PUSH1 0x20 PUSH1 0x4 DUP3 ADD MSTORE PUSH1 0x2C PUSH1 0x24 DUP3 ADD MSTORE PUSH32 0x4552433732313A206F70657261746F7220717565727920666F72206E6F6E6578 PUSH1 0x44 DUP3 ADD MSTORE PUSH12 0x34B9BA32B73A103A37B5B2B7 PUSH1 0xA1 SHL PUSH1 0x64 DUP3 ADD MSTORE PUSH1 0x84 ADD PUSH2 0x5B6 JUMP JUMPDEST PUSH1 0x0 PUSH2 0x1E3E DUP4 PUSH2 0xDAB JUMP JUMPDEST SWAP1 POP DUP1 PUSH1 0x1 PUSH1 0x1 PUSH1 0xA0 SHL SUB AND DUP5 PUSH1 0x1 PUSH1 0x1 PUSH1 0xA0 SHL SUB AND EQ DUP1 PUSH2 0x1E79 JUMPI POP DUP4 PUSH1 0x1 PUSH1 0x1 PUSH1 0xA0 SHL SUB AND PUSH2 0x1E6E DUP5 PUSH2 0x541 JUMP JUMPDEST PUSH1 0x1 PUSH1 0x1 PUSH1 0xA0 SHL SUB AND EQ JUMPDEST DUP1 PUSH2 0x1EA9 JUMPI POP PUSH1 0x1 PUSH1 0x1 PUSH1 0xA0 SHL SUB DUP1 DUP3 AND PUSH1 0x0 SWAP1 DUP2 MSTORE PUSH1 0x5 PUSH1 0x20 SWAP1 DUP2 MSTORE PUSH1 0x40 DUP1 DUP4 KECCAK256 SWAP4 DUP9 AND DUP4 MSTORE SWAP3 SWAP1 MSTORE KECCAK256 SLOAD PUSH1 0xFF AND JUMPDEST SWAP5 SWAP4 POP POP POP POP JUMP JUMPDEST DUP3 PUSH1 0x1 PUSH1 0x1 PUSH1 0xA0 SHL SUB AND PUSH2 0x1EC4 DUP3 PUSH2 0xDAB JUMP JUMPDEST PUSH1 0x1 PUSH1 0x1 PUSH1 0xA0 SHL SUB AND EQ PUSH2 0x1F40 JUMPI PUSH1 0x40 MLOAD PUSH3 0x461BCD PUSH1 0xE5 SHL DUP2 MSTORE PUSH1 0x20 PUSH1 0x4 DUP3 ADD MSTORE PUSH1 0x29 PUSH1 0x24 DUP3 ADD MSTORE PUSH32 0x4552433732313A207472616E73666572206F6620746F6B656E20746861742069 PUSH1 0x44 DUP3 ADD MSTORE PUSH32 0x73206E6F74206F776E0000000000000000000000000000000000000000000000 PUSH1 0x64 DUP3 ADD MSTORE PUSH1 0x84 ADD PUSH2 0x5B6 JUMP JUMPDEST PUSH1 0x1 PUSH1 0x1 PUSH1 0xA0 SHL SUB DUP3 AND PUSH2 0x1FBB JUMPI PUSH1 0x40 MLOAD PUSH3 0x461BCD PUSH1 0xE5 SHL DUP2 MSTORE PUSH1 0x20 PUSH1 0x4 DUP3 ADD MSTORE PUSH1 0x24 DUP1 DUP3 ADD MSTORE PUSH32 0x4552433732313A207472616E7366657220746F20746865207A65726F20616464 PUSH1 0x44 DUP3 ADD MSTORE PUSH32 0x7265737300000000000000000000000000000000000000000000000000000000 PUSH1 0x64 DUP3 ADD MSTORE PUSH1 0x84 ADD PUSH2 0x5B6 JUMP JUMPDEST PUSH2 0x1FC6 DUP4 DUP4 DUP4 PUSH2 0x253B JUMP JUMPDEST PUSH2 0x1FD1 PUSH1 0x0 DUP3 PUSH2 0x1D4C JUMP JUMPDEST PUSH1 0x1 PUSH1 0x1 PUSH1 0xA0 SHL SUB DUP4 AND PUSH1 0x0 SWAP1 DUP2 MSTORE PUSH1 0x3 PUSH1 0x20 MSTORE PUSH1 0x40 DUP2 KECCAK256 DUP1 SLOAD PUSH1 0x1 SWAP3 SWAP1 PUSH2 0x1FFA SWAP1 DUP5 SWAP1 PUSH2 0x31BE JUMP JUMPDEST SWAP1 SWAP2 SSTORE POP POP PUSH1 0x1 PUSH1 0x1 PUSH1 0xA0 SHL SUB DUP3 AND PUSH1 0x0 SWAP1 DUP2 MSTORE PUSH1 0x3 PUSH1 0x20 MSTORE PUSH1 0x40 DUP2 KECCAK256 DUP1 SLOAD PUSH1 0x1 SWAP3 SWAP1 PUSH2 0x2028 SWAP1 DUP5 SWAP1 PUSH2 0x3173 JUMP JUMPDEST SWAP1 SWAP2 SSTORE POP POP PUSH1 0x0 DUP2 DUP2 MSTORE PUSH1 0x2 PUSH1 0x20 MSTORE PUSH1 0x40 DUP1 DUP3 KECCAK256 DUP1 SLOAD PUSH1 0x1 PUSH1 0x1 PUSH1 0xA0 SHL SUB NOT AND PUSH1 0x1 PUSH1 0x1 PUSH1 0xA0 SHL SUB DUP7 DUP2 AND SWAP2 DUP3 OR SWAP1 SWAP3 SSTORE SWAP2 MLOAD DUP5 SWAP4 SWAP2 DUP8 AND SWAP2 PUSH32 0xDDF252AD1BE2C89B69C2B068FC378DAA952BA7F163C4A11628F55A4DF523B3EF SWAP2 LOG4 POP POP POP JUMP JUMPDEST PUSH2 0x19B7 DUP3 DUP3 PUSH1 0x40 MLOAD DUP1 PUSH1 0x20 ADD PUSH1 0x40 MSTORE DUP1 PUSH1 0x0 DUP2 MSTORE POP PUSH2 0x25F3 JUMP JUMPDEST PUSH1 0x0 DUP4 DUP2 MSTORE PUSH1 0x2 PUSH1 0x20 MSTORE PUSH1 0x40 SWAP1 KECCAK256 SLOAD PUSH1 0x60 SWAP1 PUSH1 0x1 PUSH1 0x1 PUSH1 0xA0 SHL SUB AND PUSH2 0x2130 JUMPI PUSH1 0x40 MLOAD PUSH3 0x461BCD PUSH1 0xE5 SHL DUP2 MSTORE PUSH1 0x20 PUSH1 0x4 DUP3 ADD MSTORE PUSH1 0x2F PUSH1 0x24 DUP3 ADD MSTORE PUSH32 0x4552433732314D657461646174613A2055524920717565727920666F72206E6F PUSH1 0x44 DUP3 ADD MSTORE PUSH32 0x6E6578697374656E7420746F6B656E0000000000000000000000000000000000 PUSH1 0x64 DUP3 ADD MSTORE PUSH1 0x84 ADD PUSH2 0x5B6 JUMP JUMPDEST PUSH1 0x0 PUSH2 0x2164 DUP5 PUSH2 0x213F DUP8 PUSH2 0x226C JUMP JUMPDEST PUSH1 0x40 MLOAD PUSH1 0x20 ADD PUSH2 0x2150 SWAP3 SWAP2 SWAP1 PUSH2 0x2DCA JUMP JUMPDEST PUSH1 0x40 MLOAD PUSH1 0x20 DUP2 DUP4 SUB SUB DUP2 MSTORE SWAP1 PUSH1 0x40 MSTORE PUSH2 0x2671 JUMP JUMPDEST SWAP1 POP PUSH1 0x0 DUP4 DUP5 MLOAD DUP4 PUSH2 0x2176 SWAP2 SWAP1 PUSH2 0x3257 JUMP JUMPDEST DUP2 MLOAD DUP2 LT PUSH2 0x2186 JUMPI PUSH2 0x2186 PUSH2 0x32AD JUMP JUMPDEST PUSH1 0x20 MUL PUSH1 0x20 ADD ADD MLOAD SWAP1 POP DUP1 SWAP3 POP POP POP SWAP4 SWAP3 POP POP POP JUMP JUMPDEST PUSH1 0xA DUP1 SLOAD PUSH1 0x1 PUSH1 0x1 PUSH1 0xA0 SHL SUB DUP4 DUP2 AND PUSH1 0x1 PUSH1 0x1 PUSH1 0xA0 SHL SUB NOT DUP4 AND DUP2 OR SWAP1 SWAP4 SSTORE PUSH1 0x40 MLOAD SWAP2 AND SWAP2 SWAP1 DUP3 SWAP1 PUSH32 0x8BE0079C531659141344CD1FD0A4F28419497F9722A3DAAFE3B4186F6B6457E0 SWAP1 PUSH1 0x0 SWAP1 LOG3 POP POP JUMP JUMPDEST PUSH2 0x21F9 DUP5 DUP5 DUP5 PUSH2 0x1EB1 JUMP JUMPDEST PUSH2 0x2205 DUP5 DUP5 DUP5 DUP5 PUSH2 0x26A2 JUMP JUMPDEST PUSH2 0x1352 JUMPI PUSH1 0x40 MLOAD PUSH3 0x461BCD PUSH1 0xE5 SHL DUP2 MSTORE PUSH1 0x20 PUSH1 0x4 DUP3 ADD MSTORE PUSH1 0x32 PUSH1 0x24 DUP3 ADD MSTORE PUSH32 0x4552433732313A207472616E7366657220746F206E6F6E204552433732315265 PUSH1 0x44 DUP3 ADD MSTORE PUSH18 0x31B2B4BB32B91034B6B83632B6B2B73A32B9 PUSH1 0x71 SHL PUSH1 0x64 DUP3 ADD MSTORE PUSH1 0x84 ADD PUSH2 0x5B6 JUMP JUMPDEST PUSH1 0x60 DUP2 PUSH2 0x22AC JUMPI POP POP PUSH1 0x40 DUP1 MLOAD DUP1 DUP3 ADD SWAP1 SWAP2 MSTORE PUSH1 0x1 DUP2 MSTORE PUSH32 0x3000000000000000000000000000000000000000000000000000000000000000 PUSH1 0x20 DUP3 ADD MSTORE SWAP1 JUMP JUMPDEST DUP2 PUSH1 0x0 JUMPDEST DUP2 ISZERO PUSH2 0x22D6 JUMPI DUP1 PUSH2 0x22C0 DUP2 PUSH2 0x323C JUMP JUMPDEST SWAP2 POP PUSH2 0x22CF SWAP1 POP PUSH1 0xA DUP4 PUSH2 0x318B JUMP JUMPDEST SWAP2 POP PUSH2 0x22B0 JUMP JUMPDEST PUSH1 0x0 DUP2 PUSH8 0xFFFFFFFFFFFFFFFF DUP2 GT ISZERO PUSH2 0x22F1 JUMPI PUSH2 0x22F1 PUSH2 0x32C3 JUMP JUMPDEST PUSH1 0x40 MLOAD SWAP1 DUP1 DUP3 MSTORE DUP1 PUSH1 0x1F ADD PUSH1 0x1F NOT AND PUSH1 0x20 ADD DUP3 ADD PUSH1 0x40 MSTORE DUP1 ISZERO PUSH2 0x231B JUMPI PUSH1 0x20 DUP3 ADD DUP2 DUP1 CALLDATASIZE DUP4 CALLDATACOPY ADD SWAP1 POP JUMPDEST POP SWAP1 POP JUMPDEST DUP5 ISZERO PUSH2 0x1EA9 JUMPI PUSH2 0x2330 PUSH1 0x1 DUP4 PUSH2 0x31BE JUMP JUMPDEST SWAP2 POP PUSH2 0x233D PUSH1 0xA DUP7 PUSH2 0x3257 JUMP JUMPDEST PUSH2 0x2348 SWAP1 PUSH1 0x30 PUSH2 0x3173 JUMP JUMPDEST PUSH1 0xF8 SHL DUP2 DUP4 DUP2 MLOAD DUP2 LT PUSH2 0x235D JUMPI PUSH2 0x235D PUSH2 0x32AD JUMP JUMPDEST PUSH1 0x20 ADD ADD SWAP1 PUSH31 0xFFFFFFFFFFFFFFFFFFFFFFFFFFFFFFFFFFFFFFFFFFFFFFFFFFFFFFFFFFFFFF NOT AND SWAP1 DUP2 PUSH1 0x0 BYTE SWAP1 MSTORE8 POP PUSH2 0x2397 PUSH1 0xA DUP7 PUSH2 0x318B JUMP JUMPDEST SWAP5 POP PUSH2 0x231F JUMP JUMPDEST DUP1 MLOAD PUSH1 0x60 SWAP1 DUP1 PUSH2 0x23BE JUMPI POP POP PUSH1 0x40 DUP1 MLOAD PUSH1 0x20 DUP2 ADD SWAP1 SWAP2 MSTORE PUSH1 0x0 DUP2 MSTORE SWAP2 SWAP1 POP JUMP JUMPDEST PUSH1 0x0 PUSH1 0x3 PUSH2 0x23CD DUP4 PUSH1 0x2 PUSH2 0x3173 JUMP JUMPDEST PUSH2 0x23D7 SWAP2 SWAP1 PUSH2 0x318B JUMP JUMPDEST PUSH2 0x23E2 SWAP1 PUSH1 0x4 PUSH2 0x319F JUMP JUMPDEST SWAP1 POP PUSH1 0x0 PUSH2 0x23F1 DUP3 PUSH1 0x20 PUSH2 0x3173 JUMP JUMPDEST PUSH8 0xFFFFFFFFFFFFFFFF DUP2 GT ISZERO PUSH2 0x2409 JUMPI PUSH2 0x2409 PUSH2 0x32C3 JUMP JUMPDEST PUSH1 0x40 MLOAD SWAP1 DUP1 DUP3 MSTORE DUP1 PUSH1 0x1F ADD PUSH1 0x1F NOT AND PUSH1 0x20 ADD DUP3 ADD PUSH1 0x40 MSTORE DUP1 ISZERO PUSH2 0x2433 JUMPI PUSH1 0x20 DUP3 ADD DUP2 DUP1 CALLDATASIZE DUP4 CALLDATACOPY ADD SWAP1 POP JUMPDEST POP SWAP1 POP PUSH1 0x0 PUSH1 0x40 MLOAD DUP1 PUSH1 0x60 ADD PUSH1 0x40 MSTORE DUP1 PUSH1 0x40 DUP2 MSTORE PUSH1 0x20 ADD PUSH2 0x34FA PUSH1 0x40 SWAP2 CODECOPY SWAP1 POP PUSH1 0x1 DUP2 ADD PUSH1 0x20 DUP4 ADD PUSH1 0x0 JUMPDEST DUP7 DUP2 LT ISZERO PUSH2 0x24BF JUMPI PUSH1 0x3 DUP2 DUP11 ADD DUP2 ADD MLOAD PUSH1 0x3F PUSH1 0x12 DUP3 SWAP1 SHR DUP2 AND DUP7 ADD MLOAD PUSH1 0xC DUP4 SWAP1 SHR DUP3 AND DUP8 ADD MLOAD PUSH1 0x6 DUP5 SWAP1 SHR DUP4 AND DUP9 ADD MLOAD SWAP3 SWAP1 SWAP4 AND DUP8 ADD MLOAD PUSH1 0x8 SWAP2 DUP3 SHL PUSH1 0xFF SWAP5 DUP6 AND ADD DUP3 SHL SWAP3 DUP5 AND SWAP3 SWAP1 SWAP3 ADD SWAP1 SHL SWAP2 AND ADD PUSH1 0xE0 SHL DUP4 MSTORE PUSH1 0x4 SWAP1 SWAP3 ADD SWAP2 ADD PUSH2 0x245E JUMP JUMPDEST POP PUSH1 0x3 DUP7 MOD PUSH1 0x1 DUP2 EQ PUSH2 0x24D9 JUMPI PUSH1 0x2 DUP2 EQ PUSH2 0x2505 JUMPI PUSH2 0x252D JUMP JUMPDEST PUSH32 0x3D3D000000000000000000000000000000000000000000000000000000000000 PUSH1 0x1 NOT DUP4 ADD MSTORE PUSH2 0x252D JUMP JUMPDEST PUSH32 0x3D00000000000000000000000000000000000000000000000000000000000000 PUSH1 0x0 NOT DUP4 ADD MSTORE JUMPDEST POP POP POP SWAP2 DUP2 MSTORE SWAP5 SWAP4 POP POP POP POP JUMP JUMPDEST PUSH1 0x1 PUSH1 0x1 PUSH1 0xA0 SHL SUB DUP4 AND PUSH2 0x2596 JUMPI PUSH2 0x2591 DUP2 PUSH1 0x8 DUP1 SLOAD PUSH1 0x0 DUP4 DUP2 MSTORE PUSH1 0x9 PUSH1 0x20 MSTORE PUSH1 0x40 DUP2 KECCAK256 DUP3 SWAP1 SSTORE PUSH1 0x1 DUP3 ADD DUP4 SSTORE SWAP2 SWAP1 SWAP2 MSTORE PUSH32 0xF3F7A9FE364FAAB93B216DA50A3214154F22A0A2B415B23A84C8169E8B636EE3 ADD SSTORE JUMP JUMPDEST PUSH2 0x25B9 JUMP JUMPDEST DUP2 PUSH1 0x1 PUSH1 0x1 PUSH1 0xA0 SHL SUB AND DUP4 PUSH1 0x1 PUSH1 0x1 PUSH1 0xA0 SHL SUB AND EQ PUSH2 0x25B9 JUMPI PUSH2 0x25B9 DUP4 DUP3 PUSH2 0x27FA JUMP JUMPDEST PUSH1 0x1 PUSH1 0x1 PUSH1 0xA0 SHL SUB DUP3 AND PUSH2 0x25D0 JUMPI PUSH2 0x708 DUP2 PUSH2 0x2897 JUMP JUMPDEST DUP3 PUSH1 0x1 PUSH1 0x1 PUSH1 0xA0 SHL SUB AND DUP3 PUSH1 0x1 PUSH1 0x1 PUSH1 0xA0 SHL SUB AND EQ PUSH2 0x708 JUMPI PUSH2 0x708 DUP3 DUP3 PUSH2 0x2946 JUMP JUMPDEST PUSH2 0x25FD DUP4 DUP4 PUSH2 0x298A JUMP JUMPDEST PUSH2 0x260A PUSH1 0x0 DUP5 DUP5 DUP5 PUSH2 0x26A2 JUMP JUMPDEST PUSH2 0x708 JUMPI PUSH1 0x40 MLOAD PUSH3 0x461BCD PUSH1 0xE5 SHL DUP2 MSTORE PUSH1 0x20 PUSH1 0x4 DUP3 ADD MSTORE PUSH1 0x32 PUSH1 0x24 DUP3 ADD MSTORE PUSH32 0x4552433732313A207472616E7366657220746F206E6F6E204552433732315265 PUSH1 0x44 DUP3 ADD MSTORE PUSH18 0x31B2B4BB32B91034B6B83632B6B2B73A32B9 PUSH1 0x71 SHL PUSH1 0x64 DUP3 ADD MSTORE PUSH1 0x84 ADD PUSH2 0x5B6 JUMP JUMPDEST PUSH1 0x0 DUP2 PUSH1 0x40 MLOAD PUSH1 0x20 ADD PUSH2 0x2684 SWAP2 SWAP1 PUSH2 0x2DAE JUMP JUMPDEST PUSH1 0x40 DUP1 MLOAD PUSH1 0x1F NOT DUP2 DUP5 SUB ADD DUP2 MSTORE SWAP2 SWAP1 MSTORE DUP1 MLOAD PUSH1 0x20 SWAP1 SWAP2 ADD KECCAK256 SWAP3 SWAP2 POP POP JUMP JUMPDEST PUSH1 0x0 PUSH1 0x1 PUSH1 0x1 PUSH1 0xA0 SHL SUB DUP5 AND EXTCODESIZE ISZERO PUSH2 0x27EF JUMPI PUSH1 0x40 MLOAD PUSH4 0xA85BD01 PUSH1 0xE1 SHL DUP2 MSTORE PUSH1 0x1 PUSH1 0x1 PUSH1 0xA0 SHL SUB DUP6 AND SWAP1 PUSH4 0x150B7A02 SWAP1 PUSH2 0x26E6 SWAP1 CALLER SWAP1 DUP10 SWAP1 DUP9 SWAP1 DUP9 SWAP1 PUSH1 0x4 ADD PUSH2 0x3124 JUMP JUMPDEST PUSH1 0x20 PUSH1 0x40 MLOAD DUP1 DUP4 SUB DUP2 PUSH1 0x0 DUP8 DUP1 EXTCODESIZE ISZERO DUP1 ISZERO PUSH2 0x2700 JUMPI PUSH1 0x0 DUP1 REVERT JUMPDEST POP GAS CALL SWAP3 POP POP POP DUP1 ISZERO PUSH2 0x2730 JUMPI POP PUSH1 0x40 DUP1 MLOAD PUSH1 0x1F RETURNDATASIZE SWAP1 DUP2 ADD PUSH1 0x1F NOT AND DUP3 ADD SWAP1 SWAP3 MSTORE PUSH2 0x272D SWAP2 DUP2 ADD SWAP1 PUSH2 0x2D17 JUMP JUMPDEST PUSH1 0x1 JUMPDEST PUSH2 0x27D5 JUMPI RETURNDATASIZE DUP1 DUP1 ISZERO PUSH2 0x275E JUMPI PUSH1 0x40 MLOAD SWAP2 POP PUSH1 0x1F NOT PUSH1 0x3F RETURNDATASIZE ADD AND DUP3 ADD PUSH1 0x40 MSTORE RETURNDATASIZE DUP3 MSTORE RETURNDATASIZE PUSH1 0x0 PUSH1 0x20 DUP5 ADD RETURNDATACOPY PUSH2 0x2763 JUMP JUMPDEST PUSH1 0x60 SWAP2 POP JUMPDEST POP DUP1 MLOAD PUSH2 0x27CD JUMPI PUSH1 0x40 MLOAD PUSH3 0x461BCD PUSH1 0xE5 SHL DUP2 MSTORE PUSH1 0x20 PUSH1 0x4 DUP3 ADD MSTORE PUSH1 0x32 PUSH1 0x24 DUP3 ADD MSTORE PUSH32 0x4552433732313A207472616E7366657220746F206E6F6E204552433732315265 PUSH1 0x44 DUP3 ADD MSTORE PUSH18 0x31B2B4BB32B91034B6B83632B6B2B73A32B9 PUSH1 0x71 SHL PUSH1 0x64 DUP3 ADD MSTORE PUSH1 0x84 ADD PUSH2 0x5B6 JUMP JUMPDEST DUP1 MLOAD DUP2 PUSH1 0x20 ADD REVERT JUMPDEST PUSH1 0x1 PUSH1 0x1 PUSH1 0xE0 SHL SUB NOT AND PUSH4 0xA85BD01 PUSH1 0xE1 SHL EQ SWAP1 POP PUSH2 0x1EA9 JUMP JUMPDEST POP PUSH1 0x1 SWAP5 SWAP4 POP POP POP POP JUMP JUMPDEST PUSH1 0x0 PUSH1 0x1 PUSH2 0x2807 DUP5 PUSH2 0xE36 JUMP JUMPDEST PUSH2 0x2811 SWAP2 SWAP1 PUSH2 0x31BE JUMP JUMPDEST PUSH1 0x0 DUP4 DUP2 MSTORE PUSH1 0x7 PUSH1 0x20 MSTORE PUSH1 0x40 SWAP1 KECCAK256 SLOAD SWAP1 SWAP2 POP DUP1 DUP3 EQ PUSH2 0x2864 JUMPI PUSH1 0x1 PUSH1 0x1 PUSH1 0xA0 SHL SUB DUP5 AND PUSH1 0x0 SWAP1 DUP2 MSTORE PUSH1 0x6 PUSH1 0x20 SWAP1 DUP2 MSTORE PUSH1 0x40 DUP1 DUP4 KECCAK256 DUP6 DUP5 MSTORE DUP3 MSTORE DUP1 DUP4 KECCAK256 SLOAD DUP5 DUP5 MSTORE DUP2 DUP5 KECCAK256 DUP2 SWAP1 SSTORE DUP4 MSTORE PUSH1 0x7 SWAP1 SWAP2 MSTORE SWAP1 KECCAK256 DUP2 SWAP1 SSTORE JUMPDEST POP PUSH1 0x0 SWAP2 DUP3 MSTORE PUSH1 0x7 PUSH1 0x20 SWAP1 DUP2 MSTORE PUSH1 0x40 DUP1 DUP5 KECCAK256 DUP5 SWAP1 SSTORE PUSH1 0x1 PUSH1 0x1 PUSH1 0xA0 SHL SUB SWAP1 SWAP5 AND DUP4 MSTORE PUSH1 0x6 DUP2 MSTORE DUP4 DUP4 KECCAK256 SWAP2 DUP4 MSTORE MSTORE SWAP1 DUP2 KECCAK256 SSTORE JUMP JUMPDEST PUSH1 0x8 SLOAD PUSH1 0x0 SWAP1 PUSH2 0x28A9 SWAP1 PUSH1 0x1 SWAP1 PUSH2 0x31BE JUMP JUMPDEST PUSH1 0x0 DUP4 DUP2 MSTORE PUSH1 0x9 PUSH1 0x20 MSTORE PUSH1 0x40 DUP2 KECCAK256 SLOAD PUSH1 0x8 DUP1 SLOAD SWAP4 SWAP5 POP SWAP1 SWAP3 DUP5 SWAP1 DUP2 LT PUSH2 0x28D1 JUMPI PUSH2 0x28D1 PUSH2 0x32AD JUMP JUMPDEST SWAP1 PUSH1 0x0 MSTORE PUSH1 0x20 PUSH1 0x0 KECCAK256 ADD SLOAD SWAP1 POP DUP1 PUSH1 0x8 DUP4 DUP2 SLOAD DUP2 LT PUSH2 0x28F2 JUMPI PUSH2 0x28F2 PUSH2 0x32AD JUMP JUMPDEST PUSH1 0x0 SWAP2 DUP3 MSTORE PUSH1 0x20 DUP1 DUP4 KECCAK256 SWAP1 SWAP2 ADD SWAP3 SWAP1 SWAP3 SSTORE DUP3 DUP2 MSTORE PUSH1 0x9 SWAP1 SWAP2 MSTORE PUSH1 0x40 DUP1 DUP3 KECCAK256 DUP5 SWAP1 SSTORE DUP6 DUP3 MSTORE DUP2 KECCAK256 SSTORE PUSH1 0x8 DUP1 SLOAD DUP1 PUSH2 0x292A JUMPI PUSH2 0x292A PUSH2 0x3297 JUMP JUMPDEST PUSH1 0x1 SWAP1 SUB DUP2 DUP2 SWAP1 PUSH1 0x0 MSTORE PUSH1 0x20 PUSH1 0x0 KECCAK256 ADD PUSH1 0x0 SWAP1 SSTORE SWAP1 SSTORE POP POP POP POP JUMP JUMPDEST PUSH1 0x0 PUSH2 0x2951 DUP4 PUSH2 0xE36 JUMP JUMPDEST PUSH1 0x1 PUSH1 0x1 PUSH1 0xA0 SHL SUB SWAP1 SWAP4 AND PUSH1 0x0 SWAP1 DUP2 MSTORE PUSH1 0x6 PUSH1 0x20 SWAP1 DUP2 MSTORE PUSH1 0x40 DUP1 DUP4 KECCAK256 DUP7 DUP5 MSTORE DUP3 MSTORE DUP1 DUP4 KECCAK256 DUP6 SWAP1 SSTORE SWAP4 DUP3 MSTORE PUSH1 0x7 SWAP1 MSTORE SWAP2 SWAP1 SWAP2 KECCAK256 SWAP2 SWAP1 SWAP2 SSTORE POP JUMP JUMPDEST PUSH1 0x1 PUSH1 0x1 PUSH1 0xA0 SHL SUB DUP3 AND PUSH2 0x29E0 JUMPI PUSH1 0x40 MLOAD PUSH3 0x461BCD PUSH1 0xE5 SHL DUP2 MSTORE PUSH1 0x20 PUSH1 0x4 DUP3 ADD DUP2 SWAP1 MSTORE PUSH1 0x24 DUP3 ADD MSTORE PUSH32 0x4552433732313A206D696E7420746F20746865207A65726F2061646472657373 PUSH1 0x44 DUP3 ADD MSTORE PUSH1 0x64 ADD PUSH2 0x5B6 JUMP JUMPDEST PUSH1 0x0 DUP2 DUP2 MSTORE PUSH1 0x2 PUSH1 0x20 MSTORE PUSH1 0x40 SWAP1 KECCAK256 SLOAD PUSH1 0x1 PUSH1 0x1 PUSH1 0xA0 SHL SUB AND ISZERO PUSH2 0x2A45 JUMPI PUSH1 0x40 MLOAD PUSH3 0x461BCD PUSH1 0xE5 SHL DUP2 MSTORE PUSH1 0x20 PUSH1 0x4 DUP3 ADD MSTORE PUSH1 0x1C PUSH1 0x24 DUP3 ADD MSTORE PUSH32 0x4552433732313A20746F6B656E20616C7265616479206D696E74656400000000 PUSH1 0x44 DUP3 ADD MSTORE PUSH1 0x64 ADD PUSH2 0x5B6 JUMP JUMPDEST PUSH2 0x2A51 PUSH1 0x0 DUP4 DUP4 PUSH2 0x253B JUMP JUMPDEST PUSH1 0x1 PUSH1 0x1 PUSH1 0xA0 SHL SUB DUP3 AND PUSH1 0x0 SWAP1 DUP2 MSTORE PUSH1 0x3 PUSH1 0x20 MSTORE PUSH1 0x40 DUP2 KECCAK256 DUP1 SLOAD PUSH1 0x1 SWAP3 SWAP1 PUSH2 0x2A7A SWAP1 DUP5 SWAP1 PUSH2 0x3173 JUMP JUMPDEST SWAP1 SWAP2 SSTORE POP POP PUSH1 0x0 DUP2 DUP2 MSTORE PUSH1 0x2 PUSH1 0x20 MSTORE PUSH1 0x40 DUP1 DUP3 KECCAK256 DUP1 SLOAD PUSH1 0x1 PUSH1 0x1 PUSH1 0xA0 SHL SUB NOT AND PUSH1 0x1 PUSH1 0x1 PUSH1 0xA0 SHL SUB DUP7 AND SWAP1 DUP2 OR SWAP1 SWAP2 SSTORE SWAP1 MLOAD DUP4 SWAP3 SWAP1 PUSH32 0xDDF252AD1BE2C89B69C2B068FC378DAA952BA7F163C4A11628F55A4DF523B3EF SWAP1 DUP3 SWAP1 LOG4 POP POP JUMP JUMPDEST PUSH1 0x40 MLOAD DUP1 PUSH2 0x220 ADD PUSH1 0x40 MSTORE DUP1 PUSH1 0x11 SWAP1 JUMPDEST PUSH1 0x60 DUP2 MSTORE PUSH1 0x20 ADD SWAP1 PUSH1 0x1 SWAP1 SUB SWAP1 DUP2 PUSH2 0x2AE8 JUMPI SWAP1 POP POP SWAP1 JUMP JUMPDEST PUSH1 0x0 PUSH1 0x20 DUP3 DUP5 SUB SLT ISZERO PUSH2 0x2B12 JUMPI PUSH1 0x0 DUP1 REVERT JUMPDEST DUP2 CALLDATALOAD PUSH2 0x2B1D DUP2 PUSH2 0x32D9 JUMP JUMPDEST SWAP4 SWAP3 POP POP POP JUMP JUMPDEST PUSH1 0x0 PUSH1 0x20 DUP3 DUP5 SUB SLT ISZERO PUSH2 0x2B36 JUMPI PUSH1 0x0 DUP1 REVERT JUMPDEST DUP2 MLOAD PUSH2 0x2B1D DUP2 PUSH2 0x32D9 JUMP JUMPDEST PUSH1 0x0 DUP1 PUSH1 0x40 DUP4 DUP6 SUB SLT ISZERO PUSH2 0x2B54 JUMPI PUSH1 0x0 DUP1 REVERT JUMPDEST DUP3 CALLDATALOAD PUSH2 0x2B5F DUP2 PUSH2 0x32D9 JUMP JUMPDEST SWAP2 POP PUSH1 0x20 DUP4 ADD CALLDATALOAD PUSH2 0x2B6F DUP2 PUSH2 0x32D9 JUMP JUMPDEST DUP1 SWAP2 POP POP SWAP3 POP SWAP3 SWAP1 POP JUMP JUMPDEST PUSH1 0x0 DUP1 PUSH1 0x0 PUSH1 0x60 DUP5 DUP7 SUB SLT ISZERO PUSH2 0x2B8F JUMPI PUSH1 0x0 DUP1 REVERT JUMPDEST DUP4 CALLDATALOAD PUSH2 0x2B9A DUP2 PUSH2 0x32D9 JUMP JUMPDEST SWAP3 POP PUSH1 0x20 DUP5 ADD CALLDATALOAD PUSH2 0x2BAA DUP2 PUSH2 0x32D9 JUMP JUMPDEST SWAP3 SWAP6 SWAP3 SWAP5 POP POP POP PUSH1 0x40 SWAP2 SWAP1 SWAP2 ADD CALLDATALOAD SWAP1 JUMP JUMPDEST PUSH1 0x0 DUP1 PUSH1 0x0 DUP1 PUSH1 0x80 DUP6 DUP8 SUB SLT ISZERO PUSH2 0x2BD1 JUMPI PUSH1 0x0 DUP1 REVERT JUMPDEST DUP5 CALLDATALOAD PUSH2 0x2BDC DUP2 PUSH2 0x32D9 JUMP JUMPDEST SWAP4 POP PUSH1 0x20 DUP6 ADD CALLDATALOAD PUSH2 0x2BEC DUP2 PUSH2 0x32D9 JUMP JUMPDEST SWAP3 POP PUSH1 0x40 DUP6 ADD CALLDATALOAD SWAP2 POP PUSH1 0x60 DUP6 ADD CALLDATALOAD PUSH8 0xFFFFFFFFFFFFFFFF DUP1 DUP3 GT ISZERO PUSH2 0x2C10 JUMPI PUSH1 0x0 DUP1 REVERT JUMPDEST DUP2 DUP8 ADD SWAP2 POP DUP8 PUSH1 0x1F DUP4 ADD SLT PUSH2 0x2C24 JUMPI PUSH1 0x0 DUP1 REVERT JUMPDEST DUP2 CALLDATALOAD DUP2 DUP2 GT ISZERO PUSH2 0x2C36 JUMPI PUSH2 0x2C36 PUSH2 0x32C3 JUMP JUMPDEST PUSH1 0x40 MLOAD PUSH1 0x1F DUP3 ADD PUSH1 0x1F NOT SWAP1 DUP2 AND PUSH1 0x3F ADD AND DUP2 ADD SWAP1 DUP4 DUP3 GT DUP2 DUP4 LT OR ISZERO PUSH2 0x2C5E JUMPI PUSH2 0x2C5E PUSH2 0x32C3 JUMP JUMPDEST DUP2 PUSH1 0x40 MSTORE DUP3 DUP2 MSTORE DUP11 PUSH1 0x20 DUP5 DUP8 ADD ADD GT ISZERO PUSH2 0x2C77 JUMPI PUSH1 0x0 DUP1 REVERT JUMPDEST DUP3 PUSH1 0x20 DUP7 ADD PUSH1 0x20 DUP4 ADD CALLDATACOPY PUSH1 0x0 PUSH1 0x20 DUP5 DUP4 ADD ADD MSTORE DUP1 SWAP6 POP POP POP POP POP POP SWAP3 SWAP6 SWAP2 SWAP5 POP SWAP3 POP JUMP JUMPDEST PUSH1 0x0 DUP1 PUSH1 0x40 DUP4 DUP6 SUB SLT ISZERO PUSH2 0x2CAE JUMPI PUSH1 0x0 DUP1 REVERT JUMPDEST DUP3 CALLDATALOAD PUSH2 0x2CB9 DUP2 PUSH2 0x32D9 JUMP JUMPDEST SWAP2 POP PUSH1 0x20 DUP4 ADD CALLDATALOAD DUP1 ISZERO ISZERO DUP2 EQ PUSH2 0x2B6F JUMPI PUSH1 0x0 DUP1 REVERT JUMPDEST PUSH1 0x0 DUP1 PUSH1 0x40 DUP4 DUP6 SUB SLT ISZERO PUSH2 0x2CE1 JUMPI PUSH1 0x0 DUP1 REVERT JUMPDEST DUP3 CALLDATALOAD PUSH2 0x2CEC DUP2 PUSH2 0x32D9 JUMP JUMPDEST SWAP5 PUSH1 0x20 SWAP4 SWAP1 SWAP4 ADD CALLDATALOAD SWAP4 POP POP POP JUMP JUMPDEST PUSH1 0x0 PUSH1 0x20 DUP3 DUP5 SUB SLT ISZERO PUSH2 0x2D0C JUMPI PUSH1 0x0 DUP1 REVERT JUMPDEST DUP2 CALLDATALOAD PUSH2 0x2B1D DUP2 PUSH2 0x32EE JUMP JUMPDEST PUSH1 0x0 PUSH1 0x20 DUP3 DUP5 SUB SLT ISZERO PUSH2 0x2D29 JUMPI PUSH1 0x0 DUP1 REVERT JUMPDEST DUP2 MLOAD PUSH2 0x2B1D DUP2 PUSH2 0x32EE JUMP JUMPDEST PUSH1 0x0 PUSH1 0x20 DUP3 DUP5 SUB SLT ISZERO PUSH2 0x2D46 JUMPI PUSH1 0x0 DUP1 REVERT JUMPDEST POP CALLDATALOAD SWAP2 SWAP1 POP JUMP JUMPDEST PUSH1 0x0 PUSH1 0x20 DUP3 DUP5 SUB SLT ISZERO PUSH2 0x2D5F JUMPI PUSH1 0x0 DUP1 REVERT JUMPDEST POP MLOAD SWAP2 SWAP1 POP JUMP JUMPDEST PUSH1 0x0 DUP2 MLOAD DUP1 DUP5 MSTORE PUSH2 0x2D7E DUP2 PUSH1 0x20 DUP7 ADD PUSH1 0x20 DUP7 ADD PUSH2 0x31D5 JUMP JUMPDEST PUSH1 0x1F ADD PUSH1 0x1F NOT AND SWAP3 SWAP1 SWAP3 ADD PUSH1 0x20 ADD SWAP3 SWAP2 POP POP JUMP JUMPDEST PUSH1 0x0 DUP2 MLOAD PUSH2 0x2DA4 DUP2 DUP6 PUSH1 0x20 DUP7 ADD PUSH2 0x31D5 JUMP JUMPDEST SWAP3 SWAP1 SWAP3 ADD SWAP3 SWAP2 POP POP JUMP JUMPDEST PUSH1 0x0 DUP3 MLOAD PUSH2 0x2DC0 DUP2 DUP5 PUSH1 0x20 DUP8 ADD PUSH2 0x31D5 JUMP JUMPDEST SWAP2 SWAP1 SWAP2 ADD SWAP3 SWAP2 POP POP JUMP JUMPDEST PUSH1 0x0 DUP4 MLOAD PUSH2 0x2DDC DUP2 DUP5 PUSH1 0x20 DUP9 ADD PUSH2 0x31D5 JUMP JUMPDEST DUP4 MLOAD SWAP1 DUP4 ADD SWAP1 PUSH2 0x2DF0 DUP2 DUP4 PUSH1 0x20 DUP9 ADD PUSH2 0x31D5 JUMP JUMPDEST ADD SWAP5 SWAP4 POP POP POP POP JUMP JUMPDEST PUSH1 0x0 DUP11 MLOAD PUSH2 0x2E0B DUP2 DUP5 PUSH1 0x20 DUP16 ADD PUSH2 0x31D5 JUMP JUMPDEST DUP11 MLOAD SWAP1 DUP4 ADD SWAP1 PUSH2 0x2E1F DUP2 DUP4 PUSH1 0x20 DUP16 ADD PUSH2 0x31D5 JUMP JUMPDEST DUP11 MLOAD PUSH2 0x2E31 DUP2 DUP4 DUP6 ADD PUSH1 0x20 DUP16 ADD PUSH2 0x31D5 JUMP JUMPDEST DUP11 MLOAD SWAP3 SWAP1 SWAP2 ADD ADD SWAP1 PUSH2 0x2E47 DUP2 DUP4 PUSH1 0x20 DUP14 ADD PUSH2 0x31D5 JUMP JUMPDEST DUP9 MLOAD PUSH2 0x2E59 DUP2 DUP4 DUP6 ADD PUSH1 0x20 DUP14 ADD PUSH2 0x31D5 JUMP JUMPDEST DUP9 MLOAD SWAP3 SWAP1 SWAP2 ADD ADD SWAP1 PUSH2 0x2E6F DUP2 DUP4 PUSH1 0x20 DUP12 ADD PUSH2 0x31D5 JUMP JUMPDEST DUP7 MLOAD PUSH2 0x2E81 DUP2 DUP4 DUP6 ADD PUSH1 0x20 DUP12 ADD PUSH2 0x31D5 JUMP JUMPDEST DUP7 MLOAD SWAP3 SWAP1 SWAP2 ADD ADD SWAP1 PUSH2 0x2E97 DUP2 DUP4 PUSH1 0x20 DUP10 ADD PUSH2 0x31D5 JUMP JUMPDEST DUP5 MLOAD PUSH2 0x2EA9 DUP2 DUP4 DUP6 ADD PUSH1 0x20 DUP10 ADD PUSH2 0x31D5 JUMP JUMPDEST SWAP2 ADD ADD SWAP12 SWAP11 POP POP POP POP POP POP POP POP POP POP POP JUMP JUMPDEST PUSH32 0x7B226E616D65223A2022416E696D652043686172616374657220436861726163 DUP2 MSTORE PUSH32 0x7465726973746963732023000000000000000000000000000000000000000000 PUSH1 0x20 DUP3 ADD MSTORE PUSH1 0x0 DUP4 MLOAD PUSH2 0x2F19 DUP2 PUSH1 0x2B DUP6 ADD PUSH1 0x20 DUP9 ADD PUSH2 0x31D5 JUMP JUMPDEST PUSH32 0x222C20226465736372697074696F6E223A2022416E696D654C6F6F7443686172 PUSH1 0x2B SWAP2 DUP5 ADD SWAP2 DUP3 ADD MSTORE PUSH32 0x61637465726973746963732069732072616E646F6D697A656420616E696D6520 PUSH1 0x4B DUP3 ADD MSTORE PUSH32 0x63686172616374657273206368617261637465726973746963732067656E6572 PUSH1 0x6B DUP3 ADD MSTORE PUSH32 0x6174656420616E642073746F726564206F6E20636861696E2E204F7468657220 PUSH1 0x8B DUP3 ADD MSTORE PUSH32 0x6665617475726573206F66207468652063686172616374657273206172652069 PUSH1 0xAB DUP3 ADD MSTORE PUSH32 0x6E74656E74696F6E616C6C79206F6D697474656420666F72206F746865727320 PUSH1 0xCB DUP3 ADD MSTORE PUSH32 0x746F20696E746572707265742E204665656C206672656520746F207573652041 PUSH1 0xEB DUP3 ADD MSTORE PUSH32 0x6E696D654C6F6F7443686172616374657269737469637320696E20616E792077 PUSH2 0x10B DUP3 ADD MSTORE PUSH32 0x617920796F752077616E742E222C2022696D616765223A2022646174613A696D PUSH2 0x12B DUP3 ADD MSTORE PUSH32 0x6167652F7376672B786D6C3B6261736536342C00000000000000000000000000 PUSH2 0x14B DUP3 ADD MSTORE PUSH2 0x30D6 PUSH2 0x30AD PUSH2 0x15E DUP4 ADD DUP7 PUSH2 0x2D92 JUMP JUMPDEST PUSH32 0x227D000000000000000000000000000000000000000000000000000000000000 DUP2 MSTORE PUSH1 0x2 ADD SWAP1 JUMP JUMPDEST SWAP6 SWAP5 POP POP POP POP POP JUMP JUMPDEST PUSH32 0x646174613A6170706C69636174696F6E2F6A736F6E3B6261736536342C000000 DUP2 MSTORE PUSH1 0x0 DUP3 MLOAD PUSH2 0x3117 DUP2 PUSH1 0x1D DUP6 ADD PUSH1 0x20 DUP8 ADD PUSH2 0x31D5 JUMP JUMPDEST SWAP2 SWAP1 SWAP2 ADD PUSH1 0x1D ADD SWAP3 SWAP2 POP POP JUMP JUMPDEST PUSH1 0x0 PUSH1 0x1 PUSH1 0x1 PUSH1 0xA0 SHL SUB DUP1 DUP8 AND DUP4 MSTORE DUP1 DUP7 AND PUSH1 0x20 DUP5 ADD MSTORE POP DUP4 PUSH1 0x40 DUP4 ADD MSTORE PUSH1 0x80 PUSH1 0x60 DUP4 ADD MSTORE PUSH2 0x3156 PUSH1 0x80 DUP4 ADD DUP5 PUSH2 0x2D66 JUMP JUMPDEST SWAP7 SWAP6 POP POP POP POP POP POP JUMP JUMPDEST PUSH1 0x20 DUP2 MSTORE PUSH1 0x0 PUSH2 0x2B1D PUSH1 0x20 DUP4 ADD DUP5 PUSH2 0x2D66 JUMP JUMPDEST PUSH1 0x0 DUP3 NOT DUP3 GT ISZERO PUSH2 0x3186 JUMPI PUSH2 0x3186 PUSH2 0x326B JUMP JUMPDEST POP ADD SWAP1 JUMP JUMPDEST PUSH1 0x0 DUP3 PUSH2 0x319A JUMPI PUSH2 0x319A PUSH2 0x3281 JUMP JUMPDEST POP DIV SWAP1 JUMP JUMPDEST PUSH1 0x0 DUP2 PUSH1 0x0 NOT DIV DUP4 GT DUP3 ISZERO ISZERO AND ISZERO PUSH2 0x31B9 JUMPI PUSH2 0x31B9 PUSH2 0x326B JUMP JUMPDEST POP MUL SWAP1 JUMP JUMPDEST PUSH1 0x0 DUP3 DUP3 LT ISZERO PUSH2 0x31D0 JUMPI PUSH2 0x31D0 PUSH2 0x326B JUMP JUMPDEST POP SUB SWAP1 JUMP JUMPDEST PUSH1 0x0 JUMPDEST DUP4 DUP2 LT ISZERO PUSH2 0x31F0 JUMPI DUP2 DUP2 ADD MLOAD DUP4 DUP3 ADD MSTORE PUSH1 0x20 ADD PUSH2 0x31D8 JUMP JUMPDEST DUP4 DUP2 GT ISZERO PUSH2 0x1352 JUMPI POP POP PUSH1 0x0 SWAP2 ADD MSTORE JUMP JUMPDEST PUSH1 0x1 DUP2 DUP2 SHR SWAP1 DUP3 AND DUP1 PUSH2 0x3215 JUMPI PUSH1 0x7F DUP3 AND SWAP2 POP JUMPDEST PUSH1 0x20 DUP3 LT DUP2 EQ ISZERO PUSH2 0x3236 JUMPI PUSH4 0x4E487B71 PUSH1 0xE0 SHL PUSH1 0x0 MSTORE PUSH1 0x22 PUSH1 0x4 MSTORE PUSH1 0x24 PUSH1 0x0 REVERT JUMPDEST POP SWAP2 SWAP1 POP JUMP JUMPDEST PUSH1 0x0 PUSH1 0x0 NOT DUP3 EQ ISZERO PUSH2 0x3250 JUMPI PUSH2 0x3250 PUSH2 0x326B JUMP JUMPDEST POP PUSH1 0x1 ADD SWAP1 JUMP JUMPDEST PUSH1 0x0 DUP3 PUSH2 0x3266 JUMPI PUSH2 0x3266 PUSH2 0x3281 JUMP JUMPDEST POP MOD SWAP1 JUMP JUMPDEST PUSH4 0x4E487B71 PUSH1 0xE0 SHL PUSH1 0x0 MSTORE PUSH1 0x11 PUSH1 0x4 MSTORE PUSH1 0x24 PUSH1 0x0 REVERT JUMPDEST PUSH4 0x4E487B71 PUSH1 0xE0 SHL PUSH1 0x0 MSTORE PUSH1 0x12 PUSH1 0x4 MSTORE PUSH1 0x24 PUSH1 0x0 REVERT JUMPDEST PUSH4 0x4E487B71 PUSH1 0xE0 SHL PUSH1 0x0 MSTORE PUSH1 0x31 PUSH1 0x4 MSTORE PUSH1 0x24 PUSH1 0x0 REVERT JUMPDEST PUSH4 0x4E487B71 PUSH1 0xE0 SHL PUSH1 0x0 MSTORE PUSH1 0x32 PUSH1 0x4 MSTORE PUSH1 0x24 PUSH1 0x0 REVERT JUMPDEST PUSH4 0x4E487B71 PUSH1 0xE0 SHL PUSH1 0x0 MSTORE PUSH1 0x41 PUSH1 0x4 MSTORE PUSH1 0x24 PUSH1 0x0 REVERT JUMPDEST PUSH1 0x1 PUSH1 0x1 PUSH1 0xA0 SHL SUB DUP2 AND DUP2 EQ PUSH2 0x1BA4 JUMPI PUSH1 0x0 DUP1 REVERT JUMPDEST PUSH1 0x1 PUSH1 0x1 PUSH1 0xE0 SHL SUB NOT DUP2 AND DUP2 EQ PUSH2 0x1BA4 JUMPI PUSH1 0x0 DUP1 REVERT INVALID EXTCODECOPY PUSH20 0x766720786D6C6E733D22687474703A2F2F777777 0x2E PUSH24 0x332E6F72672F323030302F73766722207072657365727665 COINBASE PUSH20 0x70656374526174696F3D22784D696E594D696E20 PUSH14 0x656574222076696577426F783D22 ADDRESS KECCAK256 ADDRESS KECCAK256 CALLER CALLDATALOAD ADDRESS KECCAK256 CALLER CALLDATALOAD ADDRESS 0x22 RETURNDATACOPY EXTCODECOPY PUSH20 0x74796C653E2E62617365207B2066696C6C3A2023 ADDRESS ADDRESS ADDRESS ADDRESS ADDRESS ADDRESS EXTCODESIZE KECCAK256 PUSH7 0x6F6E742D66616D PUSH10 0x6C793A2073657269663B KECCAK256 PUSH7 0x6F6E742D73697A PUSH6 0x3A2031347078 EXTCODESIZE KECCAK256 PUSH30 0x3C2F7374796C653E3C726563742077696474683D22313030252220686569 PUSH8 0x68743D2231303025 0x22 KECCAK256 PUSH7 0x696C6C3D222346 CHAINID CHAINID BALANCE ADDRESS ADDRESS 0x22 KECCAK256 0x2F RETURNDATACOPY EXTCODECOPY PUSH21 0x65787420783D2231302220793D2232302220636C61 PUSH20 0x733D2262617365223E3C2F746578743E3C746578 PUSH21 0x20783D2231302220793D2236302220636C6173733D 0x22 PUSH3 0x617365 0x22 RETURNDATACOPY EXTCODECOPY 0x2F PUSH21 0x6578743E3C7465787420783D2231302220793D2231 CALLDATASIZE ADDRESS 0x22 KECCAK256 PUSH4 0x6C617373 RETURNDATASIZE 0x22 PUSH3 0x617365 0x22 RETURNDATACOPY EXTCODECOPY 0x2F PUSH21 0x6578743E3C7465787420783D2231302220793D2231 ORIGIN ADDRESS 0x22 KECCAK256 PUSH4 0x6C617373 RETURNDATASIZE 0x22 PUSH3 0x617365 0x22 RETURNDATACOPY EXTCODECOPY 0x2F PUSH21 0x6578743E3C7465787420783D2231302220793D2238 ADDRESS 0x22 KECCAK256 PUSH4 0x6C617373 RETURNDATASIZE 0x22 PUSH3 0x617365 0x22 RETURNDATACOPY EXTCODECOPY 0x2F PUSH21 0x6578743E3C7465787420783D2231302220793D2231 ADDRESS ADDRESS 0x22 KECCAK256 PUSH4 0x6C617373 RETURNDATASIZE 0x22 PUSH3 0x617365 0x22 RETURNDATACOPY EXTCODECOPY 0x2F PUSH21 0x6578743E3C7465787420783D2231302220793D2231 CALLVALUE ADDRESS 0x22 KECCAK256 PUSH4 0x6C617373 RETURNDATASIZE 0x22 PUSH3 0x617365 0x22 RETURNDATACOPY COINBASE TIMESTAMP NUMBER DIFFICULTY GASLIMIT CHAINID SELFBALANCE BASEFEE 0x49 0x4A 0x4B 0x4C 0x4D 0x4E 0x4F POP MLOAD MSTORE MSTORE8 SLOAD SSTORE JUMP JUMPI PC MSIZE GAS PUSH2 0x6263 PUSH5 0x6566676869 PUSH11 0x6B6C6D6E6F707172737475 PUSH23 0x7778797A303132333435363738392B2F3C2F746578743E EXTCODECOPY PUSH21 0x65787420783D2231302220793D2234302220636C61 PUSH20 0x733D2262617365223EA264697066735822122061 0xE DUP13 LOG0 PUSH19 0x1E2BFCBBE1395F177ACB2BCC52A6AB05DED033 0xF8 SELFBALANCE SSTORE 0xF 0xD2 SAR 0xC5 0xD8 PUSH5 0x736F6C6343 STOP ADDMOD SMOD STOP CALLER "
		},
		"gasEstimates": {
			"creation": {
				"codeDepositCost": "2743800",
				"executionCost": "infinite",
				"totalCost": "infinite"
			},
			"external": {
				"_targetContract()": "2404",
				"approve(address,uint256)": "infinite",
				"balanceOf(address)": "2672",
				"changeTargetContract(address)": "28353",
				"claim(uint256)": "infinite",
				"claimAll()": "infinite",
				"getAppearanceFeature(uint256)": "infinite",
				"getApproved(uint256)": "4783",
				"getBodyShape(uint256)": "infinite",
				"getFacialFeature(uint256)": "infinite",
				"getHeight(uint256)": "infinite",
				"getImpressiveColor(uint256)": "infinite",
				"getStrengthOfRace(uint256)": "infinite",
				"getTargetContract()": "2421",
				"isApprovedForAll(address,address)": "infinite",
				"name()": "infinite",
				"owner()": "2443",
				"ownerClaim(uint256)": "infinite",
				"ownerOf(uint256)": "2617",
				"renounceOwnership()": "28228",
				"safeTransferFrom(address,address,uint256)": "infinite",
				"safeTransferFrom(address,address,uint256,bytes)": "infinite",
				"setApprovalForAll(address,bool)": "26711",
				"supportsInterface(bytes4)": "infinite",
				"symbol()": "infinite",
				"tokenByIndex(uint256)": "6760",
				"tokenOfOwnerByIndex(address,uint256)": "5036",
				"tokenURI(uint256)": "infinite",
				"totalSupply()": "2349",
				"transferFrom(address,address,uint256)": "infinite",
				"transferOwnership(address)": "infinite"
			},
			"internal": {
				"pluck(uint256,string memory,string memory[] memory)": "infinite",
				"random(string memory)": "infinite",
				"toString(uint256)": "infinite"
			}
		},
		"methodIdentifiers": {
			"_targetContract()": "99f43aba",
			"approve(address,uint256)": "095ea7b3",
			"balanceOf(address)": "70a08231",
			"changeTargetContract(address)": "ab86de6c",
			"claim(uint256)": "379607f5",
			"claimAll()": "d1058e59",
			"getAppearanceFeature(uint256)": "c07b1978",
			"getApproved(uint256)": "081812fc",
			"getBodyShape(uint256)": "d17c9b21",
			"getFacialFeature(uint256)": "3886da94",
			"getHeight(uint256)": "fdc3a9cc",
			"getImpressiveColor(uint256)": "77aefadd",
			"getStrengthOfRace(uint256)": "761c6cc4",
			"getTargetContract()": "7a8639ed",
			"isApprovedForAll(address,address)": "e985e9c5",
			"name()": "06fdde03",
			"owner()": "8da5cb5b",
			"ownerClaim(uint256)": "434f48c4",
			"ownerOf(uint256)": "6352211e",
			"renounceOwnership()": "715018a6",
			"safeTransferFrom(address,address,uint256)": "42842e0e",
			"safeTransferFrom(address,address,uint256,bytes)": "b88d4fde",
			"setApprovalForAll(address,bool)": "a22cb465",
			"supportsInterface(bytes4)": "01ffc9a7",
			"symbol()": "95d89b41",
			"tokenByIndex(uint256)": "4f6ccce7",
			"tokenOfOwnerByIndex(address,uint256)": "2f745c59",
			"tokenURI(uint256)": "c87b56dd",
			"totalSupply()": "18160ddd",
			"transferFrom(address,address,uint256)": "23b872dd",
			"transferOwnership(address)": "f2fde38b"
		}
	},
	"abi": [
		{
			"inputs": [
				{
					"internalType": "address",
					"name": "targetContract_",
					"type": "address"
				}
			],
			"stateMutability": "nonpayable",
			"type": "constructor"
		},
		{
			"anonymous": false,
			"inputs": [
				{
					"indexed": true,
					"internalType": "address",
					"name": "owner",
					"type": "address"
				},
				{
					"indexed": true,
					"internalType": "address",
					"name": "approved",
					"type": "address"
				},
				{
					"indexed": true,
					"internalType": "uint256",
					"name": "tokenId",
					"type": "uint256"
				}
			],
			"name": "Approval",
			"type": "event"
		},
		{
			"anonymous": false,
			"inputs": [
				{
					"indexed": true,
					"internalType": "address",
					"name": "owner",
					"type": "address"
				},
				{
					"indexed": true,
					"internalType": "address",
					"name": "operator",
					"type": "address"
				},
				{
					"indexed": false,
					"internalType": "bool",
					"name": "approved",
					"type": "bool"
				}
			],
			"name": "ApprovalForAll",
			"type": "event"
		},
		{
			"anonymous": false,
			"inputs": [
				{
					"indexed": true,
					"internalType": "address",
					"name": "previousOwner",
					"type": "address"
				},
				{
					"indexed": true,
					"internalType": "address",
					"name": "newOwner",
					"type": "address"
				}
			],
			"name": "OwnershipTransferred",
			"type": "event"
		},
		{
			"anonymous": false,
			"inputs": [
				{
					"indexed": true,
					"internalType": "address",
					"name": "previousContract",
					"type": "address"
				},
				{
					"indexed": true,
					"internalType": "address",
					"name": "newContract",
					"type": "address"
				}
			],
			"name": "TargetContractTransferred",
			"type": "event"
		},
		{
			"anonymous": false,
			"inputs": [
				{
					"indexed": true,
					"internalType": "address",
					"name": "from",
					"type": "address"
				},
				{
					"indexed": true,
					"internalType": "address",
					"name": "to",
					"type": "address"
				},
				{
					"indexed": true,
					"internalType": "uint256",
					"name": "tokenId",
					"type": "uint256"
				}
			],
			"name": "Transfer",
			"type": "event"
		},
		{
			"inputs": [],
			"name": "_targetContract",
			"outputs": [
				{
					"internalType": "contract IERC721Enumerable",
					"name": "",
					"type": "address"
				}
			],
			"stateMutability": "view",
			"type": "function"
		},
		{
			"inputs": [
				{
					"internalType": "address",
					"name": "to",
					"type": "address"
				},
				{
					"internalType": "uint256",
					"name": "tokenId",
					"type": "uint256"
				}
			],
			"name": "approve",
			"outputs": [],
			"stateMutability": "nonpayable",
			"type": "function"
		},
		{
			"inputs": [
				{
					"internalType": "address",
					"name": "owner",
					"type": "address"
				}
			],
			"name": "balanceOf",
			"outputs": [
				{
					"internalType": "uint256",
					"name": "",
					"type": "uint256"
				}
			],
			"stateMutability": "view",
			"type": "function"
		},
		{
			"inputs": [
				{
					"internalType": "address",
					"name": "newTargetContract",
					"type": "address"
				}
			],
			"name": "changeTargetContract",
			"outputs": [],
			"stateMutability": "nonpayable",
			"type": "function"
		},
		{
			"inputs": [
				{
					"internalType": "uint256",
					"name": "tokenId",
					"type": "uint256"
				}
			],
			"name": "claim",
			"outputs": [],
			"stateMutability": "nonpayable",
			"type": "function"
		},
		{
			"inputs": [],
			"name": "claimAll",
			"outputs": [],
			"stateMutability": "nonpayable",
			"type": "function"
		},
		{
			"inputs": [
				{
					"internalType": "uint256",
					"name": "tokenId",
					"type": "uint256"
				}
			],
			"name": "getAppearanceFeature",
			"outputs": [
				{
					"internalType": "string",
					"name": "",
					"type": "string"
				}
			],
			"stateMutability": "view",
			"type": "function"
		},
		{
			"inputs": [
				{
					"internalType": "uint256",
					"name": "tokenId",
					"type": "uint256"
				}
			],
			"name": "getApproved",
			"outputs": [
				{
					"internalType": "address",
					"name": "",
					"type": "address"
				}
			],
			"stateMutability": "view",
			"type": "function"
		},
		{
			"inputs": [
				{
					"internalType": "uint256",
					"name": "tokenId",
					"type": "uint256"
				}
			],
			"name": "getBodyShape",
			"outputs": [
				{
					"internalType": "string",
					"name": "",
					"type": "string"
				}
			],
			"stateMutability": "view",
			"type": "function"
		},
		{
			"inputs": [
				{
					"internalType": "uint256",
					"name": "tokenId",
					"type": "uint256"
				}
			],
			"name": "getFacialFeature",
			"outputs": [
				{
					"internalType": "string",
					"name": "",
					"type": "string"
				}
			],
			"stateMutability": "view",
			"type": "function"
		},
		{
			"inputs": [
				{
					"internalType": "uint256",
					"name": "tokenId",
					"type": "uint256"
				}
			],
			"name": "getHeight",
			"outputs": [
				{
					"internalType": "string",
					"name": "",
					"type": "string"
				}
			],
			"stateMutability": "view",
			"type": "function"
		},
		{
			"inputs": [
				{
					"internalType": "uint256",
					"name": "tokenId",
					"type": "uint256"
				}
			],
			"name": "getImpressiveColor",
			"outputs": [
				{
					"internalType": "string",
					"name": "",
					"type": "string"
				}
			],
			"stateMutability": "view",
			"type": "function"
		},
		{
			"inputs": [
				{
					"internalType": "uint256",
					"name": "tokenId",
					"type": "uint256"
				}
			],
			"name": "getStrengthOfRace",
			"outputs": [
				{
					"internalType": "string",
					"name": "",
					"type": "string"
				}
			],
			"stateMutability": "view",
			"type": "function"
		},
		{
			"inputs": [],
			"name": "getTargetContract",
			"outputs": [
				{
					"internalType": "address",
					"name": "",
					"type": "address"
				}
			],
			"stateMutability": "view",
			"type": "function"
		},
		{
			"inputs": [
				{
					"internalType": "address",
					"name": "owner",
					"type": "address"
				},
				{
					"internalType": "address",
					"name": "operator",
					"type": "address"
				}
			],
			"name": "isApprovedForAll",
			"outputs": [
				{
					"internalType": "bool",
					"name": "",
					"type": "bool"
				}
			],
			"stateMutability": "view",
			"type": "function"
		},
		{
			"inputs": [],
			"name": "name",
			"outputs": [
				{
					"internalType": "string",
					"name": "",
					"type": "string"
				}
			],
			"stateMutability": "view",
			"type": "function"
		},
		{
			"inputs": [],
			"name": "owner",
			"outputs": [
				{
					"internalType": "address",
					"name": "",
					"type": "address"
				}
			],
			"stateMutability": "view",
			"type": "function"
		},
		{
			"inputs": [
				{
					"internalType": "uint256",
					"name": "tokenId",
					"type": "uint256"
				}
			],
			"name": "ownerClaim",
			"outputs": [],
			"stateMutability": "nonpayable",
			"type": "function"
		},
		{
			"inputs": [
				{
					"internalType": "uint256",
					"name": "tokenId",
					"type": "uint256"
				}
			],
			"name": "ownerOf",
			"outputs": [
				{
					"internalType": "address",
					"name": "",
					"type": "address"
				}
			],
			"stateMutability": "view",
			"type": "function"
		},
		{
			"inputs": [],
			"name": "renounceOwnership",
			"outputs": [],
			"stateMutability": "nonpayable",
			"type": "function"
		},
		{
			"inputs": [
				{
					"internalType": "address",
					"name": "from",
					"type": "address"
				},
				{
					"internalType": "address",
					"name": "to",
					"type": "address"
				},
				{
					"internalType": "uint256",
					"name": "tokenId",
					"type": "uint256"
				}
			],
			"name": "safeTransferFrom",
			"outputs": [],
			"stateMutability": "nonpayable",
			"type": "function"
		},
		{
			"inputs": [
				{
					"internalType": "address",
					"name": "from",
					"type": "address"
				},
				{
					"internalType": "address",
					"name": "to",
					"type": "address"
				},
				{
					"internalType": "uint256",
					"name": "tokenId",
					"type": "uint256"
				},
				{
					"internalType": "bytes",
					"name": "_data",
					"type": "bytes"
				}
			],
			"name": "safeTransferFrom",
			"outputs": [],
			"stateMutability": "nonpayable",
			"type": "function"
		},
		{
			"inputs": [
				{
					"internalType": "address",
					"name": "operator",
					"type": "address"
				},
				{
					"internalType": "bool",
					"name": "approved",
					"type": "bool"
				}
			],
			"name": "setApprovalForAll",
			"outputs": [],
			"stateMutability": "nonpayable",
			"type": "function"
		},
		{
			"inputs": [
				{
					"internalType": "bytes4",
					"name": "interfaceId",
					"type": "bytes4"
				}
			],
			"name": "supportsInterface",
			"outputs": [
				{
					"internalType": "bool",
					"name": "",
					"type": "bool"
				}
			],
			"stateMutability": "view",
			"type": "function"
		},
		{
			"inputs": [],
			"name": "symbol",
			"outputs": [
				{
					"internalType": "string",
					"name": "",
					"type": "string"
				}
			],
			"stateMutability": "view",
			"type": "function"
		},
		{
			"inputs": [
				{
					"internalType": "uint256",
					"name": "index",
					"type": "uint256"
				}
			],
			"name": "tokenByIndex",
			"outputs": [
				{
					"internalType": "uint256",
					"name": "",
					"type": "uint256"
				}
			],
			"stateMutability": "view",
			"type": "function"
		},
		{
			"inputs": [
				{
					"internalType": "address",
					"name": "owner",
					"type": "address"
				},
				{
					"internalType": "uint256",
					"name": "index",
					"type": "uint256"
				}
			],
			"name": "tokenOfOwnerByIndex",
			"outputs": [
				{
					"internalType": "uint256",
					"name": "",
					"type": "uint256"
				}
			],
			"stateMutability": "view",
			"type": "function"
		},
		{
			"inputs": [
				{
					"internalType": "uint256",
					"name": "tokenId",
					"type": "uint256"
				}
			],
			"name": "tokenURI",
			"outputs": [
				{
					"internalType": "string",
					"name": "",
					"type": "string"
				}
			],
			"stateMutability": "view",
			"type": "function"
		},
		{
			"inputs": [],
			"name": "totalSupply",
			"outputs": [
				{
					"internalType": "uint256",
					"name": "",
					"type": "uint256"
				}
			],
			"stateMutability": "view",
			"type": "function"
		},
		{
			"inputs": [
				{
					"internalType": "address",
					"name": "from",
					"type": "address"
				},
				{
					"internalType": "address",
					"name": "to",
					"type": "address"
				},
				{
					"internalType": "uint256",
					"name": "tokenId",
					"type": "uint256"
				}
			],
			"name": "transferFrom",
			"outputs": [],
			"stateMutability": "nonpayable",
			"type": "function"
		},
		{
			"inputs": [
				{
					"internalType": "address",
					"name": "newOwner",
					"type": "address"
				}
			],
			"name": "transferOwnership",
			"outputs": [],
			"stateMutability": "nonpayable",
			"type": "function"
		}
	]
}