{
	"data": {
		"bytecode": {
			"linkReferences": {},
			"object": "60096101809081526815995c9e481d185b1b60ba1b6101a052608090815260046101c08181526315185b1b60e21b6101e081905260a0919091526102009182526102205260c0526006610240818152654d656469756d60d01b61026081905260e0919091526102809182526102a0526101005260056102c08181526414da1bdc9d60da1b6102e0819052610120919091526103009182526103205261014052610380604052600a6103409081526915995c9e481cda1bdc9d60b21b6103605261016052620000d290600d9060086200084a565b506040518060a00160405280604051806040016040528060068152602001655374726f6e6760d01b8152508152602001604051806040016040528060058152602001640506c756d760dc1b815250815260200160405180604001604052806006815260200165139bdc9b585b60d21b815250815260200160405180604001604052806006815260200165139bdc9b585b60d21b81525081526020016040518060400160405280600781526020016629b632b73232b960c91b815250815250600e906005620001a2929190620008ae565b50604051806101000160405280604051806040016040528060048152602001635075726560e01b8152508152602001604051806040016040528060048152602001635075726560e01b8152508152602001604051806040016040528060048152602001635075726560e01b8152508152602001604051806040016040528060048152602001632430b63360e11b8152508152602001604051806040016040528060048152602001632430b63360e11b81525081526020016040518060400160405280600781526020016628bab0b93a32b960c91b81525081526020016040518060400160405280600781526020016628bab0b93a32b960c91b81525081526020016040518060400160405280600a81526020016909edcca5acad2ced0e8d60b31b815250815250600f906008620002db9291906200084a565b506040518061014001604052806040518060400160405280600381526020016214995960ea1b81525081526020016040518060400160405280600681526020016559656c6c6f7760d01b81525081526020016040518060400160405280600581526020016423b932b2b760d91b815250815260200160405180604001604052806004815260200163426c756560e01b815250815260200160405180604001604052806006815260200165507572706c6560d01b815250815260200160405180604001604052806005815260200164576869746560d81b815250815260200160405180604001604052806005815260200164426c61636b60d81b815250815260200160405180604001604052806006815260200165507572706c6560d01b81525081526020016040518060400160405280600481526020016311dbdb1960e21b81525081526020016040518060400160405280600681526020016529b4b63b32b960d11b815250815250601090600a6200045692919062000900565b50604080516101a081018252600461016082018181526354696e7960e01b610180840152825282518084018452600681526550726574747960d01b6020828101919091528084019190915283518085018552600981526842616279206661636560b81b818301528385015283518085018552600a808252694174747261637469766560b01b8284015260608501919091528451808601865260078082526611d85b1b185b9d60ca1b82850152608086019190915285518087018752938452631399585d60e21b8484015260a08501939093528451808601865290815269105cdd1c9a5b99d95b9d60b21b8183015260c084015283518085018552600581526444616e647960d81b8183015260e084015283518085018552600c81526b53636172206f6e206661636560a01b8183015261010084015283518085018552600e81526d53636172206f6e20746174746f6f60901b818301526101208401528351808501909452908352664f6e652065796560c81b90830152610140810191909152620005e590601190600b62000952565b506040805161014081018252600b61010082019081526a436c65616e6c696e65737360a81b6101208301528152815180830183526009808252682330b4b91039b5b4b760b91b6020838101919091528084019290925283518085018552908152682230b9359039b5b4b760b91b818301528284015282518084018452600a815269496e76616c696469736d60b01b818301526060830152825180840184526007808252664865616c74687960c81b828401526080840191909152835180850185526006815265084def2d2e6d60d31b8184015260a0840152835180850185528181526613995d5d1c985b60ca1b8184015260c0840152835180850190945283526608ed2e4d8d2e6d60cb1b9083015260e08101919091526200070c9060129060086200084a565b503480156200071a57600080fd5b5060405162003da438038062003da48339810160408190526200073d9162000aa9565b60408051808201825260208082527f416e696d654c6f6f74506879736963616c4368617261637465726973746963738183018181528451808601909552828552918401528151849391620007959160009190620009a4565b508051620007ab906001906020840190620009a4565b505050620007c8620007c2620007f460201b60201c565b620007f8565b600b80546001600160a01b0319166001600160a01b0392909216919091179055506001600c5562000b18565b3390565b600a80546001600160a01b038381166001600160a01b0319831681179093556040519116919082907f8be0079c531659141344cd1fd0a4f28419497f9722a3daafe3b4186f6b6457e090600090a35050565b8280548282559060005260206000209081019282156200089c579160200282015b828111156200089c57825180516200088b918491602090910190620009a4565b50916020019190600101906200086b565b50620008aa92915062000a2f565b5090565b8280548282559060005260206000209081019282156200089c579160200282015b828111156200089c5782518051620008ef918491602090910190620009a4565b5091602001919060010190620008cf565b8280548282559060005260206000209081019282156200089c579160200282015b828111156200089c578251805162000941918491602090910190620009a4565b509160200191906001019062000921565b8280548282559060005260206000209081019282156200089c579160200282015b828111156200089c578251805162000993918491602090910190620009a4565b509160200191906001019062000973565b828054620009b29062000adb565b90600052602060002090601f016020900481019282620009d6576000855562000a21565b82601f10620009f157805160ff191683800117855562000a21565b8280016001018555821562000a21579182015b8281111562000a2157825182559160200191906001019062000a04565b50620008aa92915062000a50565b80821115620008aa57600062000a46828262000a67565b5060010162000a2f565b5b80821115620008aa576000815560010162000a51565b50805462000a759062000adb565b6000825580601f1062000a86575050565b601f01602090049060005260206000209081019062000aa6919062000a50565b50565b60006020828403121562000abc57600080fd5b81516001600160a01b038116811462000ad457600080fd5b9392505050565b600181811c9082168062000af057607f821691505b6020821081141562000b1257634e487b7160e01b600052602260045260246000fd5b50919050565b61327c8062000b286000396000f3fe608060405234801561001057600080fd5b50600436106101da5760003560e01c8063761c6cc411610104578063ab86de6c116100a2578063d17c9b2111610071578063d17c9b21146103e3578063e985e9c5146103f6578063f2fde38b14610432578063fdc3a9cc1461044557600080fd5b8063ab86de6c14610397578063b88d4fde146103aa578063c07b1978146103bd578063c87b56dd146103d057600080fd5b80638da5cb5b116100de5780638da5cb5b1461035857806395d89b411461036957806399f43aba14610371578063a22cb4651461038457600080fd5b8063761c6cc41461032157806377aefadd146103345780637a8639ed1461034757600080fd5b8063379607f51161017c5780634f6ccce71161014b5780634f6ccce7146102e05780636352211e146102f357806370a0823114610306578063715018a61461031957600080fd5b8063379607f5146102945780633886da94146102a757806342842e0e146102ba578063434f48c4146102cd57600080fd5b8063095ea7b3116101b8578063095ea7b31461024757806318160ddd1461025c57806323b872dd1461026e5780632f745c591461028157600080fd5b806301ffc9a7146101df57806306fdde0314610207578063081812fc1461021c575b600080fd5b6101f26101ed3660046129f9565b610458565b60405190151581526020015b60405180910390f35b61020f61049c565b6040516101fe9190612e45565b61022f61022a366004612a33565b61052e565b6040516001600160a01b0390911681526020016101fe565b61025a6102553660046129cd565b6105c8565b005b6008545b6040519081526020016101fe565b61025a61027c366004612879565b6106fa565b61026061028f3660046129cd565b610781565b61025a6102a2366004612a33565b610829565b61020f6102b5366004612a33565b610a08565b61025a6102c8366004612879565b610b1b565b61025a6102db366004612a33565b610b36565b6102606102ee366004612a33565b610c69565b61022f610301366004612a33565b610d0d565b6102606103143660046127ff565b610d98565b61025a610e32565b61020f61032f366004612a33565b610e98565b61020f610342366004612a33565b610fa2565b600b546001600160a01b031661022f565b600a546001600160a01b031661022f565b61020f6110ac565b600b5461022f906001600160a01b031681565b61025a61039236600461299a565b6110bb565b61025a6103a53660046127ff565b611180565b61025a6103b83660046128ba565b61122c565b61020f6103cb366004612a33565b6112ba565b61020f6103de366004612a33565b6113c4565b61020f6103f1366004612a33565b6116b6565b6101f2610404366004612840565b6001600160a01b03918216600090815260056020908152604080832093909416825291909152205460ff1690565b61025a6104403660046127ff565b6117c0565b61020f610453366004612a33565b6118a2565b60006001600160e01b031982167f780e9d630000000000000000000000000000000000000000000000000000000014806104965750610496826119ac565b92915050565b6060600080546104ab90612ee6565b80601f01602080910402602001604051908101604052809291908181526020018280546104d790612ee6565b80156105245780601f106104f957610100808354040283529160200191610524565b820191906000526020600020905b81548152906001019060200180831161050757829003601f168201915b5050505050905090565b6000818152600260205260408120546001600160a01b03166105ac5760405162461bcd60e51b815260206004820152602c60248201527f4552433732313a20617070726f76656420717565727920666f72206e6f6e657860448201526b34b9ba32b73a103a37b5b2b760a11b60648201526084015b60405180910390fd5b506000908152600460205260409020546001600160a01b031690565b60006105d382610d0d565b9050806001600160a01b0316836001600160a01b0316141561065d5760405162461bcd60e51b815260206004820152602160248201527f4552433732313a20617070726f76616c20746f2063757272656e74206f776e6560448201527f720000000000000000000000000000000000000000000000000000000000000060648201526084016105a3565b336001600160a01b038216148061067957506106798133610404565b6106eb5760405162461bcd60e51b815260206004820152603860248201527f4552433732313a20617070726f76652063616c6c6572206973206e6f74206f7760448201527f6e6572206e6f7220617070726f76656420666f7220616c6c000000000000000060648201526084016105a3565b6106f58383611a47565b505050565b6107043382611ab5565b6107765760405162461bcd60e51b815260206004820152603160248201527f4552433732313a207472616e736665722063616c6c6572206973206e6f74206f60448201527f776e6572206e6f7220617070726f76656400000000000000000000000000000060648201526084016105a3565b6106f5838383611bac565b600061078c83610d98565b82106108005760405162461bcd60e51b815260206004820152602b60248201527f455243373231456e756d657261626c653a206f776e657220696e646578206f7560448201527f74206f6620626f756e647300000000000000000000000000000000000000000060648201526084016105a3565b506001600160a01b03919091166000908152600660209081526040808320938352929052205490565b6002600c54141561087c5760405162461bcd60e51b815260206004820152601f60248201527f5265656e7472616e637947756172643a207265656e7472616e742063616c6c0060448201526064016105a3565b6002600c558033600b546040517f6352211e000000000000000000000000000000000000000000000000000000008152600481018490526001600160a01b039283169290911690636352211e9060240160206040518083038186803b1580156108e457600080fd5b505afa1580156108f8573d6000803e3d6000fd5b505050506040513d601f19601f8201168201806040525081019061091c9190612823565b6001600160a01b0316146109985760405162461bcd60e51b815260206004820152602260248201527f486f6c6461626c653a2063616c6c6572206973206e6f742074686520686f6c6460448201527f657200000000000000000000000000000000000000000000000000000000000060648201526084016105a3565b6000821180156109a95750611e6282105b6109f55760405162461bcd60e51b815260206004820152601060248201527f546f6b656e20494420696e76616c69640000000000000000000000000000000060448201526064016105a3565b6109ff3383611d84565b50506001600c55565b6060610496826040518060400160405280600d81526020017f46414349414c46454154555245000000000000000000000000000000000000008152506011805480602002602001604051908101604052809291908181526020016000905b82821015610b12578382906000526020600020018054610a8590612ee6565b80601f0160208091040260200160405190810160405280929190818152602001828054610ab190612ee6565b8015610afe5780601f10610ad357610100808354040283529160200191610afe565b820191906000526020600020905b815481529060010190602001808311610ae157829003601f168201915b505050505081526020019060010190610a66565b50505050611da2565b6106f58383836040518060200160405280600081525061122c565b6002600c541415610b895760405162461bcd60e51b815260206004820152601f60248201527f5265656e7472616e637947756172643a207265656e7472616e742063616c6c0060448201526064016105a3565b6002600c55600a546001600160a01b03163314610be85760405162461bcd60e51b815260206004820181905260248201527f4f776e61626c653a2063616c6c6572206973206e6f7420746865206f776e657260448201526064016105a3565b611e6181118015610bfa5750611f4181105b610c465760405162461bcd60e51b815260206004820152601060248201527f546f6b656e20494420696e76616c69640000000000000000000000000000000060448201526064016105a3565b610c61610c5b600a546001600160a01b031690565b82611d84565b506001600c55565b6000610c7460085490565b8210610ce85760405162461bcd60e51b815260206004820152602c60248201527f455243373231456e756d657261626c653a20676c6f62616c20696e646578206f60448201527f7574206f6620626f756e6473000000000000000000000000000000000000000060648201526084016105a3565b60088281548110610cfb57610cfb612f92565b90600052602060002001549050919050565b6000818152600260205260408120546001600160a01b0316806104965760405162461bcd60e51b815260206004820152602960248201527f4552433732313a206f776e657220717565727920666f72206e6f6e657869737460448201527f656e7420746f6b656e000000000000000000000000000000000000000000000060648201526084016105a3565b60006001600160a01b038216610e165760405162461bcd60e51b815260206004820152602a60248201527f4552433732313a2062616c616e636520717565727920666f7220746865207a6560448201527f726f20616464726573730000000000000000000000000000000000000000000060648201526084016105a3565b506001600160a01b031660009081526003602052604090205490565b600a546001600160a01b03163314610e8c5760405162461bcd60e51b815260206004820181905260248201527f4f776e61626c653a2063616c6c6572206973206e6f7420746865206f776e657260448201526064016105a3565b610e966000611e9b565b565b6060610496826040518060400160405280600e81526020017f535452454e4754484f4652414345000000000000000000000000000000000000815250600f805480602002602001604051908101604052809291908181526020016000905b82821015610b12578382906000526020600020018054610f1590612ee6565b80601f0160208091040260200160405190810160405280929190818152602001828054610f4190612ee6565b8015610f8e5780601f10610f6357610100808354040283529160200191610f8e565b820191906000526020600020905b815481529060010190602001808311610f7157829003601f168201915b505050505081526020019060010190610ef6565b6060610496826040518060400160405280600f81526020017f494d5052455353495645434f4c4f5200000000000000000000000000000000008152506010805480602002602001604051908101604052809291908181526020016000905b82821015610b1257838290600052602060002001805461101f90612ee6565b80601f016020809104026020016040519081016040528092919081815260200182805461104b90612ee6565b80156110985780601f1061106d57610100808354040283529160200191611098565b820191906000526020600020905b81548152906001019060200180831161107b57829003601f168201915b505050505081526020019060010190611000565b6060600180546104ab90612ee6565b6001600160a01b0382163314156111145760405162461bcd60e51b815260206004820152601960248201527f4552433732313a20617070726f766520746f2063616c6c65720000000000000060448201526064016105a3565b3360008181526005602090815260408083206001600160a01b03871680855290835292819020805460ff191686151590811790915590519081529192917f17307eab39ab6107e8899845ad3d59bd9653f200f220920489ca2b5937696c31910160405180910390a35050565b600a546001600160a01b031633146111da5760405162461bcd60e51b815260206004820181905260248201527f4f776e61626c653a2063616c6c6572206973206e6f7420746865206f776e657260448201526064016105a3565b600b80546001600160a01b038381166001600160a01b0319831681179093556040519116919082907f9dabf3afae828ba590cbc2a5cd78456a9c86160d91461150184b48117f2b216b90600090a35050565b6112363383611ab5565b6112a85760405162461bcd60e51b815260206004820152603160248201527f4552433732313a207472616e736665722063616c6c6572206973206e6f74206f60448201527f776e6572206e6f7220617070726f76656400000000000000000000000000000060648201526084016105a3565b6112b484848484611eed565b50505050565b6060610496826040518060400160405280601181526020017f415050454152414e4345464541545552450000000000000000000000000000008152506012805480602002602001604051908101604052809291908181526020016000905b82821015610b1257838290600052602060002001805461133790612ee6565b80601f016020809104026020016040519081016040528092919081815260200182805461136390612ee6565b80156113b05780601f10611385576101008083540402835291602001916113b0565b820191906000526020600020905b81548152906001019060200180831161139357829003601f168201915b505050505081526020019060010190611318565b60606113ce6127d7565b6040518061014001604052806101018152602001612fea6101019139815260408051808201909152601981527f416e696d654c6f6f7420436861726163746572697374696373000000000000006020820152816001602002018190525060405180606001604052806028815260200161321f602891396040820152611452836118a2565b60608083019190915260408051918201905260288082526130eb6020830139608082015261147f836116b6565b60a082015260408051606081019091526028808252613165602083013960c08201526114aa83610e98565b60e08201526040805160608101909152602980825261318d60208301396101008201526114d683610fa2565b6101208201526040805160608101909152602980825261313c602083013961014082015261150383610a08565b610160820152604080516060810190915260298082526131b66020830139610180820152611530836112ba565b6101a08201526040805160608101909152602980825261311360208301396101c08201526040805160208082018352600082526101e08401919091528151808301909252600d82527f3c2f746578743e3c2f7376673e0000000000000000000000000000000000000090820152816010602090810291909101919091528151828201516040808501516060860151608087015160a088015160c089015160e08a01516101008b0151965160009a6115ea9a99989101612adf565b60408051808303601f19018152908290526101208401516101408501516101608601516101808701516101a08801516101c08901516101e08a01516102008b015197995061163d988a9890602001612adf565b6040516020818303038152906040529050600061168a61165c86611f6b565b6116658461209d565b604051602001611676929190612ba0565b60405160208183030381529060405261209d565b90508060405160200161169d9190612dc4565b60408051601f1981840301815291905295945050505050565b6060610496826040518060400160405280600981526020017f424f445953484150450000000000000000000000000000000000000000000000815250600e805480602002602001604051908101604052809291908181526020016000905b82821015610b1257838290600052602060002001805461173390612ee6565b80601f016020809104026020016040519081016040528092919081815260200182805461175f90612ee6565b80156117ac5780601f10611781576101008083540402835291602001916117ac565b820191906000526020600020905b81548152906001019060200180831161178f57829003601f168201915b505050505081526020019060010190611714565b600a546001600160a01b0316331461181a5760405162461bcd60e51b815260206004820181905260248201527f4f776e61626c653a2063616c6c6572206973206e6f7420746865206f776e657260448201526064016105a3565b6001600160a01b0381166118965760405162461bcd60e51b815260206004820152602660248201527f4f776e61626c653a206e6577206f776e657220697320746865207a65726f206160448201527f646472657373000000000000000000000000000000000000000000000000000060648201526084016105a3565b61189f81611e9b565b50565b6060610496826040518060400160405280600681526020017f4845494748540000000000000000000000000000000000000000000000000000815250600d805480602002602001604051908101604052809291908181526020016000905b82821015610b1257838290600052602060002001805461191f90612ee6565b80601f016020809104026020016040519081016040528092919081815260200182805461194b90612ee6565b80156119985780601f1061196d57610100808354040283529160200191611998565b820191906000526020600020905b81548152906001019060200180831161197b57829003601f168201915b505050505081526020019060010190611900565b60006001600160e01b031982167f80ac58cd000000000000000000000000000000000000000000000000000000001480611a0f57506001600160e01b031982167f5b5e139f00000000000000000000000000000000000000000000000000000000145b8061049657507f01ffc9a7000000000000000000000000000000000000000000000000000000006001600160e01b0319831614610496565b600081815260046020526040902080546001600160a01b0319166001600160a01b0384169081179091558190611a7c82610d0d565b6001600160a01b03167f8c5be1e5ebec7d5bd14f71427d1e84f3dd0314c0f7b2291e5b200ac8c7c3b92560405160405180910390a45050565b6000818152600260205260408120546001600160a01b0316611b2e5760405162461bcd60e51b815260206004820152602c60248201527f4552433732313a206f70657261746f7220717565727920666f72206e6f6e657860448201526b34b9ba32b73a103a37b5b2b760a11b60648201526084016105a3565b6000611b3983610d0d565b9050806001600160a01b0316846001600160a01b03161480611b745750836001600160a01b0316611b698461052e565b6001600160a01b0316145b80611ba457506001600160a01b0380821660009081526005602090815260408083209388168352929052205460ff165b949350505050565b826001600160a01b0316611bbf82610d0d565b6001600160a01b031614611c3b5760405162461bcd60e51b815260206004820152602960248201527f4552433732313a207472616e73666572206f6620746f6b656e2074686174206960448201527f73206e6f74206f776e000000000000000000000000000000000000000000000060648201526084016105a3565b6001600160a01b038216611cb65760405162461bcd60e51b8152602060048201526024808201527f4552433732313a207472616e7366657220746f20746865207a65726f2061646460448201527f726573730000000000000000000000000000000000000000000000000000000060648201526084016105a3565b611cc183838361223a565b611ccc600082611a47565b6001600160a01b0383166000908152600360205260408120805460019290611cf5908490612ea3565b90915550506001600160a01b0382166000908152600360205260408120805460019290611d23908490612e58565b909155505060008181526002602052604080822080546001600160a01b0319166001600160a01b0386811691821790925591518493918716917fddf252ad1be2c89b69c2b068fc378daa952ba7f163c4a11628f55a4df523b3ef91a4505050565b611d9e8282604051806020016040528060008152506122f2565b5050565b6000838152600260205260409020546060906001600160a01b0316611e2f5760405162461bcd60e51b815260206004820152602f60248201527f4552433732314d657461646174613a2055524920717565727920666f72206e6f60448201527f6e6578697374656e7420746f6b656e000000000000000000000000000000000060648201526084016105a3565b6000611e6384611e3e87611f6b565b604051602001611e4f929190612ab0565b604051602081830303815290604052612370565b9050600083845183611e759190612f3c565b81518110611e8557611e85612f92565b6020026020010151905080925050509392505050565b600a80546001600160a01b038381166001600160a01b0319831681179093556040519116919082907f8be0079c531659141344cd1fd0a4f28419497f9722a3daafe3b4186f6b6457e090600090a35050565b611ef8848484611bac565b611f04848484846123a1565b6112b45760405162461bcd60e51b815260206004820152603260248201527f4552433732313a207472616e7366657220746f206e6f6e20455243373231526560448201527131b2b4bb32b91034b6b83632b6b2b73a32b960711b60648201526084016105a3565b606081611fab57505060408051808201909152600181527f3000000000000000000000000000000000000000000000000000000000000000602082015290565b8160005b8115611fd55780611fbf81612f21565b9150611fce9050600a83612e70565b9150611faf565b60008167ffffffffffffffff811115611ff057611ff0612fa8565b6040519080825280601f01601f19166020018201604052801561201a576020820181803683370190505b5090505b8415611ba45761202f600183612ea3565b915061203c600a86612f3c565b612047906030612e58565b60f81b81838151811061205c5761205c612f92565b60200101907effffffffffffffffffffffffffffffffffffffffffffffffffffffffffffff1916908160001a905350612096600a86612e70565b945061201e565b8051606090806120bd575050604080516020810190915260008152919050565b600060036120cc836002612e58565b6120d69190612e70565b6120e1906004612e84565b905060006120f0826020612e58565b67ffffffffffffffff81111561210857612108612fa8565b6040519080825280601f01601f191660200182016040528015612132576020820181803683370190505b50905060006040518060600160405280604081526020016131df604091399050600181016020830160005b868110156121be576003818a01810151603f601282901c8116860151600c83901c8216870151600684901c831688015192909316870151600891821b60ff94851601821b92841692909201901b91160160e01b83526004909201910161215d565b5060038606600181146121d857600281146122045761222c565b7f3d3d00000000000000000000000000000000000000000000000000000000000060011983015261222c565b7f3d000000000000000000000000000000000000000000000000000000000000006000198301525b505050918152949350505050565b6001600160a01b0383166122955761229081600880546000838152600960205260408120829055600182018355919091527ff3f7a9fe364faab93b216da50a3214154f22a0a2b415b23a84c8169e8b636ee30155565b6122b8565b816001600160a01b0316836001600160a01b0316146122b8576122b883826124f9565b6001600160a01b0382166122cf576106f581612596565b826001600160a01b0316826001600160a01b0316146106f5576106f58282612645565b6122fc8383612689565b61230960008484846123a1565b6106f55760405162461bcd60e51b815260206004820152603260248201527f4552433732313a207472616e7366657220746f206e6f6e20455243373231526560448201527131b2b4bb32b91034b6b83632b6b2b73a32b960711b60648201526084016105a3565b6000816040516020016123839190612a94565b60408051601f19818403018152919052805160209091012092915050565b60006001600160a01b0384163b156124ee57604051630a85bd0160e11b81526001600160a01b0385169063150b7a02906123e5903390899088908890600401612e09565b602060405180830381600087803b1580156123ff57600080fd5b505af192505050801561242f575060408051601f3d908101601f1916820190925261242c91810190612a16565b60015b6124d4573d80801561245d576040519150601f19603f3d011682016040523d82523d6000602084013e612462565b606091505b5080516124cc5760405162461bcd60e51b815260206004820152603260248201527f4552433732313a207472616e7366657220746f206e6f6e20455243373231526560448201527131b2b4bb32b91034b6b83632b6b2b73a32b960711b60648201526084016105a3565b805181602001fd5b6001600160e01b031916630a85bd0160e11b149050611ba4565b506001949350505050565b6000600161250684610d98565b6125109190612ea3565b600083815260076020526040902054909150808214612563576001600160a01b03841660009081526006602090815260408083208584528252808320548484528184208190558352600790915290208190555b5060009182526007602090815260408084208490556001600160a01b039094168352600681528383209183525290812055565b6008546000906125a890600190612ea3565b600083815260096020526040812054600880549394509092849081106125d0576125d0612f92565b9060005260206000200154905080600883815481106125f1576125f1612f92565b600091825260208083209091019290925582815260099091526040808220849055858252812055600880548061262957612629612f7c565b6001900381819060005260206000200160009055905550505050565b600061265083610d98565b6001600160a01b039093166000908152600660209081526040808320868452825280832085905593825260079052919091209190915550565b6001600160a01b0382166126df5760405162461bcd60e51b815260206004820181905260248201527f4552433732313a206d696e7420746f20746865207a65726f206164647265737360448201526064016105a3565b6000818152600260205260409020546001600160a01b0316156127445760405162461bcd60e51b815260206004820152601c60248201527f4552433732313a20746f6b656e20616c7265616479206d696e7465640000000060448201526064016105a3565b6127506000838361223a565b6001600160a01b0382166000908152600360205260408120805460019290612779908490612e58565b909155505060008181526002602052604080822080546001600160a01b0319166001600160a01b03861690811790915590518392907fddf252ad1be2c89b69c2b068fc378daa952ba7f163c4a11628f55a4df523b3ef908290a45050565b6040518061022001604052806011905b60608152602001906001900390816127e75790505090565b60006020828403121561281157600080fd5b813561281c81612fbe565b9392505050565b60006020828403121561283557600080fd5b815161281c81612fbe565b6000806040838503121561285357600080fd5b823561285e81612fbe565b9150602083013561286e81612fbe565b809150509250929050565b60008060006060848603121561288e57600080fd5b833561289981612fbe565b925060208401356128a981612fbe565b929592945050506040919091013590565b600080600080608085870312156128d057600080fd5b84356128db81612fbe565b935060208501356128eb81612fbe565b925060408501359150606085013567ffffffffffffffff8082111561290f57600080fd5b818701915087601f83011261292357600080fd5b81358181111561293557612935612fa8565b604051601f8201601f19908116603f0116810190838211818310171561295d5761295d612fa8565b816040528281528a602084870101111561297657600080fd5b82602086016020830137600060208483010152809550505050505092959194509250565b600080604083850312156129ad57600080fd5b82356129b881612fbe565b91506020830135801515811461286e57600080fd5b600080604083850312156129e057600080fd5b82356129eb81612fbe565b946020939093013593505050565b600060208284031215612a0b57600080fd5b813561281c81612fd3565b600060208284031215612a2857600080fd5b815161281c81612fd3565b600060208284031215612a4557600080fd5b5035919050565b60008151808452612a64816020860160208601612eba565b601f01601f19169290920160200192915050565b60008151612a8a818560208601612eba565b9290920192915050565b60008251612aa6818460208701612eba565b9190910192915050565b60008351612ac2818460208801612eba565b835190830190612ad6818360208801612eba565b01949350505050565b60008a51612af1818460208f01612eba565b8a51612b038183860160208f01612eba565b8a519184010190612b18818360208e01612eba565b8951612b2a8183850160208e01612eba565b8951929091010190612b40818360208c01612eba565b8751612b528183850160208c01612eba565b8751929091010190612b68818360208a01612eba565b8551612b7a8183850160208a01612eba565b8551929091010190612b90818360208801612eba565b019b9a5050505050505050505050565b7f7b226e616d65223a2022416e696d65204368617261637465722043686172616381527f7465726973746963732023000000000000000000000000000000000000000000602082015260008351612bfe81602b850160208801612eba565b7f222c20226465736372697074696f6e223a2022416e696d654c6f6f7443686172602b918401918201527f61637465726973746963732069732072616e646f6d697a656420616e696d6520604b8201527f63686172616374657273206368617261637465726973746963732067656e6572606b8201527f6174656420616e642073746f726564206f6e20636861696e2e204f7468657220608b8201527f6665617475726573206f6620746865206368617261637465727320617265206960ab8201527f6e74656e74696f6e616c6c79206f6d697474656420666f72206f74686572732060cb8201527f746f20696e746572707265742e204665656c206672656520746f20757365204160eb8201527f6e696d654c6f6f7443686172616374657269737469637320696e20616e79207761010b8201527f617920796f752077616e742e222c2022696d616765223a2022646174613a696d61012b8201527f6167652f7376672b786d6c3b6261736536342c0000000000000000000000000061014b820152612dbb612d9261015e830186612a78565b7f227d000000000000000000000000000000000000000000000000000000000000815260020190565b95945050505050565b7f646174613a6170706c69636174696f6e2f6a736f6e3b6261736536342c000000815260008251612dfc81601d850160208701612eba565b91909101601d0192915050565b60006001600160a01b03808716835280861660208401525083604083015260806060830152612e3b6080830184612a4c565b9695505050505050565b60208152600061281c6020830184612a4c565b60008219821115612e6b57612e6b612f50565b500190565b600082612e7f57612e7f612f66565b500490565b6000816000190483118215151615612e9e57612e9e612f50565b500290565b600082821015612eb557612eb5612f50565b500390565b60005b83811015612ed5578181015183820152602001612ebd565b838111156112b45750506000910152565b600181811c90821680612efa57607f821691505b60208210811415612f1b57634e487b7160e01b600052602260045260246000fd5b50919050565b6000600019821415612f3557612f35612f50565b5060010190565b600082612f4b57612f4b612f66565b500690565b634e487b7160e01b600052601160045260246000fd5b634e487b7160e01b600052601260045260246000fd5b634e487b7160e01b600052603160045260246000fd5b634e487b7160e01b600052603260045260246000fd5b634e487b7160e01b600052604160045260246000fd5b6001600160a01b038116811461189f57600080fd5b6001600160e01b03198116811461189f57600080fdfe3c73766720786d6c6e733d22687474703a2f2f7777772e77332e6f72672f323030302f73766722207072657365727665417370656374526174696f3d22784d696e594d696e206d656574222076696577426f783d223020302033353020333530223e3c7374796c653e2e62617365207b2066696c6c3a20233030303030303b20666f6e742d66616d696c793a2073657269663b20666f6e742d73697a653a20313470783b207d3c2f7374796c653e3c726563742077696474683d223130302522206865696768743d2231303025222066696c6c3d222346464631303022202f3e3c7465787420783d2231302220793d2232302220636c6173733d2262617365223e3c2f746578743e3c7465787420783d2231302220793d2236302220636c6173733d2262617365223e3c2f746578743e3c7465787420783d2231302220793d223136302220636c6173733d2262617365223e3c2f746578743e3c7465787420783d2231302220793d223132302220636c6173733d2262617365223e3c2f746578743e3c7465787420783d2231302220793d2238302220636c6173733d2262617365223e3c2f746578743e3c7465787420783d2231302220793d223130302220636c6173733d2262617365223e3c2f746578743e3c7465787420783d2231302220793d223134302220636c6173733d2262617365223e4142434445464748494a4b4c4d4e4f505152535455565758595a6162636465666768696a6b6c6d6e6f707172737475767778797a303132333435363738392b2f3c2f746578743e3c7465787420783d2231302220793d2234302220636c6173733d2262617365223ea26469706673582212203dbae8f8fb6a91fe8a929027a7a71ec711bdafc6a2ad836faed6408f8feb70f664736f6c63430008070033",
			"opcodes": "PUSH1 0x9 PUSH2 0x180 SWAP1 DUP2 MSTORE PUSH9 0x15995C9E481D185B1B PUSH1 0xBA SHL PUSH2 0x1A0 MSTORE PUSH1 0x80 SWAP1 DUP2 MSTORE PUSH1 0x4 PUSH2 0x1C0 DUP2 DUP2 MSTORE PUSH4 0x15185B1B PUSH1 0xE2 SHL PUSH2 0x1E0 DUP2 SWAP1 MSTORE PUSH1 0xA0 SWAP2 SWAP1 SWAP2 MSTORE PUSH2 0x200 SWAP2 DUP3 MSTORE PUSH2 0x220 MSTORE PUSH1 0xC0 MSTORE PUSH1 0x6 PUSH2 0x240 DUP2 DUP2 MSTORE PUSH6 0x4D656469756D PUSH1 0xD0 SHL PUSH2 0x260 DUP2 SWAP1 MSTORE PUSH1 0xE0 SWAP2 SWAP1 SWAP2 MSTORE PUSH2 0x280 SWAP2 DUP3 MSTORE PUSH2 0x2A0 MSTORE PUSH2 0x100 MSTORE PUSH1 0x5 PUSH2 0x2C0 DUP2 DUP2 MSTORE PUSH5 0x14DA1BDC9D PUSH1 0xDA SHL PUSH2 0x2E0 DUP2 SWAP1 MSTORE PUSH2 0x120 SWAP2 SWAP1 SWAP2 MSTORE PUSH2 0x300 SWAP2 DUP3 MSTORE PUSH2 0x320 MSTORE PUSH2 0x140 MSTORE PUSH2 0x380 PUSH1 0x40 MSTORE PUSH1 0xA PUSH2 0x340 SWAP1 DUP2 MSTORE PUSH10 0x15995C9E481CDA1BDC9D PUSH1 0xB2 SHL PUSH2 0x360 MSTORE PUSH2 0x160 MSTORE PUSH3 0xD2 SWAP1 PUSH1 0xD SWAP1 PUSH1 0x8 PUSH3 0x84A JUMP JUMPDEST POP PUSH1 0x40 MLOAD DUP1 PUSH1 0xA0 ADD PUSH1 0x40 MSTORE DUP1 PUSH1 0x40 MLOAD DUP1 PUSH1 0x40 ADD PUSH1 0x40 MSTORE DUP1 PUSH1 0x6 DUP2 MSTORE PUSH1 0x20 ADD PUSH6 0x5374726F6E67 PUSH1 0xD0 SHL DUP2 MSTORE POP DUP2 MSTORE PUSH1 0x20 ADD PUSH1 0x40 MLOAD DUP1 PUSH1 0x40 ADD PUSH1 0x40 MSTORE DUP1 PUSH1 0x5 DUP2 MSTORE PUSH1 0x20 ADD PUSH5 0x506C756D7 PUSH1 0xDC SHL DUP2 MSTORE POP DUP2 MSTORE PUSH1 0x20 ADD PUSH1 0x40 MLOAD DUP1 PUSH1 0x40 ADD PUSH1 0x40 MSTORE DUP1 PUSH1 0x6 DUP2 MSTORE PUSH1 0x20 ADD PUSH6 0x139BDC9B585B PUSH1 0xD2 SHL DUP2 MSTORE POP DUP2 MSTORE PUSH1 0x20 ADD PUSH1 0x40 MLOAD DUP1 PUSH1 0x40 ADD PUSH1 0x40 MSTORE DUP1 PUSH1 0x6 DUP2 MSTORE PUSH1 0x20 ADD PUSH6 0x139BDC9B585B PUSH1 0xD2 SHL DUP2 MSTORE POP DUP2 MSTORE PUSH1 0x20 ADD PUSH1 0x40 MLOAD DUP1 PUSH1 0x40 ADD PUSH1 0x40 MSTORE DUP1 PUSH1 0x7 DUP2 MSTORE PUSH1 0x20 ADD PUSH7 0x29B632B73232B9 PUSH1 0xC9 SHL DUP2 MSTORE POP DUP2 MSTORE POP PUSH1 0xE SWAP1 PUSH1 0x5 PUSH3 0x1A2 SWAP3 SWAP2 SWAP1 PUSH3 0x8AE JUMP JUMPDEST POP PUSH1 0x40 MLOAD DUP1 PUSH2 0x100 ADD PUSH1 0x40 MSTORE DUP1 PUSH1 0x40 MLOAD DUP1 PUSH1 0x40 ADD PUSH1 0x40 MSTORE DUP1 PUSH1 0x4 DUP2 MSTORE PUSH1 0x20 ADD PUSH4 0x50757265 PUSH1 0xE0 SHL DUP2 MSTORE POP DUP2 MSTORE PUSH1 0x20 ADD PUSH1 0x40 MLOAD DUP1 PUSH1 0x40 ADD PUSH1 0x40 MSTORE DUP1 PUSH1 0x4 DUP2 MSTORE PUSH1 0x20 ADD PUSH4 0x50757265 PUSH1 0xE0 SHL DUP2 MSTORE POP DUP2 MSTORE PUSH1 0x20 ADD PUSH1 0x40 MLOAD DUP1 PUSH1 0x40 ADD PUSH1 0x40 MSTORE DUP1 PUSH1 0x4 DUP2 MSTORE PUSH1 0x20 ADD PUSH4 0x50757265 PUSH1 0xE0 SHL DUP2 MSTORE POP DUP2 MSTORE PUSH1 0x20 ADD PUSH1 0x40 MLOAD DUP1 PUSH1 0x40 ADD PUSH1 0x40 MSTORE DUP1 PUSH1 0x4 DUP2 MSTORE PUSH1 0x20 ADD PUSH4 0x2430B633 PUSH1 0xE1 SHL DUP2 MSTORE POP DUP2 MSTORE PUSH1 0x20 ADD PUSH1 0x40 MLOAD DUP1 PUSH1 0x40 ADD PUSH1 0x40 MSTORE DUP1 PUSH1 0x4 DUP2 MSTORE PUSH1 0x20 ADD PUSH4 0x2430B633 PUSH1 0xE1 SHL DUP2 MSTORE POP DUP2 MSTORE PUSH1 0x20 ADD PUSH1 0x40 MLOAD DUP1 PUSH1 0x40 ADD PUSH1 0x40 MSTORE DUP1 PUSH1 0x7 DUP2 MSTORE PUSH1 0x20 ADD PUSH7 0x28BAB0B93A32B9 PUSH1 0xC9 SHL DUP2 MSTORE POP DUP2 MSTORE PUSH1 0x20 ADD PUSH1 0x40 MLOAD DUP1 PUSH1 0x40 ADD PUSH1 0x40 MSTORE DUP1 PUSH1 0x7 DUP2 MSTORE PUSH1 0x20 ADD PUSH7 0x28BAB0B93A32B9 PUSH1 0xC9 SHL DUP2 MSTORE POP DUP2 MSTORE PUSH1 0x20 ADD PUSH1 0x40 MLOAD DUP1 PUSH1 0x40 ADD PUSH1 0x40 MSTORE DUP1 PUSH1 0xA DUP2 MSTORE PUSH1 0x20 ADD PUSH10 0x9EDCCA5ACAD2CED0E8D PUSH1 0xB3 SHL DUP2 MSTORE POP DUP2 MSTORE POP PUSH1 0xF SWAP1 PUSH1 0x8 PUSH3 0x2DB SWAP3 SWAP2 SWAP1 PUSH3 0x84A JUMP JUMPDEST POP PUSH1 0x40 MLOAD DUP1 PUSH2 0x140 ADD PUSH1 0x40 MSTORE DUP1 PUSH1 0x40 MLOAD DUP1 PUSH1 0x40 ADD PUSH1 0x40 MSTORE DUP1 PUSH1 0x3 DUP2 MSTORE PUSH1 0x20 ADD PUSH3 0x149959 PUSH1 0xEA SHL DUP2 MSTORE POP DUP2 MSTORE PUSH1 0x20 ADD PUSH1 0x40 MLOAD DUP1 PUSH1 0x40 ADD PUSH1 0x40 MSTORE DUP1 PUSH1 0x6 DUP2 MSTORE PUSH1 0x20 ADD PUSH6 0x59656C6C6F77 PUSH1 0xD0 SHL DUP2 MSTORE POP DUP2 MSTORE PUSH1 0x20 ADD PUSH1 0x40 MLOAD DUP1 PUSH1 0x40 ADD PUSH1 0x40 MSTORE DUP1 PUSH1 0x5 DUP2 MSTORE PUSH1 0x20 ADD PUSH5 0x23B932B2B7 PUSH1 0xD9 SHL DUP2 MSTORE POP DUP2 MSTORE PUSH1 0x20 ADD PUSH1 0x40 MLOAD DUP1 PUSH1 0x40 ADD PUSH1 0x40 MSTORE DUP1 PUSH1 0x4 DUP2 MSTORE PUSH1 0x20 ADD PUSH4 0x426C7565 PUSH1 0xE0 SHL DUP2 MSTORE POP DUP2 MSTORE PUSH1 0x20 ADD PUSH1 0x40 MLOAD DUP1 PUSH1 0x40 ADD PUSH1 0x40 MSTORE DUP1 PUSH1 0x6 DUP2 MSTORE PUSH1 0x20 ADD PUSH6 0x507572706C65 PUSH1 0xD0 SHL DUP2 MSTORE POP DUP2 MSTORE PUSH1 0x20 ADD PUSH1 0x40 MLOAD DUP1 PUSH1 0x40 ADD PUSH1 0x40 MSTORE DUP1 PUSH1 0x5 DUP2 MSTORE PUSH1 0x20 ADD PUSH5 0x5768697465 PUSH1 0xD8 SHL DUP2 MSTORE POP DUP2 MSTORE PUSH1 0x20 ADD PUSH1 0x40 MLOAD DUP1 PUSH1 0x40 ADD PUSH1 0x40 MSTORE DUP1 PUSH1 0x5 DUP2 MSTORE PUSH1 0x20 ADD PUSH5 0x426C61636B PUSH1 0xD8 SHL DUP2 MSTORE POP DUP2 MSTORE PUSH1 0x20 ADD PUSH1 0x40 MLOAD DUP1 PUSH1 0x40 ADD PUSH1 0x40 MSTORE DUP1 PUSH1 0x6 DUP2 MSTORE PUSH1 0x20 ADD PUSH6 0x507572706C65 PUSH1 0xD0 SHL DUP2 MSTORE POP DUP2 MSTORE PUSH1 0x20 ADD PUSH1 0x40 MLOAD DUP1 PUSH1 0x40 ADD PUSH1 0x40 MSTORE DUP1 PUSH1 0x4 DUP2 MSTORE PUSH1 0x20 ADD PUSH4 0x11DBDB19 PUSH1 0xE2 SHL DUP2 MSTORE POP DUP2 MSTORE PUSH1 0x20 ADD PUSH1 0x40 MLOAD DUP1 PUSH1 0x40 ADD PUSH1 0x40 MSTORE DUP1 PUSH1 0x6 DUP2 MSTORE PUSH1 0x20 ADD PUSH6 0x29B4B63B32B9 PUSH1 0xD1 SHL DUP2 MSTORE POP DUP2 MSTORE POP PUSH1 0x10 SWAP1 PUSH1 0xA PUSH3 0x456 SWAP3 SWAP2 SWAP1 PUSH3 0x900 JUMP JUMPDEST POP PUSH1 0x40 DUP1 MLOAD PUSH2 0x1A0 DUP2 ADD DUP3 MSTORE PUSH1 0x4 PUSH2 0x160 DUP3 ADD DUP2 DUP2 MSTORE PUSH4 0x54696E79 PUSH1 0xE0 SHL PUSH2 0x180 DUP5 ADD MSTORE DUP3 MSTORE DUP3 MLOAD DUP1 DUP5 ADD DUP5 MSTORE PUSH1 0x6 DUP2 MSTORE PUSH6 0x507265747479 PUSH1 0xD0 SHL PUSH1 0x20 DUP3 DUP2 ADD SWAP2 SWAP1 SWAP2 MSTORE DUP1 DUP5 ADD SWAP2 SWAP1 SWAP2 MSTORE DUP4 MLOAD DUP1 DUP6 ADD DUP6 MSTORE PUSH1 0x9 DUP2 MSTORE PUSH9 0x426162792066616365 PUSH1 0xB8 SHL DUP2 DUP4 ADD MSTORE DUP4 DUP6 ADD MSTORE DUP4 MLOAD DUP1 DUP6 ADD DUP6 MSTORE PUSH1 0xA DUP1 DUP3 MSTORE PUSH10 0x41747472616374697665 PUSH1 0xB0 SHL DUP3 DUP5 ADD MSTORE PUSH1 0x60 DUP6 ADD SWAP2 SWAP1 SWAP2 MSTORE DUP5 MLOAD DUP1 DUP7 ADD DUP7 MSTORE PUSH1 0x7 DUP1 DUP3 MSTORE PUSH7 0x11D85B1B185B9D PUSH1 0xCA SHL DUP3 DUP6 ADD MSTORE PUSH1 0x80 DUP7 ADD SWAP2 SWAP1 SWAP2 MSTORE DUP6 MLOAD DUP1 DUP8 ADD DUP8 MSTORE SWAP4 DUP5 MSTORE PUSH4 0x1399585D PUSH1 0xE2 SHL DUP5 DUP5 ADD MSTORE PUSH1 0xA0 DUP6 ADD SWAP4 SWAP1 SWAP4 MSTORE DUP5 MLOAD DUP1 DUP7 ADD DUP7 MSTORE SWAP1 DUP2 MSTORE PUSH10 0x105CDD1C9A5B99D95B9D PUSH1 0xB2 SHL DUP2 DUP4 ADD MSTORE PUSH1 0xC0 DUP5 ADD MSTORE DUP4 MLOAD DUP1 DUP6 ADD DUP6 MSTORE PUSH1 0x5 DUP2 MSTORE PUSH5 0x44616E6479 PUSH1 0xD8 SHL DUP2 DUP4 ADD MSTORE PUSH1 0xE0 DUP5 ADD MSTORE DUP4 MLOAD DUP1 DUP6 ADD DUP6 MSTORE PUSH1 0xC DUP2 MSTORE PUSH12 0x53636172206F6E2066616365 PUSH1 0xA0 SHL DUP2 DUP4 ADD MSTORE PUSH2 0x100 DUP5 ADD MSTORE DUP4 MLOAD DUP1 DUP6 ADD DUP6 MSTORE PUSH1 0xE DUP2 MSTORE PUSH14 0x53636172206F6E20746174746F6F PUSH1 0x90 SHL DUP2 DUP4 ADD MSTORE PUSH2 0x120 DUP5 ADD MSTORE DUP4 MLOAD DUP1 DUP6 ADD SWAP1 SWAP5 MSTORE SWAP1 DUP4 MSTORE PUSH7 0x4F6E6520657965 PUSH1 0xC8 SHL SWAP1 DUP4 ADD MSTORE PUSH2 0x140 DUP2 ADD SWAP2 SWAP1 SWAP2 MSTORE PUSH3 0x5E5 SWAP1 PUSH1 0x11 SWAP1 PUSH1 0xB PUSH3 0x952 JUMP JUMPDEST POP PUSH1 0x40 DUP1 MLOAD PUSH2 0x140 DUP2 ADD DUP3 MSTORE PUSH1 0xB PUSH2 0x100 DUP3 ADD SWAP1 DUP2 MSTORE PUSH11 0x436C65616E6C696E657373 PUSH1 0xA8 SHL PUSH2 0x120 DUP4 ADD MSTORE DUP2 MSTORE DUP2 MLOAD DUP1 DUP4 ADD DUP4 MSTORE PUSH1 0x9 DUP1 DUP3 MSTORE PUSH9 0x2330B4B91039B5B4B7 PUSH1 0xB9 SHL PUSH1 0x20 DUP4 DUP2 ADD SWAP2 SWAP1 SWAP2 MSTORE DUP1 DUP5 ADD SWAP3 SWAP1 SWAP3 MSTORE DUP4 MLOAD DUP1 DUP6 ADD DUP6 MSTORE SWAP1 DUP2 MSTORE PUSH9 0x2230B9359039B5B4B7 PUSH1 0xB9 SHL DUP2 DUP4 ADD MSTORE DUP3 DUP5 ADD MSTORE DUP3 MLOAD DUP1 DUP5 ADD DUP5 MSTORE PUSH1 0xA DUP2 MSTORE PUSH10 0x496E76616C696469736D PUSH1 0xB0 SHL DUP2 DUP4 ADD MSTORE PUSH1 0x60 DUP4 ADD MSTORE DUP3 MLOAD DUP1 DUP5 ADD DUP5 MSTORE PUSH1 0x7 DUP1 DUP3 MSTORE PUSH7 0x4865616C746879 PUSH1 0xC8 SHL DUP3 DUP5 ADD MSTORE PUSH1 0x80 DUP5 ADD SWAP2 SWAP1 SWAP2 MSTORE DUP4 MLOAD DUP1 DUP6 ADD DUP6 MSTORE PUSH1 0x6 DUP2 MSTORE PUSH6 0x84DEF2D2E6D PUSH1 0xD3 SHL DUP2 DUP5 ADD MSTORE PUSH1 0xA0 DUP5 ADD MSTORE DUP4 MLOAD DUP1 DUP6 ADD DUP6 MSTORE DUP2 DUP2 MSTORE PUSH7 0x13995D5D1C985B PUSH1 0xCA SHL DUP2 DUP5 ADD MSTORE PUSH1 0xC0 DUP5 ADD MSTORE DUP4 MLOAD DUP1 DUP6 ADD SWAP1 SWAP5 MSTORE DUP4 MSTORE PUSH7 0x8ED2E4D8D2E6D PUSH1 0xCB SHL SWAP1 DUP4 ADD MSTORE PUSH1 0xE0 DUP2 ADD SWAP2 SWAP1 SWAP2 MSTORE PUSH3 0x70C SWAP1 PUSH1 0x12 SWAP1 PUSH1 0x8 PUSH3 0x84A JUMP JUMPDEST POP CALLVALUE DUP1 ISZERO PUSH3 0x71A JUMPI PUSH1 0x0 DUP1 REVERT JUMPDEST POP PUSH1 0x40 MLOAD PUSH3 0x3DA4 CODESIZE SUB DUP1 PUSH3 0x3DA4 DUP4 CODECOPY DUP2 ADD PUSH1 0x40 DUP2 SWAP1 MSTORE PUSH3 0x73D SWAP2 PUSH3 0xAA9 JUMP JUMPDEST PUSH1 0x40 DUP1 MLOAD DUP1 DUP3 ADD DUP3 MSTORE PUSH1 0x20 DUP1 DUP3 MSTORE PUSH32 0x416E696D654C6F6F74506879736963616C436861726163746572697374696373 DUP2 DUP4 ADD DUP2 DUP2 MSTORE DUP5 MLOAD DUP1 DUP7 ADD SWAP1 SWAP6 MSTORE DUP3 DUP6 MSTORE SWAP2 DUP5 ADD MSTORE DUP2 MLOAD DUP5 SWAP4 SWAP2 PUSH3 0x795 SWAP2 PUSH1 0x0 SWAP2 SWAP1 PUSH3 0x9A4 JUMP JUMPDEST POP DUP1 MLOAD PUSH3 0x7AB SWAP1 PUSH1 0x1 SWAP1 PUSH1 0x20 DUP5 ADD SWAP1 PUSH3 0x9A4 JUMP JUMPDEST POP POP POP PUSH3 0x7C8 PUSH3 0x7C2 PUSH3 0x7F4 PUSH1 0x20 SHL PUSH1 0x20 SHR JUMP JUMPDEST PUSH3 0x7F8 JUMP JUMPDEST PUSH1 0xB DUP1 SLOAD PUSH1 0x1 PUSH1 0x1 PUSH1 0xA0 SHL SUB NOT AND PUSH1 0x1 PUSH1 0x1 PUSH1 0xA0 SHL SUB SWAP3 SWAP1 SWAP3 AND SWAP2 SWAP1 SWAP2 OR SWAP1 SSTORE POP PUSH1 0x1 PUSH1 0xC SSTORE PUSH3 0xB18 JUMP JUMPDEST CALLER SWAP1 JUMP JUMPDEST PUSH1 0xA DUP1 SLOAD PUSH1 0x1 PUSH1 0x1 PUSH1 0xA0 SHL SUB DUP4 DUP2 AND PUSH1 0x1 PUSH1 0x1 PUSH1 0xA0 SHL SUB NOT DUP4 AND DUP2 OR SWAP1 SWAP4 SSTORE PUSH1 0x40 MLOAD SWAP2 AND SWAP2 SWAP1 DUP3 SWAP1 PUSH32 0x8BE0079C531659141344CD1FD0A4F28419497F9722A3DAAFE3B4186F6B6457E0 SWAP1 PUSH1 0x0 SWAP1 LOG3 POP POP JUMP JUMPDEST DUP3 DUP1 SLOAD DUP3 DUP3 SSTORE SWAP1 PUSH1 0x0 MSTORE PUSH1 0x20 PUSH1 0x0 KECCAK256 SWAP1 DUP2 ADD SWAP3 DUP3 ISZERO PUSH3 0x89C JUMPI SWAP2 PUSH1 0x20 MUL DUP3 ADD JUMPDEST DUP3 DUP2 GT ISZERO PUSH3 0x89C JUMPI DUP3 MLOAD DUP1 MLOAD PUSH3 0x88B SWAP2 DUP5 SWAP2 PUSH1 0x20 SWAP1 SWAP2 ADD SWAP1 PUSH3 0x9A4 JUMP JUMPDEST POP SWAP2 PUSH1 0x20 ADD SWAP2 SWAP1 PUSH1 0x1 ADD SWAP1 PUSH3 0x86B JUMP JUMPDEST POP PUSH3 0x8AA SWAP3 SWAP2 POP PUSH3 0xA2F JUMP JUMPDEST POP SWAP1 JUMP JUMPDEST DUP3 DUP1 SLOAD DUP3 DUP3 SSTORE SWAP1 PUSH1 0x0 MSTORE PUSH1 0x20 PUSH1 0x0 KECCAK256 SWAP1 DUP2 ADD SWAP3 DUP3 ISZERO PUSH3 0x89C JUMPI SWAP2 PUSH1 0x20 MUL DUP3 ADD JUMPDEST DUP3 DUP2 GT ISZERO PUSH3 0x89C JUMPI DUP3 MLOAD DUP1 MLOAD PUSH3 0x8EF SWAP2 DUP5 SWAP2 PUSH1 0x20 SWAP1 SWAP2 ADD SWAP1 PUSH3 0x9A4 JUMP JUMPDEST POP SWAP2 PUSH1 0x20 ADD SWAP2 SWAP1 PUSH1 0x1 ADD SWAP1 PUSH3 0x8CF JUMP JUMPDEST DUP3 DUP1 SLOAD DUP3 DUP3 SSTORE SWAP1 PUSH1 0x0 MSTORE PUSH1 0x20 PUSH1 0x0 KECCAK256 SWAP1 DUP2 ADD SWAP3 DUP3 ISZERO PUSH3 0x89C JUMPI SWAP2 PUSH1 0x20 MUL DUP3 ADD JUMPDEST DUP3 DUP2 GT ISZERO PUSH3 0x89C JUMPI DUP3 MLOAD DUP1 MLOAD PUSH3 0x941 SWAP2 DUP5 SWAP2 PUSH1 0x20 SWAP1 SWAP2 ADD SWAP1 PUSH3 0x9A4 JUMP JUMPDEST POP SWAP2 PUSH1 0x20 ADD SWAP2 SWAP1 PUSH1 0x1 ADD SWAP1 PUSH3 0x921 JUMP JUMPDEST DUP3 DUP1 SLOAD DUP3 DUP3 SSTORE SWAP1 PUSH1 0x0 MSTORE PUSH1 0x20 PUSH1 0x0 KECCAK256 SWAP1 DUP2 ADD SWAP3 DUP3 ISZERO PUSH3 0x89C JUMPI SWAP2 PUSH1 0x20 MUL DUP3 ADD JUMPDEST DUP3 DUP2 GT ISZERO PUSH3 0x89C JUMPI DUP3 MLOAD DUP1 MLOAD PUSH3 0x993 SWAP2 DUP5 SWAP2 PUSH1 0x20 SWAP1 SWAP2 ADD SWAP1 PUSH3 0x9A4 JUMP JUMPDEST POP SWAP2 PUSH1 0x20 ADD SWAP2 SWAP1 PUSH1 0x1 ADD SWAP1 PUSH3 0x973 JUMP JUMPDEST DUP3 DUP1 SLOAD PUSH3 0x9B2 SWAP1 PUSH3 0xADB JUMP JUMPDEST SWAP1 PUSH1 0x0 MSTORE PUSH1 0x20 PUSH1 0x0 KECCAK256 SWAP1 PUSH1 0x1F ADD PUSH1 0x20 SWAP1 DIV DUP2 ADD SWAP3 DUP3 PUSH3 0x9D6 JUMPI PUSH1 0x0 DUP6 SSTORE PUSH3 0xA21 JUMP JUMPDEST DUP3 PUSH1 0x1F LT PUSH3 0x9F1 JUMPI DUP1 MLOAD PUSH1 0xFF NOT AND DUP4 DUP1 ADD OR DUP6 SSTORE PUSH3 0xA21 JUMP JUMPDEST DUP3 DUP1 ADD PUSH1 0x1 ADD DUP6 SSTORE DUP3 ISZERO PUSH3 0xA21 JUMPI SWAP2 DUP3 ADD JUMPDEST DUP3 DUP2 GT ISZERO PUSH3 0xA21 JUMPI DUP3 MLOAD DUP3 SSTORE SWAP2 PUSH1 0x20 ADD SWAP2 SWAP1 PUSH1 0x1 ADD SWAP1 PUSH3 0xA04 JUMP JUMPDEST POP PUSH3 0x8AA SWAP3 SWAP2 POP PUSH3 0xA50 JUMP JUMPDEST DUP1 DUP3 GT ISZERO PUSH3 0x8AA JUMPI PUSH1 0x0 PUSH3 0xA46 DUP3 DUP3 PUSH3 0xA67 JUMP JUMPDEST POP PUSH1 0x1 ADD PUSH3 0xA2F JUMP JUMPDEST JUMPDEST DUP1 DUP3 GT ISZERO PUSH3 0x8AA JUMPI PUSH1 0x0 DUP2 SSTORE PUSH1 0x1 ADD PUSH3 0xA51 JUMP JUMPDEST POP DUP1 SLOAD PUSH3 0xA75 SWAP1 PUSH3 0xADB JUMP JUMPDEST PUSH1 0x0 DUP3 SSTORE DUP1 PUSH1 0x1F LT PUSH3 0xA86 JUMPI POP POP JUMP JUMPDEST PUSH1 0x1F ADD PUSH1 0x20 SWAP1 DIV SWAP1 PUSH1 0x0 MSTORE PUSH1 0x20 PUSH1 0x0 KECCAK256 SWAP1 DUP2 ADD SWAP1 PUSH3 0xAA6 SWAP2 SWAP1 PUSH3 0xA50 JUMP JUMPDEST POP JUMP JUMPDEST PUSH1 0x0 PUSH1 0x20 DUP3 DUP5 SUB SLT ISZERO PUSH3 0xABC JUMPI PUSH1 0x0 DUP1 REVERT JUMPDEST DUP2 MLOAD PUSH1 0x1 PUSH1 0x1 PUSH1 0xA0 SHL SUB DUP2 AND DUP2 EQ PUSH3 0xAD4 JUMPI PUSH1 0x0 DUP1 REVERT JUMPDEST SWAP4 SWAP3 POP POP POP JUMP JUMPDEST PUSH1 0x1 DUP2 DUP2 SHR SWAP1 DUP3 AND DUP1 PUSH3 0xAF0 JUMPI PUSH1 0x7F DUP3 AND SWAP2 POP JUMPDEST PUSH1 0x20 DUP3 LT DUP2 EQ ISZERO PUSH3 0xB12 JUMPI PUSH4 0x4E487B71 PUSH1 0xE0 SHL PUSH1 0x0 MSTORE PUSH1 0x22 PUSH1 0x4 MSTORE PUSH1 0x24 PUSH1 0x0 REVERT JUMPDEST POP SWAP2 SWAP1 POP JUMP JUMPDEST PUSH2 0x327C DUP1 PUSH3 0xB28 PUSH1 0x0 CODECOPY PUSH1 0x0 RETURN INVALID PUSH1 0x80 PUSH1 0x40 MSTORE CALLVALUE DUP1 ISZERO PUSH2 0x10 JUMPI PUSH1 0x0 DUP1 REVERT JUMPDEST POP PUSH1 0x4 CALLDATASIZE LT PUSH2 0x1DA JUMPI PUSH1 0x0 CALLDATALOAD PUSH1 0xE0 SHR DUP1 PUSH4 0x761C6CC4 GT PUSH2 0x104 JUMPI DUP1 PUSH4 0xAB86DE6C GT PUSH2 0xA2 JUMPI DUP1 PUSH4 0xD17C9B21 GT PUSH2 0x71 JUMPI DUP1 PUSH4 0xD17C9B21 EQ PUSH2 0x3E3 JUMPI DUP1 PUSH4 0xE985E9C5 EQ PUSH2 0x3F6 JUMPI DUP1 PUSH4 0xF2FDE38B EQ PUSH2 0x432 JUMPI DUP1 PUSH4 0xFDC3A9CC EQ PUSH2 0x445 JUMPI PUSH1 0x0 DUP1 REVERT JUMPDEST DUP1 PUSH4 0xAB86DE6C EQ PUSH2 0x397 JUMPI DUP1 PUSH4 0xB88D4FDE EQ PUSH2 0x3AA JUMPI DUP1 PUSH4 0xC07B1978 EQ PUSH2 0x3BD JUMPI DUP1 PUSH4 0xC87B56DD EQ PUSH2 0x3D0 JUMPI PUSH1 0x0 DUP1 REVERT JUMPDEST DUP1 PUSH4 0x8DA5CB5B GT PUSH2 0xDE JUMPI DUP1 PUSH4 0x8DA5CB5B EQ PUSH2 0x358 JUMPI DUP1 PUSH4 0x95D89B41 EQ PUSH2 0x369 JUMPI DUP1 PUSH4 0x99F43ABA EQ PUSH2 0x371 JUMPI DUP1 PUSH4 0xA22CB465 EQ PUSH2 0x384 JUMPI PUSH1 0x0 DUP1 REVERT JUMPDEST DUP1 PUSH4 0x761C6CC4 EQ PUSH2 0x321 JUMPI DUP1 PUSH4 0x77AEFADD EQ PUSH2 0x334 JUMPI DUP1 PUSH4 0x7A8639ED EQ PUSH2 0x347 JUMPI PUSH1 0x0 DUP1 REVERT JUMPDEST DUP1 PUSH4 0x379607F5 GT PUSH2 0x17C JUMPI DUP1 PUSH4 0x4F6CCCE7 GT PUSH2 0x14B JUMPI DUP1 PUSH4 0x4F6CCCE7 EQ PUSH2 0x2E0 JUMPI DUP1 PUSH4 0x6352211E EQ PUSH2 0x2F3 JUMPI DUP1 PUSH4 0x70A08231 EQ PUSH2 0x306 JUMPI DUP1 PUSH4 0x715018A6 EQ PUSH2 0x319 JUMPI PUSH1 0x0 DUP1 REVERT JUMPDEST DUP1 PUSH4 0x379607F5 EQ PUSH2 0x294 JUMPI DUP1 PUSH4 0x3886DA94 EQ PUSH2 0x2A7 JUMPI DUP1 PUSH4 0x42842E0E EQ PUSH2 0x2BA JUMPI DUP1 PUSH4 0x434F48C4 EQ PUSH2 0x2CD JUMPI PUSH1 0x0 DUP1 REVERT JUMPDEST DUP1 PUSH4 0x95EA7B3 GT PUSH2 0x1B8 JUMPI DUP1 PUSH4 0x95EA7B3 EQ PUSH2 0x247 JUMPI DUP1 PUSH4 0x18160DDD EQ PUSH2 0x25C JUMPI DUP1 PUSH4 0x23B872DD EQ PUSH2 0x26E JUMPI DUP1 PUSH4 0x2F745C59 EQ PUSH2 0x281 JUMPI PUSH1 0x0 DUP1 REVERT JUMPDEST DUP1 PUSH4 0x1FFC9A7 EQ PUSH2 0x1DF JUMPI DUP1 PUSH4 0x6FDDE03 EQ PUSH2 0x207 JUMPI DUP1 PUSH4 0x81812FC EQ PUSH2 0x21C JUMPI JUMPDEST PUSH1 0x0 DUP1 REVERT JUMPDEST PUSH2 0x1F2 PUSH2 0x1ED CALLDATASIZE PUSH1 0x4 PUSH2 0x29F9 JUMP JUMPDEST PUSH2 0x458 JUMP JUMPDEST PUSH1 0x40 MLOAD SWAP1 ISZERO ISZERO DUP2 MSTORE PUSH1 0x20 ADD JUMPDEST PUSH1 0x40 MLOAD DUP1 SWAP2 SUB SWAP1 RETURN JUMPDEST PUSH2 0x20F PUSH2 0x49C JUMP JUMPDEST PUSH1 0x40 MLOAD PUSH2 0x1FE SWAP2 SWAP1 PUSH2 0x2E45 JUMP JUMPDEST PUSH2 0x22F PUSH2 0x22A CALLDATASIZE PUSH1 0x4 PUSH2 0x2A33 JUMP JUMPDEST PUSH2 0x52E JUMP JUMPDEST PUSH1 0x40 MLOAD PUSH1 0x1 PUSH1 0x1 PUSH1 0xA0 SHL SUB SWAP1 SWAP2 AND DUP2 MSTORE PUSH1 0x20 ADD PUSH2 0x1FE JUMP JUMPDEST PUSH2 0x25A PUSH2 0x255 CALLDATASIZE PUSH1 0x4 PUSH2 0x29CD JUMP JUMPDEST PUSH2 0x5C8 JUMP JUMPDEST STOP JUMPDEST PUSH1 0x8 SLOAD JUMPDEST PUSH1 0x40 MLOAD SWAP1 DUP2 MSTORE PUSH1 0x20 ADD PUSH2 0x1FE JUMP JUMPDEST PUSH2 0x25A PUSH2 0x27C CALLDATASIZE PUSH1 0x4 PUSH2 0x2879 JUMP JUMPDEST PUSH2 0x6FA JUMP JUMPDEST PUSH2 0x260 PUSH2 0x28F CALLDATASIZE PUSH1 0x4 PUSH2 0x29CD JUMP JUMPDEST PUSH2 0x781 JUMP JUMPDEST PUSH2 0x25A PUSH2 0x2A2 CALLDATASIZE PUSH1 0x4 PUSH2 0x2A33 JUMP JUMPDEST PUSH2 0x829 JUMP JUMPDEST PUSH2 0x20F PUSH2 0x2B5 CALLDATASIZE PUSH1 0x4 PUSH2 0x2A33 JUMP JUMPDEST PUSH2 0xA08 JUMP JUMPDEST PUSH2 0x25A PUSH2 0x2C8 CALLDATASIZE PUSH1 0x4 PUSH2 0x2879 JUMP JUMPDEST PUSH2 0xB1B JUMP JUMPDEST PUSH2 0x25A PUSH2 0x2DB CALLDATASIZE PUSH1 0x4 PUSH2 0x2A33 JUMP JUMPDEST PUSH2 0xB36 JUMP JUMPDEST PUSH2 0x260 PUSH2 0x2EE CALLDATASIZE PUSH1 0x4 PUSH2 0x2A33 JUMP JUMPDEST PUSH2 0xC69 JUMP JUMPDEST PUSH2 0x22F PUSH2 0x301 CALLDATASIZE PUSH1 0x4 PUSH2 0x2A33 JUMP JUMPDEST PUSH2 0xD0D JUMP JUMPDEST PUSH2 0x260 PUSH2 0x314 CALLDATASIZE PUSH1 0x4 PUSH2 0x27FF JUMP JUMPDEST PUSH2 0xD98 JUMP JUMPDEST PUSH2 0x25A PUSH2 0xE32 JUMP JUMPDEST PUSH2 0x20F PUSH2 0x32F CALLDATASIZE PUSH1 0x4 PUSH2 0x2A33 JUMP JUMPDEST PUSH2 0xE98 JUMP JUMPDEST PUSH2 0x20F PUSH2 0x342 CALLDATASIZE PUSH1 0x4 PUSH2 0x2A33 JUMP JUMPDEST PUSH2 0xFA2 JUMP JUMPDEST PUSH1 0xB SLOAD PUSH1 0x1 PUSH1 0x1 PUSH1 0xA0 SHL SUB AND PUSH2 0x22F JUMP JUMPDEST PUSH1 0xA SLOAD PUSH1 0x1 PUSH1 0x1 PUSH1 0xA0 SHL SUB AND PUSH2 0x22F JUMP JUMPDEST PUSH2 0x20F PUSH2 0x10AC JUMP JUMPDEST PUSH1 0xB SLOAD PUSH2 0x22F SWAP1 PUSH1 0x1 PUSH1 0x1 PUSH1 0xA0 SHL SUB AND DUP2 JUMP JUMPDEST PUSH2 0x25A PUSH2 0x392 CALLDATASIZE PUSH1 0x4 PUSH2 0x299A JUMP JUMPDEST PUSH2 0x10BB JUMP JUMPDEST PUSH2 0x25A PUSH2 0x3A5 CALLDATASIZE PUSH1 0x4 PUSH2 0x27FF JUMP JUMPDEST PUSH2 0x1180 JUMP JUMPDEST PUSH2 0x25A PUSH2 0x3B8 CALLDATASIZE PUSH1 0x4 PUSH2 0x28BA JUMP JUMPDEST PUSH2 0x122C JUMP JUMPDEST PUSH2 0x20F PUSH2 0x3CB CALLDATASIZE PUSH1 0x4 PUSH2 0x2A33 JUMP JUMPDEST PUSH2 0x12BA JUMP JUMPDEST PUSH2 0x20F PUSH2 0x3DE CALLDATASIZE PUSH1 0x4 PUSH2 0x2A33 JUMP JUMPDEST PUSH2 0x13C4 JUMP JUMPDEST PUSH2 0x20F PUSH2 0x3F1 CALLDATASIZE PUSH1 0x4 PUSH2 0x2A33 JUMP JUMPDEST PUSH2 0x16B6 JUMP JUMPDEST PUSH2 0x1F2 PUSH2 0x404 CALLDATASIZE PUSH1 0x4 PUSH2 0x2840 JUMP JUMPDEST PUSH1 0x1 PUSH1 0x1 PUSH1 0xA0 SHL SUB SWAP2 DUP3 AND PUSH1 0x0 SWAP1 DUP2 MSTORE PUSH1 0x5 PUSH1 0x20 SWAP1 DUP2 MSTORE PUSH1 0x40 DUP1 DUP4 KECCAK256 SWAP4 SWAP1 SWAP5 AND DUP3 MSTORE SWAP2 SWAP1 SWAP2 MSTORE KECCAK256 SLOAD PUSH1 0xFF AND SWAP1 JUMP JUMPDEST PUSH2 0x25A PUSH2 0x440 CALLDATASIZE PUSH1 0x4 PUSH2 0x27FF JUMP JUMPDEST PUSH2 0x17C0 JUMP JUMPDEST PUSH2 0x20F PUSH2 0x453 CALLDATASIZE PUSH1 0x4 PUSH2 0x2A33 JUMP JUMPDEST PUSH2 0x18A2 JUMP JUMPDEST PUSH1 0x0 PUSH1 0x1 PUSH1 0x1 PUSH1 0xE0 SHL SUB NOT DUP3 AND PUSH32 0x780E9D6300000000000000000000000000000000000000000000000000000000 EQ DUP1 PUSH2 0x496 JUMPI POP PUSH2 0x496 DUP3 PUSH2 0x19AC JUMP JUMPDEST SWAP3 SWAP2 POP POP JUMP JUMPDEST PUSH1 0x60 PUSH1 0x0 DUP1 SLOAD PUSH2 0x4AB SWAP1 PUSH2 0x2EE6 JUMP JUMPDEST DUP1 PUSH1 0x1F ADD PUSH1 0x20 DUP1 SWAP2 DIV MUL PUSH1 0x20 ADD PUSH1 0x40 MLOAD SWAP1 DUP2 ADD PUSH1 0x40 MSTORE DUP1 SWAP3 SWAP2 SWAP1 DUP2 DUP2 MSTORE PUSH1 0x20 ADD DUP3 DUP1 SLOAD PUSH2 0x4D7 SWAP1 PUSH2 0x2EE6 JUMP JUMPDEST DUP1 ISZERO PUSH2 0x524 JUMPI DUP1 PUSH1 0x1F LT PUSH2 0x4F9 JUMPI PUSH2 0x100 DUP1 DUP4 SLOAD DIV MUL DUP4 MSTORE SWAP2 PUSH1 0x20 ADD SWAP2 PUSH2 0x524 JUMP JUMPDEST DUP3 ADD SWAP2 SWAP1 PUSH1 0x0 MSTORE PUSH1 0x20 PUSH1 0x0 KECCAK256 SWAP1 JUMPDEST DUP2 SLOAD DUP2 MSTORE SWAP1 PUSH1 0x1 ADD SWAP1 PUSH1 0x20 ADD DUP1 DUP4 GT PUSH2 0x507 JUMPI DUP3 SWAP1 SUB PUSH1 0x1F AND DUP3 ADD SWAP2 JUMPDEST POP POP POP POP POP SWAP1 POP SWAP1 JUMP JUMPDEST PUSH1 0x0 DUP2 DUP2 MSTORE PUSH1 0x2 PUSH1 0x20 MSTORE PUSH1 0x40 DUP2 KECCAK256 SLOAD PUSH1 0x1 PUSH1 0x1 PUSH1 0xA0 SHL SUB AND PUSH2 0x5AC JUMPI PUSH1 0x40 MLOAD PUSH3 0x461BCD PUSH1 0xE5 SHL DUP2 MSTORE PUSH1 0x20 PUSH1 0x4 DUP3 ADD MSTORE PUSH1 0x2C PUSH1 0x24 DUP3 ADD MSTORE PUSH32 0x4552433732313A20617070726F76656420717565727920666F72206E6F6E6578 PUSH1 0x44 DUP3 ADD MSTORE PUSH12 0x34B9BA32B73A103A37B5B2B7 PUSH1 0xA1 SHL PUSH1 0x64 DUP3 ADD MSTORE PUSH1 0x84 ADD JUMPDEST PUSH1 0x40 MLOAD DUP1 SWAP2 SUB SWAP1 REVERT JUMPDEST POP PUSH1 0x0 SWAP1 DUP2 MSTORE PUSH1 0x4 PUSH1 0x20 MSTORE PUSH1 0x40 SWAP1 KECCAK256 SLOAD PUSH1 0x1 PUSH1 0x1 PUSH1 0xA0 SHL SUB AND SWAP1 JUMP JUMPDEST PUSH1 0x0 PUSH2 0x5D3 DUP3 PUSH2 0xD0D JUMP JUMPDEST SWAP1 POP DUP1 PUSH1 0x1 PUSH1 0x1 PUSH1 0xA0 SHL SUB AND DUP4 PUSH1 0x1 PUSH1 0x1 PUSH1 0xA0 SHL SUB AND EQ ISZERO PUSH2 0x65D JUMPI PUSH1 0x40 MLOAD PUSH3 0x461BCD PUSH1 0xE5 SHL DUP2 MSTORE PUSH1 0x20 PUSH1 0x4 DUP3 ADD MSTORE PUSH1 0x21 PUSH1 0x24 DUP3 ADD MSTORE PUSH32 0x4552433732313A20617070726F76616C20746F2063757272656E74206F776E65 PUSH1 0x44 DUP3 ADD MSTORE PUSH32 0x7200000000000000000000000000000000000000000000000000000000000000 PUSH1 0x64 DUP3 ADD MSTORE PUSH1 0x84 ADD PUSH2 0x5A3 JUMP JUMPDEST CALLER PUSH1 0x1 PUSH1 0x1 PUSH1 0xA0 SHL SUB DUP3 AND EQ DUP1 PUSH2 0x679 JUMPI POP PUSH2 0x679 DUP2 CALLER PUSH2 0x404 JUMP JUMPDEST PUSH2 0x6EB JUMPI PUSH1 0x40 MLOAD PUSH3 0x461BCD PUSH1 0xE5 SHL DUP2 MSTORE PUSH1 0x20 PUSH1 0x4 DUP3 ADD MSTORE PUSH1 0x38 PUSH1 0x24 DUP3 ADD MSTORE PUSH32 0x4552433732313A20617070726F76652063616C6C6572206973206E6F74206F77 PUSH1 0x44 DUP3 ADD MSTORE PUSH32 0x6E6572206E6F7220617070726F76656420666F7220616C6C0000000000000000 PUSH1 0x64 DUP3 ADD MSTORE PUSH1 0x84 ADD PUSH2 0x5A3 JUMP JUMPDEST PUSH2 0x6F5 DUP4 DUP4 PUSH2 0x1A47 JUMP JUMPDEST POP POP POP JUMP JUMPDEST PUSH2 0x704 CALLER DUP3 PUSH2 0x1AB5 JUMP JUMPDEST PUSH2 0x776 JUMPI PUSH1 0x40 MLOAD PUSH3 0x461BCD PUSH1 0xE5 SHL DUP2 MSTORE PUSH1 0x20 PUSH1 0x4 DUP3 ADD MSTORE PUSH1 0x31 PUSH1 0x24 DUP3 ADD MSTORE PUSH32 0x4552433732313A207472616E736665722063616C6C6572206973206E6F74206F PUSH1 0x44 DUP3 ADD MSTORE PUSH32 0x776E6572206E6F7220617070726F766564000000000000000000000000000000 PUSH1 0x64 DUP3 ADD MSTORE PUSH1 0x84 ADD PUSH2 0x5A3 JUMP JUMPDEST PUSH2 0x6F5 DUP4 DUP4 DUP4 PUSH2 0x1BAC JUMP JUMPDEST PUSH1 0x0 PUSH2 0x78C DUP4 PUSH2 0xD98 JUMP JUMPDEST DUP3 LT PUSH2 0x800 JUMPI PUSH1 0x40 MLOAD PUSH3 0x461BCD PUSH1 0xE5 SHL DUP2 MSTORE PUSH1 0x20 PUSH1 0x4 DUP3 ADD MSTORE PUSH1 0x2B PUSH1 0x24 DUP3 ADD MSTORE PUSH32 0x455243373231456E756D657261626C653A206F776E657220696E646578206F75 PUSH1 0x44 DUP3 ADD MSTORE PUSH32 0x74206F6620626F756E6473000000000000000000000000000000000000000000 PUSH1 0x64 DUP3 ADD MSTORE PUSH1 0x84 ADD PUSH2 0x5A3 JUMP JUMPDEST POP PUSH1 0x1 PUSH1 0x1 PUSH1 0xA0 SHL SUB SWAP2 SWAP1 SWAP2 AND PUSH1 0x0 SWAP1 DUP2 MSTORE PUSH1 0x6 PUSH1 0x20 SWAP1 DUP2 MSTORE PUSH1 0x40 DUP1 DUP4 KECCAK256 SWAP4 DUP4 MSTORE SWAP3 SWAP1 MSTORE KECCAK256 SLOAD SWAP1 JUMP JUMPDEST PUSH1 0x2 PUSH1 0xC SLOAD EQ ISZERO PUSH2 0x87C JUMPI PUSH1 0x40 MLOAD PUSH3 0x461BCD PUSH1 0xE5 SHL DUP2 MSTORE PUSH1 0x20 PUSH1 0x4 DUP3 ADD MSTORE PUSH1 0x1F PUSH1 0x24 DUP3 ADD MSTORE PUSH32 0x5265656E7472616E637947756172643A207265656E7472616E742063616C6C00 PUSH1 0x44 DUP3 ADD MSTORE PUSH1 0x64 ADD PUSH2 0x5A3 JUMP JUMPDEST PUSH1 0x2 PUSH1 0xC SSTORE DUP1 CALLER PUSH1 0xB SLOAD PUSH1 0x40 MLOAD PUSH32 0x6352211E00000000000000000000000000000000000000000000000000000000 DUP2 MSTORE PUSH1 0x4 DUP2 ADD DUP5 SWAP1 MSTORE PUSH1 0x1 PUSH1 0x1 PUSH1 0xA0 SHL SUB SWAP3 DUP4 AND SWAP3 SWAP1 SWAP2 AND SWAP1 PUSH4 0x6352211E SWAP1 PUSH1 0x24 ADD PUSH1 0x20 PUSH1 0x40 MLOAD DUP1 DUP4 SUB DUP2 DUP7 DUP1 EXTCODESIZE ISZERO DUP1 ISZERO PUSH2 0x8E4 JUMPI PUSH1 0x0 DUP1 REVERT JUMPDEST POP GAS STATICCALL ISZERO DUP1 ISZERO PUSH2 0x8F8 JUMPI RETURNDATASIZE PUSH1 0x0 DUP1 RETURNDATACOPY RETURNDATASIZE PUSH1 0x0 REVERT JUMPDEST POP POP POP POP PUSH1 0x40 MLOAD RETURNDATASIZE PUSH1 0x1F NOT PUSH1 0x1F DUP3 ADD AND DUP3 ADD DUP1 PUSH1 0x40 MSTORE POP DUP2 ADD SWAP1 PUSH2 0x91C SWAP2 SWAP1 PUSH2 0x2823 JUMP JUMPDEST PUSH1 0x1 PUSH1 0x1 PUSH1 0xA0 SHL SUB AND EQ PUSH2 0x998 JUMPI PUSH1 0x40 MLOAD PUSH3 0x461BCD PUSH1 0xE5 SHL DUP2 MSTORE PUSH1 0x20 PUSH1 0x4 DUP3 ADD MSTORE PUSH1 0x22 PUSH1 0x24 DUP3 ADD MSTORE PUSH32 0x486F6C6461626C653A2063616C6C6572206973206E6F742074686520686F6C64 PUSH1 0x44 DUP3 ADD MSTORE PUSH32 0x6572000000000000000000000000000000000000000000000000000000000000 PUSH1 0x64 DUP3 ADD MSTORE PUSH1 0x84 ADD PUSH2 0x5A3 JUMP JUMPDEST PUSH1 0x0 DUP3 GT DUP1 ISZERO PUSH2 0x9A9 JUMPI POP PUSH2 0x1E62 DUP3 LT JUMPDEST PUSH2 0x9F5 JUMPI PUSH1 0x40 MLOAD PUSH3 0x461BCD PUSH1 0xE5 SHL DUP2 MSTORE PUSH1 0x20 PUSH1 0x4 DUP3 ADD MSTORE PUSH1 0x10 PUSH1 0x24 DUP3 ADD MSTORE PUSH32 0x546F6B656E20494420696E76616C696400000000000000000000000000000000 PUSH1 0x44 DUP3 ADD MSTORE PUSH1 0x64 ADD PUSH2 0x5A3 JUMP JUMPDEST PUSH2 0x9FF CALLER DUP4 PUSH2 0x1D84 JUMP JUMPDEST POP POP PUSH1 0x1 PUSH1 0xC SSTORE JUMP JUMPDEST PUSH1 0x60 PUSH2 0x496 DUP3 PUSH1 0x40 MLOAD DUP1 PUSH1 0x40 ADD PUSH1 0x40 MSTORE DUP1 PUSH1 0xD DUP2 MSTORE PUSH1 0x20 ADD PUSH32 0x46414349414C4645415455524500000000000000000000000000000000000000 DUP2 MSTORE POP PUSH1 0x11 DUP1 SLOAD DUP1 PUSH1 0x20 MUL PUSH1 0x20 ADD PUSH1 0x40 MLOAD SWAP1 DUP2 ADD PUSH1 0x40 MSTORE DUP1 SWAP3 SWAP2 SWAP1 DUP2 DUP2 MSTORE PUSH1 0x20 ADD PUSH1 0x0 SWAP1 JUMPDEST DUP3 DUP3 LT ISZERO PUSH2 0xB12 JUMPI DUP4 DUP3 SWAP1 PUSH1 0x0 MSTORE PUSH1 0x20 PUSH1 0x0 KECCAK256 ADD DUP1 SLOAD PUSH2 0xA85 SWAP1 PUSH2 0x2EE6 JUMP JUMPDEST DUP1 PUSH1 0x1F ADD PUSH1 0x20 DUP1 SWAP2 DIV MUL PUSH1 0x20 ADD PUSH1 0x40 MLOAD SWAP1 DUP2 ADD PUSH1 0x40 MSTORE DUP1 SWAP3 SWAP2 SWAP1 DUP2 DUP2 MSTORE PUSH1 0x20 ADD DUP3 DUP1 SLOAD PUSH2 0xAB1 SWAP1 PUSH2 0x2EE6 JUMP JUMPDEST DUP1 ISZERO PUSH2 0xAFE JUMPI DUP1 PUSH1 0x1F LT PUSH2 0xAD3 JUMPI PUSH2 0x100 DUP1 DUP4 SLOAD DIV MUL DUP4 MSTORE SWAP2 PUSH1 0x20 ADD SWAP2 PUSH2 0xAFE JUMP JUMPDEST DUP3 ADD SWAP2 SWAP1 PUSH1 0x0 MSTORE PUSH1 0x20 PUSH1 0x0 KECCAK256 SWAP1 JUMPDEST DUP2 SLOAD DUP2 MSTORE SWAP1 PUSH1 0x1 ADD SWAP1 PUSH1 0x20 ADD DUP1 DUP4 GT PUSH2 0xAE1 JUMPI DUP3 SWAP1 SUB PUSH1 0x1F AND DUP3 ADD SWAP2 JUMPDEST POP POP POP POP POP DUP2 MSTORE PUSH1 0x20 ADD SWAP1 PUSH1 0x1 ADD SWAP1 PUSH2 0xA66 JUMP JUMPDEST POP POP POP POP PUSH2 0x1DA2 JUMP JUMPDEST PUSH2 0x6F5 DUP4 DUP4 DUP4 PUSH1 0x40 MLOAD DUP1 PUSH1 0x20 ADD PUSH1 0x40 MSTORE DUP1 PUSH1 0x0 DUP2 MSTORE POP PUSH2 0x122C JUMP JUMPDEST PUSH1 0x2 PUSH1 0xC SLOAD EQ ISZERO PUSH2 0xB89 JUMPI PUSH1 0x40 MLOAD PUSH3 0x461BCD PUSH1 0xE5 SHL DUP2 MSTORE PUSH1 0x20 PUSH1 0x4 DUP3 ADD MSTORE PUSH1 0x1F PUSH1 0x24 DUP3 ADD MSTORE PUSH32 0x5265656E7472616E637947756172643A207265656E7472616E742063616C6C00 PUSH1 0x44 DUP3 ADD MSTORE PUSH1 0x64 ADD PUSH2 0x5A3 JUMP JUMPDEST PUSH1 0x2 PUSH1 0xC SSTORE PUSH1 0xA SLOAD PUSH1 0x1 PUSH1 0x1 PUSH1 0xA0 SHL SUB AND CALLER EQ PUSH2 0xBE8 JUMPI PUSH1 0x40 MLOAD PUSH3 0x461BCD PUSH1 0xE5 SHL DUP2 MSTORE PUSH1 0x20 PUSH1 0x4 DUP3 ADD DUP2 SWAP1 MSTORE PUSH1 0x24 DUP3 ADD MSTORE PUSH32 0x4F776E61626C653A2063616C6C6572206973206E6F7420746865206F776E6572 PUSH1 0x44 DUP3 ADD MSTORE PUSH1 0x64 ADD PUSH2 0x5A3 JUMP JUMPDEST PUSH2 0x1E61 DUP2 GT DUP1 ISZERO PUSH2 0xBFA JUMPI POP PUSH2 0x1F41 DUP2 LT JUMPDEST PUSH2 0xC46 JUMPI PUSH1 0x40 MLOAD PUSH3 0x461BCD PUSH1 0xE5 SHL DUP2 MSTORE PUSH1 0x20 PUSH1 0x4 DUP3 ADD MSTORE PUSH1 0x10 PUSH1 0x24 DUP3 ADD MSTORE PUSH32 0x546F6B656E20494420696E76616C696400000000000000000000000000000000 PUSH1 0x44 DUP3 ADD MSTORE PUSH1 0x64 ADD PUSH2 0x5A3 JUMP JUMPDEST PUSH2 0xC61 PUSH2 0xC5B PUSH1 0xA SLOAD PUSH1 0x1 PUSH1 0x1 PUSH1 0xA0 SHL SUB AND SWAP1 JUMP JUMPDEST DUP3 PUSH2 0x1D84 JUMP JUMPDEST POP PUSH1 0x1 PUSH1 0xC SSTORE JUMP JUMPDEST PUSH1 0x0 PUSH2 0xC74 PUSH1 0x8 SLOAD SWAP1 JUMP JUMPDEST DUP3 LT PUSH2 0xCE8 JUMPI PUSH1 0x40 MLOAD PUSH3 0x461BCD PUSH1 0xE5 SHL DUP2 MSTORE PUSH1 0x20 PUSH1 0x4 DUP3 ADD MSTORE PUSH1 0x2C PUSH1 0x24 DUP3 ADD MSTORE PUSH32 0x455243373231456E756D657261626C653A20676C6F62616C20696E646578206F PUSH1 0x44 DUP3 ADD MSTORE PUSH32 0x7574206F6620626F756E64730000000000000000000000000000000000000000 PUSH1 0x64 DUP3 ADD MSTORE PUSH1 0x84 ADD PUSH2 0x5A3 JUMP JUMPDEST PUSH1 0x8 DUP3 DUP2 SLOAD DUP2 LT PUSH2 0xCFB JUMPI PUSH2 0xCFB PUSH2 0x2F92 JUMP JUMPDEST SWAP1 PUSH1 0x0 MSTORE PUSH1 0x20 PUSH1 0x0 KECCAK256 ADD SLOAD SWAP1 POP SWAP2 SWAP1 POP JUMP JUMPDEST PUSH1 0x0 DUP2 DUP2 MSTORE PUSH1 0x2 PUSH1 0x20 MSTORE PUSH1 0x40 DUP2 KECCAK256 SLOAD PUSH1 0x1 PUSH1 0x1 PUSH1 0xA0 SHL SUB AND DUP1 PUSH2 0x496 JUMPI PUSH1 0x40 MLOAD PUSH3 0x461BCD PUSH1 0xE5 SHL DUP2 MSTORE PUSH1 0x20 PUSH1 0x4 DUP3 ADD MSTORE PUSH1 0x29 PUSH1 0x24 DUP3 ADD MSTORE PUSH32 0x4552433732313A206F776E657220717565727920666F72206E6F6E6578697374 PUSH1 0x44 DUP3 ADD MSTORE PUSH32 0x656E7420746F6B656E0000000000000000000000000000000000000000000000 PUSH1 0x64 DUP3 ADD MSTORE PUSH1 0x84 ADD PUSH2 0x5A3 JUMP JUMPDEST PUSH1 0x0 PUSH1 0x1 PUSH1 0x1 PUSH1 0xA0 SHL SUB DUP3 AND PUSH2 0xE16 JUMPI PUSH1 0x40 MLOAD PUSH3 0x461BCD PUSH1 0xE5 SHL DUP2 MSTORE PUSH1 0x20 PUSH1 0x4 DUP3 ADD MSTORE PUSH1 0x2A PUSH1 0x24 DUP3 ADD MSTORE PUSH32 0x4552433732313A2062616C616E636520717565727920666F7220746865207A65 PUSH1 0x44 DUP3 ADD MSTORE PUSH32 0x726F206164647265737300000000000000000000000000000000000000000000 PUSH1 0x64 DUP3 ADD MSTORE PUSH1 0x84 ADD PUSH2 0x5A3 JUMP JUMPDEST POP PUSH1 0x1 PUSH1 0x1 PUSH1 0xA0 SHL SUB AND PUSH1 0x0 SWAP1 DUP2 MSTORE PUSH1 0x3 PUSH1 0x20 MSTORE PUSH1 0x40 SWAP1 KECCAK256 SLOAD SWAP1 JUMP JUMPDEST PUSH1 0xA SLOAD PUSH1 0x1 PUSH1 0x1 PUSH1 0xA0 SHL SUB AND CALLER EQ PUSH2 0xE8C JUMPI PUSH1 0x40 MLOAD PUSH3 0x461BCD PUSH1 0xE5 SHL DUP2 MSTORE PUSH1 0x20 PUSH1 0x4 DUP3 ADD DUP2 SWAP1 MSTORE PUSH1 0x24 DUP3 ADD MSTORE PUSH32 0x4F776E61626C653A2063616C6C6572206973206E6F7420746865206F776E6572 PUSH1 0x44 DUP3 ADD MSTORE PUSH1 0x64 ADD PUSH2 0x5A3 JUMP JUMPDEST PUSH2 0xE96 PUSH1 0x0 PUSH2 0x1E9B JUMP JUMPDEST JUMP JUMPDEST PUSH1 0x60 PUSH2 0x496 DUP3 PUSH1 0x40 MLOAD DUP1 PUSH1 0x40 ADD PUSH1 0x40 MSTORE DUP1 PUSH1 0xE DUP2 MSTORE PUSH1 0x20 ADD PUSH32 0x535452454E4754484F4652414345000000000000000000000000000000000000 DUP2 MSTORE POP PUSH1 0xF DUP1 SLOAD DUP1 PUSH1 0x20 MUL PUSH1 0x20 ADD PUSH1 0x40 MLOAD SWAP1 DUP2 ADD PUSH1 0x40 MSTORE DUP1 SWAP3 SWAP2 SWAP1 DUP2 DUP2 MSTORE PUSH1 0x20 ADD PUSH1 0x0 SWAP1 JUMPDEST DUP3 DUP3 LT ISZERO PUSH2 0xB12 JUMPI DUP4 DUP3 SWAP1 PUSH1 0x0 MSTORE PUSH1 0x20 PUSH1 0x0 KECCAK256 ADD DUP1 SLOAD PUSH2 0xF15 SWAP1 PUSH2 0x2EE6 JUMP JUMPDEST DUP1 PUSH1 0x1F ADD PUSH1 0x20 DUP1 SWAP2 DIV MUL PUSH1 0x20 ADD PUSH1 0x40 MLOAD SWAP1 DUP2 ADD PUSH1 0x40 MSTORE DUP1 SWAP3 SWAP2 SWAP1 DUP2 DUP2 MSTORE PUSH1 0x20 ADD DUP3 DUP1 SLOAD PUSH2 0xF41 SWAP1 PUSH2 0x2EE6 JUMP JUMPDEST DUP1 ISZERO PUSH2 0xF8E JUMPI DUP1 PUSH1 0x1F LT PUSH2 0xF63 JUMPI PUSH2 0x100 DUP1 DUP4 SLOAD DIV MUL DUP4 MSTORE SWAP2 PUSH1 0x20 ADD SWAP2 PUSH2 0xF8E JUMP JUMPDEST DUP3 ADD SWAP2 SWAP1 PUSH1 0x0 MSTORE PUSH1 0x20 PUSH1 0x0 KECCAK256 SWAP1 JUMPDEST DUP2 SLOAD DUP2 MSTORE SWAP1 PUSH1 0x1 ADD SWAP1 PUSH1 0x20 ADD DUP1 DUP4 GT PUSH2 0xF71 JUMPI DUP3 SWAP1 SUB PUSH1 0x1F AND DUP3 ADD SWAP2 JUMPDEST POP POP POP POP POP DUP2 MSTORE PUSH1 0x20 ADD SWAP1 PUSH1 0x1 ADD SWAP1 PUSH2 0xEF6 JUMP JUMPDEST PUSH1 0x60 PUSH2 0x496 DUP3 PUSH1 0x40 MLOAD DUP1 PUSH1 0x40 ADD PUSH1 0x40 MSTORE DUP1 PUSH1 0xF DUP2 MSTORE PUSH1 0x20 ADD PUSH32 0x494D5052455353495645434F4C4F520000000000000000000000000000000000 DUP2 MSTORE POP PUSH1 0x10 DUP1 SLOAD DUP1 PUSH1 0x20 MUL PUSH1 0x20 ADD PUSH1 0x40 MLOAD SWAP1 DUP2 ADD PUSH1 0x40 MSTORE DUP1 SWAP3 SWAP2 SWAP1 DUP2 DUP2 MSTORE PUSH1 0x20 ADD PUSH1 0x0 SWAP1 JUMPDEST DUP3 DUP3 LT ISZERO PUSH2 0xB12 JUMPI DUP4 DUP3 SWAP1 PUSH1 0x0 MSTORE PUSH1 0x20 PUSH1 0x0 KECCAK256 ADD DUP1 SLOAD PUSH2 0x101F SWAP1 PUSH2 0x2EE6 JUMP JUMPDEST DUP1 PUSH1 0x1F ADD PUSH1 0x20 DUP1 SWAP2 DIV MUL PUSH1 0x20 ADD PUSH1 0x40 MLOAD SWAP1 DUP2 ADD PUSH1 0x40 MSTORE DUP1 SWAP3 SWAP2 SWAP1 DUP2 DUP2 MSTORE PUSH1 0x20 ADD DUP3 DUP1 SLOAD PUSH2 0x104B SWAP1 PUSH2 0x2EE6 JUMP JUMPDEST DUP1 ISZERO PUSH2 0x1098 JUMPI DUP1 PUSH1 0x1F LT PUSH2 0x106D JUMPI PUSH2 0x100 DUP1 DUP4 SLOAD DIV MUL DUP4 MSTORE SWAP2 PUSH1 0x20 ADD SWAP2 PUSH2 0x1098 JUMP JUMPDEST DUP3 ADD SWAP2 SWAP1 PUSH1 0x0 MSTORE PUSH1 0x20 PUSH1 0x0 KECCAK256 SWAP1 JUMPDEST DUP2 SLOAD DUP2 MSTORE SWAP1 PUSH1 0x1 ADD SWAP1 PUSH1 0x20 ADD DUP1 DUP4 GT PUSH2 0x107B JUMPI DUP3 SWAP1 SUB PUSH1 0x1F AND DUP3 ADD SWAP2 JUMPDEST POP POP POP POP POP DUP2 MSTORE PUSH1 0x20 ADD SWAP1 PUSH1 0x1 ADD SWAP1 PUSH2 0x1000 JUMP JUMPDEST PUSH1 0x60 PUSH1 0x1 DUP1 SLOAD PUSH2 0x4AB SWAP1 PUSH2 0x2EE6 JUMP JUMPDEST PUSH1 0x1 PUSH1 0x1 PUSH1 0xA0 SHL SUB DUP3 AND CALLER EQ ISZERO PUSH2 0x1114 JUMPI PUSH1 0x40 MLOAD PUSH3 0x461BCD PUSH1 0xE5 SHL DUP2 MSTORE PUSH1 0x20 PUSH1 0x4 DUP3 ADD MSTORE PUSH1 0x19 PUSH1 0x24 DUP3 ADD MSTORE PUSH32 0x4552433732313A20617070726F766520746F2063616C6C657200000000000000 PUSH1 0x44 DUP3 ADD MSTORE PUSH1 0x64 ADD PUSH2 0x5A3 JUMP JUMPDEST CALLER PUSH1 0x0 DUP2 DUP2 MSTORE PUSH1 0x5 PUSH1 0x20 SWAP1 DUP2 MSTORE PUSH1 0x40 DUP1 DUP4 KECCAK256 PUSH1 0x1 PUSH1 0x1 PUSH1 0xA0 SHL SUB DUP8 AND DUP1 DUP6 MSTORE SWAP1 DUP4 MSTORE SWAP3 DUP2 SWAP1 KECCAK256 DUP1 SLOAD PUSH1 0xFF NOT AND DUP7 ISZERO ISZERO SWAP1 DUP2 OR SWAP1 SWAP2 SSTORE SWAP1 MLOAD SWAP1 DUP2 MSTORE SWAP2 SWAP3 SWAP2 PUSH32 0x17307EAB39AB6107E8899845AD3D59BD9653F200F220920489CA2B5937696C31 SWAP2 ADD PUSH1 0x40 MLOAD DUP1 SWAP2 SUB SWAP1 LOG3 POP POP JUMP JUMPDEST PUSH1 0xA SLOAD PUSH1 0x1 PUSH1 0x1 PUSH1 0xA0 SHL SUB AND CALLER EQ PUSH2 0x11DA JUMPI PUSH1 0x40 MLOAD PUSH3 0x461BCD PUSH1 0xE5 SHL DUP2 MSTORE PUSH1 0x20 PUSH1 0x4 DUP3 ADD DUP2 SWAP1 MSTORE PUSH1 0x24 DUP3 ADD MSTORE PUSH32 0x4F776E61626C653A2063616C6C6572206973206E6F7420746865206F776E6572 PUSH1 0x44 DUP3 ADD MSTORE PUSH1 0x64 ADD PUSH2 0x5A3 JUMP JUMPDEST PUSH1 0xB DUP1 SLOAD PUSH1 0x1 PUSH1 0x1 PUSH1 0xA0 SHL SUB DUP4 DUP2 AND PUSH1 0x1 PUSH1 0x1 PUSH1 0xA0 SHL SUB NOT DUP4 AND DUP2 OR SWAP1 SWAP4 SSTORE PUSH1 0x40 MLOAD SWAP2 AND SWAP2 SWAP1 DUP3 SWAP1 PUSH32 0x9DABF3AFAE828BA590CBC2A5CD78456A9C86160D91461150184B48117F2B216B SWAP1 PUSH1 0x0 SWAP1 LOG3 POP POP JUMP JUMPDEST PUSH2 0x1236 CALLER DUP4 PUSH2 0x1AB5 JUMP JUMPDEST PUSH2 0x12A8 JUMPI PUSH1 0x40 MLOAD PUSH3 0x461BCD PUSH1 0xE5 SHL DUP2 MSTORE PUSH1 0x20 PUSH1 0x4 DUP3 ADD MSTORE PUSH1 0x31 PUSH1 0x24 DUP3 ADD MSTORE PUSH32 0x4552433732313A207472616E736665722063616C6C6572206973206E6F74206F PUSH1 0x44 DUP3 ADD MSTORE PUSH32 0x776E6572206E6F7220617070726F766564000000000000000000000000000000 PUSH1 0x64 DUP3 ADD MSTORE PUSH1 0x84 ADD PUSH2 0x5A3 JUMP JUMPDEST PUSH2 0x12B4 DUP5 DUP5 DUP5 DUP5 PUSH2 0x1EED JUMP JUMPDEST POP POP POP POP JUMP JUMPDEST PUSH1 0x60 PUSH2 0x496 DUP3 PUSH1 0x40 MLOAD DUP1 PUSH1 0x40 ADD PUSH1 0x40 MSTORE DUP1 PUSH1 0x11 DUP2 MSTORE PUSH1 0x20 ADD PUSH32 0x415050454152414E434546454154555245000000000000000000000000000000 DUP2 MSTORE POP PUSH1 0x12 DUP1 SLOAD DUP1 PUSH1 0x20 MUL PUSH1 0x20 ADD PUSH1 0x40 MLOAD SWAP1 DUP2 ADD PUSH1 0x40 MSTORE DUP1 SWAP3 SWAP2 SWAP1 DUP2 DUP2 MSTORE PUSH1 0x20 ADD PUSH1 0x0 SWAP1 JUMPDEST DUP3 DUP3 LT ISZERO PUSH2 0xB12 JUMPI DUP4 DUP3 SWAP1 PUSH1 0x0 MSTORE PUSH1 0x20 PUSH1 0x0 KECCAK256 ADD DUP1 SLOAD PUSH2 0x1337 SWAP1 PUSH2 0x2EE6 JUMP JUMPDEST DUP1 PUSH1 0x1F ADD PUSH1 0x20 DUP1 SWAP2 DIV MUL PUSH1 0x20 ADD PUSH1 0x40 MLOAD SWAP1 DUP2 ADD PUSH1 0x40 MSTORE DUP1 SWAP3 SWAP2 SWAP1 DUP2 DUP2 MSTORE PUSH1 0x20 ADD DUP3 DUP1 SLOAD PUSH2 0x1363 SWAP1 PUSH2 0x2EE6 JUMP JUMPDEST DUP1 ISZERO PUSH2 0x13B0 JUMPI DUP1 PUSH1 0x1F LT PUSH2 0x1385 JUMPI PUSH2 0x100 DUP1 DUP4 SLOAD DIV MUL DUP4 MSTORE SWAP2 PUSH1 0x20 ADD SWAP2 PUSH2 0x13B0 JUMP JUMPDEST DUP3 ADD SWAP2 SWAP1 PUSH1 0x0 MSTORE PUSH1 0x20 PUSH1 0x0 KECCAK256 SWAP1 JUMPDEST DUP2 SLOAD DUP2 MSTORE SWAP1 PUSH1 0x1 ADD SWAP1 PUSH1 0x20 ADD DUP1 DUP4 GT PUSH2 0x1393 JUMPI DUP3 SWAP1 SUB PUSH1 0x1F AND DUP3 ADD SWAP2 JUMPDEST POP POP POP POP POP DUP2 MSTORE PUSH1 0x20 ADD SWAP1 PUSH1 0x1 ADD SWAP1 PUSH2 0x1318 JUMP JUMPDEST PUSH1 0x60 PUSH2 0x13CE PUSH2 0x27D7 JUMP JUMPDEST PUSH1 0x40 MLOAD DUP1 PUSH2 0x140 ADD PUSH1 0x40 MSTORE DUP1 PUSH2 0x101 DUP2 MSTORE PUSH1 0x20 ADD PUSH2 0x2FEA PUSH2 0x101 SWAP2 CODECOPY DUP2 MSTORE PUSH1 0x40 DUP1 MLOAD DUP1 DUP3 ADD SWAP1 SWAP2 MSTORE PUSH1 0x19 DUP2 MSTORE PUSH32 0x416E696D654C6F6F742043686172616374657269737469637300000000000000 PUSH1 0x20 DUP3 ADD MSTORE DUP2 PUSH1 0x1 PUSH1 0x20 MUL ADD DUP2 SWAP1 MSTORE POP PUSH1 0x40 MLOAD DUP1 PUSH1 0x60 ADD PUSH1 0x40 MSTORE DUP1 PUSH1 0x28 DUP2 MSTORE PUSH1 0x20 ADD PUSH2 0x321F PUSH1 0x28 SWAP2 CODECOPY PUSH1 0x40 DUP3 ADD MSTORE PUSH2 0x1452 DUP4 PUSH2 0x18A2 JUMP JUMPDEST PUSH1 0x60 DUP1 DUP4 ADD SWAP2 SWAP1 SWAP2 MSTORE PUSH1 0x40 DUP1 MLOAD SWAP2 DUP3 ADD SWAP1 MSTORE PUSH1 0x28 DUP1 DUP3 MSTORE PUSH2 0x30EB PUSH1 0x20 DUP4 ADD CODECOPY PUSH1 0x80 DUP3 ADD MSTORE PUSH2 0x147F DUP4 PUSH2 0x16B6 JUMP JUMPDEST PUSH1 0xA0 DUP3 ADD MSTORE PUSH1 0x40 DUP1 MLOAD PUSH1 0x60 DUP2 ADD SWAP1 SWAP2 MSTORE PUSH1 0x28 DUP1 DUP3 MSTORE PUSH2 0x3165 PUSH1 0x20 DUP4 ADD CODECOPY PUSH1 0xC0 DUP3 ADD MSTORE PUSH2 0x14AA DUP4 PUSH2 0xE98 JUMP JUMPDEST PUSH1 0xE0 DUP3 ADD MSTORE PUSH1 0x40 DUP1 MLOAD PUSH1 0x60 DUP2 ADD SWAP1 SWAP2 MSTORE PUSH1 0x29 DUP1 DUP3 MSTORE PUSH2 0x318D PUSH1 0x20 DUP4 ADD CODECOPY PUSH2 0x100 DUP3 ADD MSTORE PUSH2 0x14D6 DUP4 PUSH2 0xFA2 JUMP JUMPDEST PUSH2 0x120 DUP3 ADD MSTORE PUSH1 0x40 DUP1 MLOAD PUSH1 0x60 DUP2 ADD SWAP1 SWAP2 MSTORE PUSH1 0x29 DUP1 DUP3 MSTORE PUSH2 0x313C PUSH1 0x20 DUP4 ADD CODECOPY PUSH2 0x140 DUP3 ADD MSTORE PUSH2 0x1503 DUP4 PUSH2 0xA08 JUMP JUMPDEST PUSH2 0x160 DUP3 ADD MSTORE PUSH1 0x40 DUP1 MLOAD PUSH1 0x60 DUP2 ADD SWAP1 SWAP2 MSTORE PUSH1 0x29 DUP1 DUP3 MSTORE PUSH2 0x31B6 PUSH1 0x20 DUP4 ADD CODECOPY PUSH2 0x180 DUP3 ADD MSTORE PUSH2 0x1530 DUP4 PUSH2 0x12BA JUMP JUMPDEST PUSH2 0x1A0 DUP3 ADD MSTORE PUSH1 0x40 DUP1 MLOAD PUSH1 0x60 DUP2 ADD SWAP1 SWAP2 MSTORE PUSH1 0x29 DUP1 DUP3 MSTORE PUSH2 0x3113 PUSH1 0x20 DUP4 ADD CODECOPY PUSH2 0x1C0 DUP3 ADD MSTORE PUSH1 0x40 DUP1 MLOAD PUSH1 0x20 DUP1 DUP3 ADD DUP4 MSTORE PUSH1 0x0 DUP3 MSTORE PUSH2 0x1E0 DUP5 ADD SWAP2 SWAP1 SWAP2 MSTORE DUP2 MLOAD DUP1 DUP4 ADD SWAP1 SWAP3 MSTORE PUSH1 0xD DUP3 MSTORE PUSH32 0x3C2F746578743E3C2F7376673E00000000000000000000000000000000000000 SWAP1 DUP3 ADD MSTORE DUP2 PUSH1 0x10 PUSH1 0x20 SWAP1 DUP2 MUL SWAP2 SWAP1 SWAP2 ADD SWAP2 SWAP1 SWAP2 MSTORE DUP2 MLOAD DUP3 DUP3 ADD MLOAD PUSH1 0x40 DUP1 DUP6 ADD MLOAD PUSH1 0x60 DUP7 ADD MLOAD PUSH1 0x80 DUP8 ADD MLOAD PUSH1 0xA0 DUP9 ADD MLOAD PUSH1 0xC0 DUP10 ADD MLOAD PUSH1 0xE0 DUP11 ADD MLOAD PUSH2 0x100 DUP12 ADD MLOAD SWAP7 MLOAD PUSH1 0x0 SWAP11 PUSH2 0x15EA SWAP11 SWAP10 SWAP9 SWAP2 ADD PUSH2 0x2ADF JUMP JUMPDEST PUSH1 0x40 DUP1 MLOAD DUP1 DUP4 SUB PUSH1 0x1F NOT ADD DUP2 MSTORE SWAP1 DUP3 SWAP1 MSTORE PUSH2 0x120 DUP5 ADD MLOAD PUSH2 0x140 DUP6 ADD MLOAD PUSH2 0x160 DUP7 ADD MLOAD PUSH2 0x180 DUP8 ADD MLOAD PUSH2 0x1A0 DUP9 ADD MLOAD PUSH2 0x1C0 DUP10 ADD MLOAD PUSH2 0x1E0 DUP11 ADD MLOAD PUSH2 0x200 DUP12 ADD MLOAD SWAP8 SWAP10 POP PUSH2 0x163D SWAP9 DUP11 SWAP9 SWAP1 PUSH1 0x20 ADD PUSH2 0x2ADF JUMP JUMPDEST PUSH1 0x40 MLOAD PUSH1 0x20 DUP2 DUP4 SUB SUB DUP2 MSTORE SWAP1 PUSH1 0x40 MSTORE SWAP1 POP PUSH1 0x0 PUSH2 0x168A PUSH2 0x165C DUP7 PUSH2 0x1F6B JUMP JUMPDEST PUSH2 0x1665 DUP5 PUSH2 0x209D JUMP JUMPDEST PUSH1 0x40 MLOAD PUSH1 0x20 ADD PUSH2 0x1676 SWAP3 SWAP2 SWAP1 PUSH2 0x2BA0 JUMP JUMPDEST PUSH1 0x40 MLOAD PUSH1 0x20 DUP2 DUP4 SUB SUB DUP2 MSTORE SWAP1 PUSH1 0x40 MSTORE PUSH2 0x209D JUMP JUMPDEST SWAP1 POP DUP1 PUSH1 0x40 MLOAD PUSH1 0x20 ADD PUSH2 0x169D SWAP2 SWAP1 PUSH2 0x2DC4 JUMP JUMPDEST PUSH1 0x40 DUP1 MLOAD PUSH1 0x1F NOT DUP2 DUP5 SUB ADD DUP2 MSTORE SWAP2 SWAP1 MSTORE SWAP6 SWAP5 POP POP POP POP POP JUMP JUMPDEST PUSH1 0x60 PUSH2 0x496 DUP3 PUSH1 0x40 MLOAD DUP1 PUSH1 0x40 ADD PUSH1 0x40 MSTORE DUP1 PUSH1 0x9 DUP2 MSTORE PUSH1 0x20 ADD PUSH32 0x424F445953484150450000000000000000000000000000000000000000000000 DUP2 MSTORE POP PUSH1 0xE DUP1 SLOAD DUP1 PUSH1 0x20 MUL PUSH1 0x20 ADD PUSH1 0x40 MLOAD SWAP1 DUP2 ADD PUSH1 0x40 MSTORE DUP1 SWAP3 SWAP2 SWAP1 DUP2 DUP2 MSTORE PUSH1 0x20 ADD PUSH1 0x0 SWAP1 JUMPDEST DUP3 DUP3 LT ISZERO PUSH2 0xB12 JUMPI DUP4 DUP3 SWAP1 PUSH1 0x0 MSTORE PUSH1 0x20 PUSH1 0x0 KECCAK256 ADD DUP1 SLOAD PUSH2 0x1733 SWAP1 PUSH2 0x2EE6 JUMP JUMPDEST DUP1 PUSH1 0x1F ADD PUSH1 0x20 DUP1 SWAP2 DIV MUL PUSH1 0x20 ADD PUSH1 0x40 MLOAD SWAP1 DUP2 ADD PUSH1 0x40 MSTORE DUP1 SWAP3 SWAP2 SWAP1 DUP2 DUP2 MSTORE PUSH1 0x20 ADD DUP3 DUP1 SLOAD PUSH2 0x175F SWAP1 PUSH2 0x2EE6 JUMP JUMPDEST DUP1 ISZERO PUSH2 0x17AC JUMPI DUP1 PUSH1 0x1F LT PUSH2 0x1781 JUMPI PUSH2 0x100 DUP1 DUP4 SLOAD DIV MUL DUP4 MSTORE SWAP2 PUSH1 0x20 ADD SWAP2 PUSH2 0x17AC JUMP JUMPDEST DUP3 ADD SWAP2 SWAP1 PUSH1 0x0 MSTORE PUSH1 0x20 PUSH1 0x0 KECCAK256 SWAP1 JUMPDEST DUP2 SLOAD DUP2 MSTORE SWAP1 PUSH1 0x1 ADD SWAP1 PUSH1 0x20 ADD DUP1 DUP4 GT PUSH2 0x178F JUMPI DUP3 SWAP1 SUB PUSH1 0x1F AND DUP3 ADD SWAP2 JUMPDEST POP POP POP POP POP DUP2 MSTORE PUSH1 0x20 ADD SWAP1 PUSH1 0x1 ADD SWAP1 PUSH2 0x1714 JUMP JUMPDEST PUSH1 0xA SLOAD PUSH1 0x1 PUSH1 0x1 PUSH1 0xA0 SHL SUB AND CALLER EQ PUSH2 0x181A JUMPI PUSH1 0x40 MLOAD PUSH3 0x461BCD PUSH1 0xE5 SHL DUP2 MSTORE PUSH1 0x20 PUSH1 0x4 DUP3 ADD DUP2 SWAP1 MSTORE PUSH1 0x24 DUP3 ADD MSTORE PUSH32 0x4F776E61626C653A2063616C6C6572206973206E6F7420746865206F776E6572 PUSH1 0x44 DUP3 ADD MSTORE PUSH1 0x64 ADD PUSH2 0x5A3 JUMP JUMPDEST PUSH1 0x1 PUSH1 0x1 PUSH1 0xA0 SHL SUB DUP2 AND PUSH2 0x1896 JUMPI PUSH1 0x40 MLOAD PUSH3 0x461BCD PUSH1 0xE5 SHL DUP2 MSTORE PUSH1 0x20 PUSH1 0x4 DUP3 ADD MSTORE PUSH1 0x26 PUSH1 0x24 DUP3 ADD MSTORE PUSH32 0x4F776E61626C653A206E6577206F776E657220697320746865207A65726F2061 PUSH1 0x44 DUP3 ADD MSTORE PUSH32 0x6464726573730000000000000000000000000000000000000000000000000000 PUSH1 0x64 DUP3 ADD MSTORE PUSH1 0x84 ADD PUSH2 0x5A3 JUMP JUMPDEST PUSH2 0x189F DUP2 PUSH2 0x1E9B JUMP JUMPDEST POP JUMP JUMPDEST PUSH1 0x60 PUSH2 0x496 DUP3 PUSH1 0x40 MLOAD DUP1 PUSH1 0x40 ADD PUSH1 0x40 MSTORE DUP1 PUSH1 0x6 DUP2 MSTORE PUSH1 0x20 ADD PUSH32 0x4845494748540000000000000000000000000000000000000000000000000000 DUP2 MSTORE POP PUSH1 0xD DUP1 SLOAD DUP1 PUSH1 0x20 MUL PUSH1 0x20 ADD PUSH1 0x40 MLOAD SWAP1 DUP2 ADD PUSH1 0x40 MSTORE DUP1 SWAP3 SWAP2 SWAP1 DUP2 DUP2 MSTORE PUSH1 0x20 ADD PUSH1 0x0 SWAP1 JUMPDEST DUP3 DUP3 LT ISZERO PUSH2 0xB12 JUMPI DUP4 DUP3 SWAP1 PUSH1 0x0 MSTORE PUSH1 0x20 PUSH1 0x0 KECCAK256 ADD DUP1 SLOAD PUSH2 0x191F SWAP1 PUSH2 0x2EE6 JUMP JUMPDEST DUP1 PUSH1 0x1F ADD PUSH1 0x20 DUP1 SWAP2 DIV MUL PUSH1 0x20 ADD PUSH1 0x40 MLOAD SWAP1 DUP2 ADD PUSH1 0x40 MSTORE DUP1 SWAP3 SWAP2 SWAP1 DUP2 DUP2 MSTORE PUSH1 0x20 ADD DUP3 DUP1 SLOAD PUSH2 0x194B SWAP1 PUSH2 0x2EE6 JUMP JUMPDEST DUP1 ISZERO PUSH2 0x1998 JUMPI DUP1 PUSH1 0x1F LT PUSH2 0x196D JUMPI PUSH2 0x100 DUP1 DUP4 SLOAD DIV MUL DUP4 MSTORE SWAP2 PUSH1 0x20 ADD SWAP2 PUSH2 0x1998 JUMP JUMPDEST DUP3 ADD SWAP2 SWAP1 PUSH1 0x0 MSTORE PUSH1 0x20 PUSH1 0x0 KECCAK256 SWAP1 JUMPDEST DUP2 SLOAD DUP2 MSTORE SWAP1 PUSH1 0x1 ADD SWAP1 PUSH1 0x20 ADD DUP1 DUP4 GT PUSH2 0x197B JUMPI DUP3 SWAP1 SUB PUSH1 0x1F AND DUP3 ADD SWAP2 JUMPDEST POP POP POP POP POP DUP2 MSTORE PUSH1 0x20 ADD SWAP1 PUSH1 0x1 ADD SWAP1 PUSH2 0x1900 JUMP JUMPDEST PUSH1 0x0 PUSH1 0x1 PUSH1 0x1 PUSH1 0xE0 SHL SUB NOT DUP3 AND PUSH32 0x80AC58CD00000000000000000000000000000000000000000000000000000000 EQ DUP1 PUSH2 0x1A0F JUMPI POP PUSH1 0x1 PUSH1 0x1 PUSH1 0xE0 SHL SUB NOT DUP3 AND PUSH32 0x5B5E139F00000000000000000000000000000000000000000000000000000000 EQ JUMPDEST DUP1 PUSH2 0x496 JUMPI POP PUSH32 0x1FFC9A700000000000000000000000000000000000000000000000000000000 PUSH1 0x1 PUSH1 0x1 PUSH1 0xE0 SHL SUB NOT DUP4 AND EQ PUSH2 0x496 JUMP JUMPDEST PUSH1 0x0 DUP2 DUP2 MSTORE PUSH1 0x4 PUSH1 0x20 MSTORE PUSH1 0x40 SWAP1 KECCAK256 DUP1 SLOAD PUSH1 0x1 PUSH1 0x1 PUSH1 0xA0 SHL SUB NOT AND PUSH1 0x1 PUSH1 0x1 PUSH1 0xA0 SHL SUB DUP5 AND SWAP1 DUP2 OR SWAP1 SWAP2 SSTORE DUP2 SWAP1 PUSH2 0x1A7C DUP3 PUSH2 0xD0D JUMP JUMPDEST PUSH1 0x1 PUSH1 0x1 PUSH1 0xA0 SHL SUB AND PUSH32 0x8C5BE1E5EBEC7D5BD14F71427D1E84F3DD0314C0F7B2291E5B200AC8C7C3B925 PUSH1 0x40 MLOAD PUSH1 0x40 MLOAD DUP1 SWAP2 SUB SWAP1 LOG4 POP POP JUMP JUMPDEST PUSH1 0x0 DUP2 DUP2 MSTORE PUSH1 0x2 PUSH1 0x20 MSTORE PUSH1 0x40 DUP2 KECCAK256 SLOAD PUSH1 0x1 PUSH1 0x1 PUSH1 0xA0 SHL SUB AND PUSH2 0x1B2E JUMPI PUSH1 0x40 MLOAD PUSH3 0x461BCD PUSH1 0xE5 SHL DUP2 MSTORE PUSH1 0x20 PUSH1 0x4 DUP3 ADD MSTORE PUSH1 0x2C PUSH1 0x24 DUP3 ADD MSTORE PUSH32 0x4552433732313A206F70657261746F7220717565727920666F72206E6F6E6578 PUSH1 0x44 DUP3 ADD MSTORE PUSH12 0x34B9BA32B73A103A37B5B2B7 PUSH1 0xA1 SHL PUSH1 0x64 DUP3 ADD MSTORE PUSH1 0x84 ADD PUSH2 0x5A3 JUMP JUMPDEST PUSH1 0x0 PUSH2 0x1B39 DUP4 PUSH2 0xD0D JUMP JUMPDEST SWAP1 POP DUP1 PUSH1 0x1 PUSH1 0x1 PUSH1 0xA0 SHL SUB AND DUP5 PUSH1 0x1 PUSH1 0x1 PUSH1 0xA0 SHL SUB AND EQ DUP1 PUSH2 0x1B74 JUMPI POP DUP4 PUSH1 0x1 PUSH1 0x1 PUSH1 0xA0 SHL SUB AND PUSH2 0x1B69 DUP5 PUSH2 0x52E JUMP JUMPDEST PUSH1 0x1 PUSH1 0x1 PUSH1 0xA0 SHL SUB AND EQ JUMPDEST DUP1 PUSH2 0x1BA4 JUMPI POP PUSH1 0x1 PUSH1 0x1 PUSH1 0xA0 SHL SUB DUP1 DUP3 AND PUSH1 0x0 SWAP1 DUP2 MSTORE PUSH1 0x5 PUSH1 0x20 SWAP1 DUP2 MSTORE PUSH1 0x40 DUP1 DUP4 KECCAK256 SWAP4 DUP9 AND DUP4 MSTORE SWAP3 SWAP1 MSTORE KECCAK256 SLOAD PUSH1 0xFF AND JUMPDEST SWAP5 SWAP4 POP POP POP POP JUMP JUMPDEST DUP3 PUSH1 0x1 PUSH1 0x1 PUSH1 0xA0 SHL SUB AND PUSH2 0x1BBF DUP3 PUSH2 0xD0D JUMP JUMPDEST PUSH1 0x1 PUSH1 0x1 PUSH1 0xA0 SHL SUB AND EQ PUSH2 0x1C3B JUMPI PUSH1 0x40 MLOAD PUSH3 0x461BCD PUSH1 0xE5 SHL DUP2 MSTORE PUSH1 0x20 PUSH1 0x4 DUP3 ADD MSTORE PUSH1 0x29 PUSH1 0x24 DUP3 ADD MSTORE PUSH32 0x4552433732313A207472616E73666572206F6620746F6B656E20746861742069 PUSH1 0x44 DUP3 ADD MSTORE PUSH32 0x73206E6F74206F776E0000000000000000000000000000000000000000000000 PUSH1 0x64 DUP3 ADD MSTORE PUSH1 0x84 ADD PUSH2 0x5A3 JUMP JUMPDEST PUSH1 0x1 PUSH1 0x1 PUSH1 0xA0 SHL SUB DUP3 AND PUSH2 0x1CB6 JUMPI PUSH1 0x40 MLOAD PUSH3 0x461BCD PUSH1 0xE5 SHL DUP2 MSTORE PUSH1 0x20 PUSH1 0x4 DUP3 ADD MSTORE PUSH1 0x24 DUP1 DUP3 ADD MSTORE PUSH32 0x4552433732313A207472616E7366657220746F20746865207A65726F20616464 PUSH1 0x44 DUP3 ADD MSTORE PUSH32 0x7265737300000000000000000000000000000000000000000000000000000000 PUSH1 0x64 DUP3 ADD MSTORE PUSH1 0x84 ADD PUSH2 0x5A3 JUMP JUMPDEST PUSH2 0x1CC1 DUP4 DUP4 DUP4 PUSH2 0x223A JUMP JUMPDEST PUSH2 0x1CCC PUSH1 0x0 DUP3 PUSH2 0x1A47 JUMP JUMPDEST PUSH1 0x1 PUSH1 0x1 PUSH1 0xA0 SHL SUB DUP4 AND PUSH1 0x0 SWAP1 DUP2 MSTORE PUSH1 0x3 PUSH1 0x20 MSTORE PUSH1 0x40 DUP2 KECCAK256 DUP1 SLOAD PUSH1 0x1 SWAP3 SWAP1 PUSH2 0x1CF5 SWAP1 DUP5 SWAP1 PUSH2 0x2EA3 JUMP JUMPDEST SWAP1 SWAP2 SSTORE POP POP PUSH1 0x1 PUSH1 0x1 PUSH1 0xA0 SHL SUB DUP3 AND PUSH1 0x0 SWAP1 DUP2 MSTORE PUSH1 0x3 PUSH1 0x20 MSTORE PUSH1 0x40 DUP2 KECCAK256 DUP1 SLOAD PUSH1 0x1 SWAP3 SWAP1 PUSH2 0x1D23 SWAP1 DUP5 SWAP1 PUSH2 0x2E58 JUMP JUMPDEST SWAP1 SWAP2 SSTORE POP POP PUSH1 0x0 DUP2 DUP2 MSTORE PUSH1 0x2 PUSH1 0x20 MSTORE PUSH1 0x40 DUP1 DUP3 KECCAK256 DUP1 SLOAD PUSH1 0x1 PUSH1 0x1 PUSH1 0xA0 SHL SUB NOT AND PUSH1 0x1 PUSH1 0x1 PUSH1 0xA0 SHL SUB DUP7 DUP2 AND SWAP2 DUP3 OR SWAP1 SWAP3 SSTORE SWAP2 MLOAD DUP5 SWAP4 SWAP2 DUP8 AND SWAP2 PUSH32 0xDDF252AD1BE2C89B69C2B068FC378DAA952BA7F163C4A11628F55A4DF523B3EF SWAP2 LOG4 POP POP POP JUMP JUMPDEST PUSH2 0x1D9E DUP3 DUP3 PUSH1 0x40 MLOAD DUP1 PUSH1 0x20 ADD PUSH1 0x40 MSTORE DUP1 PUSH1 0x0 DUP2 MSTORE POP PUSH2 0x22F2 JUMP JUMPDEST POP POP JUMP JUMPDEST PUSH1 0x0 DUP4 DUP2 MSTORE PUSH1 0x2 PUSH1 0x20 MSTORE PUSH1 0x40 SWAP1 KECCAK256 SLOAD PUSH1 0x60 SWAP1 PUSH1 0x1 PUSH1 0x1 PUSH1 0xA0 SHL SUB AND PUSH2 0x1E2F JUMPI PUSH1 0x40 MLOAD PUSH3 0x461BCD PUSH1 0xE5 SHL DUP2 MSTORE PUSH1 0x20 PUSH1 0x4 DUP3 ADD MSTORE PUSH1 0x2F PUSH1 0x24 DUP3 ADD MSTORE PUSH32 0x4552433732314D657461646174613A2055524920717565727920666F72206E6F PUSH1 0x44 DUP3 ADD MSTORE PUSH32 0x6E6578697374656E7420746F6B656E0000000000000000000000000000000000 PUSH1 0x64 DUP3 ADD MSTORE PUSH1 0x84 ADD PUSH2 0x5A3 JUMP JUMPDEST PUSH1 0x0 PUSH2 0x1E63 DUP5 PUSH2 0x1E3E DUP8 PUSH2 0x1F6B JUMP JUMPDEST PUSH1 0x40 MLOAD PUSH1 0x20 ADD PUSH2 0x1E4F SWAP3 SWAP2 SWAP1 PUSH2 0x2AB0 JUMP JUMPDEST PUSH1 0x40 MLOAD PUSH1 0x20 DUP2 DUP4 SUB SUB DUP2 MSTORE SWAP1 PUSH1 0x40 MSTORE PUSH2 0x2370 JUMP JUMPDEST SWAP1 POP PUSH1 0x0 DUP4 DUP5 MLOAD DUP4 PUSH2 0x1E75 SWAP2 SWAP1 PUSH2 0x2F3C JUMP JUMPDEST DUP2 MLOAD DUP2 LT PUSH2 0x1E85 JUMPI PUSH2 0x1E85 PUSH2 0x2F92 JUMP JUMPDEST PUSH1 0x20 MUL PUSH1 0x20 ADD ADD MLOAD SWAP1 POP DUP1 SWAP3 POP POP POP SWAP4 SWAP3 POP POP POP JUMP JUMPDEST PUSH1 0xA DUP1 SLOAD PUSH1 0x1 PUSH1 0x1 PUSH1 0xA0 SHL SUB DUP4 DUP2 AND PUSH1 0x1 PUSH1 0x1 PUSH1 0xA0 SHL SUB NOT DUP4 AND DUP2 OR SWAP1 SWAP4 SSTORE PUSH1 0x40 MLOAD SWAP2 AND SWAP2 SWAP1 DUP3 SWAP1 PUSH32 0x8BE0079C531659141344CD1FD0A4F28419497F9722A3DAAFE3B4186F6B6457E0 SWAP1 PUSH1 0x0 SWAP1 LOG3 POP POP JUMP JUMPDEST PUSH2 0x1EF8 DUP5 DUP5 DUP5 PUSH2 0x1BAC JUMP JUMPDEST PUSH2 0x1F04 DUP5 DUP5 DUP5 DUP5 PUSH2 0x23A1 JUMP JUMPDEST PUSH2 0x12B4 JUMPI PUSH1 0x40 MLOAD PUSH3 0x461BCD PUSH1 0xE5 SHL DUP2 MSTORE PUSH1 0x20 PUSH1 0x4 DUP3 ADD MSTORE PUSH1 0x32 PUSH1 0x24 DUP3 ADD MSTORE PUSH32 0x4552433732313A207472616E7366657220746F206E6F6E204552433732315265 PUSH1 0x44 DUP3 ADD MSTORE PUSH18 0x31B2B4BB32B91034B6B83632B6B2B73A32B9 PUSH1 0x71 SHL PUSH1 0x64 DUP3 ADD MSTORE PUSH1 0x84 ADD PUSH2 0x5A3 JUMP JUMPDEST PUSH1 0x60 DUP2 PUSH2 0x1FAB JUMPI POP POP PUSH1 0x40 DUP1 MLOAD DUP1 DUP3 ADD SWAP1 SWAP2 MSTORE PUSH1 0x1 DUP2 MSTORE PUSH32 0x3000000000000000000000000000000000000000000000000000000000000000 PUSH1 0x20 DUP3 ADD MSTORE SWAP1 JUMP JUMPDEST DUP2 PUSH1 0x0 JUMPDEST DUP2 ISZERO PUSH2 0x1FD5 JUMPI DUP1 PUSH2 0x1FBF DUP2 PUSH2 0x2F21 JUMP JUMPDEST SWAP2 POP PUSH2 0x1FCE SWAP1 POP PUSH1 0xA DUP4 PUSH2 0x2E70 JUMP JUMPDEST SWAP2 POP PUSH2 0x1FAF JUMP JUMPDEST PUSH1 0x0 DUP2 PUSH8 0xFFFFFFFFFFFFFFFF DUP2 GT ISZERO PUSH2 0x1FF0 JUMPI PUSH2 0x1FF0 PUSH2 0x2FA8 JUMP JUMPDEST PUSH1 0x40 MLOAD SWAP1 DUP1 DUP3 MSTORE DUP1 PUSH1 0x1F ADD PUSH1 0x1F NOT AND PUSH1 0x20 ADD DUP3 ADD PUSH1 0x40 MSTORE DUP1 ISZERO PUSH2 0x201A JUMPI PUSH1 0x20 DUP3 ADD DUP2 DUP1 CALLDATASIZE DUP4 CALLDATACOPY ADD SWAP1 POP JUMPDEST POP SWAP1 POP JUMPDEST DUP5 ISZERO PUSH2 0x1BA4 JUMPI PUSH2 0x202F PUSH1 0x1 DUP4 PUSH2 0x2EA3 JUMP JUMPDEST SWAP2 POP PUSH2 0x203C PUSH1 0xA DUP7 PUSH2 0x2F3C JUMP JUMPDEST PUSH2 0x2047 SWAP1 PUSH1 0x30 PUSH2 0x2E58 JUMP JUMPDEST PUSH1 0xF8 SHL DUP2 DUP4 DUP2 MLOAD DUP2 LT PUSH2 0x205C JUMPI PUSH2 0x205C PUSH2 0x2F92 JUMP JUMPDEST PUSH1 0x20 ADD ADD SWAP1 PUSH31 0xFFFFFFFFFFFFFFFFFFFFFFFFFFFFFFFFFFFFFFFFFFFFFFFFFFFFFFFFFFFFFF NOT AND SWAP1 DUP2 PUSH1 0x0 BYTE SWAP1 MSTORE8 POP PUSH2 0x2096 PUSH1 0xA DUP7 PUSH2 0x2E70 JUMP JUMPDEST SWAP5 POP PUSH2 0x201E JUMP JUMPDEST DUP1 MLOAD PUSH1 0x60 SWAP1 DUP1 PUSH2 0x20BD JUMPI POP POP PUSH1 0x40 DUP1 MLOAD PUSH1 0x20 DUP2 ADD SWAP1 SWAP2 MSTORE PUSH1 0x0 DUP2 MSTORE SWAP2 SWAP1 POP JUMP JUMPDEST PUSH1 0x0 PUSH1 0x3 PUSH2 0x20CC DUP4 PUSH1 0x2 PUSH2 0x2E58 JUMP JUMPDEST PUSH2 0x20D6 SWAP2 SWAP1 PUSH2 0x2E70 JUMP JUMPDEST PUSH2 0x20E1 SWAP1 PUSH1 0x4 PUSH2 0x2E84 JUMP JUMPDEST SWAP1 POP PUSH1 0x0 PUSH2 0x20F0 DUP3 PUSH1 0x20 PUSH2 0x2E58 JUMP JUMPDEST PUSH8 0xFFFFFFFFFFFFFFFF DUP2 GT ISZERO PUSH2 0x2108 JUMPI PUSH2 0x2108 PUSH2 0x2FA8 JUMP JUMPDEST PUSH1 0x40 MLOAD SWAP1 DUP1 DUP3 MSTORE DUP1 PUSH1 0x1F ADD PUSH1 0x1F NOT AND PUSH1 0x20 ADD DUP3 ADD PUSH1 0x40 MSTORE DUP1 ISZERO PUSH2 0x2132 JUMPI PUSH1 0x20 DUP3 ADD DUP2 DUP1 CALLDATASIZE DUP4 CALLDATACOPY ADD SWAP1 POP JUMPDEST POP SWAP1 POP PUSH1 0x0 PUSH1 0x40 MLOAD DUP1 PUSH1 0x60 ADD PUSH1 0x40 MSTORE DUP1 PUSH1 0x40 DUP2 MSTORE PUSH1 0x20 ADD PUSH2 0x31DF PUSH1 0x40 SWAP2 CODECOPY SWAP1 POP PUSH1 0x1 DUP2 ADD PUSH1 0x20 DUP4 ADD PUSH1 0x0 JUMPDEST DUP7 DUP2 LT ISZERO PUSH2 0x21BE JUMPI PUSH1 0x3 DUP2 DUP11 ADD DUP2 ADD MLOAD PUSH1 0x3F PUSH1 0x12 DUP3 SWAP1 SHR DUP2 AND DUP7 ADD MLOAD PUSH1 0xC DUP4 SWAP1 SHR DUP3 AND DUP8 ADD MLOAD PUSH1 0x6 DUP5 SWAP1 SHR DUP4 AND DUP9 ADD MLOAD SWAP3 SWAP1 SWAP4 AND DUP8 ADD MLOAD PUSH1 0x8 SWAP2 DUP3 SHL PUSH1 0xFF SWAP5 DUP6 AND ADD DUP3 SHL SWAP3 DUP5 AND SWAP3 SWAP1 SWAP3 ADD SWAP1 SHL SWAP2 AND ADD PUSH1 0xE0 SHL DUP4 MSTORE PUSH1 0x4 SWAP1 SWAP3 ADD SWAP2 ADD PUSH2 0x215D JUMP JUMPDEST POP PUSH1 0x3 DUP7 MOD PUSH1 0x1 DUP2 EQ PUSH2 0x21D8 JUMPI PUSH1 0x2 DUP2 EQ PUSH2 0x2204 JUMPI PUSH2 0x222C JUMP JUMPDEST PUSH32 0x3D3D000000000000000000000000000000000000000000000000000000000000 PUSH1 0x1 NOT DUP4 ADD MSTORE PUSH2 0x222C JUMP JUMPDEST PUSH32 0x3D00000000000000000000000000000000000000000000000000000000000000 PUSH1 0x0 NOT DUP4 ADD MSTORE JUMPDEST POP POP POP SWAP2 DUP2 MSTORE SWAP5 SWAP4 POP POP POP POP JUMP JUMPDEST PUSH1 0x1 PUSH1 0x1 PUSH1 0xA0 SHL SUB DUP4 AND PUSH2 0x2295 JUMPI PUSH2 0x2290 DUP2 PUSH1 0x8 DUP1 SLOAD PUSH1 0x0 DUP4 DUP2 MSTORE PUSH1 0x9 PUSH1 0x20 MSTORE PUSH1 0x40 DUP2 KECCAK256 DUP3 SWAP1 SSTORE PUSH1 0x1 DUP3 ADD DUP4 SSTORE SWAP2 SWAP1 SWAP2 MSTORE PUSH32 0xF3F7A9FE364FAAB93B216DA50A3214154F22A0A2B415B23A84C8169E8B636EE3 ADD SSTORE JUMP JUMPDEST PUSH2 0x22B8 JUMP JUMPDEST DUP2 PUSH1 0x1 PUSH1 0x1 PUSH1 0xA0 SHL SUB AND DUP4 PUSH1 0x1 PUSH1 0x1 PUSH1 0xA0 SHL SUB AND EQ PUSH2 0x22B8 JUMPI PUSH2 0x22B8 DUP4 DUP3 PUSH2 0x24F9 JUMP JUMPDEST PUSH1 0x1 PUSH1 0x1 PUSH1 0xA0 SHL SUB DUP3 AND PUSH2 0x22CF JUMPI PUSH2 0x6F5 DUP2 PUSH2 0x2596 JUMP JUMPDEST DUP3 PUSH1 0x1 PUSH1 0x1 PUSH1 0xA0 SHL SUB AND DUP3 PUSH1 0x1 PUSH1 0x1 PUSH1 0xA0 SHL SUB AND EQ PUSH2 0x6F5 JUMPI PUSH2 0x6F5 DUP3 DUP3 PUSH2 0x2645 JUMP JUMPDEST PUSH2 0x22FC DUP4 DUP4 PUSH2 0x2689 JUMP JUMPDEST PUSH2 0x2309 PUSH1 0x0 DUP5 DUP5 DUP5 PUSH2 0x23A1 JUMP JUMPDEST PUSH2 0x6F5 JUMPI PUSH1 0x40 MLOAD PUSH3 0x461BCD PUSH1 0xE5 SHL DUP2 MSTORE PUSH1 0x20 PUSH1 0x4 DUP3 ADD MSTORE PUSH1 0x32 PUSH1 0x24 DUP3 ADD MSTORE PUSH32 0x4552433732313A207472616E7366657220746F206E6F6E204552433732315265 PUSH1 0x44 DUP3 ADD MSTORE PUSH18 0x31B2B4BB32B91034B6B83632B6B2B73A32B9 PUSH1 0x71 SHL PUSH1 0x64 DUP3 ADD MSTORE PUSH1 0x84 ADD PUSH2 0x5A3 JUMP JUMPDEST PUSH1 0x0 DUP2 PUSH1 0x40 MLOAD PUSH1 0x20 ADD PUSH2 0x2383 SWAP2 SWAP1 PUSH2 0x2A94 JUMP JUMPDEST PUSH1 0x40 DUP1 MLOAD PUSH1 0x1F NOT DUP2 DUP5 SUB ADD DUP2 MSTORE SWAP2 SWAP1 MSTORE DUP1 MLOAD PUSH1 0x20 SWAP1 SWAP2 ADD KECCAK256 SWAP3 SWAP2 POP POP JUMP JUMPDEST PUSH1 0x0 PUSH1 0x1 PUSH1 0x1 PUSH1 0xA0 SHL SUB DUP5 AND EXTCODESIZE ISZERO PUSH2 0x24EE JUMPI PUSH1 0x40 MLOAD PUSH4 0xA85BD01 PUSH1 0xE1 SHL DUP2 MSTORE PUSH1 0x1 PUSH1 0x1 PUSH1 0xA0 SHL SUB DUP6 AND SWAP1 PUSH4 0x150B7A02 SWAP1 PUSH2 0x23E5 SWAP1 CALLER SWAP1 DUP10 SWAP1 DUP9 SWAP1 DUP9 SWAP1 PUSH1 0x4 ADD PUSH2 0x2E09 JUMP JUMPDEST PUSH1 0x20 PUSH1 0x40 MLOAD DUP1 DUP4 SUB DUP2 PUSH1 0x0 DUP8 DUP1 EXTCODESIZE ISZERO DUP1 ISZERO PUSH2 0x23FF JUMPI PUSH1 0x0 DUP1 REVERT JUMPDEST POP GAS CALL SWAP3 POP POP POP DUP1 ISZERO PUSH2 0x242F JUMPI POP PUSH1 0x40 DUP1 MLOAD PUSH1 0x1F RETURNDATASIZE SWAP1 DUP2 ADD PUSH1 0x1F NOT AND DUP3 ADD SWAP1 SWAP3 MSTORE PUSH2 0x242C SWAP2 DUP2 ADD SWAP1 PUSH2 0x2A16 JUMP JUMPDEST PUSH1 0x1 JUMPDEST PUSH2 0x24D4 JUMPI RETURNDATASIZE DUP1 DUP1 ISZERO PUSH2 0x245D JUMPI PUSH1 0x40 MLOAD SWAP2 POP PUSH1 0x1F NOT PUSH1 0x3F RETURNDATASIZE ADD AND DUP3 ADD PUSH1 0x40 MSTORE RETURNDATASIZE DUP3 MSTORE RETURNDATASIZE PUSH1 0x0 PUSH1 0x20 DUP5 ADD RETURNDATACOPY PUSH2 0x2462 JUMP JUMPDEST PUSH1 0x60 SWAP2 POP JUMPDEST POP DUP1 MLOAD PUSH2 0x24CC JUMPI PUSH1 0x40 MLOAD PUSH3 0x461BCD PUSH1 0xE5 SHL DUP2 MSTORE PUSH1 0x20 PUSH1 0x4 DUP3 ADD MSTORE PUSH1 0x32 PUSH1 0x24 DUP3 ADD MSTORE PUSH32 0x4552433732313A207472616E7366657220746F206E6F6E204552433732315265 PUSH1 0x44 DUP3 ADD MSTORE PUSH18 0x31B2B4BB32B91034B6B83632B6B2B73A32B9 PUSH1 0x71 SHL PUSH1 0x64 DUP3 ADD MSTORE PUSH1 0x84 ADD PUSH2 0x5A3 JUMP JUMPDEST DUP1 MLOAD DUP2 PUSH1 0x20 ADD REVERT JUMPDEST PUSH1 0x1 PUSH1 0x1 PUSH1 0xE0 SHL SUB NOT AND PUSH4 0xA85BD01 PUSH1 0xE1 SHL EQ SWAP1 POP PUSH2 0x1BA4 JUMP JUMPDEST POP PUSH1 0x1 SWAP5 SWAP4 POP POP POP POP JUMP JUMPDEST PUSH1 0x0 PUSH1 0x1 PUSH2 0x2506 DUP5 PUSH2 0xD98 JUMP JUMPDEST PUSH2 0x2510 SWAP2 SWAP1 PUSH2 0x2EA3 JUMP JUMPDEST PUSH1 0x0 DUP4 DUP2 MSTORE PUSH1 0x7 PUSH1 0x20 MSTORE PUSH1 0x40 SWAP1 KECCAK256 SLOAD SWAP1 SWAP2 POP DUP1 DUP3 EQ PUSH2 0x2563 JUMPI PUSH1 0x1 PUSH1 0x1 PUSH1 0xA0 SHL SUB DUP5 AND PUSH1 0x0 SWAP1 DUP2 MSTORE PUSH1 0x6 PUSH1 0x20 SWAP1 DUP2 MSTORE PUSH1 0x40 DUP1 DUP4 KECCAK256 DUP6 DUP5 MSTORE DUP3 MSTORE DUP1 DUP4 KECCAK256 SLOAD DUP5 DUP5 MSTORE DUP2 DUP5 KECCAK256 DUP2 SWAP1 SSTORE DUP4 MSTORE PUSH1 0x7 SWAP1 SWAP2 MSTORE SWAP1 KECCAK256 DUP2 SWAP1 SSTORE JUMPDEST POP PUSH1 0x0 SWAP2 DUP3 MSTORE PUSH1 0x7 PUSH1 0x20 SWAP1 DUP2 MSTORE PUSH1 0x40 DUP1 DUP5 KECCAK256 DUP5 SWAP1 SSTORE PUSH1 0x1 PUSH1 0x1 PUSH1 0xA0 SHL SUB SWAP1 SWAP5 AND DUP4 MSTORE PUSH1 0x6 DUP2 MSTORE DUP4 DUP4 KECCAK256 SWAP2 DUP4 MSTORE MSTORE SWAP1 DUP2 KECCAK256 SSTORE JUMP JUMPDEST PUSH1 0x8 SLOAD PUSH1 0x0 SWAP1 PUSH2 0x25A8 SWAP1 PUSH1 0x1 SWAP1 PUSH2 0x2EA3 JUMP JUMPDEST PUSH1 0x0 DUP4 DUP2 MSTORE PUSH1 0x9 PUSH1 0x20 MSTORE PUSH1 0x40 DUP2 KECCAK256 SLOAD PUSH1 0x8 DUP1 SLOAD SWAP4 SWAP5 POP SWAP1 SWAP3 DUP5 SWAP1 DUP2 LT PUSH2 0x25D0 JUMPI PUSH2 0x25D0 PUSH2 0x2F92 JUMP JUMPDEST SWAP1 PUSH1 0x0 MSTORE PUSH1 0x20 PUSH1 0x0 KECCAK256 ADD SLOAD SWAP1 POP DUP1 PUSH1 0x8 DUP4 DUP2 SLOAD DUP2 LT PUSH2 0x25F1 JUMPI PUSH2 0x25F1 PUSH2 0x2F92 JUMP JUMPDEST PUSH1 0x0 SWAP2 DUP3 MSTORE PUSH1 0x20 DUP1 DUP4 KECCAK256 SWAP1 SWAP2 ADD SWAP3 SWAP1 SWAP3 SSTORE DUP3 DUP2 MSTORE PUSH1 0x9 SWAP1 SWAP2 MSTORE PUSH1 0x40 DUP1 DUP3 KECCAK256 DUP5 SWAP1 SSTORE DUP6 DUP3 MSTORE DUP2 KECCAK256 SSTORE PUSH1 0x8 DUP1 SLOAD DUP1 PUSH2 0x2629 JUMPI PUSH2 0x2629 PUSH2 0x2F7C JUMP JUMPDEST PUSH1 0x1 SWAP1 SUB DUP2 DUP2 SWAP1 PUSH1 0x0 MSTORE PUSH1 0x20 PUSH1 0x0 KECCAK256 ADD PUSH1 0x0 SWAP1 SSTORE SWAP1 SSTORE POP POP POP POP JUMP JUMPDEST PUSH1 0x0 PUSH2 0x2650 DUP4 PUSH2 0xD98 JUMP JUMPDEST PUSH1 0x1 PUSH1 0x1 PUSH1 0xA0 SHL SUB SWAP1 SWAP4 AND PUSH1 0x0 SWAP1 DUP2 MSTORE PUSH1 0x6 PUSH1 0x20 SWAP1 DUP2 MSTORE PUSH1 0x40 DUP1 DUP4 KECCAK256 DUP7 DUP5 MSTORE DUP3 MSTORE DUP1 DUP4 KECCAK256 DUP6 SWAP1 SSTORE SWAP4 DUP3 MSTORE PUSH1 0x7 SWAP1 MSTORE SWAP2 SWAP1 SWAP2 KECCAK256 SWAP2 SWAP1 SWAP2 SSTORE POP JUMP JUMPDEST PUSH1 0x1 PUSH1 0x1 PUSH1 0xA0 SHL SUB DUP3 AND PUSH2 0x26DF JUMPI PUSH1 0x40 MLOAD PUSH3 0x461BCD PUSH1 0xE5 SHL DUP2 MSTORE PUSH1 0x20 PUSH1 0x4 DUP3 ADD DUP2 SWAP1 MSTORE PUSH1 0x24 DUP3 ADD MSTORE PUSH32 0x4552433732313A206D696E7420746F20746865207A65726F2061646472657373 PUSH1 0x44 DUP3 ADD MSTORE PUSH1 0x64 ADD PUSH2 0x5A3 JUMP JUMPDEST PUSH1 0x0 DUP2 DUP2 MSTORE PUSH1 0x2 PUSH1 0x20 MSTORE PUSH1 0x40 SWAP1 KECCAK256 SLOAD PUSH1 0x1 PUSH1 0x1 PUSH1 0xA0 SHL SUB AND ISZERO PUSH2 0x2744 JUMPI PUSH1 0x40 MLOAD PUSH3 0x461BCD PUSH1 0xE5 SHL DUP2 MSTORE PUSH1 0x20 PUSH1 0x4 DUP3 ADD MSTORE PUSH1 0x1C PUSH1 0x24 DUP3 ADD MSTORE PUSH32 0x4552433732313A20746F6B656E20616C7265616479206D696E74656400000000 PUSH1 0x44 DUP3 ADD MSTORE PUSH1 0x64 ADD PUSH2 0x5A3 JUMP JUMPDEST PUSH2 0x2750 PUSH1 0x0 DUP4 DUP4 PUSH2 0x223A JUMP JUMPDEST PUSH1 0x1 PUSH1 0x1 PUSH1 0xA0 SHL SUB DUP3 AND PUSH1 0x0 SWAP1 DUP2 MSTORE PUSH1 0x3 PUSH1 0x20 MSTORE PUSH1 0x40 DUP2 KECCAK256 DUP1 SLOAD PUSH1 0x1 SWAP3 SWAP1 PUSH2 0x2779 SWAP1 DUP5 SWAP1 PUSH2 0x2E58 JUMP JUMPDEST SWAP1 SWAP2 SSTORE POP POP PUSH1 0x0 DUP2 DUP2 MSTORE PUSH1 0x2 PUSH1 0x20 MSTORE PUSH1 0x40 DUP1 DUP3 KECCAK256 DUP1 SLOAD PUSH1 0x1 PUSH1 0x1 PUSH1 0xA0 SHL SUB NOT AND PUSH1 0x1 PUSH1 0x1 PUSH1 0xA0 SHL SUB DUP7 AND SWAP1 DUP2 OR SWAP1 SWAP2 SSTORE SWAP1 MLOAD DUP4 SWAP3 SWAP1 PUSH32 0xDDF252AD1BE2C89B69C2B068FC378DAA952BA7F163C4A11628F55A4DF523B3EF SWAP1 DUP3 SWAP1 LOG4 POP POP JUMP JUMPDEST PUSH1 0x40 MLOAD DUP1 PUSH2 0x220 ADD PUSH1 0x40 MSTORE DUP1 PUSH1 0x11 SWAP1 JUMPDEST PUSH1 0x60 DUP2 MSTORE PUSH1 0x20 ADD SWAP1 PUSH1 0x1 SWAP1 SUB SWAP1 DUP2 PUSH2 0x27E7 JUMPI SWAP1 POP POP SWAP1 JUMP JUMPDEST PUSH1 0x0 PUSH1 0x20 DUP3 DUP5 SUB SLT ISZERO PUSH2 0x2811 JUMPI PUSH1 0x0 DUP1 REVERT JUMPDEST DUP2 CALLDATALOAD PUSH2 0x281C DUP2 PUSH2 0x2FBE JUMP JUMPDEST SWAP4 SWAP3 POP POP POP JUMP JUMPDEST PUSH1 0x0 PUSH1 0x20 DUP3 DUP5 SUB SLT ISZERO PUSH2 0x2835 JUMPI PUSH1 0x0 DUP1 REVERT JUMPDEST DUP2 MLOAD PUSH2 0x281C DUP2 PUSH2 0x2FBE JUMP JUMPDEST PUSH1 0x0 DUP1 PUSH1 0x40 DUP4 DUP6 SUB SLT ISZERO PUSH2 0x2853 JUMPI PUSH1 0x0 DUP1 REVERT JUMPDEST DUP3 CALLDATALOAD PUSH2 0x285E DUP2 PUSH2 0x2FBE JUMP JUMPDEST SWAP2 POP PUSH1 0x20 DUP4 ADD CALLDATALOAD PUSH2 0x286E DUP2 PUSH2 0x2FBE JUMP JUMPDEST DUP1 SWAP2 POP POP SWAP3 POP SWAP3 SWAP1 POP JUMP JUMPDEST PUSH1 0x0 DUP1 PUSH1 0x0 PUSH1 0x60 DUP5 DUP7 SUB SLT ISZERO PUSH2 0x288E JUMPI PUSH1 0x0 DUP1 REVERT JUMPDEST DUP4 CALLDATALOAD PUSH2 0x2899 DUP2 PUSH2 0x2FBE JUMP JUMPDEST SWAP3 POP PUSH1 0x20 DUP5 ADD CALLDATALOAD PUSH2 0x28A9 DUP2 PUSH2 0x2FBE JUMP JUMPDEST SWAP3 SWAP6 SWAP3 SWAP5 POP POP POP PUSH1 0x40 SWAP2 SWAP1 SWAP2 ADD CALLDATALOAD SWAP1 JUMP JUMPDEST PUSH1 0x0 DUP1 PUSH1 0x0 DUP1 PUSH1 0x80 DUP6 DUP8 SUB SLT ISZERO PUSH2 0x28D0 JUMPI PUSH1 0x0 DUP1 REVERT JUMPDEST DUP5 CALLDATALOAD PUSH2 0x28DB DUP2 PUSH2 0x2FBE JUMP JUMPDEST SWAP4 POP PUSH1 0x20 DUP6 ADD CALLDATALOAD PUSH2 0x28EB DUP2 PUSH2 0x2FBE JUMP JUMPDEST SWAP3 POP PUSH1 0x40 DUP6 ADD CALLDATALOAD SWAP2 POP PUSH1 0x60 DUP6 ADD CALLDATALOAD PUSH8 0xFFFFFFFFFFFFFFFF DUP1 DUP3 GT ISZERO PUSH2 0x290F JUMPI PUSH1 0x0 DUP1 REVERT JUMPDEST DUP2 DUP8 ADD SWAP2 POP DUP8 PUSH1 0x1F DUP4 ADD SLT PUSH2 0x2923 JUMPI PUSH1 0x0 DUP1 REVERT JUMPDEST DUP2 CALLDATALOAD DUP2 DUP2 GT ISZERO PUSH2 0x2935 JUMPI PUSH2 0x2935 PUSH2 0x2FA8 JUMP JUMPDEST PUSH1 0x40 MLOAD PUSH1 0x1F DUP3 ADD PUSH1 0x1F NOT SWAP1 DUP2 AND PUSH1 0x3F ADD AND DUP2 ADD SWAP1 DUP4 DUP3 GT DUP2 DUP4 LT OR ISZERO PUSH2 0x295D JUMPI PUSH2 0x295D PUSH2 0x2FA8 JUMP JUMPDEST DUP2 PUSH1 0x40 MSTORE DUP3 DUP2 MSTORE DUP11 PUSH1 0x20 DUP5 DUP8 ADD ADD GT ISZERO PUSH2 0x2976 JUMPI PUSH1 0x0 DUP1 REVERT JUMPDEST DUP3 PUSH1 0x20 DUP7 ADD PUSH1 0x20 DUP4 ADD CALLDATACOPY PUSH1 0x0 PUSH1 0x20 DUP5 DUP4 ADD ADD MSTORE DUP1 SWAP6 POP POP POP POP POP POP SWAP3 SWAP6 SWAP2 SWAP5 POP SWAP3 POP JUMP JUMPDEST PUSH1 0x0 DUP1 PUSH1 0x40 DUP4 DUP6 SUB SLT ISZERO PUSH2 0x29AD JUMPI PUSH1 0x0 DUP1 REVERT JUMPDEST DUP3 CALLDATALOAD PUSH2 0x29B8 DUP2 PUSH2 0x2FBE JUMP JUMPDEST SWAP2 POP PUSH1 0x20 DUP4 ADD CALLDATALOAD DUP1 ISZERO ISZERO DUP2 EQ PUSH2 0x286E JUMPI PUSH1 0x0 DUP1 REVERT JUMPDEST PUSH1 0x0 DUP1 PUSH1 0x40 DUP4 DUP6 SUB SLT ISZERO PUSH2 0x29E0 JUMPI PUSH1 0x0 DUP1 REVERT JUMPDEST DUP3 CALLDATALOAD PUSH2 0x29EB DUP2 PUSH2 0x2FBE JUMP JUMPDEST SWAP5 PUSH1 0x20 SWAP4 SWAP1 SWAP4 ADD CALLDATALOAD SWAP4 POP POP POP JUMP JUMPDEST PUSH1 0x0 PUSH1 0x20 DUP3 DUP5 SUB SLT ISZERO PUSH2 0x2A0B JUMPI PUSH1 0x0 DUP1 REVERT JUMPDEST DUP2 CALLDATALOAD PUSH2 0x281C DUP2 PUSH2 0x2FD3 JUMP JUMPDEST PUSH1 0x0 PUSH1 0x20 DUP3 DUP5 SUB SLT ISZERO PUSH2 0x2A28 JUMPI PUSH1 0x0 DUP1 REVERT JUMPDEST DUP2 MLOAD PUSH2 0x281C DUP2 PUSH2 0x2FD3 JUMP JUMPDEST PUSH1 0x0 PUSH1 0x20 DUP3 DUP5 SUB SLT ISZERO PUSH2 0x2A45 JUMPI PUSH1 0x0 DUP1 REVERT JUMPDEST POP CALLDATALOAD SWAP2 SWAP1 POP JUMP JUMPDEST PUSH1 0x0 DUP2 MLOAD DUP1 DUP5 MSTORE PUSH2 0x2A64 DUP2 PUSH1 0x20 DUP7 ADD PUSH1 0x20 DUP7 ADD PUSH2 0x2EBA JUMP JUMPDEST PUSH1 0x1F ADD PUSH1 0x1F NOT AND SWAP3 SWAP1 SWAP3 ADD PUSH1 0x20 ADD SWAP3 SWAP2 POP POP JUMP JUMPDEST PUSH1 0x0 DUP2 MLOAD PUSH2 0x2A8A DUP2 DUP6 PUSH1 0x20 DUP7 ADD PUSH2 0x2EBA JUMP JUMPDEST SWAP3 SWAP1 SWAP3 ADD SWAP3 SWAP2 POP POP JUMP JUMPDEST PUSH1 0x0 DUP3 MLOAD PUSH2 0x2AA6 DUP2 DUP5 PUSH1 0x20 DUP8 ADD PUSH2 0x2EBA JUMP JUMPDEST SWAP2 SWAP1 SWAP2 ADD SWAP3 SWAP2 POP POP JUMP JUMPDEST PUSH1 0x0 DUP4 MLOAD PUSH2 0x2AC2 DUP2 DUP5 PUSH1 0x20 DUP9 ADD PUSH2 0x2EBA JUMP JUMPDEST DUP4 MLOAD SWAP1 DUP4 ADD SWAP1 PUSH2 0x2AD6 DUP2 DUP4 PUSH1 0x20 DUP9 ADD PUSH2 0x2EBA JUMP JUMPDEST ADD SWAP5 SWAP4 POP POP POP POP JUMP JUMPDEST PUSH1 0x0 DUP11 MLOAD PUSH2 0x2AF1 DUP2 DUP5 PUSH1 0x20 DUP16 ADD PUSH2 0x2EBA JUMP JUMPDEST DUP11 MLOAD PUSH2 0x2B03 DUP2 DUP4 DUP7 ADD PUSH1 0x20 DUP16 ADD PUSH2 0x2EBA JUMP JUMPDEST DUP11 MLOAD SWAP2 DUP5 ADD ADD SWAP1 PUSH2 0x2B18 DUP2 DUP4 PUSH1 0x20 DUP15 ADD PUSH2 0x2EBA JUMP JUMPDEST DUP10 MLOAD PUSH2 0x2B2A DUP2 DUP4 DUP6 ADD PUSH1 0x20 DUP15 ADD PUSH2 0x2EBA JUMP JUMPDEST DUP10 MLOAD SWAP3 SWAP1 SWAP2 ADD ADD SWAP1 PUSH2 0x2B40 DUP2 DUP4 PUSH1 0x20 DUP13 ADD PUSH2 0x2EBA JUMP JUMPDEST DUP8 MLOAD PUSH2 0x2B52 DUP2 DUP4 DUP6 ADD PUSH1 0x20 DUP13 ADD PUSH2 0x2EBA JUMP JUMPDEST DUP8 MLOAD SWAP3 SWAP1 SWAP2 ADD ADD SWAP1 PUSH2 0x2B68 DUP2 DUP4 PUSH1 0x20 DUP11 ADD PUSH2 0x2EBA JUMP JUMPDEST DUP6 MLOAD PUSH2 0x2B7A DUP2 DUP4 DUP6 ADD PUSH1 0x20 DUP11 ADD PUSH2 0x2EBA JUMP JUMPDEST DUP6 MLOAD SWAP3 SWAP1 SWAP2 ADD ADD SWAP1 PUSH2 0x2B90 DUP2 DUP4 PUSH1 0x20 DUP9 ADD PUSH2 0x2EBA JUMP JUMPDEST ADD SWAP12 SWAP11 POP POP POP POP POP POP POP POP POP POP POP JUMP JUMPDEST PUSH32 0x7B226E616D65223A2022416E696D652043686172616374657220436861726163 DUP2 MSTORE PUSH32 0x7465726973746963732023000000000000000000000000000000000000000000 PUSH1 0x20 DUP3 ADD MSTORE PUSH1 0x0 DUP4 MLOAD PUSH2 0x2BFE DUP2 PUSH1 0x2B DUP6 ADD PUSH1 0x20 DUP9 ADD PUSH2 0x2EBA JUMP JUMPDEST PUSH32 0x222C20226465736372697074696F6E223A2022416E696D654C6F6F7443686172 PUSH1 0x2B SWAP2 DUP5 ADD SWAP2 DUP3 ADD MSTORE PUSH32 0x61637465726973746963732069732072616E646F6D697A656420616E696D6520 PUSH1 0x4B DUP3 ADD MSTORE PUSH32 0x63686172616374657273206368617261637465726973746963732067656E6572 PUSH1 0x6B DUP3 ADD MSTORE PUSH32 0x6174656420616E642073746F726564206F6E20636861696E2E204F7468657220 PUSH1 0x8B DUP3 ADD MSTORE PUSH32 0x6665617475726573206F66207468652063686172616374657273206172652069 PUSH1 0xAB DUP3 ADD MSTORE PUSH32 0x6E74656E74696F6E616C6C79206F6D697474656420666F72206F746865727320 PUSH1 0xCB DUP3 ADD MSTORE PUSH32 0x746F20696E746572707265742E204665656C206672656520746F207573652041 PUSH1 0xEB DUP3 ADD MSTORE PUSH32 0x6E696D654C6F6F7443686172616374657269737469637320696E20616E792077 PUSH2 0x10B DUP3 ADD MSTORE PUSH32 0x617920796F752077616E742E222C2022696D616765223A2022646174613A696D PUSH2 0x12B DUP3 ADD MSTORE PUSH32 0x6167652F7376672B786D6C3B6261736536342C00000000000000000000000000 PUSH2 0x14B DUP3 ADD MSTORE PUSH2 0x2DBB PUSH2 0x2D92 PUSH2 0x15E DUP4 ADD DUP7 PUSH2 0x2A78 JUMP JUMPDEST PUSH32 0x227D000000000000000000000000000000000000000000000000000000000000 DUP2 MSTORE PUSH1 0x2 ADD SWAP1 JUMP JUMPDEST SWAP6 SWAP5 POP POP POP POP POP JUMP JUMPDEST PUSH32 0x646174613A6170706C69636174696F6E2F6A736F6E3B6261736536342C000000 DUP2 MSTORE PUSH1 0x0 DUP3 MLOAD PUSH2 0x2DFC DUP2 PUSH1 0x1D DUP6 ADD PUSH1 0x20 DUP8 ADD PUSH2 0x2EBA JUMP JUMPDEST SWAP2 SWAP1 SWAP2 ADD PUSH1 0x1D ADD SWAP3 SWAP2 POP POP JUMP JUMPDEST PUSH1 0x0 PUSH1 0x1 PUSH1 0x1 PUSH1 0xA0 SHL SUB DUP1 DUP8 AND DUP4 MSTORE DUP1 DUP7 AND PUSH1 0x20 DUP5 ADD MSTORE POP DUP4 PUSH1 0x40 DUP4 ADD MSTORE PUSH1 0x80 PUSH1 0x60 DUP4 ADD MSTORE PUSH2 0x2E3B PUSH1 0x80 DUP4 ADD DUP5 PUSH2 0x2A4C JUMP JUMPDEST SWAP7 SWAP6 POP POP POP POP POP POP JUMP JUMPDEST PUSH1 0x20 DUP2 MSTORE PUSH1 0x0 PUSH2 0x281C PUSH1 0x20 DUP4 ADD DUP5 PUSH2 0x2A4C JUMP JUMPDEST PUSH1 0x0 DUP3 NOT DUP3 GT ISZERO PUSH2 0x2E6B JUMPI PUSH2 0x2E6B PUSH2 0x2F50 JUMP JUMPDEST POP ADD SWAP1 JUMP JUMPDEST PUSH1 0x0 DUP3 PUSH2 0x2E7F JUMPI PUSH2 0x2E7F PUSH2 0x2F66 JUMP JUMPDEST POP DIV SWAP1 JUMP JUMPDEST PUSH1 0x0 DUP2 PUSH1 0x0 NOT DIV DUP4 GT DUP3 ISZERO ISZERO AND ISZERO PUSH2 0x2E9E JUMPI PUSH2 0x2E9E PUSH2 0x2F50 JUMP JUMPDEST POP MUL SWAP1 JUMP JUMPDEST PUSH1 0x0 DUP3 DUP3 LT ISZERO PUSH2 0x2EB5 JUMPI PUSH2 0x2EB5 PUSH2 0x2F50 JUMP JUMPDEST POP SUB SWAP1 JUMP JUMPDEST PUSH1 0x0 JUMPDEST DUP4 DUP2 LT ISZERO PUSH2 0x2ED5 JUMPI DUP2 DUP2 ADD MLOAD DUP4 DUP3 ADD MSTORE PUSH1 0x20 ADD PUSH2 0x2EBD JUMP JUMPDEST DUP4 DUP2 GT ISZERO PUSH2 0x12B4 JUMPI POP POP PUSH1 0x0 SWAP2 ADD MSTORE JUMP JUMPDEST PUSH1 0x1 DUP2 DUP2 SHR SWAP1 DUP3 AND DUP1 PUSH2 0x2EFA JUMPI PUSH1 0x7F DUP3 AND SWAP2 POP JUMPDEST PUSH1 0x20 DUP3 LT DUP2 EQ ISZERO PUSH2 0x2F1B JUMPI PUSH4 0x4E487B71 PUSH1 0xE0 SHL PUSH1 0x0 MSTORE PUSH1 0x22 PUSH1 0x4 MSTORE PUSH1 0x24 PUSH1 0x0 REVERT JUMPDEST POP SWAP2 SWAP1 POP JUMP JUMPDEST PUSH1 0x0 PUSH1 0x0 NOT DUP3 EQ ISZERO PUSH2 0x2F35 JUMPI PUSH2 0x2F35 PUSH2 0x2F50 JUMP JUMPDEST POP PUSH1 0x1 ADD SWAP1 JUMP JUMPDEST PUSH1 0x0 DUP3 PUSH2 0x2F4B JUMPI PUSH2 0x2F4B PUSH2 0x2F66 JUMP JUMPDEST POP MOD SWAP1 JUMP JUMPDEST PUSH4 0x4E487B71 PUSH1 0xE0 SHL PUSH1 0x0 MSTORE PUSH1 0x11 PUSH1 0x4 MSTORE PUSH1 0x24 PUSH1 0x0 REVERT JUMPDEST PUSH4 0x4E487B71 PUSH1 0xE0 SHL PUSH1 0x0 MSTORE PUSH1 0x12 PUSH1 0x4 MSTORE PUSH1 0x24 PUSH1 0x0 REVERT JUMPDEST PUSH4 0x4E487B71 PUSH1 0xE0 SHL PUSH1 0x0 MSTORE PUSH1 0x31 PUSH1 0x4 MSTORE PUSH1 0x24 PUSH1 0x0 REVERT JUMPDEST PUSH4 0x4E487B71 PUSH1 0xE0 SHL PUSH1 0x0 MSTORE PUSH1 0x32 PUSH1 0x4 MSTORE PUSH1 0x24 PUSH1 0x0 REVERT JUMPDEST PUSH4 0x4E487B71 PUSH1 0xE0 SHL PUSH1 0x0 MSTORE PUSH1 0x41 PUSH1 0x4 MSTORE PUSH1 0x24 PUSH1 0x0 REVERT JUMPDEST PUSH1 0x1 PUSH1 0x1 PUSH1 0xA0 SHL SUB DUP2 AND DUP2 EQ PUSH2 0x189F JUMPI PUSH1 0x0 DUP1 REVERT JUMPDEST PUSH1 0x1 PUSH1 0x1 PUSH1 0xE0 SHL SUB NOT DUP2 AND DUP2 EQ PUSH2 0x189F JUMPI PUSH1 0x0 DUP1 REVERT INVALID EXTCODECOPY PUSH20 0x766720786D6C6E733D22687474703A2F2F777777 0x2E PUSH24 0x332E6F72672F323030302F73766722207072657365727665 COINBASE PUSH20 0x70656374526174696F3D22784D696E594D696E20 PUSH14 0x656574222076696577426F783D22 ADDRESS KECCAK256 ADDRESS KECCAK256 CALLER CALLDATALOAD ADDRESS KECCAK256 CALLER CALLDATALOAD ADDRESS 0x22 RETURNDATACOPY EXTCODECOPY PUSH20 0x74796C653E2E62617365207B2066696C6C3A2023 ADDRESS ADDRESS ADDRESS ADDRESS ADDRESS ADDRESS EXTCODESIZE KECCAK256 PUSH7 0x6F6E742D66616D PUSH10 0x6C793A2073657269663B KECCAK256 PUSH7 0x6F6E742D73697A PUSH6 0x3A2031347078 EXTCODESIZE KECCAK256 PUSH30 0x3C2F7374796C653E3C726563742077696474683D22313030252220686569 PUSH8 0x68743D2231303025 0x22 KECCAK256 PUSH7 0x696C6C3D222346 CHAINID CHAINID BALANCE ADDRESS ADDRESS 0x22 KECCAK256 0x2F RETURNDATACOPY EXTCODECOPY PUSH21 0x65787420783D2231302220793D2232302220636C61 PUSH20 0x733D2262617365223E3C2F746578743E3C746578 PUSH21 0x20783D2231302220793D2236302220636C6173733D 0x22 PUSH3 0x617365 0x22 RETURNDATACOPY EXTCODECOPY 0x2F PUSH21 0x6578743E3C7465787420783D2231302220793D2231 CALLDATASIZE ADDRESS 0x22 KECCAK256 PUSH4 0x6C617373 RETURNDATASIZE 0x22 PUSH3 0x617365 0x22 RETURNDATACOPY EXTCODECOPY 0x2F PUSH21 0x6578743E3C7465787420783D2231302220793D2231 ORIGIN ADDRESS 0x22 KECCAK256 PUSH4 0x6C617373 RETURNDATASIZE 0x22 PUSH3 0x617365 0x22 RETURNDATACOPY EXTCODECOPY 0x2F PUSH21 0x6578743E3C7465787420783D2231302220793D2238 ADDRESS 0x22 KECCAK256 PUSH4 0x6C617373 RETURNDATASIZE 0x22 PUSH3 0x617365 0x22 RETURNDATACOPY EXTCODECOPY 0x2F PUSH21 0x6578743E3C7465787420783D2231302220793D2231 ADDRESS ADDRESS 0x22 KECCAK256 PUSH4 0x6C617373 RETURNDATASIZE 0x22 PUSH3 0x617365 0x22 RETURNDATACOPY EXTCODECOPY 0x2F PUSH21 0x6578743E3C7465787420783D2231302220793D2231 CALLVALUE ADDRESS 0x22 KECCAK256 PUSH4 0x6C617373 RETURNDATASIZE 0x22 PUSH3 0x617365 0x22 RETURNDATACOPY COINBASE TIMESTAMP NUMBER DIFFICULTY GASLIMIT CHAINID SELFBALANCE BASEFEE 0x49 0x4A 0x4B 0x4C 0x4D 0x4E 0x4F POP MLOAD MSTORE MSTORE8 SLOAD SSTORE JUMP JUMPI PC MSIZE GAS PUSH2 0x6263 PUSH5 0x6566676869 PUSH11 0x6B6C6D6E6F707172737475 PUSH23 0x7778797A303132333435363738392B2F3C2F746578743E EXTCODECOPY PUSH21 0x65787420783D2231302220793D2234302220636C61 PUSH20 0x733D2262617365223EA26469706673582212203D 0xBA 0xE8 0xF8 0xFB PUSH11 0x91FE8A929027A7A71EC711 0xBD 0xAF 0xC6 LOG2 0xAD DUP4 PUSH16 0xAED6408F8FEB70F664736F6C63430008 SMOD STOP CALLER "
		},
		"gasEstimates": {
			"creation": {
				"codeDepositCost": "2584800",
				"executionCost": "infinite",
				"totalCost": "infinite"
			},
			"external": {
				"_targetContract()": "2426",
				"approve(address,uint256)": "infinite",
				"balanceOf(address)": "2672",
				"changeTargetContract(address)": "28287",
				"claim(uint256)": "infinite",
				"getAppearanceFeature(uint256)": "infinite",
				"getApproved(uint256)": "4783",
				"getBodyShape(uint256)": "infinite",
				"getFacialFeature(uint256)": "infinite",
				"getHeight(uint256)": "infinite",
				"getImpressiveColor(uint256)": "infinite",
				"getStrengthOfRace(uint256)": "infinite",
				"getTargetContract()": "2421",
				"isApprovedForAll(address,address)": "infinite",
				"name()": "infinite",
				"owner()": "2376",
				"ownerClaim(uint256)": "infinite",
				"ownerOf(uint256)": "2617",
				"renounceOwnership()": "28228",
				"safeTransferFrom(address,address,uint256)": "infinite",
				"safeTransferFrom(address,address,uint256,bytes)": "infinite",
				"setApprovalForAll(address,bool)": "26733",
				"supportsInterface(bytes4)": "infinite",
				"symbol()": "infinite",
				"tokenByIndex(uint256)": "6760",
				"tokenOfOwnerByIndex(address,uint256)": "5036",
				"tokenURI(uint256)": "infinite",
				"totalSupply()": "2349",
				"transferFrom(address,address,uint256)": "infinite",
				"transferOwnership(address)": "infinite"
			},
			"internal": {
				"pluck(uint256,string memory,string memory[] memory)": "infinite",
				"random(string memory)": "infinite",
				"toString(uint256)": "infinite"
			}
		},
		"methodIdentifiers": {
			"_targetContract()": "99f43aba",
			"approve(address,uint256)": "095ea7b3",
			"balanceOf(address)": "70a08231",
			"changeTargetContract(address)": "ab86de6c",
			"claim(uint256)": "379607f5",
			"getAppearanceFeature(uint256)": "c07b1978",
			"getApproved(uint256)": "081812fc",
			"getBodyShape(uint256)": "d17c9b21",
			"getFacialFeature(uint256)": "3886da94",
			"getHeight(uint256)": "fdc3a9cc",
			"getImpressiveColor(uint256)": "77aefadd",
			"getStrengthOfRace(uint256)": "761c6cc4",
			"getTargetContract()": "7a8639ed",
			"isApprovedForAll(address,address)": "e985e9c5",
			"name()": "06fdde03",
			"owner()": "8da5cb5b",
			"ownerClaim(uint256)": "434f48c4",
			"ownerOf(uint256)": "6352211e",
			"renounceOwnership()": "715018a6",
			"safeTransferFrom(address,address,uint256)": "42842e0e",
			"safeTransferFrom(address,address,uint256,bytes)": "b88d4fde",
			"setApprovalForAll(address,bool)": "a22cb465",
			"supportsInterface(bytes4)": "01ffc9a7",
			"symbol()": "95d89b41",
			"tokenByIndex(uint256)": "4f6ccce7",
			"tokenOfOwnerByIndex(address,uint256)": "2f745c59",
			"tokenURI(uint256)": "c87b56dd",
			"totalSupply()": "18160ddd",
			"transferFrom(address,address,uint256)": "23b872dd",
			"transferOwnership(address)": "f2fde38b"
		}
	},
	"abi": [
		{
			"inputs": [
				{
					"internalType": "address",
					"name": "targetContract_",
					"type": "address"
				}
			],
			"stateMutability": "nonpayable",
			"type": "constructor"
		},
		{
			"anonymous": false,
			"inputs": [
				{
					"indexed": true,
					"internalType": "address",
					"name": "owner",
					"type": "address"
				},
				{
					"indexed": true,
					"internalType": "address",
					"name": "approved",
					"type": "address"
				},
				{
					"indexed": true,
					"internalType": "uint256",
					"name": "tokenId",
					"type": "uint256"
				}
			],
			"name": "Approval",
			"type": "event"
		},
		{
			"anonymous": false,
			"inputs": [
				{
					"indexed": true,
					"internalType": "address",
					"name": "owner",
					"type": "address"
				},
				{
					"indexed": true,
					"internalType": "address",
					"name": "operator",
					"type": "address"
				},
				{
					"indexed": false,
					"internalType": "bool",
					"name": "approved",
					"type": "bool"
				}
			],
			"name": "ApprovalForAll",
			"type": "event"
		},
		{
			"anonymous": false,
			"inputs": [
				{
					"indexed": true,
					"internalType": "address",
					"name": "previousOwner",
					"type": "address"
				},
				{
					"indexed": true,
					"internalType": "address",
					"name": "newOwner",
					"type": "address"
				}
			],
			"name": "OwnershipTransferred",
			"type": "event"
		},
		{
			"anonymous": false,
			"inputs": [
				{
					"indexed": true,
					"internalType": "address",
					"name": "previousContract",
					"type": "address"
				},
				{
					"indexed": true,
					"internalType": "address",
					"name": "newContract",
					"type": "address"
				}
			],
			"name": "TargetContractTransferred",
			"type": "event"
		},
		{
			"anonymous": false,
			"inputs": [
				{
					"indexed": true,
					"internalType": "address",
					"name": "from",
					"type": "address"
				},
				{
					"indexed": true,
					"internalType": "address",
					"name": "to",
					"type": "address"
				},
				{
					"indexed": true,
					"internalType": "uint256",
					"name": "tokenId",
					"type": "uint256"
				}
			],
			"name": "Transfer",
			"type": "event"
		},
		{
			"inputs": [],
			"name": "_targetContract",
			"outputs": [
				{
					"internalType": "contract IERC721Enumerable",
					"name": "",
					"type": "address"
				}
			],
			"stateMutability": "view",
			"type": "function"
		},
		{
			"inputs": [
				{
					"internalType": "address",
					"name": "to",
					"type": "address"
				},
				{
					"internalType": "uint256",
					"name": "tokenId",
					"type": "uint256"
				}
			],
			"name": "approve",
			"outputs": [],
			"stateMutability": "nonpayable",
			"type": "function"
		},
		{
			"inputs": [
				{
					"internalType": "address",
					"name": "owner",
					"type": "address"
				}
			],
			"name": "balanceOf",
			"outputs": [
				{
					"internalType": "uint256",
					"name": "",
					"type": "uint256"
				}
			],
			"stateMutability": "view",
			"type": "function"
		},
		{
			"inputs": [
				{
					"internalType": "address",
					"name": "newTargetContract",
					"type": "address"
				}
			],
			"name": "changeTargetContract",
			"outputs": [],
			"stateMutability": "nonpayable",
			"type": "function"
		},
		{
			"inputs": [
				{
					"internalType": "uint256",
					"name": "tokenId",
					"type": "uint256"
				}
			],
			"name": "claim",
			"outputs": [],
			"stateMutability": "nonpayable",
			"type": "function"
		},
		{
			"inputs": [
				{
					"internalType": "uint256",
					"name": "tokenId",
					"type": "uint256"
				}
			],
			"name": "getAppearanceFeature",
			"outputs": [
				{
					"internalType": "string",
					"name": "",
					"type": "string"
				}
			],
			"stateMutability": "view",
			"type": "function"
		},
		{
			"inputs": [
				{
					"internalType": "uint256",
					"name": "tokenId",
					"type": "uint256"
				}
			],
			"name": "getApproved",
			"outputs": [
				{
					"internalType": "address",
					"name": "",
					"type": "address"
				}
			],
			"stateMutability": "view",
			"type": "function"
		},
		{
			"inputs": [
				{
					"internalType": "uint256",
					"name": "tokenId",
					"type": "uint256"
				}
			],
			"name": "getBodyShape",
			"outputs": [
				{
					"internalType": "string",
					"name": "",
					"type": "string"
				}
			],
			"stateMutability": "view",
			"type": "function"
		},
		{
			"inputs": [
				{
					"internalType": "uint256",
					"name": "tokenId",
					"type": "uint256"
				}
			],
			"name": "getFacialFeature",
			"outputs": [
				{
					"internalType": "string",
					"name": "",
					"type": "string"
				}
			],
			"stateMutability": "view",
			"type": "function"
		},
		{
			"inputs": [
				{
					"internalType": "uint256",
					"name": "tokenId",
					"type": "uint256"
				}
			],
			"name": "getHeight",
			"outputs": [
				{
					"internalType": "string",
					"name": "",
					"type": "string"
				}
			],
			"stateMutability": "view",
			"type": "function"
		},
		{
			"inputs": [
				{
					"internalType": "uint256",
					"name": "tokenId",
					"type": "uint256"
				}
			],
			"name": "getImpressiveColor",
			"outputs": [
				{
					"internalType": "string",
					"name": "",
					"type": "string"
				}
			],
			"stateMutability": "view",
			"type": "function"
		},
		{
			"inputs": [
				{
					"internalType": "uint256",
					"name": "tokenId",
					"type": "uint256"
				}
			],
			"name": "getStrengthOfRace",
			"outputs": [
				{
					"internalType": "string",
					"name": "",
					"type": "string"
				}
			],
			"stateMutability": "view",
			"type": "function"
		},
		{
			"inputs": [],
			"name": "getTargetContract",
			"outputs": [
				{
					"internalType": "address",
					"name": "",
					"type": "address"
				}
			],
			"stateMutability": "view",
			"type": "function"
		},
		{
			"inputs": [
				{
					"internalType": "address",
					"name": "owner",
					"type": "address"
				},
				{
					"internalType": "address",
					"name": "operator",
					"type": "address"
				}
			],
			"name": "isApprovedForAll",
			"outputs": [
				{
					"internalType": "bool",
					"name": "",
					"type": "bool"
				}
			],
			"stateMutability": "view",
			"type": "function"
		},
		{
			"inputs": [],
			"name": "name",
			"outputs": [
				{
					"internalType": "string",
					"name": "",
					"type": "string"
				}
			],
			"stateMutability": "view",
			"type": "function"
		},
		{
			"inputs": [],
			"name": "owner",
			"outputs": [
				{
					"internalType": "address",
					"name": "",
					"type": "address"
				}
			],
			"stateMutability": "view",
			"type": "function"
		},
		{
			"inputs": [
				{
					"internalType": "uint256",
					"name": "tokenId",
					"type": "uint256"
				}
			],
			"name": "ownerClaim",
			"outputs": [],
			"stateMutability": "nonpayable",
			"type": "function"
		},
		{
			"inputs": [
				{
					"internalType": "uint256",
					"name": "tokenId",
					"type": "uint256"
				}
			],
			"name": "ownerOf",
			"outputs": [
				{
					"internalType": "address",
					"name": "",
					"type": "address"
				}
			],
			"stateMutability": "view",
			"type": "function"
		},
		{
			"inputs": [],
			"name": "renounceOwnership",
			"outputs": [],
			"stateMutability": "nonpayable",
			"type": "function"
		},
		{
			"inputs": [
				{
					"internalType": "address",
					"name": "from",
					"type": "address"
				},
				{
					"internalType": "address",
					"name": "to",
					"type": "address"
				},
				{
					"internalType": "uint256",
					"name": "tokenId",
					"type": "uint256"
				}
			],
			"name": "safeTransferFrom",
			"outputs": [],
			"stateMutability": "nonpayable",
			"type": "function"
		},
		{
			"inputs": [
				{
					"internalType": "address",
					"name": "from",
					"type": "address"
				},
				{
					"internalType": "address",
					"name": "to",
					"type": "address"
				},
				{
					"internalType": "uint256",
					"name": "tokenId",
					"type": "uint256"
				},
				{
					"internalType": "bytes",
					"name": "_data",
					"type": "bytes"
				}
			],
			"name": "safeTransferFrom",
			"outputs": [],
			"stateMutability": "nonpayable",
			"type": "function"
		},
		{
			"inputs": [
				{
					"internalType": "address",
					"name": "operator",
					"type": "address"
				},
				{
					"internalType": "bool",
					"name": "approved",
					"type": "bool"
				}
			],
			"name": "setApprovalForAll",
			"outputs": [],
			"stateMutability": "nonpayable",
			"type": "function"
		},
		{
			"inputs": [
				{
					"internalType": "bytes4",
					"name": "interfaceId",
					"type": "bytes4"
				}
			],
			"name": "supportsInterface",
			"outputs": [
				{
					"internalType": "bool",
					"name": "",
					"type": "bool"
				}
			],
			"stateMutability": "view",
			"type": "function"
		},
		{
			"inputs": [],
			"name": "symbol",
			"outputs": [
				{
					"internalType": "string",
					"name": "",
					"type": "string"
				}
			],
			"stateMutability": "view",
			"type": "function"
		},
		{
			"inputs": [
				{
					"internalType": "uint256",
					"name": "index",
					"type": "uint256"
				}
			],
			"name": "tokenByIndex",
			"outputs": [
				{
					"internalType": "uint256",
					"name": "",
					"type": "uint256"
				}
			],
			"stateMutability": "view",
			"type": "function"
		},
		{
			"inputs": [
				{
					"internalType": "address",
					"name": "owner",
					"type": "address"
				},
				{
					"internalType": "uint256",
					"name": "index",
					"type": "uint256"
				}
			],
			"name": "tokenOfOwnerByIndex",
			"outputs": [
				{
					"internalType": "uint256",
					"name": "",
					"type": "uint256"
				}
			],
			"stateMutability": "view",
			"type": "function"
		},
		{
			"inputs": [
				{
					"internalType": "uint256",
					"name": "tokenId",
					"type": "uint256"
				}
			],
			"name": "tokenURI",
			"outputs": [
				{
					"internalType": "string",
					"name": "",
					"type": "string"
				}
			],
			"stateMutability": "view",
			"type": "function"
		},
		{
			"inputs": [],
			"name": "totalSupply",
			"outputs": [
				{
					"internalType": "uint256",
					"name": "",
					"type": "uint256"
				}
			],
			"stateMutability": "view",
			"type": "function"
		},
		{
			"inputs": [
				{
					"internalType": "address",
					"name": "from",
					"type": "address"
				},
				{
					"internalType": "address",
					"name": "to",
					"type": "address"
				},
				{
					"internalType": "uint256",
					"name": "tokenId",
					"type": "uint256"
				}
			],
			"name": "transferFrom",
			"outputs": [],
			"stateMutability": "nonpayable",
			"type": "function"
		},
		{
			"inputs": [
				{
					"internalType": "address",
					"name": "newOwner",
					"type": "address"
				}
			],
			"name": "transferOwnership",
			"outputs": [],
			"stateMutability": "nonpayable",
			"type": "function"
		}
	]
}