{
  "contractName": "AnimeLootPhysicalCharacteristics",
  "abi": [
    {
      "inputs": [],
      "stateMutability": "nonpayable",
      "type": "constructor"
    },
    {
      "anonymous": false,
      "inputs": [
        {
          "indexed": true,
          "internalType": "address",
          "name": "owner",
          "type": "address"
        },
        {
          "indexed": true,
          "internalType": "address",
          "name": "approved",
          "type": "address"
        },
        {
          "indexed": true,
          "internalType": "uint256",
          "name": "tokenId",
          "type": "uint256"
        }
      ],
      "name": "Approval",
      "type": "event"
    },
    {
      "anonymous": false,
      "inputs": [
        {
          "indexed": true,
          "internalType": "address",
          "name": "owner",
          "type": "address"
        },
        {
          "indexed": true,
          "internalType": "address",
          "name": "operator",
          "type": "address"
        },
        {
          "indexed": false,
          "internalType": "bool",
          "name": "approved",
          "type": "bool"
        }
      ],
      "name": "ApprovalForAll",
      "type": "event"
    },
    {
      "anonymous": false,
      "inputs": [
        {
          "indexed": true,
          "internalType": "address",
          "name": "previousOwner",
          "type": "address"
        },
        {
          "indexed": true,
          "internalType": "address",
          "name": "newOwner",
          "type": "address"
        }
      ],
      "name": "OwnershipTransferred",
      "type": "event"
    },
    {
      "anonymous": false,
      "inputs": [
        {
          "indexed": true,
          "internalType": "address",
          "name": "from",
          "type": "address"
        },
        {
          "indexed": true,
          "internalType": "address",
          "name": "to",
          "type": "address"
        },
        {
          "indexed": true,
          "internalType": "uint256",
          "name": "tokenId",
          "type": "uint256"
        }
      ],
      "name": "Transfer",
      "type": "event"
    },
    {
      "inputs": [
        {
          "internalType": "address",
          "name": "to",
          "type": "address"
        },
        {
          "internalType": "uint256",
          "name": "tokenId",
          "type": "uint256"
        }
      ],
      "name": "approve",
      "outputs": [],
      "stateMutability": "nonpayable",
      "type": "function"
    },
    {
      "inputs": [
        {
          "internalType": "address",
          "name": "owner",
          "type": "address"
        }
      ],
      "name": "balanceOf",
      "outputs": [
        {
          "internalType": "uint256",
          "name": "",
          "type": "uint256"
        }
      ],
      "stateMutability": "view",
      "type": "function"
    },
    {
      "inputs": [
        {
          "internalType": "uint256",
          "name": "tokenId",
          "type": "uint256"
        }
      ],
      "name": "getApproved",
      "outputs": [
        {
          "internalType": "address",
          "name": "",
          "type": "address"
        }
      ],
      "stateMutability": "view",
      "type": "function"
    },
    {
      "inputs": [
        {
          "internalType": "address",
          "name": "owner",
          "type": "address"
        },
        {
          "internalType": "address",
          "name": "operator",
          "type": "address"
        }
      ],
      "name": "isApprovedForAll",
      "outputs": [
        {
          "internalType": "bool",
          "name": "",
          "type": "bool"
        }
      ],
      "stateMutability": "view",
      "type": "function"
    },
    {
      "inputs": [],
      "name": "name",
      "outputs": [
        {
          "internalType": "string",
          "name": "",
          "type": "string"
        }
      ],
      "stateMutability": "view",
      "type": "function"
    },
    {
      "inputs": [],
      "name": "owner",
      "outputs": [
        {
          "internalType": "address",
          "name": "",
          "type": "address"
        }
      ],
      "stateMutability": "view",
      "type": "function"
    },
    {
      "inputs": [
        {
          "internalType": "uint256",
          "name": "tokenId",
          "type": "uint256"
        }
      ],
      "name": "ownerOf",
      "outputs": [
        {
          "internalType": "address",
          "name": "",
          "type": "address"
        }
      ],
      "stateMutability": "view",
      "type": "function"
    },
    {
      "inputs": [],
      "name": "renounceOwnership",
      "outputs": [],
      "stateMutability": "nonpayable",
      "type": "function"
    },
    {
      "inputs": [
        {
          "internalType": "address",
          "name": "from",
          "type": "address"
        },
        {
          "internalType": "address",
          "name": "to",
          "type": "address"
        },
        {
          "internalType": "uint256",
          "name": "tokenId",
          "type": "uint256"
        }
      ],
      "name": "safeTransferFrom",
      "outputs": [],
      "stateMutability": "nonpayable",
      "type": "function"
    },
    {
      "inputs": [
        {
          "internalType": "address",
          "name": "from",
          "type": "address"
        },
        {
          "internalType": "address",
          "name": "to",
          "type": "address"
        },
        {
          "internalType": "uint256",
          "name": "tokenId",
          "type": "uint256"
        },
        {
          "internalType": "bytes",
          "name": "_data",
          "type": "bytes"
        }
      ],
      "name": "safeTransferFrom",
      "outputs": [],
      "stateMutability": "nonpayable",
      "type": "function"
    },
    {
      "inputs": [
        {
          "internalType": "address",
          "name": "operator",
          "type": "address"
        },
        {
          "internalType": "bool",
          "name": "approved",
          "type": "bool"
        }
      ],
      "name": "setApprovalForAll",
      "outputs": [],
      "stateMutability": "nonpayable",
      "type": "function"
    },
    {
      "inputs": [
        {
          "internalType": "bytes4",
          "name": "interfaceId",
          "type": "bytes4"
        }
      ],
      "name": "supportsInterface",
      "outputs": [
        {
          "internalType": "bool",
          "name": "",
          "type": "bool"
        }
      ],
      "stateMutability": "view",
      "type": "function"
    },
    {
      "inputs": [],
      "name": "symbol",
      "outputs": [
        {
          "internalType": "string",
          "name": "",
          "type": "string"
        }
      ],
      "stateMutability": "view",
      "type": "function"
    },
    {
      "inputs": [
        {
          "internalType": "uint256",
          "name": "index",
          "type": "uint256"
        }
      ],
      "name": "tokenByIndex",
      "outputs": [
        {
          "internalType": "uint256",
          "name": "",
          "type": "uint256"
        }
      ],
      "stateMutability": "view",
      "type": "function"
    },
    {
      "inputs": [
        {
          "internalType": "address",
          "name": "owner",
          "type": "address"
        },
        {
          "internalType": "uint256",
          "name": "index",
          "type": "uint256"
        }
      ],
      "name": "tokenOfOwnerByIndex",
      "outputs": [
        {
          "internalType": "uint256",
          "name": "",
          "type": "uint256"
        }
      ],
      "stateMutability": "view",
      "type": "function"
    },
    {
      "inputs": [],
      "name": "totalSupply",
      "outputs": [
        {
          "internalType": "uint256",
          "name": "",
          "type": "uint256"
        }
      ],
      "stateMutability": "view",
      "type": "function"
    },
    {
      "inputs": [
        {
          "internalType": "address",
          "name": "from",
          "type": "address"
        },
        {
          "internalType": "address",
          "name": "to",
          "type": "address"
        },
        {
          "internalType": "uint256",
          "name": "tokenId",
          "type": "uint256"
        }
      ],
      "name": "transferFrom",
      "outputs": [],
      "stateMutability": "nonpayable",
      "type": "function"
    },
    {
      "inputs": [
        {
          "internalType": "address",
          "name": "newOwner",
          "type": "address"
        }
      ],
      "name": "transferOwnership",
      "outputs": [],
      "stateMutability": "nonpayable",
      "type": "function"
    },
    {
      "inputs": [
        {
          "internalType": "uint256",
          "name": "tokenId",
          "type": "uint256"
        }
      ],
      "name": "getHeight",
      "outputs": [
        {
          "internalType": "string",
          "name": "",
          "type": "string"
        }
      ],
      "stateMutability": "view",
      "type": "function"
    },
    {
      "inputs": [
        {
          "internalType": "uint256",
          "name": "tokenId",
          "type": "uint256"
        }
      ],
      "name": "getBodyShape",
      "outputs": [
        {
          "internalType": "string",
          "name": "",
          "type": "string"
        }
      ],
      "stateMutability": "view",
      "type": "function"
    },
    {
      "inputs": [
        {
          "internalType": "uint256",
          "name": "tokenId",
          "type": "uint256"
        }
      ],
      "name": "getSkinColor",
      "outputs": [
        {
          "internalType": "string",
          "name": "",
          "type": "string"
        }
      ],
      "stateMutability": "view",
      "type": "function"
    },
    {
      "inputs": [
        {
          "internalType": "uint256",
          "name": "tokenId",
          "type": "uint256"
        }
      ],
      "name": "getStrengthOfCharacteristics",
      "outputs": [
        {
          "internalType": "string",
          "name": "",
          "type": "string"
        }
      ],
      "stateMutability": "view",
      "type": "function"
    },
    {
      "inputs": [
        {
          "internalType": "uint256",
          "name": "tokenId",
          "type": "uint256"
        }
      ],
      "name": "tokenURI",
      "outputs": [
        {
          "internalType": "string",
          "name": "",
          "type": "string"
        }
      ],
      "stateMutability": "view",
      "type": "function"
    },
    {
      "inputs": [
        {
          "internalType": "uint256",
          "name": "tokenId",
          "type": "uint256"
        }
      ],
      "name": "claim",
      "outputs": [],
      "stateMutability": "nonpayable",
      "type": "function"
    },
    {
      "inputs": [
        {
          "internalType": "uint256",
          "name": "tokenId",
          "type": "uint256"
        }
      ],
      "name": "ownerClaim",
      "outputs": [],
      "stateMutability": "nonpayable",
      "type": "function"
    }
  ],
  "bytecode": "0x600460e09081526315185b1b60e21b6101005260809081526006610120908152654d656469756d60d01b6101405260a0526101a060405260056101609081526414da1bdc9d60da1b6101805260c0526200005e90600c906003620003f7565b506040518060800160405280604051806040016040528060068152602001655374726f6e6760d01b8152508152602001604051806040016040528060058152602001640506c756d760dc1b815250815260200160405180604001604052806006815260200165139bdc9b585b60d21b81525081526020016040518060400160405280600781526020016629b632b73232b960c91b815250815250600d9060046200010a9291906200045b565b5060408051606081018252600960208201908152685442444f746865727360b81b928201929092529081526200014590600e906001620004ad565b5060405180606001604052806040518060400160405280600a815260200169141d5c9948189b1bdbd960b21b8152508152602001604051806040016040528060048152602001632430b63360e11b81525081526020016040518060400160405280600781526020016628bab0b93a32b960c91b815250815250600f906003620001d0929190620003f7565b506040805161016081018252600961012082018181526826b0b6b6b0b634b0b760b91b61014084015282528251808401845260088082526752657074696c657360c01b6020838101919091528085019290925284518086018652600580825264426972647360d81b828501528587019190915285518087018752600a815269416d7068696269616e7360b01b81850152606086015285518087018752918252675072696d6174657360c01b82840152608085019190915284518086018652600781526621b2b73a30bab960c91b8184015260a085015284518086018652818152644c616d696160d81b8184015260c08501528451808601865290815264486172707960d81b8183015260e0840152835180850190945260068452654f746865727360d01b90840152610100820192909252620003109160109190620004ff565b503480156200031e57600080fd5b5060408051808201825260208082527f416e696d654c6f6f74506879736963616c4368617261637465726973746963738183018181528451808601909552828552918401528151919291620003769160009162000551565b5080516200038c90600190602084019062000551565b50506001600a55506200039f33620003a5565b62000693565b600b80546001600160a01b038381166001600160a01b0319831681179093556040519116919082907f8be0079c531659141344cd1fd0a4f28419497f9722a3daafe3b4186f6b6457e090600090a35050565b82805482825590600052602060002090810192821562000449579160200282015b828111156200044957825180516200043891849160209091019062000551565b509160200191906001019062000418565b5062000457929150620005dc565b5090565b82805482825590600052602060002090810192821562000449579160200282015b828111156200044957825180516200049c91849160209091019062000551565b50916020019190600101906200047c565b82805482825590600052602060002090810192821562000449579160200282015b82811115620004495782518051620004ee91849160209091019062000551565b5091602001919060010190620004ce565b82805482825590600052602060002090810192821562000449579160200282015b828111156200044957825180516200054091849160209091019062000551565b509160200191906001019062000520565b8280546200055f9062000656565b90600052602060002090601f016020900481019282620005835760008555620005ce565b82601f106200059e57805160ff1916838001178555620005ce565b82800160010185558215620005ce579182015b82811115620005ce578251825591602001919060010190620005b1565b5062000457929150620005fd565b8082111562000457576000620005f3828262000614565b50600101620005dc565b5b80821115620004575760008155600101620005fe565b508054620006229062000656565b6000825580601f1062000633575050565b601f016020900490600052602060002090810190620006539190620005fd565b50565b600181811c908216806200066b57607f821691505b602082108114156200068d57634e487b7160e01b600052602260045260246000fd5b50919050565b612a4180620006a36000396000f3fe608060405234801561001057600080fd5b50600436106101735760003560e01c806370a08231116100de578063b88d4fde11610097578063d243932e11610071578063d243932e1461031f578063e985e9c514610332578063f2fde38b1461036e578063fdc3a9cc1461038157600080fd5b8063b88d4fde146102e6578063c87b56dd146102f9578063d17c9b211461030c57600080fd5b806370a082311461028c578063715018a61461029f57806373075aff146102a75780638da5cb5b146102ba57806395d89b41146102cb578063a22cb465146102d357600080fd5b80632f745c59116101305780632f745c591461021a578063379607f51461022d57806342842e0e14610240578063434f48c4146102535780634f6ccce7146102665780636352211e1461027957600080fd5b806301ffc9a71461017857806306fdde03146101a0578063081812fc146101b5578063095ea7b3146101e057806318160ddd146101f557806323b872dd14610207575b600080fd5b61018b61018636600461212c565b610394565b60405190151581526020015b60405180910390f35b6101a86103bf565b60405161019791906124f8565b6101c86101c3366004612166565b610451565b6040516001600160a01b039091168152602001610197565b6101f36101ee366004612102565b6104de565b005b6008545b604051908152602001610197565b6101f3610215366004611fae565b6105f4565b6101f9610228366004612102565b610625565b6101f361023b366004612166565b6106bb565b6101f361024e366004611fae565b610775565b6101f3610261366004612166565b610790565b6101f9610274366004612166565b610878565b6101c8610287366004612166565b61090b565b6101f961029a366004611f59565b610982565b6101f3610a09565b6101a86102b5366004612166565b610a3f565b600b546001600160a01b03166101c8565b6101a8610b63565b6101f36102e13660046120c6565b610b72565b6101f36102f4366004611fea565b610c37565b6101a8610307366004612166565b610c6f565b6101a861031a366004612166565b610f3b565b6101a861032d366004612166565b611056565b61018b610340366004611f7b565b6001600160a01b03918216600090815260056020908152604080832093909416825291909152205460ff1690565b6101f361037c366004611f59565b611185565b6101a861038f366004612166565b611220565b60006001600160e01b0319821663780e9d6360e01b14806103b957506103b982611338565b92915050565b6060600080546103ce906126c0565b80601f01602080910402602001604051908101604052809291908181526020018280546103fa906126c0565b80156104475780601f1061041c57610100808354040283529160200191610447565b820191906000526020600020905b81548152906001019060200180831161042a57829003601f168201915b5050505050905090565b600061045c82611388565b6104c25760405162461bcd60e51b815260206004820152602c60248201527f4552433732313a20617070726f76656420717565727920666f72206e6f6e657860448201526b34b9ba32b73a103a37b5b2b760a11b60648201526084015b60405180910390fd5b506000908152600460205260409020546001600160a01b031690565b60006104e98261090b565b9050806001600160a01b0316836001600160a01b031614156105575760405162461bcd60e51b815260206004820152602160248201527f4552433732313a20617070726f76616c20746f2063757272656e74206f776e656044820152603960f91b60648201526084016104b9565b336001600160a01b038216148061057357506105738133610340565b6105e55760405162461bcd60e51b815260206004820152603860248201527f4552433732313a20617070726f76652063616c6c6572206973206e6f74206f7760448201527f6e6572206e6f7220617070726f76656420666f7220616c6c000000000000000060648201526084016104b9565b6105ef83836113a5565b505050565b6105fe3382611413565b61061a5760405162461bcd60e51b81526004016104b9906125e1565b6105ef8383836114fd565b600061063083610982565b82106106925760405162461bcd60e51b815260206004820152602b60248201527f455243373231456e756d657261626c653a206f776e657220696e646578206f7560448201526a74206f6620626f756e647360a81b60648201526084016104b9565b506001600160a01b03919091166000908152600660209081526040808320938352929052205490565b6002600a54141561070e5760405162461bcd60e51b815260206004820152601f60248201527f5265656e7472616e637947756172643a207265656e7472616e742063616c6c0060448201526064016104b9565b6002600a5580158015906107235750611e6281105b6107625760405162461bcd60e51b815260206004820152601060248201526f151bdad95b881251081a5b9d985b1a5960821b60448201526064016104b9565b61076d335b826116a8565b506001600a55565b6105ef83838360405180602001604052806000815250610c37565b6002600a5414156107e35760405162461bcd60e51b815260206004820152601f60248201527f5265656e7472616e637947756172643a207265656e7472616e742063616c6c0060448201526064016104b9565b6002600a55600b546001600160a01b031633146108125760405162461bcd60e51b81526004016104b99061255d565b611e61811180156108245750611f4181105b6108635760405162461bcd60e51b815260206004820152601060248201526f151bdad95b881251081a5b9d985b1a5960821b60448201526064016104b9565b61076d610767600b546001600160a01b031690565b600061088360085490565b82106108e65760405162461bcd60e51b815260206004820152602c60248201527f455243373231456e756d657261626c653a20676c6f62616c20696e646578206f60448201526b7574206f6620626f756e647360a01b60648201526084016104b9565b600882815481106108f9576108f961276c565b90600052602060002001549050919050565b6000818152600260205260408120546001600160a01b0316806103b95760405162461bcd60e51b815260206004820152602960248201527f4552433732313a206f776e657220717565727920666f72206e6f6e657869737460448201526832b73a103a37b5b2b760b91b60648201526084016104b9565b60006001600160a01b0382166109ed5760405162461bcd60e51b815260206004820152602a60248201527f4552433732313a2062616c616e636520717565727920666f7220746865207a65604482015269726f206164647265737360b01b60648201526084016104b9565b506001600160a01b031660009081526003602052604090205490565b600b546001600160a01b03163314610a335760405162461bcd60e51b81526004016104b99061255d565b610a3d60006116c6565b565b6060610a4a82611388565b610a665760405162461bcd60e51b81526004016104b990612592565b6103b9826040518060400160405280600981526020016829a5a4a721a7a627a960b91b815250600e805480602002602001604051908101604052809291908181526020016000905b82821015610b5a578382906000526020600020018054610acd906126c0565b80601f0160208091040260200160405190810160405280929190818152602001828054610af9906126c0565b8015610b465780601f10610b1b57610100808354040283529160200191610b46565b820191906000526020600020905b815481529060010190602001808311610b2957829003601f168201915b505050505081526020019060010190610aae565b50505050611718565b6060600180546103ce906126c0565b6001600160a01b038216331415610bcb5760405162461bcd60e51b815260206004820152601960248201527f4552433732313a20617070726f766520746f2063616c6c65720000000000000060448201526064016104b9565b3360008181526005602090815260408083206001600160a01b03871680855290835292819020805460ff191686151590811790915590519081529192917f17307eab39ab6107e8899845ad3d59bd9653f200f220920489ca2b5937696c31910160405180910390a35050565b610c413383611413565b610c5d5760405162461bcd60e51b81526004016104b9906125e1565b610c6984848484611786565b50505050565b6060610c79611f15565b60405180610140016040528061010181526020016127af61010191398152610ca083611220565b81600160200201819052506040518060600160405280602881526020016129e4602891396040820152610cd283610f3b565b60608083019190915260408051918201905260288082526128b060208301396080820152610cff83610a3f565b60a08201526040805160608101909152602880825261292a602083013960c0820152610d2a83611056565b60e08201526040805160608101909152602980825261295260208301396101008201526040805160208082018352600082526101208401919091528151606081019092526029808352906129019083013961014082015260408051602080820183526000825261016084019190915281516060810190925260298083529061297b908301396101808201526040805160208082018352600082526101a08401919091528151606081019092526029808352906128d8908301396101c08201526040805160208082018352600082526101e08401919091528151808301909252600d82526c1e17ba32bc3a1f1e17b9bb339f60991b90820152816010602090810291909101919091528151828201516040808501516060860151608087015160a088015160c089015160e08a01516101008b0151965160009a610e6f9a99989101612212565b60408051808303601f19018152908290526101208401516101408501516101608601516101808701516101a08801516101c08901516101e08a01516102008b0151979950610ec2988a9890602001612212565b60405160208183030381529060405290506000610f0f610ee1866117b9565b610eea846118b7565b604051602001610efb9291906122d3565b6040516020818303038152906040526118b7565b905080604051602001610f229190612476565b60408051601f1981840301815291905295945050505050565b6060610f4682611388565b610f625760405162461bcd60e51b81526004016104b990612592565b6103b98260405180604001604052806009815260200168424f4459534841504560b81b815250600d805480602002602001604051908101604052809291908181526020016000905b82821015610b5a578382906000526020600020018054610fc9906126c0565b80601f0160208091040260200160405190810160405280929190818152602001828054610ff5906126c0565b80156110425780601f1061101757610100808354040283529160200191611042565b820191906000526020600020905b81548152906001019060200180831161102557829003601f168201915b505050505081526020019060010190610faa565b606061106182611388565b61107d5760405162461bcd60e51b81526004016104b990612592565b6103b9826040518060400160405280601981526020017f535452454e4754484f4643484152414354455249535449435300000000000000815250600f805480602002602001604051908101604052809291908181526020016000905b82821015610b5a5783829060005260206000200180546110f8906126c0565b80601f0160208091040260200160405190810160405280929190818152602001828054611124906126c0565b80156111715780601f1061114657610100808354040283529160200191611171565b820191906000526020600020905b81548152906001019060200180831161115457829003601f168201915b5050505050815260200190600101906110d9565b600b546001600160a01b031633146111af5760405162461bcd60e51b81526004016104b99061255d565b6001600160a01b0381166112145760405162461bcd60e51b815260206004820152602660248201527f4f776e61626c653a206e6577206f776e657220697320746865207a65726f206160448201526564647265737360d01b60648201526084016104b9565b61121d816116c6565b50565b606061122b82611388565b6112475760405162461bcd60e51b81526004016104b990612592565b6103b9826040518060400160405280600681526020016512115251d21560d21b815250600c805480602002602001604051908101604052809291908181526020016000905b82821015610b5a5783829060005260206000200180546112ab906126c0565b80601f01602080910402602001604051908101604052809291908181526020018280546112d7906126c0565b80156113245780601f106112f957610100808354040283529160200191611324565b820191906000526020600020905b81548152906001019060200180831161130757829003601f168201915b50505050508152602001906001019061128c565b60006001600160e01b031982166380ac58cd60e01b148061136957506001600160e01b03198216635b5e139f60e01b145b806103b957506301ffc9a760e01b6001600160e01b03198316146103b9565b6000908152600260205260409020546001600160a01b0316151590565b600081815260046020526040902080546001600160a01b0319166001600160a01b03841690811790915581906113da8261090b565b6001600160a01b03167f8c5be1e5ebec7d5bd14f71427d1e84f3dd0314c0f7b2291e5b200ac8c7c3b92560405160405180910390a45050565b600061141e82611388565b61147f5760405162461bcd60e51b815260206004820152602c60248201527f4552433732313a206f70657261746f7220717565727920666f72206e6f6e657860448201526b34b9ba32b73a103a37b5b2b760a11b60648201526084016104b9565b600061148a8361090b565b9050806001600160a01b0316846001600160a01b031614806114c55750836001600160a01b03166114ba84610451565b6001600160a01b0316145b806114f557506001600160a01b0380821660009081526005602090815260408083209388168352929052205460ff165b949350505050565b826001600160a01b03166115108261090b565b6001600160a01b0316146115785760405162461bcd60e51b815260206004820152602960248201527f4552433732313a207472616e73666572206f6620746f6b656e2074686174206960448201526839903737ba1037bbb760b91b60648201526084016104b9565b6001600160a01b0382166115da5760405162461bcd60e51b8152602060048201526024808201527f4552433732313a207472616e7366657220746f20746865207a65726f206164646044820152637265737360e01b60648201526084016104b9565b6115e5838383611a1d565b6115f06000826113a5565b6001600160a01b038316600090815260036020526040812080546001929061161990849061267d565b90915550506001600160a01b0382166000908152600360205260408120805460019290611647908490612632565b909155505060008181526002602052604080822080546001600160a01b0319166001600160a01b0386811691821790925591518493918716917fddf252ad1be2c89b69c2b068fc378daa952ba7f163c4a11628f55a4df523b3ef91a4505050565b6116c2828260405180602001604052806000815250611ad5565b5050565b600b80546001600160a01b038381166001600160a01b0319831681179093556040519116919082907f8be0079c531659141344cd1fd0a4f28419497f9722a3daafe3b4186f6b6457e090600090a35050565b6060600061174e84611729876117b9565b60405160200161173a9291906121e3565b604051602081830303815290604052611b08565b90506000838451836117609190612716565b815181106117705761177061276c565b6020026020010151905080925050509392505050565b6117918484846114fd565b61179d84848484611b39565b610c695760405162461bcd60e51b81526004016104b99061250b565b6060816117dd5750506040805180820190915260018152600360fc1b602082015290565b8160005b811561180757806117f1816126fb565b91506118009050600a8361264a565b91506117e1565b60008167ffffffffffffffff81111561182257611822612782565b6040519080825280601f01601f19166020018201604052801561184c576020820181803683370190505b5090505b84156114f55761186160018361267d565b915061186e600a86612716565b611879906030612632565b60f81b81838151811061188e5761188e61276c565b60200101906001600160f81b031916908160001a9053506118b0600a8661264a565b9450611850565b8051606090806118d7575050604080516020810190915260008152919050565b600060036118e6836002612632565b6118f0919061264a565b6118fb90600461265e565b9050600061190a826020612632565b67ffffffffffffffff81111561192257611922612782565b6040519080825280601f01601f19166020018201604052801561194c576020820181803683370190505b50905060006040518060600160405280604081526020016129a4604091399050600181016020830160005b868110156119d8576003818a01810151603f601282901c8116860151600c83901c8216870151600684901c831688015192909316870151600891821b60ff94851601821b92841692909201901b91160160e01b835260049092019101611977565b5060038606600181146119f25760028114611a0357611a0f565b613d3d60f01b600119830152611a0f565b603d60f81b6000198301525b505050918152949350505050565b6001600160a01b038316611a7857611a7381600880546000838152600960205260408120829055600182018355919091527ff3f7a9fe364faab93b216da50a3214154f22a0a2b415b23a84c8169e8b636ee30155565b611a9b565b816001600160a01b0316836001600160a01b031614611a9b57611a9b8382611c46565b6001600160a01b038216611ab2576105ef81611ce3565b826001600160a01b0316826001600160a01b0316146105ef576105ef8282611d92565b611adf8383611dd6565b611aec6000848484611b39565b6105ef5760405162461bcd60e51b81526004016104b99061250b565b600081604051602001611b1b91906121c7565b60408051601f19818403018152919052805160209091012092915050565b60006001600160a01b0384163b15611c3b57604051630a85bd0160e11b81526001600160a01b0385169063150b7a0290611b7d9033908990889088906004016124bb565b602060405180830381600087803b158015611b9757600080fd5b505af1925050508015611bc7575060408051601f3d908101601f19168201909252611bc491810190612149565b60015b611c21573d808015611bf5576040519150601f19603f3d011682016040523d82523d6000602084013e611bfa565b606091505b508051611c195760405162461bcd60e51b81526004016104b99061250b565b805181602001fd5b6001600160e01b031916630a85bd0160e11b1490506114f5565b506001949350505050565b60006001611c5384610982565b611c5d919061267d565b600083815260076020526040902054909150808214611cb0576001600160a01b03841660009081526006602090815260408083208584528252808320548484528184208190558352600790915290208190555b5060009182526007602090815260408084208490556001600160a01b039094168352600681528383209183525290812055565b600854600090611cf59060019061267d565b60008381526009602052604081205460088054939450909284908110611d1d57611d1d61276c565b906000526020600020015490508060088381548110611d3e57611d3e61276c565b6000918252602080832090910192909255828152600990915260408082208490558582528120556008805480611d7657611d76612756565b6001900381819060005260206000200160009055905550505050565b6000611d9d83610982565b6001600160a01b039093166000908152600660209081526040808320868452825280832085905593825260079052919091209190915550565b6001600160a01b038216611e2c5760405162461bcd60e51b815260206004820181905260248201527f4552433732313a206d696e7420746f20746865207a65726f206164647265737360448201526064016104b9565b611e3581611388565b15611e825760405162461bcd60e51b815260206004820152601c60248201527f4552433732313a20746f6b656e20616c7265616479206d696e7465640000000060448201526064016104b9565b611e8e60008383611a1d565b6001600160a01b0382166000908152600360205260408120805460019290611eb7908490612632565b909155505060008181526002602052604080822080546001600160a01b0319166001600160a01b03861690811790915590518392907fddf252ad1be2c89b69c2b068fc378daa952ba7f163c4a11628f55a4df523b3ef908290a45050565b6040518061022001604052806011905b6060815260200190600190039081611f255790505090565b80356001600160a01b0381168114611f5457600080fd5b919050565b600060208284031215611f6b57600080fd5b611f7482611f3d565b9392505050565b60008060408385031215611f8e57600080fd5b611f9783611f3d565b9150611fa560208401611f3d565b90509250929050565b600080600060608486031215611fc357600080fd5b611fcc84611f3d565b9250611fda60208501611f3d565b9150604084013590509250925092565b6000806000806080858703121561200057600080fd5b61200985611f3d565b935061201760208601611f3d565b925060408501359150606085013567ffffffffffffffff8082111561203b57600080fd5b818701915087601f83011261204f57600080fd5b81358181111561206157612061612782565b604051601f8201601f19908116603f0116810190838211818310171561208957612089612782565b816040528281528a60208487010111156120a257600080fd5b82602086016020830137600060208483010152809550505050505092959194509250565b600080604083850312156120d957600080fd5b6120e283611f3d565b9150602083013580151581146120f757600080fd5b809150509250929050565b6000806040838503121561211557600080fd5b61211e83611f3d565b946020939093013593505050565b60006020828403121561213e57600080fd5b8135611f7481612798565b60006020828403121561215b57600080fd5b8151611f7481612798565b60006020828403121561217857600080fd5b5035919050565b60008151808452612197816020860160208601612694565b601f01601f19169290920160200192915050565b600081516121bd818560208601612694565b9290920192915050565b600082516121d9818460208701612694565b9190910192915050565b600083516121f5818460208801612694565b835190830190612209818360208801612694565b01949350505050565b60008a51612224818460208f01612694565b8a516122368183860160208f01612694565b8a51918401019061224b818360208e01612694565b895161225d8183850160208e01612694565b8951929091010190612273818360208c01612694565b87516122858183850160208c01612694565b875192909101019061229b818360208a01612694565b85516122ad8183850160208a01612694565b85519290910101906122c3818360208801612694565b019b9a5050505050505050505050565b7f7b226e616d65223a2022416e696d65204368617261637465722023000000000081526000835161230b81601b850160208801612694565b7f222c20226465736372697074696f6e223a2022416e696d654c6f6f7420697320601b918401918201527f72616e646f6d697a656420616e696d6520636861726163746572732067656e65603b8201527f726174656420616e642073746f726564206f6e20636861696e2e204f74686572605b8201527f206665617475726573206f662074686520636861726163746572732061726520607b8201527f696e74656e74696f6e616c6c79206f6d697474656420666f72206f7468657273609b8201527f20746f20696e746572707265742e204665656c206672656520746f207573652060bb8201527f416e696d654c6f6f7420696e20616e792077617920796f752077616e742e222c60db8201527f2022696d616765223a2022646174613a696d6167652f7376672b786d6c3b626160fb820152641cd94d8d0b60da1b61011b82015261246d61245f6101208301866121ab565b61227d60f01b815260020190565b95945050505050565b7f646174613a6170706c69636174696f6e2f6a736f6e3b6261736536342c0000008152600082516124ae81601d850160208701612694565b91909101601d0192915050565b6001600160a01b03858116825284166020820152604081018390526080606082018190526000906124ee9083018461217f565b9695505050505050565b602081526000611f74602083018461217f565b60208082526032908201527f4552433732313a207472616e7366657220746f206e6f6e20455243373231526560408201527131b2b4bb32b91034b6b83632b6b2b73a32b960711b606082015260800190565b6020808252818101527f4f776e61626c653a2063616c6c6572206973206e6f7420746865206f776e6572604082015260600190565b6020808252602f908201527f4552433732314d657461646174613a2055524920717565727920666f72206e6f60408201526e3732bc34b9ba32b73a103a37b5b2b760891b606082015260800190565b60208082526031908201527f4552433732313a207472616e736665722063616c6c6572206973206e6f74206f6040820152701ddb995c881b9bdc88185c1c1c9bdd9959607a1b606082015260800190565b600082198211156126455761264561272a565b500190565b60008261265957612659612740565b500490565b60008160001904831182151516156126785761267861272a565b500290565b60008282101561268f5761268f61272a565b500390565b60005b838110156126af578181015183820152602001612697565b83811115610c695750506000910152565b600181811c908216806126d457607f821691505b602082108114156126f557634e487b7160e01b600052602260045260246000fd5b50919050565b600060001982141561270f5761270f61272a565b5060010190565b60008261272557612725612740565b500690565b634e487b7160e01b600052601160045260246000fd5b634e487b7160e01b600052601260045260246000fd5b634e487b7160e01b600052603160045260246000fd5b634e487b7160e01b600052603260045260246000fd5b634e487b7160e01b600052604160045260246000fd5b6001600160e01b03198116811461121d57600080fdfe3c73766720786d6c6e733d22687474703a2f2f7777772e77332e6f72672f323030302f73766722207072657365727665417370656374526174696f3d22784d696e594d696e206d656574222076696577426f783d223020302033353020333530223e3c7374796c653e2e62617365207b2066696c6c3a20233030303030303b20666f6e742d66616d696c793a2073657269663b20666f6e742d73697a653a20313470783b207d3c2f7374796c653e3c726563742077696474683d223130302522206865696768743d2231303025222066696c6c3d222346464631303022202f3e3c7465787420783d2231302220793d2232302220636c6173733d2262617365223e3c2f746578743e3c7465787420783d2231302220793d2236302220636c6173733d2262617365223e3c2f746578743e3c7465787420783d2231302220793d223136302220636c6173733d2262617365223e3c2f746578743e3c7465787420783d2231302220793d223132302220636c6173733d2262617365223e3c2f746578743e3c7465787420783d2231302220793d2238302220636c6173733d2262617365223e3c2f746578743e3c7465787420783d2231302220793d223130302220636c6173733d2262617365223e3c2f746578743e3c7465787420783d2231302220793d223134302220636c6173733d2262617365223e4142434445464748494a4b4c4d4e4f505152535455565758595a6162636465666768696a6b6c6d6e6f707172737475767778797a303132333435363738392b2f3c2f746578743e3c7465787420783d2231302220793d2234302220636c6173733d2262617365223ea26469706673582212200f1a6bbb7cea126442b92809e785d0991ac2eb35ad18ef2fb54567b3809a5e1a64736f6c63430008070033",
  "immutableReferences": {},
  "source": "// SPDX-License-Identifier: MIT\r\npragma solidity ^0.8.0;\r\n\r\nimport \"@openzeppelin/contracts/token/ERC721/extensions/ERC721Enumerable.sol\";\r\nimport \"@openzeppelin/contracts/security/ReentrancyGuard.sol\";\r\nimport \"@openzeppelin/contracts/access/Ownable.sol\";\r\nimport \"./Base64.sol\";\r\n\r\ncontract AnimeLootPhysicalCharacteristics is ERC721Enumerable, ReentrancyGuard, Ownable {\r\n\r\n    string[] private height = [\r\n        \"Tall\",\r\n        \"Medium\",\r\n        \"Short\"\r\n    ];\r\n    \r\n    string[] private bodyShape = [\r\n        \"Strong\",\r\n        \"Plump\",\r\n        \"Normal\",\r\n        \"Slender\"\r\n    ];\r\n    \r\n    string[] private skinColor = [\r\n        \"TBD\"\r\n        \"Others\"\r\n    ];\r\n    \r\n    string[] private strengthOfCharacteristics = [\r\n       \"Pure blood\",\r\n       \"Half\",\r\n       \"Quarter\"\r\n    ];\r\n\r\n    string[] private kindOfTherianthrope = [\r\n        \"Mammalian\",\r\n        \"Reptiles\",\r\n        \"Birds\",\r\n        \"Amphibians\",\r\n        \"Primates\",\r\n        \"Centaur\",\r\n        \"Lamia\",\r\n        \"Harpy\",\r\n        \"Others\"\r\n    ];\r\n\r\n    \r\n    function random(string memory input) internal pure returns (uint256) {\r\n        return uint256(keccak256(abi.encodePacked(input)));\r\n    }\r\n    \r\n    function getHeight(uint256 tokenId) public view returns (string memory) {\r\n        require(_exists(tokenId), \"ERC721Metadata: URI query for nonexistent token\");\r\n        return pluck(tokenId, \"HEIGHT\", height);\r\n    }\r\n    \r\n    function getBodyShape(uint256 tokenId) public view returns (string memory) {\r\n        require(_exists(tokenId), \"ERC721Metadata: URI query for nonexistent token\");\r\n        return pluck(tokenId, \"BODYSHAPE\", bodyShape);\r\n    }\r\n    \r\n    function getSkinColor(uint256 tokenId) public view returns (string memory) {\r\n        require(_exists(tokenId), \"ERC721Metadata: URI query for nonexistent token\");\r\n        return pluck(tokenId, \"SKINCOLOR\", skinColor);\r\n    }\r\n    \r\n    function getStrengthOfCharacteristics(uint256 tokenId) public view returns (string memory) {\r\n        require(_exists(tokenId), \"ERC721Metadata: URI query for nonexistent token\");\r\n        return pluck(tokenId, \"STRENGTHOFCHARACTERISTICS\", strengthOfCharacteristics);\r\n    }\r\n    \r\n    function pluck(uint256 tokenId, string memory keyPrefix, string[] memory sourceArray) internal pure returns (string memory) {\r\n        uint256 rand = random(string(abi.encodePacked(keyPrefix, toString(tokenId))));\r\n        string memory output = sourceArray[rand % sourceArray.length];\r\n        return output;\r\n    }\r\n\r\n    function tokenURI(uint256 tokenId) override public view returns (string memory) {\r\n        string[17] memory parts;\r\n        parts[0] = '<svg xmlns=\"http://www.w3.org/2000/svg\" preserveAspectRatio=\"xMinYMin meet\" viewBox=\"0 0 350 350\"><style>.base { fill: #000000; font-family: serif; font-size: 14px; }</style><rect width=\"100%\" height=\"100%\" fill=\"#FFF100\" /><text x=\"10\" y=\"20\" class=\"base\">';\r\n\r\n        parts[1] = getHeight(tokenId);\r\n\r\n        parts[2] = '</text><text x=\"10\" y=\"40\" class=\"base\">';\r\n\r\n        parts[3] = getBodyShape(tokenId);\r\n\r\n        parts[4] = '</text><text x=\"10\" y=\"60\" class=\"base\">';\r\n\r\n        parts[5] = getSkinColor(tokenId);\r\n\r\n        parts[6] = '</text><text x=\"10\" y=\"80\" class=\"base\">';\r\n\r\n        parts[7] = getStrengthOfCharacteristics(tokenId);\r\n\r\n        parts[8] = '</text><text x=\"10\" y=\"100\" class=\"base\">';\r\n\r\n        parts[9] = '';\r\n\r\n        parts[10] = '</text><text x=\"10\" y=\"120\" class=\"base\">';\r\n\r\n        parts[11] = '';\r\n\r\n        parts[12] = '</text><text x=\"10\" y=\"140\" class=\"base\">';\r\n\r\n        parts[13] = '';\r\n\r\n        parts[14] = '</text><text x=\"10\" y=\"160\" class=\"base\">';\r\n\r\n        parts[15] = '';\r\n\r\n        parts[16] = '</text></svg>';\r\n\r\n        string memory output = string(abi.encodePacked(parts[0], parts[1], parts[2], parts[3], parts[4], parts[5], parts[6], parts[7], parts[8]));\r\n        output = string(abi.encodePacked(output, parts[9], parts[10], parts[11], parts[12], parts[13], parts[14], parts[15], parts[16]));\r\n        \r\n        string memory json = Base64.encode(bytes(string(abi.encodePacked('{\"name\": \"Anime Character #', toString(tokenId), '\", \"description\": \"AnimeLoot is randomized anime characters generated and stored on chain. Other features of the characters are intentionally omitted for others to interpret. Feel free to use AnimeLoot in any way you want.\", \"image\": \"data:image/svg+xml;base64,', Base64.encode(bytes(output)), '\"}'))));\r\n        output = string(abi.encodePacked('data:application/json;base64,', json));\r\n\r\n        return output;\r\n    }\r\n\r\n    function claim(uint256 tokenId) public nonReentrant {\r\n        require(tokenId > 0 && tokenId < 7778, \"Token ID invalid\");\r\n        _safeMint(_msgSender(), tokenId);\r\n    }\r\n    \r\n    function ownerClaim(uint256 tokenId) public nonReentrant onlyOwner {\r\n        require(tokenId > 7777 && tokenId < 8001, \"Token ID invalid\");\r\n        _safeMint(owner(), tokenId);\r\n    }\r\n    \r\n    function toString(uint256 value) internal pure returns (string memory) {\r\n    // Inspired by OraclizeAPI's implementation - MIT license\r\n    // https://github.com/oraclize/ethereum-api/blob/b42146b063c7d6ee1358846c198246239e9360e8/oraclizeAPI_0.4.25.sol\r\n\r\n        if (value == 0) {\r\n            return \"0\";\r\n        }\r\n        uint256 temp = value;\r\n        uint256 digits;\r\n        while (temp != 0) {\r\n            digits++;\r\n            temp /= 10;\r\n        }\r\n        bytes memory buffer = new bytes(digits);\r\n        while (value != 0) {\r\n            digits -= 1;\r\n            buffer[digits] = bytes1(uint8(48 + uint256(value % 10)));\r\n            value /= 10;\r\n        }\r\n        return string(buffer);\r\n    }\r\n    \r\n    constructor() ERC721(\"AnimeLootPhysicalCharacteristics\", \"AnimeLootPhysicalCharacteristics\") Ownable() {}\r\n\r\n}",
  "sourcePath": "F:\\work\\AnimeLootPhysicalCharacteristics\\contracts\\AnimeLootPhysicalCharacteristics.sol",
  "compiler": {
    "name": "solc",
    "version": "0.8.7+commit.e28d00a7.Emscripten.clang"
  },
  "schemaVersion": "3.4.3",
  "updatedAt": "2021-10-05T14:20:26.030Z",
  "devdoc": {
    "kind": "dev",
    "methods": {
      "approve(address,uint256)": {
        "details": "See {IERC721-approve}."
      },
      "balanceOf(address)": {
        "details": "See {IERC721-balanceOf}."
      },
      "getApproved(uint256)": {
        "details": "See {IERC721-getApproved}."
      },
      "isApprovedForAll(address,address)": {
        "details": "See {IERC721-isApprovedForAll}."
      },
      "name()": {
        "details": "See {IERC721Metadata-name}."
      },
      "owner()": {
        "details": "Returns the address of the current owner."
      },
      "ownerOf(uint256)": {
        "details": "See {IERC721-ownerOf}."
      },
      "renounceOwnership()": {
        "details": "Leaves the contract without owner. It will not be possible to call `onlyOwner` functions anymore. Can only be called by the current owner. NOTE: Renouncing ownership will leave the contract without an owner, thereby removing any functionality that is only available to the owner."
      },
      "safeTransferFrom(address,address,uint256)": {
        "details": "See {IERC721-safeTransferFrom}."
      },
      "safeTransferFrom(address,address,uint256,bytes)": {
        "details": "See {IERC721-safeTransferFrom}."
      },
      "setApprovalForAll(address,bool)": {
        "details": "See {IERC721-setApprovalForAll}."
      },
      "supportsInterface(bytes4)": {
        "details": "See {IERC165-supportsInterface}."
      },
      "symbol()": {
        "details": "See {IERC721Metadata-symbol}."
      },
      "tokenByIndex(uint256)": {
        "details": "See {IERC721Enumerable-tokenByIndex}."
      },
      "tokenOfOwnerByIndex(address,uint256)": {
        "details": "See {IERC721Enumerable-tokenOfOwnerByIndex}."
      },
      "tokenURI(uint256)": {
        "details": "See {IERC721Metadata-tokenURI}."
      },
      "totalSupply()": {
        "details": "See {IERC721Enumerable-totalSupply}."
      },
      "transferFrom(address,address,uint256)": {
        "details": "See {IERC721-transferFrom}."
      },
      "transferOwnership(address)": {
        "details": "Transfers ownership of the contract to a new account (`newOwner`). Can only be called by the current owner."
      }
    },
    "version": 1
  },
  "userdoc": {
    "kind": "user",
    "methods": {},
    "version": 1
  }
}