{
  "contractName": "AnimeLootPhysicalCharacteristics",
  "abi": [
    {
      "inputs": [],
      "stateMutability": "nonpayable",
      "type": "constructor"
    },
    {
      "anonymous": false,
      "inputs": [
        {
          "indexed": true,
          "internalType": "address",
          "name": "owner",
          "type": "address"
        },
        {
          "indexed": true,
          "internalType": "address",
          "name": "approved",
          "type": "address"
        },
        {
          "indexed": true,
          "internalType": "uint256",
          "name": "tokenId",
          "type": "uint256"
        }
      ],
      "name": "Approval",
      "type": "event"
    },
    {
      "anonymous": false,
      "inputs": [
        {
          "indexed": true,
          "internalType": "address",
          "name": "owner",
          "type": "address"
        },
        {
          "indexed": true,
          "internalType": "address",
          "name": "operator",
          "type": "address"
        },
        {
          "indexed": false,
          "internalType": "bool",
          "name": "approved",
          "type": "bool"
        }
      ],
      "name": "ApprovalForAll",
      "type": "event"
    },
    {
      "anonymous": false,
      "inputs": [
        {
          "indexed": true,
          "internalType": "address",
          "name": "previousOwner",
          "type": "address"
        },
        {
          "indexed": true,
          "internalType": "address",
          "name": "newOwner",
          "type": "address"
        }
      ],
      "name": "OwnershipTransferred",
      "type": "event"
    },
    {
      "anonymous": false,
      "inputs": [
        {
          "indexed": true,
          "internalType": "address",
          "name": "from",
          "type": "address"
        },
        {
          "indexed": true,
          "internalType": "address",
          "name": "to",
          "type": "address"
        },
        {
          "indexed": true,
          "internalType": "uint256",
          "name": "tokenId",
          "type": "uint256"
        }
      ],
      "name": "Transfer",
      "type": "event"
    },
    {
      "inputs": [
        {
          "internalType": "address",
          "name": "to",
          "type": "address"
        },
        {
          "internalType": "uint256",
          "name": "tokenId",
          "type": "uint256"
        }
      ],
      "name": "approve",
      "outputs": [],
      "stateMutability": "nonpayable",
      "type": "function"
    },
    {
      "inputs": [
        {
          "internalType": "address",
          "name": "owner",
          "type": "address"
        }
      ],
      "name": "balanceOf",
      "outputs": [
        {
          "internalType": "uint256",
          "name": "",
          "type": "uint256"
        }
      ],
      "stateMutability": "view",
      "type": "function",
      "constant": true
    },
    {
      "inputs": [
        {
          "internalType": "uint256",
          "name": "tokenId",
          "type": "uint256"
        }
      ],
      "name": "getApproved",
      "outputs": [
        {
          "internalType": "address",
          "name": "",
          "type": "address"
        }
      ],
      "stateMutability": "view",
      "type": "function",
      "constant": true
    },
    {
      "inputs": [
        {
          "internalType": "address",
          "name": "owner",
          "type": "address"
        },
        {
          "internalType": "address",
          "name": "operator",
          "type": "address"
        }
      ],
      "name": "isApprovedForAll",
      "outputs": [
        {
          "internalType": "bool",
          "name": "",
          "type": "bool"
        }
      ],
      "stateMutability": "view",
      "type": "function",
      "constant": true
    },
    {
      "inputs": [],
      "name": "name",
      "outputs": [
        {
          "internalType": "string",
          "name": "",
          "type": "string"
        }
      ],
      "stateMutability": "view",
      "type": "function",
      "constant": true
    },
    {
      "inputs": [],
      "name": "owner",
      "outputs": [
        {
          "internalType": "address",
          "name": "",
          "type": "address"
        }
      ],
      "stateMutability": "view",
      "type": "function",
      "constant": true
    },
    {
      "inputs": [
        {
          "internalType": "uint256",
          "name": "tokenId",
          "type": "uint256"
        }
      ],
      "name": "ownerOf",
      "outputs": [
        {
          "internalType": "address",
          "name": "",
          "type": "address"
        }
      ],
      "stateMutability": "view",
      "type": "function",
      "constant": true
    },
    {
      "inputs": [],
      "name": "renounceOwnership",
      "outputs": [],
      "stateMutability": "nonpayable",
      "type": "function"
    },
    {
      "inputs": [
        {
          "internalType": "address",
          "name": "from",
          "type": "address"
        },
        {
          "internalType": "address",
          "name": "to",
          "type": "address"
        },
        {
          "internalType": "uint256",
          "name": "tokenId",
          "type": "uint256"
        }
      ],
      "name": "safeTransferFrom",
      "outputs": [],
      "stateMutability": "nonpayable",
      "type": "function"
    },
    {
      "inputs": [
        {
          "internalType": "address",
          "name": "from",
          "type": "address"
        },
        {
          "internalType": "address",
          "name": "to",
          "type": "address"
        },
        {
          "internalType": "uint256",
          "name": "tokenId",
          "type": "uint256"
        },
        {
          "internalType": "bytes",
          "name": "_data",
          "type": "bytes"
        }
      ],
      "name": "safeTransferFrom",
      "outputs": [],
      "stateMutability": "nonpayable",
      "type": "function"
    },
    {
      "inputs": [
        {
          "internalType": "address",
          "name": "operator",
          "type": "address"
        },
        {
          "internalType": "bool",
          "name": "approved",
          "type": "bool"
        }
      ],
      "name": "setApprovalForAll",
      "outputs": [],
      "stateMutability": "nonpayable",
      "type": "function"
    },
    {
      "inputs": [
        {
          "internalType": "bytes4",
          "name": "interfaceId",
          "type": "bytes4"
        }
      ],
      "name": "supportsInterface",
      "outputs": [
        {
          "internalType": "bool",
          "name": "",
          "type": "bool"
        }
      ],
      "stateMutability": "view",
      "type": "function",
      "constant": true
    },
    {
      "inputs": [],
      "name": "symbol",
      "outputs": [
        {
          "internalType": "string",
          "name": "",
          "type": "string"
        }
      ],
      "stateMutability": "view",
      "type": "function",
      "constant": true
    },
    {
      "inputs": [
        {
          "internalType": "uint256",
          "name": "index",
          "type": "uint256"
        }
      ],
      "name": "tokenByIndex",
      "outputs": [
        {
          "internalType": "uint256",
          "name": "",
          "type": "uint256"
        }
      ],
      "stateMutability": "view",
      "type": "function",
      "constant": true
    },
    {
      "inputs": [
        {
          "internalType": "address",
          "name": "owner",
          "type": "address"
        },
        {
          "internalType": "uint256",
          "name": "index",
          "type": "uint256"
        }
      ],
      "name": "tokenOfOwnerByIndex",
      "outputs": [
        {
          "internalType": "uint256",
          "name": "",
          "type": "uint256"
        }
      ],
      "stateMutability": "view",
      "type": "function",
      "constant": true
    },
    {
      "inputs": [],
      "name": "totalSupply",
      "outputs": [
        {
          "internalType": "uint256",
          "name": "",
          "type": "uint256"
        }
      ],
      "stateMutability": "view",
      "type": "function",
      "constant": true
    },
    {
      "inputs": [
        {
          "internalType": "address",
          "name": "from",
          "type": "address"
        },
        {
          "internalType": "address",
          "name": "to",
          "type": "address"
        },
        {
          "internalType": "uint256",
          "name": "tokenId",
          "type": "uint256"
        }
      ],
      "name": "transferFrom",
      "outputs": [],
      "stateMutability": "nonpayable",
      "type": "function"
    },
    {
      "inputs": [
        {
          "internalType": "address",
          "name": "newOwner",
          "type": "address"
        }
      ],
      "name": "transferOwnership",
      "outputs": [],
      "stateMutability": "nonpayable",
      "type": "function"
    },
    {
      "inputs": [
        {
          "internalType": "uint256",
          "name": "tokenId",
          "type": "uint256"
        }
      ],
      "name": "getSpecies",
      "outputs": [
        {
          "internalType": "string",
          "name": "",
          "type": "string"
        }
      ],
      "stateMutability": "view",
      "type": "function",
      "constant": true
    },
    {
      "inputs": [
        {
          "internalType": "uint256",
          "name": "tokenId",
          "type": "uint256"
        }
      ],
      "name": "getSex",
      "outputs": [
        {
          "internalType": "string",
          "name": "",
          "type": "string"
        }
      ],
      "stateMutability": "view",
      "type": "function",
      "constant": true
    },
    {
      "inputs": [
        {
          "internalType": "uint256",
          "name": "tokenId",
          "type": "uint256"
        }
      ],
      "name": "getHeritage",
      "outputs": [
        {
          "internalType": "string",
          "name": "",
          "type": "string"
        }
      ],
      "stateMutability": "view",
      "type": "function",
      "constant": true
    },
    {
      "inputs": [
        {
          "internalType": "uint256",
          "name": "tokenId",
          "type": "uint256"
        }
      ],
      "name": "getPersonality",
      "outputs": [
        {
          "internalType": "string",
          "name": "",
          "type": "string"
        }
      ],
      "stateMutability": "view",
      "type": "function",
      "constant": true
    },
    {
      "inputs": [
        {
          "internalType": "uint256",
          "name": "tokenId",
          "type": "uint256"
        }
      ],
      "name": "tokenURI",
      "outputs": [
        {
          "internalType": "string",
          "name": "",
          "type": "string"
        }
      ],
      "stateMutability": "view",
      "type": "function",
      "constant": true
    },
    {
      "inputs": [
        {
          "internalType": "uint256",
          "name": "tokenId",
          "type": "uint256"
        }
      ],
      "name": "claim",
      "outputs": [],
      "stateMutability": "nonpayable",
      "type": "function"
    },
    {
      "inputs": [
        {
          "internalType": "uint256",
          "name": "tokenId",
          "type": "uint256"
        }
      ],
      "name": "ownerClaim",
      "outputs": [],
      "stateMutability": "nonpayable",
      "type": "function"
    }
  ],
  "bytecode": "0x60056101e081815264243ab6b0b760d91b610200526080908152600d6102209081526c5468657269616e7468726f706560981b6102405260a05260036102609081526222b63360e91b6102805260c0526102a082815264223bb0b93360d91b6102c05260e05260076102e08181526656616d7069726560c81b6103005261010052610320818152664d6572666f6c6b60c81b6103405261012052600961036090815268111c9859dbdb995ddd60ba1b61038052610140526103a083815264105b99d95b60da1b6103c052610160526103e0928352642232b6b7b760d91b61040052610180929092526104208281526626b7b739ba32b960c91b610440526101a0526104a0604052610460918252662ab735b737bbb760c91b610480526101c0919091526200013290600c90600b620004ff565b5060405180608001604052806040518060400160405280600681526020016546656d616c6560d01b8152508152602001604051806040016040528060048152602001634d616c6560e01b81525081526020016040518060400160405280600d81526020016c4865726d617068726f6469746560981b8152508152602001604051806040016040528060078152602001662ab735b737bbb760c91b815250815250600d906004620001e492919062000563565b506040805160c081018252600a60808201908152694869676820436c61737360b01b60a0830152815281518083018352600c81526b4d6964646c6520436c61737360a01b602082810191909152808301919091528251808401845260098152684c6f7720436c61737360b81b8183015282840152825180840190935260078352662ab735b737bbb760c91b9083015260608101919091526200028b90600e90600462000563565b50604080516101a0810182526007610160820181815266536572696f757360c81b610180840152825282518084018452600980825268467269766f6c6f757360b81b6020838101919091528085019290925284518086018652600a8082526950617373696f6e61746560b01b828501528587019190915285518087018752600481526310dbdbdb60e21b818501526060860152855180870187528281526810dbdb999a59195b9d60ba1b8185015260808601528551808701875291825268111a59999a59195b9d60ba1b8284015260a085019190915284518086018652908152694f7074696d697374696360b01b8183015260c084015283518085018552600b8082526a50657373696d697374696360a81b8284015260e08501919091528451808601865260058152640a4deeaced60db1b8184015261010085015284518086018652600681526547656e746c6560d01b818401526101208501528451808601909552918452662ab735b737bbb760c91b908401526101408201929092526200041891600f9190620004ff565b503480156200042657600080fd5b5060408051808201825260208082527f416e696d654c6f6f74506879736963616c43686172616374657269737469637381830181815284518086019095528285529184015281519192916200047e91600091620005b5565b50805162000494906001906020840190620005b5565b50506001600a5550620004a733620004ad565b620006f7565b600b80546001600160a01b038381166001600160a01b0319831681179093556040519116919082907f8be0079c531659141344cd1fd0a4f28419497f9722a3daafe3b4186f6b6457e090600090a35050565b82805482825590600052602060002090810192821562000551579160200282015b8281111562000551578251805162000540918491602090910190620005b5565b509160200191906001019062000520565b506200055f92915062000640565b5090565b82805482825590600052602060002090810192821562000551579160200282015b82811115620005515782518051620005a4918491602090910190620005b5565b509160200191906001019062000584565b828054620005c390620006ba565b90600052602060002090601f016020900481019282620005e7576000855562000632565b82601f106200060257805160ff191683800117855562000632565b8280016001018555821562000632579182015b828111156200063257825182559160200191906001019062000615565b506200055f92915062000661565b808211156200055f57600062000657828262000678565b5060010162000640565b5b808211156200055f576000815560010162000662565b5080546200068690620006ba565b6000825580601f1062000697575050565b601f016020900490600052602060002090810190620006b7919062000661565b50565b600181811c90821680620006cf57607f821691505b60208210811415620006f157634e487b7160e01b600052602260045260246000fd5b50919050565b61295380620007076000396000f3fe608060405234801561001057600080fd5b50600436106101735760003560e01c80634f6ccce7116100de57806395d89b4111610097578063c87b56dd11610071578063c87b56dd1461031f578063e6e5283914610332578063e985e9c514610345578063f2fde38b1461038157600080fd5b806395d89b41146102f1578063a22cb465146102f9578063b88d4fde1461030c57600080fd5b80634f6ccce71461028c5780636352211e1461029f57806370a08231146102b2578063715018a6146102c557806378efeb25146102cd5780638da5cb5b146102e057600080fd5b806323b872dd1161013057806323b872dd1461021a5780632be6a2a91461022d5780632f745c5914610240578063379607f51461025357806342842e0e14610266578063434f48c41461027957600080fd5b806301ffc9a71461017857806306fdde03146101a0578063081812fc146101b5578063095ea7b3146101e057806318160ddd146101f55780631ade97f714610207575b600080fd5b61018b61018636600461208c565b610394565b60405190151581526020015b60405180910390f35b6101a86103bf565b6040516101979190612459565b6101c86101c33660046120c6565b610451565b6040516001600160a01b039091168152602001610197565b6101f36101ee366004612062565b6104eb565b005b6008545b604051908152602001610197565b6101a86102153660046120c6565b610601565b6101f3610228366004611f0e565b610702565b6101a861023b3660046120c6565b610733565b6101f961024e366004612062565b610827565b6101f36102613660046120c6565b6108bd565b6101f3610274366004611f0e565b610977565b6101f36102873660046120c6565b610992565b6101f961029a3660046120c6565b610a7a565b6101c86102ad3660046120c6565b610b0d565b6101f96102c0366004611eb9565b610b84565b6101f3610c0b565b6101a86102db3660046120c6565b610c41565b600b546001600160a01b03166101c8565b6101a8610d31565b6101f3610307366004612026565b610d40565b6101f361031a366004611f4a565b610e05565b6101a861032d3660046120c6565b610e3d565b6101a86103403660046120c6565b611109565b61018b610353366004611edb565b6001600160a01b03918216600090815260056020908152604080832093909416825291909152205460ff1690565b6101f361038f366004611eb9565b6111fe565b60006001600160e01b0319821663780e9d6360e01b14806103b957506103b982611299565b92915050565b6060600080546103ce906125d2565b80601f01602080910402602001604051908101604052809291908181526020018280546103fa906125d2565b80156104475780601f1061041c57610100808354040283529160200191610447565b820191906000526020600020905b81548152906001019060200180831161042a57829003601f168201915b5050505050905090565b6000818152600260205260408120546001600160a01b03166104cf5760405162461bcd60e51b815260206004820152602c60248201527f4552433732313a20617070726f76656420717565727920666f72206e6f6e657860448201526b34b9ba32b73a103a37b5b2b760a11b60648201526084015b60405180910390fd5b506000908152600460205260409020546001600160a01b031690565b60006104f682610b0d565b9050806001600160a01b0316836001600160a01b031614156105645760405162461bcd60e51b815260206004820152602160248201527f4552433732313a20617070726f76616c20746f2063757272656e74206f776e656044820152603960f91b60648201526084016104c6565b336001600160a01b038216148061058057506105808133610353565b6105f25760405162461bcd60e51b815260206004820152603860248201527f4552433732313a20617070726f76652063616c6c6572206973206e6f74206f7760448201527f6e6572206e6f7220617070726f76656420666f7220616c6c000000000000000060648201526084016104c6565b6105fc83836112e9565b505050565b60606103b9826040518060400160405280600b81526020016a504552534f4e414c49545960a81b815250600f805480602002602001604051908101604052809291908181526020016000905b828210156106f957838290600052602060002001805461066c906125d2565b80601f0160208091040260200160405190810160405280929190818152602001828054610698906125d2565b80156106e55780601f106106ba576101008083540402835291602001916106e5565b820191906000526020600020905b8154815290600101906020018083116106c857829003601f168201915b50505050508152602001906001019061064d565b50505050611357565b61070c33826113c5565b6107285760405162461bcd60e51b81526004016104c6906124f3565b6105fc8383836114bc565b60606103b982604051806040016040528060078152602001665350454349455360c81b815250600c805480602002602001604051908101604052809291908181526020016000905b828210156106f957838290600052602060002001805461079a906125d2565b80601f01602080910402602001604051908101604052809291908181526020018280546107c6906125d2565b80156108135780601f106107e857610100808354040283529160200191610813565b820191906000526020600020905b8154815290600101906020018083116107f657829003601f168201915b50505050508152602001906001019061077b565b600061083283610b84565b82106108945760405162461bcd60e51b815260206004820152602b60248201527f455243373231456e756d657261626c653a206f776e657220696e646578206f7560448201526a74206f6620626f756e647360a81b60648201526084016104c6565b506001600160a01b03919091166000908152600660209081526040808320938352929052205490565b6002600a5414156109105760405162461bcd60e51b815260206004820152601f60248201527f5265656e7472616e637947756172643a207265656e7472616e742063616c6c0060448201526064016104c6565b6002600a5580158015906109255750611e6281105b6109645760405162461bcd60e51b815260206004820152601060248201526f151bdad95b881251081a5b9d985b1a5960821b60448201526064016104c6565b61096f335b82611667565b506001600a55565b6105fc83838360405180602001604052806000815250610e05565b6002600a5414156109e55760405162461bcd60e51b815260206004820152601f60248201527f5265656e7472616e637947756172643a207265656e7472616e742063616c6c0060448201526064016104c6565b6002600a55600b546001600160a01b03163314610a145760405162461bcd60e51b81526004016104c6906124be565b611e6181118015610a265750611f4181105b610a655760405162461bcd60e51b815260206004820152601060248201526f151bdad95b881251081a5b9d985b1a5960821b60448201526064016104c6565b61096f610969600b546001600160a01b031690565b6000610a8560085490565b8210610ae85760405162461bcd60e51b815260206004820152602c60248201527f455243373231456e756d657261626c653a20676c6f62616c20696e646578206f60448201526b7574206f6620626f756e647360a01b60648201526084016104c6565b60088281548110610afb57610afb61267e565b90600052602060002001549050919050565b6000818152600260205260408120546001600160a01b0316806103b95760405162461bcd60e51b815260206004820152602960248201527f4552433732313a206f776e657220717565727920666f72206e6f6e657869737460448201526832b73a103a37b5b2b760b91b60648201526084016104c6565b60006001600160a01b038216610bef5760405162461bcd60e51b815260206004820152602a60248201527f4552433732313a2062616c616e636520717565727920666f7220746865207a65604482015269726f206164647265737360b01b60648201526084016104c6565b506001600160a01b031660009081526003602052604090205490565b600b546001600160a01b03163314610c355760405162461bcd60e51b81526004016104c6906124be565b610c3f6000611685565b565b60606103b982604051806040016040528060038152602001620a68ab60eb1b815250600d805480602002602001604051908101604052809291908181526020016000905b828210156106f9578382906000526020600020018054610ca4906125d2565b80601f0160208091040260200160405190810160405280929190818152602001828054610cd0906125d2565b8015610d1d5780601f10610cf257610100808354040283529160200191610d1d565b820191906000526020600020905b815481529060010190602001808311610d0057829003601f168201915b505050505081526020019060010190610c85565b6060600180546103ce906125d2565b6001600160a01b038216331415610d995760405162461bcd60e51b815260206004820152601960248201527f4552433732313a20617070726f766520746f2063616c6c65720000000000000060448201526064016104c6565b3360008181526005602090815260408083206001600160a01b03871680855290835292819020805460ff191686151590811790915590519081529192917f17307eab39ab6107e8899845ad3d59bd9653f200f220920489ca2b5937696c31910160405180910390a35050565b610e0f33836113c5565b610e2b5760405162461bcd60e51b81526004016104c6906124f3565b610e37848484846116d7565b50505050565b6060610e47611e75565b60405180610140016040528061010181526020016126c161010191398152610e6e83610733565b81600160200201819052506040518060600160405280602881526020016128f6602891396040820152610ea083610c41565b60608083019190915260408051918201905260288082526127c260208301396080820152610ecd83611109565b60a08201526040805160608101909152602880825261283c602083013960c0820152610ef883610601565b60e08201526040805160608101909152602980825261286460208301396101008201526040805160208082018352600082526101208401919091528151606081019092526029808352906128139083013961014082015260408051602080820183526000825261016084019190915281516060810190925260298083529061288d908301396101808201526040805160208082018352600082526101a08401919091528151606081019092526029808352906127ea908301396101c08201526040805160208082018352600082526101e08401919091528151808301909252600d82526c1e17ba32bc3a1f1e17b9bb339f60991b90820152816010602090810291909101919091528151828201516040808501516060860151608087015160a088015160c089015160e08a01516101008b0151965160009a61103d9a99989101612172565b60408051808303601f19018152908290526101208401516101408501516101608601516101808701516101a08801516101c08901516101e08a01516102008b0151979950611090988a9890602001612172565b604051602081830303815290604052905060006110dd6110af8661170a565b6110b884611808565b6040516020016110c9929190612234565b604051602081830303815290604052611808565b9050806040516020016110f091906123d7565b60408051601f1981840301815291905295945050505050565b60606103b98260405180604001604052806008815260200167484552495441474560c01b815250600e805480602002602001604051908101604052809291908181526020016000905b828210156106f9578382906000526020600020018054611171906125d2565b80601f016020809104026020016040519081016040528092919081815260200182805461119d906125d2565b80156111ea5780601f106111bf576101008083540402835291602001916111ea565b820191906000526020600020905b8154815290600101906020018083116111cd57829003601f168201915b505050505081526020019060010190611152565b600b546001600160a01b031633146112285760405162461bcd60e51b81526004016104c6906124be565b6001600160a01b03811661128d5760405162461bcd60e51b815260206004820152602660248201527f4f776e61626c653a206e6577206f776e657220697320746865207a65726f206160448201526564647265737360d01b60648201526084016104c6565b61129681611685565b50565b60006001600160e01b031982166380ac58cd60e01b14806112ca57506001600160e01b03198216635b5e139f60e01b145b806103b957506301ffc9a760e01b6001600160e01b03198316146103b9565b600081815260046020526040902080546001600160a01b0319166001600160a01b038416908117909155819061131e82610b0d565b6001600160a01b03167f8c5be1e5ebec7d5bd14f71427d1e84f3dd0314c0f7b2291e5b200ac8c7c3b92560405160405180910390a45050565b6060600061138d846113688761170a565b604051602001611379929190612143565b60405160208183030381529060405261196e565b905060008384518361139f9190612628565b815181106113af576113af61267e565b6020026020010151905080925050509392505050565b6000818152600260205260408120546001600160a01b031661143e5760405162461bcd60e51b815260206004820152602c60248201527f4552433732313a206f70657261746f7220717565727920666f72206e6f6e657860448201526b34b9ba32b73a103a37b5b2b760a11b60648201526084016104c6565b600061144983610b0d565b9050806001600160a01b0316846001600160a01b031614806114845750836001600160a01b031661147984610451565b6001600160a01b0316145b806114b457506001600160a01b0380821660009081526005602090815260408083209388168352929052205460ff165b949350505050565b826001600160a01b03166114cf82610b0d565b6001600160a01b0316146115375760405162461bcd60e51b815260206004820152602960248201527f4552433732313a207472616e73666572206f6620746f6b656e2074686174206960448201526839903737ba1037bbb760b91b60648201526084016104c6565b6001600160a01b0382166115995760405162461bcd60e51b8152602060048201526024808201527f4552433732313a207472616e7366657220746f20746865207a65726f206164646044820152637265737360e01b60648201526084016104c6565b6115a483838361199f565b6115af6000826112e9565b6001600160a01b03831660009081526003602052604081208054600192906115d890849061258f565b90915550506001600160a01b0382166000908152600360205260408120805460019290611606908490612544565b909155505060008181526002602052604080822080546001600160a01b0319166001600160a01b0386811691821790925591518493918716917fddf252ad1be2c89b69c2b068fc378daa952ba7f163c4a11628f55a4df523b3ef91a4505050565b611681828260405180602001604052806000815250611a57565b5050565b600b80546001600160a01b038381166001600160a01b0319831681179093556040519116919082907f8be0079c531659141344cd1fd0a4f28419497f9722a3daafe3b4186f6b6457e090600090a35050565b6116e28484846114bc565b6116ee84848484611a8a565b610e375760405162461bcd60e51b81526004016104c69061246c565b60608161172e5750506040805180820190915260018152600360fc1b602082015290565b8160005b811561175857806117428161260d565b91506117519050600a8361255c565b9150611732565b60008167ffffffffffffffff81111561177357611773612694565b6040519080825280601f01601f19166020018201604052801561179d576020820181803683370190505b5090505b84156114b4576117b260018361258f565b91506117bf600a86612628565b6117ca906030612544565b60f81b8183815181106117df576117df61267e565b60200101906001600160f81b031916908160001a905350611801600a8661255c565b94506117a1565b805160609080611828575050604080516020810190915260008152919050565b60006003611837836002612544565b611841919061255c565b61184c906004612570565b9050600061185b826020612544565b67ffffffffffffffff81111561187357611873612694565b6040519080825280601f01601f19166020018201604052801561189d576020820181803683370190505b50905060006040518060600160405280604081526020016128b6604091399050600181016020830160005b86811015611929576003818a01810151603f601282901c8116860151600c83901c8216870151600684901c831688015192909316870151600891821b60ff94851601821b92841692909201901b91160160e01b8352600490920191016118c8565b506003860660018114611943576002811461195457611960565b613d3d60f01b600119830152611960565b603d60f81b6000198301525b505050918152949350505050565b6000816040516020016119819190612127565b60408051601f19818403018152919052805160209091012092915050565b6001600160a01b0383166119fa576119f581600880546000838152600960205260408120829055600182018355919091527ff3f7a9fe364faab93b216da50a3214154f22a0a2b415b23a84c8169e8b636ee30155565b611a1d565b816001600160a01b0316836001600160a01b031614611a1d57611a1d8382611b97565b6001600160a01b038216611a34576105fc81611c34565b826001600160a01b0316826001600160a01b0316146105fc576105fc8282611ce3565b611a618383611d27565b611a6e6000848484611a8a565b6105fc5760405162461bcd60e51b81526004016104c69061246c565b60006001600160a01b0384163b15611b8c57604051630a85bd0160e11b81526001600160a01b0385169063150b7a0290611ace90339089908890889060040161241c565b602060405180830381600087803b158015611ae857600080fd5b505af1925050508015611b18575060408051601f3d908101601f19168201909252611b15918101906120a9565b60015b611b72573d808015611b46576040519150601f19603f3d011682016040523d82523d6000602084013e611b4b565b606091505b508051611b6a5760405162461bcd60e51b81526004016104c69061246c565b805181602001fd5b6001600160e01b031916630a85bd0160e11b1490506114b4565b506001949350505050565b60006001611ba484610b84565b611bae919061258f565b600083815260076020526040902054909150808214611c01576001600160a01b03841660009081526006602090815260408083208584528252808320548484528184208190558352600790915290208190555b5060009182526007602090815260408084208490556001600160a01b039094168352600681528383209183525290812055565b600854600090611c469060019061258f565b60008381526009602052604081205460088054939450909284908110611c6e57611c6e61267e565b906000526020600020015490508060088381548110611c8f57611c8f61267e565b6000918252602080832090910192909255828152600990915260408082208490558582528120556008805480611cc757611cc7612668565b6001900381819060005260206000200160009055905550505050565b6000611cee83610b84565b6001600160a01b039093166000908152600660209081526040808320868452825280832085905593825260079052919091209190915550565b6001600160a01b038216611d7d5760405162461bcd60e51b815260206004820181905260248201527f4552433732313a206d696e7420746f20746865207a65726f206164647265737360448201526064016104c6565b6000818152600260205260409020546001600160a01b031615611de25760405162461bcd60e51b815260206004820152601c60248201527f4552433732313a20746f6b656e20616c7265616479206d696e7465640000000060448201526064016104c6565b611dee6000838361199f565b6001600160a01b0382166000908152600360205260408120805460019290611e17908490612544565b909155505060008181526002602052604080822080546001600160a01b0319166001600160a01b03861690811790915590518392907fddf252ad1be2c89b69c2b068fc378daa952ba7f163c4a11628f55a4df523b3ef908290a45050565b6040518061022001604052806011905b6060815260200190600190039081611e855790505090565b80356001600160a01b0381168114611eb457600080fd5b919050565b600060208284031215611ecb57600080fd5b611ed482611e9d565b9392505050565b60008060408385031215611eee57600080fd5b611ef783611e9d565b9150611f0560208401611e9d565b90509250929050565b600080600060608486031215611f2357600080fd5b611f2c84611e9d565b9250611f3a60208501611e9d565b9150604084013590509250925092565b60008060008060808587031215611f6057600080fd5b611f6985611e9d565b9350611f7760208601611e9d565b925060408501359150606085013567ffffffffffffffff80821115611f9b57600080fd5b818701915087601f830112611faf57600080fd5b813581811115611fc157611fc1612694565b604051601f8201601f19908116603f01168101908382118183101715611fe957611fe9612694565b816040528281528a602084870101111561200257600080fd5b82602086016020830137600060208483010152809550505050505092959194509250565b6000806040838503121561203957600080fd5b61204283611e9d565b91506020830135801515811461205757600080fd5b809150509250929050565b6000806040838503121561207557600080fd5b61207e83611e9d565b946020939093013593505050565b60006020828403121561209e57600080fd5b8135611ed4816126aa565b6000602082840312156120bb57600080fd5b8151611ed4816126aa565b6000602082840312156120d857600080fd5b5035919050565b600081518084526120f78160208601602086016125a6565b601f01601f19169290920160200192915050565b6000815161211d8185602086016125a6565b9290920192915050565b600082516121398184602087016125a6565b9190910192915050565b600083516121558184602088016125a6565b8351908301906121698183602088016125a6565b01949350505050565b60008a51612184818460208f016125a6565b8a5190830190612198818360208f016125a6565b8a516121aa8183850160208f016125a6565b8a519290910101906121c0818360208d016125a6565b88516121d28183850160208d016125a6565b88519290910101906121e8818360208b016125a6565b86516121fa8183850160208b016125a6565b86519290910101906122108183602089016125a6565b845161222281838501602089016125a6565b9101019b9a5050505050505050505050565b7f7b226e616d65223a2022416e696d65204368617261637465722023000000000081526000835161226c81601b8501602088016125a6565b7f222c20226465736372697074696f6e223a2022416e696d654c6f6f7420697320601b918401918201527f72616e646f6d697a656420616e696d6520636861726163746572732067656e65603b8201527f726174656420616e642073746f726564206f6e20636861696e2e204f74686572605b8201527f206665617475726573206f662074686520636861726163746572732061726520607b8201527f696e74656e74696f6e616c6c79206f6d697474656420666f72206f7468657273609b8201527f20746f20696e746572707265742e204665656c206672656520746f207573652060bb8201527f416e696d654c6f6f7420696e20616e792077617920796f752077616e742e222c60db8201527f2022696d616765223a2022646174613a696d6167652f7376672b786d6c3b626160fb820152641cd94d8d0b60da1b61011b8201526123ce6123c061012083018661210b565b61227d60f01b815260020190565b95945050505050565b7f646174613a6170706c69636174696f6e2f6a736f6e3b6261736536342c00000081526000825161240f81601d8501602087016125a6565b91909101601d0192915050565b6001600160a01b038581168252841660208201526040810183905260806060820181905260009061244f908301846120df565b9695505050505050565b602081526000611ed460208301846120df565b60208082526032908201527f4552433732313a207472616e7366657220746f206e6f6e20455243373231526560408201527131b2b4bb32b91034b6b83632b6b2b73a32b960711b606082015260800190565b6020808252818101527f4f776e61626c653a2063616c6c6572206973206e6f7420746865206f776e6572604082015260600190565b60208082526031908201527f4552433732313a207472616e736665722063616c6c6572206973206e6f74206f6040820152701ddb995c881b9bdc88185c1c1c9bdd9959607a1b606082015260800190565b600082198211156125575761255761263c565b500190565b60008261256b5761256b612652565b500490565b600081600019048311821515161561258a5761258a61263c565b500290565b6000828210156125a1576125a161263c565b500390565b60005b838110156125c15781810151838201526020016125a9565b83811115610e375750506000910152565b600181811c908216806125e657607f821691505b6020821081141561260757634e487b7160e01b600052602260045260246000fd5b50919050565b60006000198214156126215761262161263c565b5060010190565b60008261263757612637612652565b500690565b634e487b7160e01b600052601160045260246000fd5b634e487b7160e01b600052601260045260246000fd5b634e487b7160e01b600052603160045260246000fd5b634e487b7160e01b600052603260045260246000fd5b634e487b7160e01b600052604160045260246000fd5b6001600160e01b03198116811461129657600080fdfe3c73766720786d6c6e733d22687474703a2f2f7777772e77332e6f72672f323030302f73766722207072657365727665417370656374526174696f3d22784d696e594d696e206d656574222076696577426f783d223020302033353020333530223e3c7374796c653e2e62617365207b2066696c6c3a20233030303030303b20666f6e742d66616d696c793a2073657269663b20666f6e742d73697a653a20313470783b207d3c2f7374796c653e3c726563742077696474683d223130302522206865696768743d2231303025222066696c6c3d222346464631303022202f3e3c7465787420783d2231302220793d2232302220636c6173733d2262617365223e3c2f746578743e3c7465787420783d2231302220793d2236302220636c6173733d2262617365223e3c2f746578743e3c7465787420783d2231302220793d223136302220636c6173733d2262617365223e3c2f746578743e3c7465787420783d2231302220793d223132302220636c6173733d2262617365223e3c2f746578743e3c7465787420783d2231302220793d2238302220636c6173733d2262617365223e3c2f746578743e3c7465787420783d2231302220793d223130302220636c6173733d2262617365223e3c2f746578743e3c7465787420783d2231302220793d223134302220636c6173733d2262617365223e4142434445464748494a4b4c4d4e4f505152535455565758595a6162636465666768696a6b6c6d6e6f707172737475767778797a303132333435363738392b2f3c2f746578743e3c7465787420783d2231302220793d2234302220636c6173733d2262617365223ea26469706673582212204e1054f260f1842879b8fac0f270c07d5ec8bd05c83a6c74e799aa227712303464736f6c63430008070033",
  "immutableReferences": {},
  "source": "// SPDX-License-Identifier: MIT\r\npragma solidity ^0.8.0;\r\n\r\nimport \"@openzeppelin/contracts/token/ERC721/extensions/ERC721Enumerable.sol\";\r\nimport \"@openzeppelin/contracts/security/ReentrancyGuard.sol\";\r\nimport \"@openzeppelin/contracts/access/Ownable.sol\";\r\nimport \"./Base64.sol\";\r\n\r\ncontract AnimeLootPhysicalCharacteristics is ERC721Enumerable, ReentrancyGuard, Ownable {\r\n\r\n    string[] private species = [\r\n        \"Human\",\r\n        \"Therianthrope\",\r\n        \"Elf\",\r\n        \"Dwarf\",\r\n        \"Vampire\",\r\n        \"Merfolk\",\r\n        \"Dragonewt\",\r\n        \"Angel\",\r\n        \"Demon\",\r\n        \"Monster\",\r\n        \"Unknown\"\r\n    ];\r\n    \r\n    string[] private sex = [\r\n        \"Female\",\r\n        \"Male\",\r\n        \"Hermaphrodite\",\r\n        \"Unknown\"\r\n    ];\r\n    \r\n    string[] private heritage = [\r\n        \"High Class\",\r\n        \"Middle Class\",\r\n        \"Low Class\",\r\n        \"Unknown\"\r\n    ];\r\n    \r\n    string[] private personality = [\r\n       \"Serious\",\r\n       \"Frivolous\",\r\n       \"Passionate\",\r\n       \"Cool\",\r\n       \"Confident\",\r\n       \"Diffident\",\r\n       \"Optimistic\",\r\n       \"Pessimistic\",\r\n       \"Rough\",\r\n       \"Gentle\",\r\n       \"Unknown\" \r\n    ];\r\n    \r\n    function random(string memory input) internal pure returns (uint256) {\r\n        return uint256(keccak256(abi.encodePacked(input)));\r\n    }\r\n    \r\n    function getSpecies(uint256 tokenId) public view returns (string memory) {\r\n        return pluck(tokenId, \"SPECIES\", species);\r\n    }\r\n    \r\n    function getSex(uint256 tokenId) public view returns (string memory) {\r\n        return pluck(tokenId, \"SEX\", sex);\r\n    }\r\n    \r\n    function getHeritage(uint256 tokenId) public view returns (string memory) {\r\n        return pluck(tokenId, \"HERITAGE\", heritage);\r\n    }\r\n    \r\n    function getPersonality(uint256 tokenId) public view returns (string memory) {\r\n        return pluck(tokenId, \"PERSONALITY\", personality);\r\n    }\r\n    \r\n    function pluck(uint256 tokenId, string memory keyPrefix, string[] memory sourceArray) internal view returns (string memory) {\r\n        uint256 rand = random(string(abi.encodePacked(keyPrefix, toString(tokenId))));\r\n        string memory output = sourceArray[rand % sourceArray.length];\r\n        return output;\r\n    }\r\n\r\n    function tokenURI(uint256 tokenId) override public view returns (string memory) {\r\n        string[17] memory parts;\r\n        parts[0] = '<svg xmlns=\"http://www.w3.org/2000/svg\" preserveAspectRatio=\"xMinYMin meet\" viewBox=\"0 0 350 350\"><style>.base { fill: #000000; font-family: serif; font-size: 14px; }</style><rect width=\"100%\" height=\"100%\" fill=\"#FFF100\" /><text x=\"10\" y=\"20\" class=\"base\">';\r\n\r\n        parts[1] = getSpecies(tokenId);\r\n\r\n        parts[2] = '</text><text x=\"10\" y=\"40\" class=\"base\">';\r\n\r\n        parts[3] = getSex(tokenId);\r\n\r\n        parts[4] = '</text><text x=\"10\" y=\"60\" class=\"base\">';\r\n\r\n        parts[5] = getHeritage(tokenId);\r\n\r\n        parts[6] = '</text><text x=\"10\" y=\"80\" class=\"base\">';\r\n\r\n        parts[7] = getPersonality(tokenId);\r\n\r\n        parts[8] = '</text><text x=\"10\" y=\"100\" class=\"base\">';\r\n\r\n        parts[9] = '';\r\n\r\n        parts[10] = '</text><text x=\"10\" y=\"120\" class=\"base\">';\r\n\r\n        parts[11] = '';\r\n\r\n        parts[12] = '</text><text x=\"10\" y=\"140\" class=\"base\">';\r\n\r\n        parts[13] = '';\r\n\r\n        parts[14] = '</text><text x=\"10\" y=\"160\" class=\"base\">';\r\n\r\n        parts[15] = '';\r\n\r\n        parts[16] = '</text></svg>';\r\n\r\n        string memory output = string(abi.encodePacked(parts[0], parts[1], parts[2], parts[3], parts[4], parts[5], parts[6], parts[7], parts[8]));\r\n        output = string(abi.encodePacked(output, parts[9], parts[10], parts[11], parts[12], parts[13], parts[14], parts[15], parts[16]));\r\n        \r\n        string memory json = Base64.encode(bytes(string(abi.encodePacked('{\"name\": \"Anime Character #', toString(tokenId), '\", \"description\": \"AnimeLoot is randomized anime characters generated and stored on chain. Other features of the characters are intentionally omitted for others to interpret. Feel free to use AnimeLoot in any way you want.\", \"image\": \"data:image/svg+xml;base64,', Base64.encode(bytes(output)), '\"}'))));\r\n        output = string(abi.encodePacked('data:application/json;base64,', json));\r\n\r\n        return output;\r\n    }\r\n\r\n    function claim(uint256 tokenId) public nonReentrant {\r\n        require(tokenId > 0 && tokenId < 7778, \"Token ID invalid\");\r\n        _safeMint(_msgSender(), tokenId);\r\n    }\r\n    \r\n    function ownerClaim(uint256 tokenId) public nonReentrant onlyOwner {\r\n        require(tokenId > 7777 && tokenId < 8001, \"Token ID invalid\");\r\n        _safeMint(owner(), tokenId);\r\n    }\r\n    \r\n    function toString(uint256 value) internal pure returns (string memory) {\r\n    // Inspired by OraclizeAPI's implementation - MIT license\r\n    // https://github.com/oraclize/ethereum-api/blob/b42146b063c7d6ee1358846c198246239e9360e8/oraclizeAPI_0.4.25.sol\r\n\r\n        if (value == 0) {\r\n            return \"0\";\r\n        }\r\n        uint256 temp = value;\r\n        uint256 digits;\r\n        while (temp != 0) {\r\n            digits++;\r\n            temp /= 10;\r\n        }\r\n        bytes memory buffer = new bytes(digits);\r\n        while (value != 0) {\r\n            digits -= 1;\r\n            buffer[digits] = bytes1(uint8(48 + uint256(value % 10)));\r\n            value /= 10;\r\n        }\r\n        return string(buffer);\r\n    }\r\n    \r\n    constructor() ERC721(\"AnimeLootPhysicalCharacteristics\", \"AnimeLootPhysicalCharacteristics\") Ownable() {}\r\n\r\n}",
  "sourcePath": "C:\\Users\\syund\\eclipse-workspace\\AnimeLootPhysicalCharacteristics\\contracts\\AnimeLootPhysicalCharacteristics.sol",
  "compiler": {
    "name": "solc",
    "version": "0.8.7+commit.e28d00a7.Emscripten.clang"
  },
  "schemaVersion": "3.4.3",
  "updatedAt": "2021-09-30T14:35:24.408Z",
  "networkType": "ethereum",
  "devdoc": {
    "kind": "dev",
    "methods": {
      "approve(address,uint256)": {
        "details": "See {IERC721-approve}."
      },
      "balanceOf(address)": {
        "details": "See {IERC721-balanceOf}."
      },
      "getApproved(uint256)": {
        "details": "See {IERC721-getApproved}."
      },
      "isApprovedForAll(address,address)": {
        "details": "See {IERC721-isApprovedForAll}."
      },
      "name()": {
        "details": "See {IERC721Metadata-name}."
      },
      "owner()": {
        "details": "Returns the address of the current owner."
      },
      "ownerOf(uint256)": {
        "details": "See {IERC721-ownerOf}."
      },
      "renounceOwnership()": {
        "details": "Leaves the contract without owner. It will not be possible to call `onlyOwner` functions anymore. Can only be called by the current owner. NOTE: Renouncing ownership will leave the contract without an owner, thereby removing any functionality that is only available to the owner."
      },
      "safeTransferFrom(address,address,uint256)": {
        "details": "See {IERC721-safeTransferFrom}."
      },
      "safeTransferFrom(address,address,uint256,bytes)": {
        "details": "See {IERC721-safeTransferFrom}."
      },
      "setApprovalForAll(address,bool)": {
        "details": "See {IERC721-setApprovalForAll}."
      },
      "supportsInterface(bytes4)": {
        "details": "See {IERC165-supportsInterface}."
      },
      "symbol()": {
        "details": "See {IERC721Metadata-symbol}."
      },
      "tokenByIndex(uint256)": {
        "details": "See {IERC721Enumerable-tokenByIndex}."
      },
      "tokenOfOwnerByIndex(address,uint256)": {
        "details": "See {IERC721Enumerable-tokenOfOwnerByIndex}."
      },
      "tokenURI(uint256)": {
        "details": "See {IERC721Metadata-tokenURI}."
      },
      "totalSupply()": {
        "details": "See {IERC721Enumerable-totalSupply}."
      },
      "transferFrom(address,address,uint256)": {
        "details": "See {IERC721-transferFrom}."
      },
      "transferOwnership(address)": {
        "details": "Transfers ownership of the contract to a new account (`newOwner`). Can only be called by the current owner."
      }
    },
    "version": 1
  },
  "userdoc": {
    "kind": "user",
    "methods": {},
    "version": 1
  }
}